{
    "tests/prague/eip7692_eof_v1/eip7069_extcall/test_gas.py::test_ext_calls_gas[fork_CancunEIP7692-state_test-EXTCALL]": {
        "env": {
            "currentCoinbase": "0x2adc25665018aa1fe0e6bc666dac8fc2697ff9ba",
            "currentGasLimit": "0x016345785d8a0000",
            "currentNumber": "0x01",
            "currentTimestamp": "0x03e8",
            "currentRandom": "0x0000000000000000000000000000000000000000000000000000000000000000",
            "currentDifficulty": "0x00",
            "currentBaseFee": "0x07",
            "currentExcessBlobGas": "0x00"
        },
        "pre": {
            "0x0000000000000000000000000000000000001000": {
                "nonce": "0x01",
                "balance": "0x00",
                "code": "0xef00010100040200010001040000000080000000",
                "storage": {}
            },
            "0xa94f5374fce5edbc8e2a8697c15331677e6ebf0b": {
                "nonce": "0x00",
                "balance": "0x0de0b6b3a7640000",
                "code": "0x",
                "storage": {}
            },
            "0x0000000000000000000000000000000000001100": {
                "nonce": "0x01",
                "balance": "0x00",
                "code": "0xef0001010004020001001904000000008000045f5f5f73000000000000000000000000000000000000100000",
                "storage": {}
            },
            "0x0000000000000000000000000000000000001200": {
                "nonce": "0x01",
                "balance": "0x00",
                "code": "0xef0001010004020001001a04000000008000045f5f5f730000000000000000000000000000000000001000f800",
                "storage": {}
            },
            "0x0000000000000000000000000000000000001300": {
                "nonce": "0x01",
                "balance": "0x00",
                "code": "0x611200315061110031505a600060006000600060006112006207a120f1505a90035a600060006000600060006111006207a120f1505a90035a600060006000600060006112006207a120f1505a900381900361000c55900361000b5500",
                "storage": {}
            }
        },
        "transaction": {
            "nonce": "0x00",
            "gasPrice": "0x0a",
            "gasLimit": [
                "0x1e8480"
            ],
            "to": "0x0000000000000000000000000000000000001300",
            "value": [
                "0x00"
            ],
            "data": [
                "0x"
            ],
            "sender": "0xa94f5374fce5edbc8e2a8697c15331677e6ebf0b",
            "secretKey": "0x45a915e4d060149eb4365960e6a7a45f334393093061116b197e3240065ff2d8"
        },
        "post": {
            "Prague": [
                {
                    "hash": "0x1cff5a1715105c88d1813b8f1a5aa3b96a1f2263e29ea3a0465230a4cc4eceb1",
                    "logs": "0x1dcc4de8dec75d7aab85b567b6ccd41ad312451b948a7413f0a142fd40d49347",
                    "txbytes": "0xf860800a831e8480940000000000000000000000000000000000001300808025a0ff007e50ab2c3716e3bff62281b2ec031dd155c0f735510fe3fcfc7ee75d6224a06e9f9cc74bb9dc1431882fc17f668cc4642d23b672baff108e5d06b46533e2d3",
                    "indexes": {
                        "data": 0,
                        "gas": 0,
                        "value": 0
                    }
                }
            ]
        },
        "_info": {
            "hash": "0x36261ee971863eb1e4c7110270d94a84a55e1d957ca2b110822ac8eb5e53b926",
            "comment": "`execution-spec-tests` generated test",
            "filling-transition-tool": "evmone-t8n 0.12.0-6+commit.2d20cc63.dirty",
            "description": "Test function documentation:\nTests 4 variations of EXT*CALL gas, both warm and cold",
            "url": "https://github.com/ethereum/execution-spec-tests/blob/60b2036d3a8090e36595948846578af102666e65/tests/prague/eip7692_eof_v1/eip7069_extcall/test_gas.py#L113",
            "reference-spec": "https://github.com/ethereum/EIPs/blob/master/EIPS/eip-7069.md",
            "reference-spec-version": "1795943aeacc86131d5ab6bb3d65824b3b1d4cad"
        }
    },
    "tests/prague/eip7692_eof_v1/eip7069_extcall/test_gas.py::test_ext_calls_gas[fork_CancunEIP7692-state_test-EXTCALL_with_value]": {
        "env": {
            "currentCoinbase": "0x2adc25665018aa1fe0e6bc666dac8fc2697ff9ba",
            "currentGasLimit": "0x016345785d8a0000",
            "currentNumber": "0x01",
            "currentTimestamp": "0x03e8",
            "currentRandom": "0x0000000000000000000000000000000000000000000000000000000000000000",
            "currentDifficulty": "0x00",
            "currentBaseFee": "0x07",
            "currentExcessBlobGas": "0x00"
        },
        "pre": {
            "0x0000000000000000000000000000000000001000": {
                "nonce": "0x01",
                "balance": "0x00",
                "code": "0xef00010100040200010001040000000080000000",
                "storage": {}
            },
            "0xa94f5374fce5edbc8e2a8697c15331677e6ebf0b": {
                "nonce": "0x00",
                "balance": "0x0de0b6b3a7640000",
                "code": "0x",
                "storage": {}
            },
            "0x0000000000000000000000000000000000001100": {
                "nonce": "0x01",
                "balance": "0x00",
                "code": "0xef0001010004020001001a040000000080000460015f5f73000000000000000000000000000000000000100000",
                "storage": {}
            },
            "0x0000000000000000000000000000000000001200": {
                "nonce": "0x01",
                "balance": "0x00",
                "code": "0xef0001010004020001001b040000000080000460015f5f730000000000000000000000000000000000001000f800",
                "storage": {}
            },
            "0x0000000000000000000000000000000000001300": {
                "nonce": "0x01",
                "balance": "0x00",
                "code": "0x611200315061110031505a600060006000600060006112006207a120f1505a90035a600060006000600060006111006207a120f1505a90035a600060006000600060006112006207a120f1505a900381900361000c55900361000b5500",
                "storage": {}
            }
        },
        "transaction": {
            "nonce": "0x00",
            "gasPrice": "0x0a",
            "gasLimit": [
                "0x1e8480"
            ],
            "to": "0x0000000000000000000000000000000000001300",
            "value": [
                "0x00"
            ],
            "data": [
                "0x"
            ],
            "sender": "0xa94f5374fce5edbc8e2a8697c15331677e6ebf0b",
            "secretKey": "0x45a915e4d060149eb4365960e6a7a45f334393093061116b197e3240065ff2d8"
        },
        "post": {
            "Prague": [
                {
                    "hash": "0x4b38dad460b0131291231824eca1245e594b2467bf6b122b14c3ff084d5a23c1",
                    "logs": "0x1dcc4de8dec75d7aab85b567b6ccd41ad312451b948a7413f0a142fd40d49347",
                    "txbytes": "0xf860800a831e8480940000000000000000000000000000000000001300808025a0ff007e50ab2c3716e3bff62281b2ec031dd155c0f735510fe3fcfc7ee75d6224a06e9f9cc74bb9dc1431882fc17f668cc4642d23b672baff108e5d06b46533e2d3",
                    "indexes": {
                        "data": 0,
                        "gas": 0,
                        "value": 0
                    }
                }
            ]
        },
        "_info": {
            "hash": "0xd9cbe7907abff38de794c06c9d78370e71a5d6677a31a3f692a76b0126ddfb0e",
            "comment": "`execution-spec-tests` generated test",
            "filling-transition-tool": "evmone-t8n 0.12.0-6+commit.2d20cc63.dirty",
            "description": "Test function documentation:\nTests 4 variations of EXT*CALL gas, both warm and cold",
            "url": "https://github.com/ethereum/execution-spec-tests/blob/60b2036d3a8090e36595948846578af102666e65/tests/prague/eip7692_eof_v1/eip7069_extcall/test_gas.py#L113",
            "reference-spec": "https://github.com/ethereum/EIPs/blob/master/EIPS/eip-7069.md",
            "reference-spec-version": "1795943aeacc86131d5ab6bb3d65824b3b1d4cad"
        }
    },
    "tests/prague/eip7692_eof_v1/eip7069_extcall/test_gas.py::test_ext_calls_gas[fork_CancunEIP7692-state_test-EXTSTATICCALL]": {
        "env": {
            "currentCoinbase": "0x2adc25665018aa1fe0e6bc666dac8fc2697ff9ba",
            "currentGasLimit": "0x016345785d8a0000",
            "currentNumber": "0x01",
            "currentTimestamp": "0x03e8",
            "currentRandom": "0x0000000000000000000000000000000000000000000000000000000000000000",
            "currentDifficulty": "0x00",
            "currentBaseFee": "0x07",
            "currentExcessBlobGas": "0x00"
        },
        "pre": {
            "0x0000000000000000000000000000000000001000": {
                "nonce": "0x01",
                "balance": "0x00",
                "code": "0xef00010100040200010001040000000080000000",
                "storage": {}
            },
            "0xa94f5374fce5edbc8e2a8697c15331677e6ebf0b": {
                "nonce": "0x00",
                "balance": "0x0de0b6b3a7640000",
                "code": "0x",
                "storage": {}
            },
            "0x0000000000000000000000000000000000001100": {
                "nonce": "0x01",
                "balance": "0x00",
                "code": "0xef0001010004020001001904000000008000035b5f5f73000000000000000000000000000000000000100000",
                "storage": {}
            },
            "0x0000000000000000000000000000000000001200": {
                "nonce": "0x01",
                "balance": "0x00",
                "code": "0xef0001010004020001001a04000000008000035b5f5f730000000000000000000000000000000000001000f900",
                "storage": {}
            },
            "0x0000000000000000000000000000000000001300": {
                "nonce": "0x01",
                "balance": "0x00",
                "code": "0x611200315061110031505a600060006000600060006112006207a120f1505a90035a600060006000600060006111006207a120f1505a90035a600060006000600060006112006207a120f1505a900381900361000c55900361000b5500",
                "storage": {}
            }
        },
        "transaction": {
            "nonce": "0x00",
            "gasPrice": "0x0a",
            "gasLimit": [
                "0x1e8480"
            ],
            "to": "0x0000000000000000000000000000000000001300",
            "value": [
                "0x00"
            ],
            "data": [
                "0x"
            ],
            "sender": "0xa94f5374fce5edbc8e2a8697c15331677e6ebf0b",
            "secretKey": "0x45a915e4d060149eb4365960e6a7a45f334393093061116b197e3240065ff2d8"
        },
        "post": {
            "Prague": [
                {
                    "hash": "0x833a40ff61476777c3154bd1623416983547c237973742c5f9c23eccdbaac3bb",
                    "logs": "0x1dcc4de8dec75d7aab85b567b6ccd41ad312451b948a7413f0a142fd40d49347",
                    "txbytes": "0xf860800a831e8480940000000000000000000000000000000000001300808025a0ff007e50ab2c3716e3bff62281b2ec031dd155c0f735510fe3fcfc7ee75d6224a06e9f9cc74bb9dc1431882fc17f668cc4642d23b672baff108e5d06b46533e2d3",
                    "indexes": {
                        "data": 0,
                        "gas": 0,
                        "value": 0
                    }
                }
            ]
        },
        "_info": {
            "hash": "0x27e65bd790405086cfd44c7c39546ffa56b506768105c3ecc80ff2455f0834fb",
            "comment": "`execution-spec-tests` generated test",
            "filling-transition-tool": "evmone-t8n 0.12.0-6+commit.2d20cc63.dirty",
            "description": "Test function documentation:\nTests 4 variations of EXT*CALL gas, both warm and cold",
            "url": "https://github.com/ethereum/execution-spec-tests/blob/60b2036d3a8090e36595948846578af102666e65/tests/prague/eip7692_eof_v1/eip7069_extcall/test_gas.py#L113",
            "reference-spec": "https://github.com/ethereum/EIPs/blob/master/EIPS/eip-7069.md",
            "reference-spec-version": "1795943aeacc86131d5ab6bb3d65824b3b1d4cad"
        }
    },
    "tests/prague/eip7692_eof_v1/eip7069_extcall/test_gas.py::test_ext_calls_gas[fork_CancunEIP7692-state_test-EXTDELEGATECALL]": {
        "env": {
            "currentCoinbase": "0x2adc25665018aa1fe0e6bc666dac8fc2697ff9ba",
            "currentGasLimit": "0x016345785d8a0000",
            "currentNumber": "0x01",
            "currentTimestamp": "0x03e8",
            "currentRandom": "0x0000000000000000000000000000000000000000000000000000000000000000",
            "currentDifficulty": "0x00",
            "currentBaseFee": "0x07",
            "currentExcessBlobGas": "0x00"
        },
        "pre": {
            "0x0000000000000000000000000000000000001000": {
                "nonce": "0x01",
                "balance": "0x00",
                "code": "0xef00010100040200010001040000000080000000",
                "storage": {}
            },
            "0xa94f5374fce5edbc8e2a8697c15331677e6ebf0b": {
                "nonce": "0x00",
                "balance": "0x0de0b6b3a7640000",
                "code": "0x",
                "storage": {}
            },
            "0x0000000000000000000000000000000000001100": {
                "nonce": "0x01",
                "balance": "0x00",
                "code": "0xef0001010004020001001904000000008000035b5f5f73000000000000000000000000000000000000100000",
                "storage": {}
            },
            "0x0000000000000000000000000000000000001200": {
                "nonce": "0x01",
                "balance": "0x00",
                "code": "0xef0001010004020001001a04000000008000035b5f5f730000000000000000000000000000000000001000fb00",
                "storage": {}
            },
            "0x0000000000000000000000000000000000001300": {
                "nonce": "0x01",
                "balance": "0x00",
                "code": "0x611200315061110031505a600060006000600060006112006207a120f1505a90035a600060006000600060006111006207a120f1505a90035a600060006000600060006112006207a120f1505a900381900361000c55900361000b5500",
                "storage": {}
            }
        },
        "transaction": {
            "nonce": "0x00",
            "gasPrice": "0x0a",
            "gasLimit": [
                "0x1e8480"
            ],
            "to": "0x0000000000000000000000000000000000001300",
            "value": [
                "0x00"
            ],
            "data": [
                "0x"
            ],
            "sender": "0xa94f5374fce5edbc8e2a8697c15331677e6ebf0b",
            "secretKey": "0x45a915e4d060149eb4365960e6a7a45f334393093061116b197e3240065ff2d8"
        },
        "post": {
            "Prague": [
                {
                    "hash": "0x859beda095c268a1f6c396a91d89f8899131963528a2efa3e504879ae9813139",
                    "logs": "0x1dcc4de8dec75d7aab85b567b6ccd41ad312451b948a7413f0a142fd40d49347",
                    "txbytes": "0xf860800a831e8480940000000000000000000000000000000000001300808025a0ff007e50ab2c3716e3bff62281b2ec031dd155c0f735510fe3fcfc7ee75d6224a06e9f9cc74bb9dc1431882fc17f668cc4642d23b672baff108e5d06b46533e2d3",
                    "indexes": {
                        "data": 0,
                        "gas": 0,
                        "value": 0
                    }
                }
            ]
        },
        "_info": {
            "hash": "0xdb1a56e1cd00d254b4b85eda231ab6538a0637181c391bd873a0e66a770dc8c3",
            "comment": "`execution-spec-tests` generated test",
            "filling-transition-tool": "evmone-t8n 0.12.0-6+commit.2d20cc63.dirty",
            "description": "Test function documentation:\nTests 4 variations of EXT*CALL gas, both warm and cold",
            "url": "https://github.com/ethereum/execution-spec-tests/blob/60b2036d3a8090e36595948846578af102666e65/tests/prague/eip7692_eof_v1/eip7069_extcall/test_gas.py#L113",
            "reference-spec": "https://github.com/ethereum/EIPs/blob/master/EIPS/eip-7069.md",
            "reference-spec-version": "1795943aeacc86131d5ab6bb3d65824b3b1d4cad"
        }
    }
}