{
    "tests/berlin/eip2930_access_list/test_acl.py::test_access_list[fork_Berlin-state_test]": {
        "env": {
            "currentCoinbase": "0x2adc25665018aa1fe0e6bc666dac8fc2697ff9ba",
            "currentGasLimit": "0x016345785d8a0000",
            "currentNumber": "0x01",
            "currentTimestamp": "0x03e8",
            "currentDifficulty": "0x020000"
        },
        "pre": {
            "0x0000000000000000000000000000000000001000": {
                "nonce": "0x01",
                "balance": "0x03",
                "code": "0x5854505854",
                "storage": {}
            },
            "0xa94f5374fce5edbc8e2a8697c15331677e6ebf0b": {
                "nonce": "0x00",
                "balance": "0x300000",
                "code": "0x",
                "storage": {}
            }
        },
        "transaction": {
            "nonce": "0x00",
            "gasPrice": "0x07",
            "gasLimit": [
                "0x04ef00"
            ],
            "to": "0x0000000000000000000000000000000000001000",
            "value": [
                "0x01"
            ],
            "data": [
                "0x"
            ],
            "accessLists": [
                [
                    {
                        "address": "0x0000000000000000000000000000000000000000",
                        "storageKeys": [
                            "0x0000000000000000000000000000000000000000000000000000000000000000"
                        ]
                    }
                ]
            ],
            "sender": "0xa94f5374fce5edbc8e2a8697c15331677e6ebf0b",
            "secretKey": "0x45a915e4d060149eb4365960e6a7a45f334393093061116b197e3240065ff2d8"
        },
        "post": {
            "Berlin": [
                {
                    "hash": "0xe37a129451ac1b95298605dede1c5f13b5935f5d43cf652cdd396b0f041b4c6f",
                    "logs": "0x1dcc4de8dec75d7aab85b567b6ccd41ad312451b948a7413f0a142fd40d49347",
                    "txbytes": "0x01f89b0180078304ef009400000000000000000000000000000000000010000180f838f7940000000000000000000000000000000000000000e1a0000000000000000000000000000000000000000000000000000000000000000080a081a25ffdb3797e6428f854c642e1884ee7b7be0c4ccbb7e989b70039b87e4450a02d25e40f45271d5f77735d06550dff43bf328190de034157cefec446855513d6",
                    "indexes": {
                        "data": 0,
                        "gas": 0,
                        "value": 0
                    }
                }
            ]
        },
        "_info": {
            "hash": "0x5198d2743e894f98752247f8d707c7ff170fbbe091f5742e8106f091a415bd73",
            "comment": "`execution-spec-tests` generated test",
            "filling-transition-tool": "evm version 1.14.6-unstable-7e5dd44a-20240705",
            "description": "Test function documentation:\n\n    Test type 1 transaction.",
            "url": "https://github.com/ethereum/execution-spec-tests/blob/devnet-1@v1.3.0/tests/berlin/eip2930_access_list/test_acl.py#L15",
            "reference-spec": "https://github.com/ethereum/EIPs/blob/master/EIPS/eip-2930.md",
            "reference-spec-version": "c9db53a936c5c9cbe2db32ba0d1b86c4c6e73534"
        }
    },
    "tests/berlin/eip2930_access_list/test_acl.py::test_access_list[fork_London-state_test]": {
        "env": {
            "currentCoinbase": "0x2adc25665018aa1fe0e6bc666dac8fc2697ff9ba",
            "currentGasLimit": "0x016345785d8a0000",
            "currentNumber": "0x01",
            "currentTimestamp": "0x03e8",
            "currentDifficulty": "0x020000",
            "currentBaseFee": "0x07"
        },
        "pre": {
            "0x0000000000000000000000000000000000001000": {
                "nonce": "0x01",
                "balance": "0x03",
                "code": "0x5854505854",
                "storage": {}
            },
            "0xa94f5374fce5edbc8e2a8697c15331677e6ebf0b": {
                "nonce": "0x00",
                "balance": "0x300000",
                "code": "0x",
                "storage": {}
            }
        },
        "transaction": {
            "nonce": "0x00",
            "gasPrice": "0x07",
            "gasLimit": [
                "0x04ef00"
            ],
            "to": "0x0000000000000000000000000000000000001000",
            "value": [
                "0x01"
            ],
            "data": [
                "0x"
            ],
            "accessLists": [
                [
                    {
                        "address": "0x0000000000000000000000000000000000000000",
                        "storageKeys": [
                            "0x0000000000000000000000000000000000000000000000000000000000000000"
                        ]
                    }
                ]
            ],
            "sender": "0xa94f5374fce5edbc8e2a8697c15331677e6ebf0b",
            "secretKey": "0x45a915e4d060149eb4365960e6a7a45f334393093061116b197e3240065ff2d8"
        },
        "post": {
            "London": [
                {
                    "hash": "0xbba7329a789fb21eec852df40d72d9cdfdc51c993c77183b610e962210c819f6",
                    "logs": "0x1dcc4de8dec75d7aab85b567b6ccd41ad312451b948a7413f0a142fd40d49347",
                    "txbytes": "0x01f89b0180078304ef009400000000000000000000000000000000000010000180f838f7940000000000000000000000000000000000000000e1a0000000000000000000000000000000000000000000000000000000000000000080a081a25ffdb3797e6428f854c642e1884ee7b7be0c4ccbb7e989b70039b87e4450a02d25e40f45271d5f77735d06550dff43bf328190de034157cefec446855513d6",
                    "indexes": {
                        "data": 0,
                        "gas": 0,
                        "value": 0
                    }
                }
            ]
        },
        "_info": {
            "hash": "0x52b575c8e7ae96891e555a72b48539edb74912f4d3c75b4b3404b847bedd1281",
            "comment": "`execution-spec-tests` generated test",
            "filling-transition-tool": "evm version 1.14.6-unstable-7e5dd44a-20240705",
            "description": "Test function documentation:\n\n    Test type 1 transaction.",
            "url": "https://github.com/ethereum/execution-spec-tests/blob/devnet-1@v1.3.0/tests/berlin/eip2930_access_list/test_acl.py#L15",
            "reference-spec": "https://github.com/ethereum/EIPs/blob/master/EIPS/eip-2930.md",
            "reference-spec-version": "c9db53a936c5c9cbe2db32ba0d1b86c4c6e73534"
        }
    },
    "tests/berlin/eip2930_access_list/test_acl.py::test_access_list[fork_Paris-state_test]": {
        "env": {
            "currentCoinbase": "0x2adc25665018aa1fe0e6bc666dac8fc2697ff9ba",
            "currentGasLimit": "0x016345785d8a0000",
            "currentNumber": "0x01",
            "currentTimestamp": "0x03e8",
            "currentRandom": "0x0000000000000000000000000000000000000000000000000000000000000000",
            "currentDifficulty": "0x00",
            "currentBaseFee": "0x07"
        },
        "pre": {
            "0x0000000000000000000000000000000000001000": {
                "nonce": "0x01",
                "balance": "0x03",
                "code": "0x5854505854",
                "storage": {}
            },
            "0xa94f5374fce5edbc8e2a8697c15331677e6ebf0b": {
                "nonce": "0x00",
                "balance": "0x300000",
                "code": "0x",
                "storage": {}
            }
        },
        "transaction": {
            "nonce": "0x00",
            "gasPrice": "0x07",
            "gasLimit": [
                "0x04ef00"
            ],
            "to": "0x0000000000000000000000000000000000001000",
            "value": [
                "0x01"
            ],
            "data": [
                "0x"
            ],
            "accessLists": [
                [
                    {
                        "address": "0x0000000000000000000000000000000000000000",
                        "storageKeys": [
                            "0x0000000000000000000000000000000000000000000000000000000000000000"
                        ]
                    }
                ]
            ],
            "sender": "0xa94f5374fce5edbc8e2a8697c15331677e6ebf0b",
            "secretKey": "0x45a915e4d060149eb4365960e6a7a45f334393093061116b197e3240065ff2d8"
        },
        "post": {
            "Paris": [
                {
                    "hash": "0xbba7329a789fb21eec852df40d72d9cdfdc51c993c77183b610e962210c819f6",
                    "logs": "0x1dcc4de8dec75d7aab85b567b6ccd41ad312451b948a7413f0a142fd40d49347",
                    "txbytes": "0x01f89b0180078304ef009400000000000000000000000000000000000010000180f838f7940000000000000000000000000000000000000000e1a0000000000000000000000000000000000000000000000000000000000000000080a081a25ffdb3797e6428f854c642e1884ee7b7be0c4ccbb7e989b70039b87e4450a02d25e40f45271d5f77735d06550dff43bf328190de034157cefec446855513d6",
                    "indexes": {
                        "data": 0,
                        "gas": 0,
                        "value": 0
                    }
                }
            ]
        },
        "_info": {
            "hash": "0xc80922dbe1d4276ddebbc68cd97dbe95654a511deb87a9ff895b2492060c77e6",
            "comment": "`execution-spec-tests` generated test",
            "filling-transition-tool": "evm version 1.14.6-unstable-7e5dd44a-20240705",
            "description": "Test function documentation:\n\n    Test type 1 transaction.",
            "url": "https://github.com/ethereum/execution-spec-tests/blob/devnet-1@v1.3.0/tests/berlin/eip2930_access_list/test_acl.py#L15",
            "reference-spec": "https://github.com/ethereum/EIPs/blob/master/EIPS/eip-2930.md",
            "reference-spec-version": "c9db53a936c5c9cbe2db32ba0d1b86c4c6e73534"
        }
    },
    "tests/berlin/eip2930_access_list/test_acl.py::test_access_list[fork_Shanghai-state_test]": {
        "env": {
            "currentCoinbase": "0x2adc25665018aa1fe0e6bc666dac8fc2697ff9ba",
            "currentGasLimit": "0x016345785d8a0000",
            "currentNumber": "0x01",
            "currentTimestamp": "0x03e8",
            "currentRandom": "0x0000000000000000000000000000000000000000000000000000000000000000",
            "currentDifficulty": "0x00",
            "currentBaseFee": "0x07"
        },
        "pre": {
            "0x0000000000000000000000000000000000001000": {
                "nonce": "0x01",
                "balance": "0x03",
                "code": "0x5854505854",
                "storage": {}
            },
            "0xa94f5374fce5edbc8e2a8697c15331677e6ebf0b": {
                "nonce": "0x00",
                "balance": "0x300000",
                "code": "0x",
                "storage": {}
            }
        },
        "transaction": {
            "nonce": "0x00",
            "gasPrice": "0x07",
            "gasLimit": [
                "0x04ef00"
            ],
            "to": "0x0000000000000000000000000000000000001000",
            "value": [
                "0x01"
            ],
            "data": [
                "0x"
            ],
            "accessLists": [
                [
                    {
                        "address": "0x0000000000000000000000000000000000000000",
                        "storageKeys": [
                            "0x0000000000000000000000000000000000000000000000000000000000000000"
                        ]
                    }
                ]
            ],
            "sender": "0xa94f5374fce5edbc8e2a8697c15331677e6ebf0b",
            "secretKey": "0x45a915e4d060149eb4365960e6a7a45f334393093061116b197e3240065ff2d8"
        },
        "post": {
            "Shanghai": [
                {
                    "hash": "0xbba7329a789fb21eec852df40d72d9cdfdc51c993c77183b610e962210c819f6",
                    "logs": "0x1dcc4de8dec75d7aab85b567b6ccd41ad312451b948a7413f0a142fd40d49347",
                    "txbytes": "0x01f89b0180078304ef009400000000000000000000000000000000000010000180f838f7940000000000000000000000000000000000000000e1a0000000000000000000000000000000000000000000000000000000000000000080a081a25ffdb3797e6428f854c642e1884ee7b7be0c4ccbb7e989b70039b87e4450a02d25e40f45271d5f77735d06550dff43bf328190de034157cefec446855513d6",
                    "indexes": {
                        "data": 0,
                        "gas": 0,
                        "value": 0
                    }
                }
            ]
        },
        "_info": {
            "hash": "0x620a4bab4200adbc85c396587b50bfd2b498467fc0623778e5de05d6950aa4e5",
            "comment": "`execution-spec-tests` generated test",
            "filling-transition-tool": "evm version 1.14.6-unstable-7e5dd44a-20240705",
            "description": "Test function documentation:\n\n    Test type 1 transaction.",
            "url": "https://github.com/ethereum/execution-spec-tests/blob/devnet-1@v1.3.0/tests/berlin/eip2930_access_list/test_acl.py#L15",
            "reference-spec": "https://github.com/ethereum/EIPs/blob/master/EIPS/eip-2930.md",
            "reference-spec-version": "c9db53a936c5c9cbe2db32ba0d1b86c4c6e73534"
        }
    },
    "tests/berlin/eip2930_access_list/test_acl.py::test_access_list[fork_Cancun-state_test]": {
        "env": {
            "currentCoinbase": "0x2adc25665018aa1fe0e6bc666dac8fc2697ff9ba",
            "currentGasLimit": "0x016345785d8a0000",
            "currentNumber": "0x01",
            "currentTimestamp": "0x03e8",
            "currentRandom": "0x0000000000000000000000000000000000000000000000000000000000000000",
            "currentDifficulty": "0x00",
            "currentBaseFee": "0x07",
            "currentExcessBlobGas": "0x00"
        },
        "pre": {
            "0x0000000000000000000000000000000000001000": {
                "nonce": "0x01",
                "balance": "0x03",
                "code": "0x5854505854",
                "storage": {}
            },
            "0xa94f5374fce5edbc8e2a8697c15331677e6ebf0b": {
                "nonce": "0x00",
                "balance": "0x300000",
                "code": "0x",
                "storage": {}
            }
        },
        "transaction": {
            "nonce": "0x00",
            "gasPrice": "0x07",
            "gasLimit": [
                "0x04ef00"
            ],
            "to": "0x0000000000000000000000000000000000001000",
            "value": [
                "0x01"
            ],
            "data": [
                "0x"
            ],
            "accessLists": [
                [
                    {
                        "address": "0x0000000000000000000000000000000000000000",
                        "storageKeys": [
                            "0x0000000000000000000000000000000000000000000000000000000000000000"
                        ]
                    }
                ]
            ],
            "sender": "0xa94f5374fce5edbc8e2a8697c15331677e6ebf0b",
            "secretKey": "0x45a915e4d060149eb4365960e6a7a45f334393093061116b197e3240065ff2d8"
        },
        "post": {
            "Cancun": [
                {
                    "hash": "0xbba7329a789fb21eec852df40d72d9cdfdc51c993c77183b610e962210c819f6",
                    "logs": "0x1dcc4de8dec75d7aab85b567b6ccd41ad312451b948a7413f0a142fd40d49347",
                    "txbytes": "0x01f89b0180078304ef009400000000000000000000000000000000000010000180f838f7940000000000000000000000000000000000000000e1a0000000000000000000000000000000000000000000000000000000000000000080a081a25ffdb3797e6428f854c642e1884ee7b7be0c4ccbb7e989b70039b87e4450a02d25e40f45271d5f77735d06550dff43bf328190de034157cefec446855513d6",
                    "indexes": {
                        "data": 0,
                        "gas": 0,
                        "value": 0
                    }
                }
            ]
        },
        "_info": {
            "hash": "0x0f227a707f9c7a1e7d06451d8e1614c7d847b478a8c48764428a3eec468540b4",
            "comment": "`execution-spec-tests` generated test",
            "filling-transition-tool": "evm version 1.14.6-unstable-7e5dd44a-20240705",
            "description": "Test function documentation:\n\n    Test type 1 transaction.",
            "url": "https://github.com/ethereum/execution-spec-tests/blob/devnet-1@v1.3.0/tests/berlin/eip2930_access_list/test_acl.py#L15",
            "reference-spec": "https://github.com/ethereum/EIPs/blob/master/EIPS/eip-2930.md",
            "reference-spec-version": "c9db53a936c5c9cbe2db32ba0d1b86c4c6e73534"
        }
    },
    "tests/berlin/eip2930_access_list/test_acl.py::test_access_list[fork_Prague-state_test]": {
        "env": {
            "currentCoinbase": "0x2adc25665018aa1fe0e6bc666dac8fc2697ff9ba",
            "currentGasLimit": "0x016345785d8a0000",
            "currentNumber": "0x01",
            "currentTimestamp": "0x03e8",
            "currentRandom": "0x0000000000000000000000000000000000000000000000000000000000000000",
            "currentDifficulty": "0x00",
            "currentBaseFee": "0x07",
            "currentExcessBlobGas": "0x00"
        },
        "pre": {
            "0x0000000000000000000000000000000000001000": {
                "nonce": "0x01",
                "balance": "0x03",
                "code": "0x5854505854",
                "storage": {}
            },
            "0xa94f5374fce5edbc8e2a8697c15331677e6ebf0b": {
                "nonce": "0x00",
                "balance": "0x300000",
                "code": "0x",
                "storage": {}
            }
        },
        "transaction": {
            "nonce": "0x00",
            "gasPrice": "0x07",
            "gasLimit": [
                "0x04ef00"
            ],
            "to": "0x0000000000000000000000000000000000001000",
            "value": [
                "0x01"
            ],
            "data": [
                "0x"
            ],
            "accessLists": [
                [
                    {
                        "address": "0x0000000000000000000000000000000000000000",
                        "storageKeys": [
                            "0x0000000000000000000000000000000000000000000000000000000000000000"
                        ]
                    }
                ]
            ],
            "sender": "0xa94f5374fce5edbc8e2a8697c15331677e6ebf0b",
            "secretKey": "0x45a915e4d060149eb4365960e6a7a45f334393093061116b197e3240065ff2d8"
        },
        "post": {
            "Prague": [
                {
                    "hash": "0xbba7329a789fb21eec852df40d72d9cdfdc51c993c77183b610e962210c819f6",
                    "logs": "0x1dcc4de8dec75d7aab85b567b6ccd41ad312451b948a7413f0a142fd40d49347",
                    "txbytes": "0x01f89b0180078304ef009400000000000000000000000000000000000010000180f838f7940000000000000000000000000000000000000000e1a0000000000000000000000000000000000000000000000000000000000000000080a081a25ffdb3797e6428f854c642e1884ee7b7be0c4ccbb7e989b70039b87e4450a02d25e40f45271d5f77735d06550dff43bf328190de034157cefec446855513d6",
                    "indexes": {
                        "data": 0,
                        "gas": 0,
                        "value": 0
                    }
                }
            ]
        },
        "_info": {
            "hash": "0x398e2b06c420d105024fdaf2cb8d718dca2263da0a1c71b97119cc3bf156a611",
            "comment": "`execution-spec-tests` generated test",
            "filling-transition-tool": "evm version 1.14.6-unstable-7e5dd44a-20240705",
            "description": "Test function documentation:\n\n    Test type 1 transaction.",
            "url": "https://github.com/ethereum/execution-spec-tests/blob/devnet-1@v1.3.0/tests/berlin/eip2930_access_list/test_acl.py#L15",
            "reference-spec": "https://github.com/ethereum/EIPs/blob/master/EIPS/eip-2930.md",
            "reference-spec-version": "c9db53a936c5c9cbe2db32ba0d1b86c4c6e73534"
        }
    }
}