{
    "tests/prague/eip2537_bls_12_381_precompiles/test_bls12_map_fp_to_g1.py::test_gas[fork_Prague-state_test-extra_gas-]": {
        "env": {
            "currentCoinbase": "0x2adc25665018aa1fe0e6bc666dac8fc2697ff9ba",
            "currentGasLimit": "0x016345785d8a0000",
            "currentNumber": "0x01",
            "currentTimestamp": "0x03e8",
            "currentRandom": "0x0000000000000000000000000000000000000000000000000000000000000000",
            "currentDifficulty": "0x00",
            "currentBaseFee": "0x07",
            "currentExcessBlobGas": "0x00"
        },
        "pre": {
            "0x0000000000000000000000000000000000001000": {
                "nonce": "0x01",
                "balance": "0x00",
                "code": "0x366000600037600060003660006000601261157df16001553d6002553d600060003e3d600020600355",
                "storage": {}
            },
            "0xa94f5374fce5edbc8e2a8697c15331677e6ebf0b": {
                "nonce": "0x00",
                "balance": "0x038d7ea4c68000",
                "code": "0x",
                "storage": {}
            }
        },
        "transaction": {
            "nonce": "0x00",
            "gasPrice": "0x0a",
            "gasLimit": [
                "0x98abfc"
            ],
            "to": "0x0000000000000000000000000000000000001000",
            "value": [
                "0x00"
            ],
            "data": [
                "0x00000000000000000000000000000000000000000000000000000000000000000000000000000000000000000000000000000000000000000000000000000000"
            ],
            "sender": "0xa94f5374fce5edbc8e2a8697c15331677e6ebf0b",
            "secretKey": "0x45a915e4d060149eb4365960e6a7a45f334393093061116b197e3240065ff2d8"
        },
        "post": {
            "Prague": [
                {
                    "hash": "0xf0c09e74ad6d85d4ae43ecdd4cb289c8082bc46bb66aaab3fa63ccd86a211a31",
                    "logs": "0x1dcc4de8dec75d7aab85b567b6ccd41ad312451b948a7413f0a142fd40d49347",
                    "txbytes": "0xf8a1800a8398abfc94000000000000000000000000000000000000100080b8400000000000000000000000000000000000000000000000000000000000000000000000000000000000000000000000000000000000000000000000000000000026a0807adbd2954fba3657079a76ae307843262a8101918d3c3be638378a403c7b98a04b4dc294989dddff565ccbe2db44aee6c29aa7102f4ada0f6c0905eafeda3d70",
                    "indexes": {
                        "data": 0,
                        "gas": 0,
                        "value": 0
                    }
                }
            ]
        },
        "_info": {
            "hash": "0x9bec5d992763496405445655928af0aecfe64eb277360452885c3f326fa568ba",
            "comment": "`execution-spec-tests` generated test",
            "filling-transition-tool": "evm version 1.14.6-unstable-7e5dd44a-20240705",
            "description": "Test function documentation:\n\n    Test the BLS12_MAP_FP_TO_G1 precompile gas requirements.",
            "url": "https://github.com/ethereum/execution-spec-tests/blob/devnet-1@v1.3.0/tests/prague/eip2537_bls_12_381_precompiles/test_bls12_map_fp_to_g1.py#L97",
            "reference-spec": "https://github.com/ethereum/EIPs/blob/master/EIPS/eip-2537.md",
            "reference-spec-version": "cd0f016ad0c4c68b8b1f5c502ef61ab9353b6e5e"
        }
    },
    "tests/prague/eip2537_bls_12_381_precompiles/test_bls12_map_fp_to_g1.py::test_gas[fork_Prague-state_test-insufficient_gas-]": {
        "env": {
            "currentCoinbase": "0x2adc25665018aa1fe0e6bc666dac8fc2697ff9ba",
            "currentGasLimit": "0x016345785d8a0000",
            "currentNumber": "0x01",
            "currentTimestamp": "0x03e8",
            "currentRandom": "0x0000000000000000000000000000000000000000000000000000000000000000",
            "currentDifficulty": "0x00",
            "currentBaseFee": "0x07",
            "currentExcessBlobGas": "0x00"
        },
        "pre": {
            "0x0000000000000000000000000000000000001000": {
                "nonce": "0x01",
                "balance": "0x00",
                "code": "0x366000600037600060003660006000601261157bf16001553d600255",
                "storage": {}
            },
            "0xa94f5374fce5edbc8e2a8697c15331677e6ebf0b": {
                "nonce": "0x00",
                "balance": "0x038d7ea4c68000",
                "code": "0x",
                "storage": {}
            }
        },
        "transaction": {
            "nonce": "0x00",
            "gasPrice": "0x0a",
            "gasLimit": [
                "0x98abfc"
            ],
            "to": "0x0000000000000000000000000000000000001000",
            "value": [
                "0x00"
            ],
            "data": [
                "0x00000000000000000000000000000000000000000000000000000000000000000000000000000000000000000000000000000000000000000000000000000000"
            ],
            "sender": "0xa94f5374fce5edbc8e2a8697c15331677e6ebf0b",
            "secretKey": "0x45a915e4d060149eb4365960e6a7a45f334393093061116b197e3240065ff2d8"
        },
        "post": {
            "Prague": [
                {
                    "hash": "0x4c4813774e2b19aa27b55ada77c2a5007f23c5b907218665e47983470b0825cc",
                    "logs": "0x1dcc4de8dec75d7aab85b567b6ccd41ad312451b948a7413f0a142fd40d49347",
                    "txbytes": "0xf8a1800a8398abfc94000000000000000000000000000000000000100080b8400000000000000000000000000000000000000000000000000000000000000000000000000000000000000000000000000000000000000000000000000000000026a0807adbd2954fba3657079a76ae307843262a8101918d3c3be638378a403c7b98a04b4dc294989dddff565ccbe2db44aee6c29aa7102f4ada0f6c0905eafeda3d70",
                    "indexes": {
                        "data": 0,
                        "gas": 0,
                        "value": 0
                    }
                }
            ]
        },
        "_info": {
            "hash": "0xefa735dbc998ee6a3e2f03b8a2f0bab121abfe0a3110f3daee9626f1ec78e6f7",
            "comment": "`execution-spec-tests` generated test",
            "filling-transition-tool": "evm version 1.14.6-unstable-7e5dd44a-20240705",
            "description": "Test function documentation:\n\n    Test the BLS12_MAP_FP_TO_G1 precompile gas requirements.",
            "url": "https://github.com/ethereum/execution-spec-tests/blob/devnet-1@v1.3.0/tests/prague/eip2537_bls_12_381_precompiles/test_bls12_map_fp_to_g1.py#L97",
            "reference-spec": "https://github.com/ethereum/EIPs/blob/master/EIPS/eip-2537.md",
            "reference-spec-version": "cd0f016ad0c4c68b8b1f5c502ef61ab9353b6e5e"
        }
    }
}