{
    "sstoreGas_d0g0v0_Berlin": {
        "_info": {
            "comment": "Ori Pomerantz qbzzt1@gmail.com",
            "filling-rpc-server": "evm version 1.14.0-unstable-d8e0807d-20240306",
            "filling-tool-version": "retesteth-0.3.2-cancun+commit.a599ee61.Linux.g++",
            "generatedTestHash": "d99c8844a80b71cddb79be023149a3a8212c20addf5e2fe788d9f5293d222aba",
            "lllcversion": "Version: 0.5.14-develop.2023.7.11+commit.c58ab2c6.mod.Linux.g++",
            "solidity": "Version: 0.8.21+commit.d9974bed.Linux.g++",
            "source": "src/GeneralStateTestsFiller/stSStoreTest/sstoreGasFiller.yml",
            "sourceHash": "477793c569c21169009910b827b2c0dc68df86f9fae8a443aece58d2322a93f6"
        },
        "blocks": [
            {
                "blockHeader": {
                    "bloom": "0x00000000000000000000000000000000000000000000000000000000000000000000000000000000000000000000000000000000000000000000000000000000000000000000000000000000000000000000000000000000000000000000000000000000000000000000000000000000000000000000000000000000000000000000000000000000000000000000000000000000000000000000000000000000000000000000000000000000000000000000000000000000000000000000000000000000000000000000000000000000000000000000000000000000000000000000000000000000000000000000000000000000000000000000000000000000",
                    "coinbase": "0x2adc25665018aa1fe0e6bc666dac8fc2697ff9ba",
                    "difficulty": "0x020000",
                    "extraData": "0x00",
                    "gasLimit": "0x05f5e100",
                    "gasUsed": "0x0322c6",
                    "hash": "0xdaad1f0f802edb46645f59a8afde6cdd0e9fa38730b4109aa1ac37c532d29f13",
                    "mixHash": "0x0000000000000000000000000000000000000000000000000000000000000000",
                    "nonce": "0x0000000000000000",
                    "number": "0x01",
                    "parentHash": "0x9e96689fdf88744838c62af31828060f10ea0a04bd2259b20c6a1ebaec0924c9",
                    "receiptTrie": "0x4f1fdcaa1a7cfb9defd8fe47e9bcd4d3719f74cca1917b399a2739b2b7212c31",
                    "stateRoot": "0x35ba3df7856f271631ecbe7a17c25687504ff866b13e62e9eb56188841e26afa",
                    "timestamp": "0x03e8",
                    "transactionsTrie": "0x9bc30fb3d6066b94acd5d61baa16cef40722d5a5e56ebf9e13ea20a5c28a67df",
                    "uncleHash": "0x1dcc4de8dec75d7aab85b567b6ccd41ad312451b948a7413f0a142fd40d49347"
                },
                "rlp": "0xf90262f901f9a09e96689fdf88744838c62af31828060f10ea0a04bd2259b20c6a1ebaec0924c9a01dcc4de8dec75d7aab85b567b6ccd41ad312451b948a7413f0a142fd40d49347942adc25665018aa1fe0e6bc666dac8fc2697ff9baa035ba3df7856f271631ecbe7a17c25687504ff866b13e62e9eb56188841e26afaa09bc30fb3d6066b94acd5d61baa16cef40722d5a5e56ebf9e13ea20a5c28a67dfa04f1fdcaa1a7cfb9defd8fe47e9bcd4d3719f74cca1917b399a2739b2b7212c31b901000000000000000000000000000000000000000000000000000000000000000000000000000000000000000000000000000000000000000000000000000000000000000000000000000000000000000000000000000000000000000000000000000000000000000000000000000000000000000000000000000000000000000000000000000000000000000000000000000000000000000000000000000000000000000000000000000000000000000000000000000000000000000000000000000000000000000000000000000000000000000000000000000000000000000000000000000000000000000000000000000000000000000000000000000000000083020000018405f5e100830322c68203e800a00000000000000000000000000000000000000000000000000000000000000000880000000000000000f863f861010a8404c4b40094cccccccccccccccccccccccccccccccccccccccc80801ca0c350b3ab798c002a04635a82701307f1b6e07b2c432882028e8b7f03c3f18ff0a00a3bfc55ed560aacaee7792898bcb24517d26cbe685eec81ab9cef15ef1621abc0",
                "transactions": [
                    {
                        "data": "0x",
                        "gasLimit": "0x04c4b400",
                        "gasPrice": "0x0a",
                        "nonce": "0x01",
                        "r": "0xc350b3ab798c002a04635a82701307f1b6e07b2c432882028e8b7f03c3f18ff0",
                        "s": "0x0a3bfc55ed560aacaee7792898bcb24517d26cbe685eec81ab9cef15ef1621ab",
                        "sender": "0xa94f5374fce5edbc8e2a8697c15331677e6ebf0b",
                        "to": "0xcccccccccccccccccccccccccccccccccccccccc",
                        "v": "0x1c",
                        "value": "0x00"
                    }
                ],
                "uncleHeaders": []
            }
        ],
        "genesisBlockHeader": {
            "bloom": "0x00000000000000000000000000000000000000000000000000000000000000000000000000000000000000000000000000000000000000000000000000000000000000000000000000000000000000000000000000000000000000000000000000000000000000000000000000000000000000000000000000000000000000000000000000000000000000000000000000000000000000000000000000000000000000000000000000000000000000000000000000000000000000000000000000000000000000000000000000000000000000000000000000000000000000000000000000000000000000000000000000000000000000000000000000000000",
            "coinbase": "0x2adc25665018aa1fe0e6bc666dac8fc2697ff9ba",
            "difficulty": "0x020000",
            "extraData": "0x00",
            "gasLimit": "0x05f5e100",
            "gasUsed": "0x00",
            "hash": "0x9e96689fdf88744838c62af31828060f10ea0a04bd2259b20c6a1ebaec0924c9",
            "mixHash": "0x0000000000000000000000000000000000000000000000000000000000000000",
            "nonce": "0x0000000000000000",
            "number": "0x00",
            "parentHash": "0x0000000000000000000000000000000000000000000000000000000000000000",
            "receiptTrie": "0x56e81f171bcc55a6ff8345e692c0f86e5b48e01b996cadc001622fb5e363b421",
            "stateRoot": "0xd69a19cd48ce7d7dd97b4c1050b138760d6a2f196fe43ed20c16d28c7f5003ed",
            "timestamp": "0x00",
            "transactionsTrie": "0x56e81f171bcc55a6ff8345e692c0f86e5b48e01b996cadc001622fb5e363b421",
            "uncleHash": "0x1dcc4de8dec75d7aab85b567b6ccd41ad312451b948a7413f0a142fd40d49347"
        },
        "genesisRLP": "0xf901f9f901f4a00000000000000000000000000000000000000000000000000000000000000000a01dcc4de8dec75d7aab85b567b6ccd41ad312451b948a7413f0a142fd40d49347942adc25665018aa1fe0e6bc666dac8fc2697ff9baa0d69a19cd48ce7d7dd97b4c1050b138760d6a2f196fe43ed20c16d28c7f5003eda056e81f171bcc55a6ff8345e692c0f86e5b48e01b996cadc001622fb5e363b421a056e81f171bcc55a6ff8345e692c0f86e5b48e01b996cadc001622fb5e363b421b901000000000000000000000000000000000000000000000000000000000000000000000000000000000000000000000000000000000000000000000000000000000000000000000000000000000000000000000000000000000000000000000000000000000000000000000000000000000000000000000000000000000000000000000000000000000000000000000000000000000000000000000000000000000000000000000000000000000000000000000000000000000000000000000000000000000000000000000000000000000000000000000000000000000000000000000000000000000000000000000000000000000000000000000000000000000083020000808405f5e100808000a00000000000000000000000000000000000000000000000000000000000000000880000000000000000c0c0",
        "lastblockhash": "0xdaad1f0f802edb46645f59a8afde6cdd0e9fa38730b4109aa1ac37c532d29f13",
        "network": "Berlin",
        "postState": {
            "0x2adc25665018aa1fe0e6bc666dac8fc2697ff9ba": {
                "balance": "0x1bc16d674ee75bbc",
                "code": "0x",
                "nonce": "0x00",
                "storage": {}
            },
            "0xa94f5374fce5edbc8e2a8697c15331677e6ebf0b": {
                "balance": "0x0ba1a9ce0b824e12",
                "code": "0x",
                "nonce": "0x02",
                "storage": {}
            },
            "0xcccccccccccccccccccccccccccccccccccccccc": {
                "balance": "0x0ba1a9ce0ba1a9ce",
                "code": "0x600160088180808080808080611000895a61beef6000555a900303815501885a63deadbeef6000555a900303815501875a600080555a900303815501865a600080555a900303815501855a6112346000555a900303815501845a600084555a900303815501835a6160a76002555a900303815501825a60006003555a900303815501905a6160a76003555a900303815550506000805560006001556000600255600060035500",
                "nonce": "0x01",
                "storage": {
                    "0x1000": "0x1388",
                    "0x1001": "0x64",
                    "0x1002": "0x64",
                    "0x1003": "0x64",
                    "0x1004": "0x64",
                    "0x1005": "0x1388",
                    "0x1006": "0x5654",
                    "0x1007": "0x0898",
                    "0x1008": "0x4e20"
                }
            }
        },
        "pre": {
            "0xa94f5374fce5edbc8e2a8697c15331677e6ebf0b": {
                "balance": "0x0ba1a9ce0ba1a9ce",
                "code": "0x",
                "nonce": "0x01",
                "storage": {}
            },
            "0xcccccccccccccccccccccccccccccccccccccccc": {
                "balance": "0x0ba1a9ce0ba1a9ce",
                "code": "0x600160088180808080808080611000895a61beef6000555a900303815501885a63deadbeef6000555a900303815501875a600080555a900303815501865a600080555a900303815501855a6112346000555a900303815501845a600084555a900303815501835a6160a76002555a900303815501825a60006003555a900303815501905a6160a76003555a900303815550506000805560006001556000600255600060035500",
                "nonce": "0x01",
                "storage": {
                    "0x00": "0x60a7",
                    "0x01": "0x60a7"
                }
            }
        },
        "sealEngine": "NoProof"
    }
}