{
    "createLargeResult": {
        "_info": {
            "comment": "Ori Pomerantz   qbzzt1@gmail.com",
            "filling-rpc-server": "evm version 1.13.11-unstable-765f2904-20240124",
            "filling-tool-version": "retesteth-0.3.2-cancun+commit.ea13235b.Linux.g++",
            "generatedTestHash": "fcf12c6d923f90c0c79688549750999e963136b6dc0dccd8f8bde0a93fb6c13e",
            "labels": {
                "0": "CREATE-RETURN",
                "1": "CREATE2-RETURN",
                "10": "CREATE-REVERT-TOOBIG",
                "11": "CREATE2-REVERT-TOOBIG",
                "12": "CREATE-RETURN-HUGE",
                "13": "CREATE2-RETURN-HUGE",
                "14": "CREATE-REVERT-HUGE",
                "15": "CREATE2-REVERT-HUGE",
                "2": "CREATE-REVERT",
                "3": "CREATE2-REVERT",
                "4": "CREATE-RETURN-MAX",
                "5": "CREATE2-RETURN-MAX",
                "6": "CREATE-REVERT-MAX",
                "7": "CREATE2-REVERT-MAX",
                "8": "CREATE-RETURN-TOOBIG",
                "9": "CREATE2-RETURN-TOOBIG"
            },
            "lllcversion": "Version: 0.5.14-develop.2023.7.11+commit.c58ab2c6.mod.Linux.g++",
            "solidity": "Version: 0.8.21+commit.d9974bed.Linux.g++",
            "source": "src/GeneralStateTestsFiller/stCreateTest/createLargeResultFiller.yml",
            "sourceHash": "402a3968ecbfc0f37038ed02c3f13c97abbe22c10389672b6cf429bd47cfc065"
        },
        "env": {
            "currentBaseFee": "0x0a",
            "currentCoinbase": "0x2adc25665018aa1fe0e6bc666dac8fc2697ff9ba",
            "currentDifficulty": "0x020000",
            "currentExcessBlobGas": "0x00",
            "currentGasLimit": "0x05f5e100",
            "currentNumber": "0x01",
            "currentRandom": "0x0000000000000000000000000000000000000000000000000000000000020000",
            "currentTimestamp": "0x03e8"
        },
        "post": {
            "London": [
                {
                    "hash": "0x4a67e41d965a3a7c99df4ec1cc12cae5827d1c2e306b5cf50206be69fee4226c",
                    "indexes": {
                        "data": 2,
                        "gas": 0,
                        "value": 0
                    },
                    "logs": "0x1dcc4de8dec75d7aab85b567b6ccd41ad312451b948a7413f0a142fd40d49347",
                    "txbytes": "0xf8c6010a8404c4b40094cccccccccccccccccccccccccccccccccccccccc80b864048071d300000000000000000000000000000000000000000000000000000000000000f000000000000000000000000000000000000000000000000000000000000000fd00000000000000000000000000000000000000000000000000000000000001001ca03eb30bf418af062bf845ca21ac2db4e596add6746a011ddb0978f69a846134d4a075677b407ae258e747b7124f9d856ab1b2324257b10444d822a7e524a7cd73f1"
                }
            ]
        },
        "pre": {
            "0x000000000000000000000000000000000000c0de": {
                "balance": "0x00",
                "code": "0x60001960005260206101008039610100516000f3",
                "nonce": "0x01",
                "storage": {}
            },
            "0xa94f5374fce5edbc8e2a8697c15331677e6ebf0b": {
                "balance": "0x0ba1a9ce0ba1a9ce",
                "code": "0x",
                "nonce": "0x01",
                "storage": {}
            },
            "0xcccccccccccccccccccccccccccccccccccccccc": {
                "balance": "0x0ba1a9ce0ba1a9ce",
                "code": "0x5a60015560043560243560443590600161c0de3b8060008061c0de3c0353610100526000908060f01460535760f5146044575b806000555a600154036001553f600255005b50615a17610120600080f56032565b5050610120600080f0603256",
                "nonce": "0x01",
                "storage": {
                    "0x00": "0x60a7",
                    "0x01": "0x60a7",
                    "0x02": "0x60a7"
                }
            }
        },
        "transaction": {
            "data": [
                "0x048071d300000000000000000000000000000000000000000000000000000000000000f000000000000000000000000000000000000000000000000000000000000000f30000000000000000000000000000000000000000000000000000000000000100",
                "0x048071d300000000000000000000000000000000000000000000000000000000000000f500000000000000000000000000000000000000000000000000000000000000f30000000000000000000000000000000000000000000000000000000000000100",
                "0x048071d300000000000000000000000000000000000000000000000000000000000000f000000000000000000000000000000000000000000000000000000000000000fd0000000000000000000000000000000000000000000000000000000000000100",
                "0x048071d300000000000000000000000000000000000000000000000000000000000000f500000000000000000000000000000000000000000000000000000000000000fd0000000000000000000000000000000000000000000000000000000000000100",
                "0x048071d300000000000000000000000000000000000000000000000000000000000000f000000000000000000000000000000000000000000000000000000000000000f30000000000000000000000000000000000000000000000000000000000006000",
                "0x048071d300000000000000000000000000000000000000000000000000000000000000f500000000000000000000000000000000000000000000000000000000000000f30000000000000000000000000000000000000000000000000000000000006000",
                "0x048071d300000000000000000000000000000000000000000000000000000000000000f000000000000000000000000000000000000000000000000000000000000000fd0000000000000000000000000000000000000000000000000000000000006000",
                "0x048071d300000000000000000000000000000000000000000000000000000000000000f500000000000000000000000000000000000000000000000000000000000000fd0000000000000000000000000000000000000000000000000000000000006000",
                "0x048071d300000000000000000000000000000000000000000000000000000000000000f000000000000000000000000000000000000000000000000000000000000000f30000000000000000000000000000000000000000000000000000000000006001",
                "0x048071d300000000000000000000000000000000000000000000000000000000000000f500000000000000000000000000000000000000000000000000000000000000f30000000000000000000000000000000000000000000000000000000000006001",
                "0x048071d300000000000000000000000000000000000000000000000000000000000000f000000000000000000000000000000000000000000000000000000000000000fd0000000000000000000000000000000000000000000000000000000000006001",
                "0x048071d300000000000000000000000000000000000000000000000000000000000000f500000000000000000000000000000000000000000000000000000000000000fd0000000000000000000000000000000000000000000000000000000000006001",
                "0x048071d300000000000000000000000000000000000000000000000000000000000000f000000000000000000000000000000000000000000000000000000000000000f3000000000000000000000000000000000000000000000000000000000000c000",
                "0x048071d300000000000000000000000000000000000000000000000000000000000000f500000000000000000000000000000000000000000000000000000000000000f3000000000000000000000000000000000000000000000000000000000000c000",
                "0x048071d300000000000000000000000000000000000000000000000000000000000000f000000000000000000000000000000000000000000000000000000000000000fd000000000000000000000000000000000000000000000000000000000000c000",
                "0x048071d300000000000000000000000000000000000000000000000000000000000000f500000000000000000000000000000000000000000000000000000000000000fd000000000000000000000000000000000000000000000000000000000000c000"
            ],
            "gasLimit": [
                "0x04c4b400"
            ],
            "gasPrice": "0x0a",
            "nonce": "0x01",
            "secretKey": "0x45a915e4d060149eb4365960e6a7a45f334393093061116b197e3240065ff2d8",
            "sender": "0xa94f5374fce5edbc8e2a8697c15331677e6ebf0b",
            "to": "0xcccccccccccccccccccccccccccccccccccccccc",
            "value": [
                "0x00"
            ]
        }
    }
}