{
    "coinbaseT2" : {
        "_info" : {
            "comment" : "Ori Pomerantz qbzzt1@gmail.com",
            "filling-rpc-server" : "evm version 1.13.11-unstable-765f2904-20240124",
            "filling-tool-version" : "retesteth-0.3.2-cancun+commit.ea13235b.Linux.g++",
            "generatedTestHash" : "285574ee1ad31ad4856775100de9af261ad0a18f7e1bd569ed68b037ab0a233e",
            "labels" : {
                "0" : "T2baseInList",
                "1" : "T2baseNotInList"
            },
            "lllcversion" : "Version: 0.5.14-develop.2023.7.11+commit.c58ab2c6.mod.Linux.g++",
            "solidity" : "Version: 0.8.21+commit.d9974bed.Linux.g++",
            "source" : "src/GeneralStateTestsFiller/stEIP2930/coinbaseT2Filler.yml",
            "sourceHash" : "9814046d78a2de187ef8f9acd8e9ec7018c69e3960896642083502368e56fd04"
        },
        "env" : {
            "currentBaseFee" : "0x64",
            "currentCoinbase" : "0x000000000000000000000000000000000000ba5e",
            "currentDifficulty" : "0x020000",
            "currentExcessBlobGas" : "0x00",
            "currentGasLimit" : "0xff112233445566",
            "currentNumber" : "0x01",
            "currentRandom" : "0x0000000000000000000000000000000000000000000000000000000000020000",
            "currentTimestamp" : "0x03e8"
        },
        "post" : {
            "London" : [
                {
                    "hash" : "0xb4d2b8ad5073b84c87fe77459cd658509c741af303d19cba52663cd35b076aec",
                    "indexes" : {
                        "data" : 0,
                        "gas" : 0,
                        "value" : 0
                    },
                    "logs" : "0x1dcc4de8dec75d7aab85b567b6ccd41ad312451b948a7413f0a142fd40d49347",
                    "txbytes" : "0x02f8a10101648227108402625a0094000000000000000000000000000000000000c0de80a4693c61390000000000000000000000000000000000000000000000000000000000000000d7d694000000000000000000000000000000000000ba5ec080a0d5a3052a8cc387f35ffdebe832afdfdd45980cdcbb9b926dee7fb9b1d9a4ee08a06210d404eb6aecd05bc214b120959a71ede9fadcae4b769c96c58bffa216f205"
                }
            ]
        },
        "pre" : {
            "0x000000000000000000000000000000000000ba5e" : {
                "balance" : "0x00",
                "code" : "0x",
                "nonce" : "0x01",
                "storage" : {
                }
            },
            "0x000000000000000000000000000000000000c0de" : {
                "balance" : "0x0de0b6b3a7640000",
                "code" : "0x5a6000526000808080620f424061ba5e5af1505a6020526021602051600051030360005500",
                "nonce" : "0x01",
                "storage" : {
                }
            },
            "0xa94f5374fce5edbc8e2a8697c15331677e6ebf0b" : {
                "balance" : "0x0de0b6b3a7640000",
                "code" : "0x",
                "nonce" : "0x01",
                "storage" : {
                }
            }
        },
        "transaction" : {
            "accessLists" : [
                [
                    {
                        "address" : "0x000000000000000000000000000000000000ba5e",
                        "storageKeys" : [
                        ]
                    }
                ],
                [
                    {
                        "address" : "0x000000000000000000000000000000000000ba5a",
                        "storageKeys" : [
                        ]
                    }
                ]
            ],
            "data" : [
                "0x693c61390000000000000000000000000000000000000000000000000000000000000000",
                "0x693c61390000000000000000000000000000000000000000000000000000000000000000"
            ],
            "gasLimit" : [
                "0x02625a00"
            ],
            "maxFeePerGas" : "0x2710",
            "maxPriorityFeePerGas" : "0x64",
            "nonce" : "0x01",
            "secretKey" : "0x45a915e4d060149eb4365960e6a7a45f334393093061116b197e3240065ff2d8",
            "sender" : "0xa94f5374fce5edbc8e2a8697c15331677e6ebf0b",
            "to" : "0x000000000000000000000000000000000000c0de",
            "value" : [
                "0x00"
            ]
        }
    }
}