{
    "tests/frontier/create/test_create_suicide_during_init.py::test_create_suicide_during_transaction_create[fork_Byzantium-create_opcode_CREATE-evm_code_type_LEGACY-state_test-operation_Operation.SUICIDE-transaction_create_False]": {
        "env": {
            "currentCoinbase": "0x2adc25665018aa1fe0e6bc666dac8fc2697ff9ba",
            "currentGasLimit": "0x055d4a80",
            "currentNumber": "0x01",
            "currentTimestamp": "0x03e8",
            "currentDifficulty": "0x020000"
        },
        "pre": {
            "0x85d6610e33adff446906e86948e4069143dfa9ff": {
                "nonce": "0x00",
                "balance": "0x3635c9adc5dea00000",
                "code": "0x",
                "storage": {}
            },
            "0x6a841ff8c7bac9308621f6a422fd921d9eaa9dd6": {
                "nonce": "0x01",
                "balance": "0x00",
                "code": "0x36600060003736600034f0",
                "storage": {}
            },
            "0x6a841ff8c7bac9308621f6a422fd921d9eaa9ed6": {
                "nonce": "0x01",
                "balance": "0x00",
                "code": "0x6001600155",
                "storage": {}
            },
            "0x6a841ff8c7bac9308621f6a422fd921d9eaa9fd6": {
                "nonce": "0x01",
                "balance": "0x00",
                "code": "0x00",
                "storage": {}
            },
            "0x6a841ff8c7bac9308621f6a422fd921d9eaaa0d6": {
                "nonce": "0x01",
                "balance": "0x00",
                "code": "0x6001600155",
                "storage": {}
            }
        },
        "transaction": {
            "nonce": "0x00",
            "gasPrice": "0x0a",
            "gasLimit": [
                "0x0f4240"
            ],
            "to": "0x6a841ff8c7bac9308621f6a422fd921d9eaa9dd6",
            "value": [
                "0x64"
            ],
            "data": [
                "0x60006000600060006000736a841ff8c7bac9308621f6a422fd921d9eaa9ed6620186a05a03f1736a841ff8c7bac9308621f6a422fd921d9eaa9fd6ff60006000600060006000736a841ff8c7bac9308621f6a422fd921d9eaaa0d6620186a05a03f1610005600081606d8239f36001600055"
            ],
            "sender": "0x85d6610e33adff446906e86948e4069143dfa9ff",
            "secretKey": "0xbc9463c2ae760dc7f5ae50256a841ff8c7bac9308621f6a422fd921d9eaa9dd6"
        },
        "post": {
            "Byzantium": [
                {
                    "hash": "0x078af6acdb1c2b0e45adb70665ee5ef2038092384e6fda374936f960c19ef685",
                    "logs": "0x1dcc4de8dec75d7aab85b567b6ccd41ad312451b948a7413f0a142fd40d49347",
                    "txbytes": "0xf8d3800a830f4240946a841ff8c7bac9308621f6a422fd921d9eaa9dd664b87260006000600060006000736a841ff8c7bac9308621f6a422fd921d9eaa9ed6620186a05a03f1736a841ff8c7bac9308621f6a422fd921d9eaa9fd6ff60006000600060006000736a841ff8c7bac9308621f6a422fd921d9eaaa0d6620186a05a03f1610005600081606d8239f3600160005525a031f4240242d72d3c6f0c428597abb6747b16921527bb631b8d3eec94e34138bfa06597edd42517c8f0eb4564690c6d745edd38895971cd421bf55f93491aa9c0e6",
                    "indexes": {
                        "data": 0,
                        "gas": 0,
                        "value": 0
                    },
                    "state": {
                        "0x85d6610e33adff446906e86948e4069143dfa9ff": {
                            "nonce": "0x01",
                            "balance": "0x3635c9adc5de969592",
                            "code": "0x",
                            "storage": {}
                        },
                        "0x6a841ff8c7bac9308621f6a422fd921d9eaa9dd6": {
                            "nonce": "0x02",
                            "balance": "0x00",
                            "code": "0x36600060003736600034f0",
                            "storage": {}
                        },
                        "0x6a841ff8c7bac9308621f6a422fd921d9eaa9ed6": {
                            "nonce": "0x01",
                            "balance": "0x00",
                            "code": "0x6001600155",
                            "storage": {
                                "0x01": "0x01"
                            }
                        },
                        "0x6a841ff8c7bac9308621f6a422fd921d9eaa9fd6": {
                            "nonce": "0x01",
                            "balance": "0x64",
                            "code": "0x00",
                            "storage": {}
                        },
                        "0x6a841ff8c7bac9308621f6a422fd921d9eaaa0d6": {
                            "nonce": "0x01",
                            "balance": "0x00",
                            "code": "0x6001600155",
                            "storage": {}
                        },
                        "0x2adc25665018aa1fe0e6bc666dac8fc2697ff9ba": {
                            "nonce": "0x00",
                            "balance": "0x096a0a",
                            "code": "0x",
                            "storage": {}
                        }
                    }
                }
            ]
        },
        "config": {
            "chainid": "0x01"
        },
        "_info": {
            "hash": "0x4a6c2fe1ecedccd3fe5695aa6fd75ed898a14a7279277ebea1b3fa218e23b4bc",
            "comment": "`execution-spec-tests` generated test",
            "filling-transition-tool": "ethereum-spec-evm-resolver 0.0.5",
            "description": "Contract init code calls suicide then measures different metrics.",
            "url": "https://github.com/ethereum/execution-spec-tests/tree/v5.3.0/tests/frontier/create/test_create_suicide_during_init.py#L31",
            "fixture-format": "state_test",
            "eels-resolution": {
                "git-url": "https://github.com/ethereum/execution-specs.git",
                "branch": "forks/bpos",
                "commit": "7aacb2c54111391af5e98c505d5010b5698a770f"
            }
        }
    }
}