{
    "tests/cancun/eip4844_blobs/test_blob_txs.py::test_blob_type_tx_pre_fork[fork_ShanghaiToCancunAtTime15k-state_test-no_blob_tx]": {
        "env": {
            "currentCoinbase": "0x2adc25665018aa1fe0e6bc666dac8fc2697ff9ba",
            "currentGasLimit": "0x016345785d8a0000",
            "currentNumber": "0x01",
            "currentTimestamp": "0x03e8",
            "currentRandom": "0x0000000000000000000000000000000000000000000000000000000000000000",
            "currentDifficulty": "0x00",
            "currentBaseFee": "0x07"
        },
        "pre": {
            "0xa94f5374fce5edbc8e2a8697c15331677e6ebf0b": {
                "nonce": "0x00",
                "balance": "0x023e39",
                "code": "0x",
                "storage": {}
            }
        },
        "transaction": {
            "nonce": "0x00",
            "maxPriorityFeePerGas": "0x00",
            "maxFeePerGas": "0x07",
            "gasLimit": [
                "0x5208"
            ],
            "to": "0x0000000000000000000000000000000000000100",
            "value": [
                "0x01"
            ],
            "data": [
                "0x"
            ],
            "accessLists": [
                []
            ],
            "maxFeePerBlobGas": "0x01",
            "blobVersionedHashes": [],
            "sender": "0xa94f5374fce5edbc8e2a8697c15331677e6ebf0b",
            "secretKey": "0x45a915e4d060149eb4365960e6a7a45f334393093061116b197e3240065ff2d8"
        },
        "post": {
            "Shanghai": [
                {
                    "hash": "0x51f41d6ab2123b8c2bef303127d48c31e5b8ccee1bfde9f853f443fe9711c3fa",
                    "logs": "0x1dcc4de8dec75d7aab85b567b6ccd41ad312451b948a7413f0a142fd40d49347",
                    "txbytes": "0x03f864018080078252089400000000000000000000000000000000000001000180c001c080a0de3ecf0321e2d26c34d6b9bd1ffb5a30167abafd5ecacd477049544c23d402cda06c56b464881a4af7bb8216d47c6c5e3286395027af44044b3d7d31a2d24901f2",
                    "indexes": {
                        "data": 0,
                        "gas": 0,
                        "value": 0
                    },
                    "expectException": "TransactionException.TYPE_3_TX_PRE_FORK|TransactionException.TYPE_3_TX_ZERO_BLOBS"
                }
            ]
        },
        "_info": {
            "hash": "0x3aa6e2e4fc205bfec6badbcbb9245c1e701165d8a069500134c46b8fc5da54a6",
            "comment": "`execution-spec-tests` generated test",
            "filling-transition-tool": "evm version 1.14.6-unstable-7e5dd44a-20240705",
            "description": "Test function documentation:\n\n    Reject blocks with blob type transactions before Cancun fork.\n\n    Blocks sent by NewPayloadV2 (Shanghai) that contain blob type transactions, furthermore blobs\n    field within NewPayloadV2 method must be computed as INVALID, due to an invalid block hash.",
            "url": "https://github.com/ethereum/execution-spec-tests/blob/devnet-1@v1.3.0/tests/cancun/eip4844_blobs/test_blob_txs.py#L1386",
            "reference-spec": "https://github.com/ethereum/EIPs/blob/master/EIPS/eip-4844.md",
            "reference-spec-version": "f0eb6a364aaf5ccb43516fa2c269a54fb881ecfd"
        }
    },
    "tests/cancun/eip4844_blobs/test_blob_txs.py::test_blob_type_tx_pre_fork[fork_ShanghaiToCancunAtTime15k-state_test-one_blob_tx]": {
        "env": {
            "currentCoinbase": "0x2adc25665018aa1fe0e6bc666dac8fc2697ff9ba",
            "currentGasLimit": "0x016345785d8a0000",
            "currentNumber": "0x01",
            "currentTimestamp": "0x03e8",
            "currentRandom": "0x0000000000000000000000000000000000000000000000000000000000000000",
            "currentDifficulty": "0x00",
            "currentBaseFee": "0x07"
        },
        "pre": {
            "0xa94f5374fce5edbc8e2a8697c15331677e6ebf0b": {
                "nonce": "0x00",
                "balance": "0x043e39",
                "code": "0x",
                "storage": {}
            }
        },
        "transaction": {
            "nonce": "0x00",
            "maxPriorityFeePerGas": "0x00",
            "maxFeePerGas": "0x07",
            "gasLimit": [
                "0x5208"
            ],
            "to": "0x0000000000000000000000000000000000000100",
            "value": [
                "0x01"
            ],
            "data": [
                "0x"
            ],
            "accessLists": [
                []
            ],
            "maxFeePerBlobGas": "0x01",
            "blobVersionedHashes": [
                "0x0100000000000000000000000000000000000000000000000000000000000000"
            ],
            "sender": "0xa94f5374fce5edbc8e2a8697c15331677e6ebf0b",
            "secretKey": "0x45a915e4d060149eb4365960e6a7a45f334393093061116b197e3240065ff2d8"
        },
        "post": {
            "Shanghai": [
                {
                    "hash": "0x60801982e5816ed2f91320cea42769e76120d71d863d48bf8ec4d905455ae9cd",
                    "logs": "0x1dcc4de8dec75d7aab85b567b6ccd41ad312451b948a7413f0a142fd40d49347",
                    "txbytes": "0x03f885018080078252089400000000000000000000000000000000000001000180c001e1a0010000000000000000000000000000000000000000000000000000000000000001a0a8f4757869fbb831ba4ed3a7c8f868b0e2e0c1eda97937aab035560fffdedf3ca019d9b041540e3d6f5f56dc29deb8834a08171e92037cf567b922357e70f8e54a",
                    "indexes": {
                        "data": 0,
                        "gas": 0,
                        "value": 0
                    },
                    "expectException": "TransactionException.TYPE_3_TX_PRE_FORK"
                }
            ]
        },
        "_info": {
            "hash": "0x706e4f6a02926a252bed9bd15787f4079b464846b4652e22f2029db9ca29bc09",
            "comment": "`execution-spec-tests` generated test",
            "filling-transition-tool": "evm version 1.14.6-unstable-7e5dd44a-20240705",
            "description": "Test function documentation:\n\n    Reject blocks with blob type transactions before Cancun fork.\n\n    Blocks sent by NewPayloadV2 (Shanghai) that contain blob type transactions, furthermore blobs\n    field within NewPayloadV2 method must be computed as INVALID, due to an invalid block hash.",
            "url": "https://github.com/ethereum/execution-spec-tests/blob/devnet-1@v1.3.0/tests/cancun/eip4844_blobs/test_blob_txs.py#L1386",
            "reference-spec": "https://github.com/ethereum/EIPs/blob/master/EIPS/eip-4844.md",
            "reference-spec-version": "f0eb6a364aaf5ccb43516fa2c269a54fb881ecfd"
        }
    }
}