{
    "tests/prague/eip2537_bls_12_381_precompiles/test_bls12_g2add.py::test_call_types[fork_Prague-state_test-inf_plus_inf-call_opcode_STATICCALL-]": {
        "env": {
            "currentCoinbase": "0x2adc25665018aa1fe0e6bc666dac8fc2697ff9ba",
            "currentGasLimit": "0x016345785d8a0000",
            "currentNumber": "0x01",
            "currentTimestamp": "0x03e8",
            "currentRandom": "0x0000000000000000000000000000000000000000000000000000000000000000",
            "currentDifficulty": "0x00",
            "currentBaseFee": "0x07",
            "currentExcessBlobGas": "0x00"
        },
        "pre": {
            "0x0000000000000000000000000000000000001000": {
                "nonce": "0x01",
                "balance": "0x00",
                "code": "0x36600060003760006000366000600d610258fa6000553d6001553d600060003e3d600020600255",
                "storage": {}
            },
            "0xa94f5374fce5edbc8e2a8697c15331677e6ebf0b": {
                "nonce": "0x00",
                "balance": "0x038d7ea4c68000",
                "code": "0x",
                "storage": {}
            }
        },
        "transaction": {
            "nonce": "0x00",
            "gasPrice": "0x0a",
            "gasLimit": [
                "0x9898d8"
            ],
            "to": "0x0000000000000000000000000000000000001000",
            "value": [
                "0x00"
            ],
            "data": [
                "0x0000000000000000000000000000000000000000000000000000000000000000000000000000000000000000000000000000000000000000000000000000000000000000000000000000000000000000000000000000000000000000000000000000000000000000000000000000000000000000000000000000000000000000000000000000000000000000000000000000000000000000000000000000000000000000000000000000000000000000000000000000000000000000000000000000000000000000000000000000000000000000000000000000000000000000000000000000000000000000000000000000000000000000000000000000000000000000000000000000000000000000000000000000000000000000000000000000000000000000000000000000000000000000000000000000000000000000000000000000000000000000000000000000000000000000000000000000000000000000000000000000000000000000000000000000000000000000000000000000000000000000000000000000000000000000000000000000000000000000000000000000000000000000000000000000000000000000000000000000000000000000000000000000000000000000000000000000000000000000000000000000000000000000000000000000000000000000000000000000000000000000"
            ],
            "sender": "0xa94f5374fce5edbc8e2a8697c15331677e6ebf0b",
            "secretKey": "0x45a915e4d060149eb4365960e6a7a45f334393093061116b197e3240065ff2d8"
        },
        "post": {
            "Prague": [
                {
                    "hash": "0xce45d0903f3fccea04dcaace6822134be3cf26fd3e79fdf91c6528127454309d",
                    "logs": "0x1dcc4de8dec75d7aab85b567b6ccd41ad312451b948a7413f0a142fd40d49347",
                    "txbytes": "0xf90262800a839898d894000000000000000000000000000000000000100080b90200000000000000000000000000000000000000000000000000000000000000000000000000000000000000000000000000000000000000000000000000000000000000000000000000000000000000000000000000000000000000000000000000000000000000000000000000000000000000000000000000000000000000000000000000000000000000000000000000000000000000000000000000000000000000000000000000000000000000000000000000000000000000000000000000000000000000000000000000000000000000000000000000000000000000000000000000000000000000000000000000000000000000000000000000000000000000000000000000000000000000000000000000000000000000000000000000000000000000000000000000000000000000000000000000000000000000000000000000000000000000000000000000000000000000000000000000000000000000000000000000000000000000000000000000000000000000000000000000000000000000000000000000000000000000000000000000000000000000000000000000000000000000000000000000000000000000000000000000000000000000000000000000000000000000000000000000000000000000000000000000000000000000000000000000000000000000000000000000000000000000000025a0ac07bb2e617f502470851c343ad363a462d4e80f398cf5376edc6252e84b8deaa033863391ba29b024d98ebe25f2837430d76cbb838346bac2da73ab2d4a89aff2",
                    "indexes": {
                        "data": 0,
                        "gas": 0,
                        "value": 0
                    },
                    "state": {
                        "0x0000000000000000000000000000000000001000": {
                            "nonce": "0x01",
                            "balance": "0x00",
                            "code": "0x36600060003760006000366000600d610258fa6000553d6001553d600060003e3d600020600255",
                            "storage": {
                                "0x00": "0x01",
                                "0x01": "0x0100",
                                "0x02": "0xd397b3b043d87fcd6fad1291ff0bfd16401c274896d8c63a923727f077b8e0b5"
                            }
                        },
                        "0xa94f5374fce5edbc8e2a8697c15331677e6ebf0b": {
                            "nonce": "0x01",
                            "balance": "0x038d7ea4b8b89e",
                            "code": "0x",
                            "storage": {}
                        },
                        "0x2adc25665018aa1fe0e6bc666dac8fc2697ff9ba": {
                            "nonce": "0x00",
                            "balance": "0x042237",
                            "code": "0x",
                            "storage": {}
                        }
                    }
                }
            ]
        },
        "_info": {
            "hash": "0xfffc4bfec1c6c3164de88366d7f30846d3202d26987fe03f985fb802e7a3a38b",
            "comment": "`execution-spec-tests` generated test",
            "filling-transition-tool": "ethereum-spec-evm-resolver 0.0.1",
            "description": "Test function documentation:\nTest the BLS12_G2ADD precompile using different call types.",
            "url": "https://github.com/ethereum/execution-spec-tests/blob/pectra-devnet-5@v1.2.0/tests/prague/eip2537_bls_12_381_precompiles/test_bls12_g2add.py#L203",
            "fixture_format": "state_test",
            "reference-spec": "https://github.com/ethereum/EIPs/blob/master/EIPS/eip-2537.md",
            "reference-spec-version": "cd0f016ad0c4c68b8b1f5c502ef61ab9353b6e5e"
        }
    },
    "tests/prague/eip2537_bls_12_381_precompiles/test_bls12_g2add.py::test_call_types[fork_Prague-state_test-inf_plus_inf-call_opcode_DELEGATECALL-]": {
        "env": {
            "currentCoinbase": "0x2adc25665018aa1fe0e6bc666dac8fc2697ff9ba",
            "currentGasLimit": "0x016345785d8a0000",
            "currentNumber": "0x01",
            "currentTimestamp": "0x03e8",
            "currentRandom": "0x0000000000000000000000000000000000000000000000000000000000000000",
            "currentDifficulty": "0x00",
            "currentBaseFee": "0x07",
            "currentExcessBlobGas": "0x00"
        },
        "pre": {
            "0x0000000000000000000000000000000000001000": {
                "nonce": "0x01",
                "balance": "0x00",
                "code": "0x36600060003760006000366000600d610258f46000553d6001553d600060003e3d600020600255",
                "storage": {}
            },
            "0xa94f5374fce5edbc8e2a8697c15331677e6ebf0b": {
                "nonce": "0x00",
                "balance": "0x038d7ea4c68000",
                "code": "0x",
                "storage": {}
            }
        },
        "transaction": {
            "nonce": "0x00",
            "gasPrice": "0x0a",
            "gasLimit": [
                "0x9898d8"
            ],
            "to": "0x0000000000000000000000000000000000001000",
            "value": [
                "0x00"
            ],
            "data": [
                "0x0000000000000000000000000000000000000000000000000000000000000000000000000000000000000000000000000000000000000000000000000000000000000000000000000000000000000000000000000000000000000000000000000000000000000000000000000000000000000000000000000000000000000000000000000000000000000000000000000000000000000000000000000000000000000000000000000000000000000000000000000000000000000000000000000000000000000000000000000000000000000000000000000000000000000000000000000000000000000000000000000000000000000000000000000000000000000000000000000000000000000000000000000000000000000000000000000000000000000000000000000000000000000000000000000000000000000000000000000000000000000000000000000000000000000000000000000000000000000000000000000000000000000000000000000000000000000000000000000000000000000000000000000000000000000000000000000000000000000000000000000000000000000000000000000000000000000000000000000000000000000000000000000000000000000000000000000000000000000000000000000000000000000000000000000000000000000000000000000000000000000000"
            ],
            "sender": "0xa94f5374fce5edbc8e2a8697c15331677e6ebf0b",
            "secretKey": "0x45a915e4d060149eb4365960e6a7a45f334393093061116b197e3240065ff2d8"
        },
        "post": {
            "Prague": [
                {
                    "hash": "0x8bebdce31f5aadb555799c7d2d7f38a1c77cd36c20233d31b4adcee292b46b62",
                    "logs": "0x1dcc4de8dec75d7aab85b567b6ccd41ad312451b948a7413f0a142fd40d49347",
                    "txbytes": "0xf90262800a839898d894000000000000000000000000000000000000100080b90200000000000000000000000000000000000000000000000000000000000000000000000000000000000000000000000000000000000000000000000000000000000000000000000000000000000000000000000000000000000000000000000000000000000000000000000000000000000000000000000000000000000000000000000000000000000000000000000000000000000000000000000000000000000000000000000000000000000000000000000000000000000000000000000000000000000000000000000000000000000000000000000000000000000000000000000000000000000000000000000000000000000000000000000000000000000000000000000000000000000000000000000000000000000000000000000000000000000000000000000000000000000000000000000000000000000000000000000000000000000000000000000000000000000000000000000000000000000000000000000000000000000000000000000000000000000000000000000000000000000000000000000000000000000000000000000000000000000000000000000000000000000000000000000000000000000000000000000000000000000000000000000000000000000000000000000000000000000000000000000000000000000000000000000000000000000000000000000000000000000000000025a0ac07bb2e617f502470851c343ad363a462d4e80f398cf5376edc6252e84b8deaa033863391ba29b024d98ebe25f2837430d76cbb838346bac2da73ab2d4a89aff2",
                    "indexes": {
                        "data": 0,
                        "gas": 0,
                        "value": 0
                    },
                    "state": {
                        "0x0000000000000000000000000000000000001000": {
                            "nonce": "0x01",
                            "balance": "0x00",
                            "code": "0x36600060003760006000366000600d610258f46000553d6001553d600060003e3d600020600255",
                            "storage": {
                                "0x00": "0x01",
                                "0x01": "0x0100",
                                "0x02": "0xd397b3b043d87fcd6fad1291ff0bfd16401c274896d8c63a923727f077b8e0b5"
                            }
                        },
                        "0xa94f5374fce5edbc8e2a8697c15331677e6ebf0b": {
                            "nonce": "0x01",
                            "balance": "0x038d7ea4b8b89e",
                            "code": "0x",
                            "storage": {}
                        },
                        "0x2adc25665018aa1fe0e6bc666dac8fc2697ff9ba": {
                            "nonce": "0x00",
                            "balance": "0x042237",
                            "code": "0x",
                            "storage": {}
                        }
                    }
                }
            ]
        },
        "_info": {
            "hash": "0xac1de92292c8d531fd5f7ab766becdcd03004cb15cb542515ffe7dfd75f9bb26",
            "comment": "`execution-spec-tests` generated test",
            "filling-transition-tool": "ethereum-spec-evm-resolver 0.0.1",
            "description": "Test function documentation:\nTest the BLS12_G2ADD precompile using different call types.",
            "url": "https://github.com/ethereum/execution-spec-tests/blob/pectra-devnet-5@v1.2.0/tests/prague/eip2537_bls_12_381_precompiles/test_bls12_g2add.py#L203",
            "fixture_format": "state_test",
            "reference-spec": "https://github.com/ethereum/EIPs/blob/master/EIPS/eip-2537.md",
            "reference-spec-version": "cd0f016ad0c4c68b8b1f5c502ef61ab9353b6e5e"
        }
    },
    "tests/prague/eip2537_bls_12_381_precompiles/test_bls12_g2add.py::test_call_types[fork_Prague-state_test-inf_plus_inf-call_opcode_CALLCODE-]": {
        "env": {
            "currentCoinbase": "0x2adc25665018aa1fe0e6bc666dac8fc2697ff9ba",
            "currentGasLimit": "0x016345785d8a0000",
            "currentNumber": "0x01",
            "currentTimestamp": "0x03e8",
            "currentRandom": "0x0000000000000000000000000000000000000000000000000000000000000000",
            "currentDifficulty": "0x00",
            "currentBaseFee": "0x07",
            "currentExcessBlobGas": "0x00"
        },
        "pre": {
            "0x0000000000000000000000000000000000001000": {
                "nonce": "0x01",
                "balance": "0x00",
                "code": "0x366000600037600060003660006000600d610258f26000553d6001553d600060003e3d600020600255",
                "storage": {}
            },
            "0xa94f5374fce5edbc8e2a8697c15331677e6ebf0b": {
                "nonce": "0x00",
                "balance": "0x038d7ea4c68000",
                "code": "0x",
                "storage": {}
            }
        },
        "transaction": {
            "nonce": "0x00",
            "gasPrice": "0x0a",
            "gasLimit": [
                "0x9898d8"
            ],
            "to": "0x0000000000000000000000000000000000001000",
            "value": [
                "0x00"
            ],
            "data": [
                "0x0000000000000000000000000000000000000000000000000000000000000000000000000000000000000000000000000000000000000000000000000000000000000000000000000000000000000000000000000000000000000000000000000000000000000000000000000000000000000000000000000000000000000000000000000000000000000000000000000000000000000000000000000000000000000000000000000000000000000000000000000000000000000000000000000000000000000000000000000000000000000000000000000000000000000000000000000000000000000000000000000000000000000000000000000000000000000000000000000000000000000000000000000000000000000000000000000000000000000000000000000000000000000000000000000000000000000000000000000000000000000000000000000000000000000000000000000000000000000000000000000000000000000000000000000000000000000000000000000000000000000000000000000000000000000000000000000000000000000000000000000000000000000000000000000000000000000000000000000000000000000000000000000000000000000000000000000000000000000000000000000000000000000000000000000000000000000000000000000000000000000000"
            ],
            "sender": "0xa94f5374fce5edbc8e2a8697c15331677e6ebf0b",
            "secretKey": "0x45a915e4d060149eb4365960e6a7a45f334393093061116b197e3240065ff2d8"
        },
        "post": {
            "Prague": [
                {
                    "hash": "0x3bb4ace9560c5b750696218375db4c59677870e770a83370d3a50c6b1792df9b",
                    "logs": "0x1dcc4de8dec75d7aab85b567b6ccd41ad312451b948a7413f0a142fd40d49347",
                    "txbytes": "0xf90262800a839898d894000000000000000000000000000000000000100080b90200000000000000000000000000000000000000000000000000000000000000000000000000000000000000000000000000000000000000000000000000000000000000000000000000000000000000000000000000000000000000000000000000000000000000000000000000000000000000000000000000000000000000000000000000000000000000000000000000000000000000000000000000000000000000000000000000000000000000000000000000000000000000000000000000000000000000000000000000000000000000000000000000000000000000000000000000000000000000000000000000000000000000000000000000000000000000000000000000000000000000000000000000000000000000000000000000000000000000000000000000000000000000000000000000000000000000000000000000000000000000000000000000000000000000000000000000000000000000000000000000000000000000000000000000000000000000000000000000000000000000000000000000000000000000000000000000000000000000000000000000000000000000000000000000000000000000000000000000000000000000000000000000000000000000000000000000000000000000000000000000000000000000000000000000000000000000000000000000000000000000000025a0ac07bb2e617f502470851c343ad363a462d4e80f398cf5376edc6252e84b8deaa033863391ba29b024d98ebe25f2837430d76cbb838346bac2da73ab2d4a89aff2",
                    "indexes": {
                        "data": 0,
                        "gas": 0,
                        "value": 0
                    },
                    "state": {
                        "0x0000000000000000000000000000000000001000": {
                            "nonce": "0x01",
                            "balance": "0x00",
                            "code": "0x366000600037600060003660006000600d610258f26000553d6001553d600060003e3d600020600255",
                            "storage": {
                                "0x00": "0x01",
                                "0x01": "0x0100",
                                "0x02": "0xd397b3b043d87fcd6fad1291ff0bfd16401c274896d8c63a923727f077b8e0b5"
                            }
                        },
                        "0xa94f5374fce5edbc8e2a8697c15331677e6ebf0b": {
                            "nonce": "0x01",
                            "balance": "0x038d7ea4b8b880",
                            "code": "0x",
                            "storage": {}
                        },
                        "0x2adc25665018aa1fe0e6bc666dac8fc2697ff9ba": {
                            "nonce": "0x00",
                            "balance": "0x042240",
                            "code": "0x",
                            "storage": {}
                        }
                    }
                }
            ]
        },
        "_info": {
            "hash": "0xfb6575cf273fb2ba6c74468e7a7272d43a2fe2aa88cd84d11a2c851661c857f5",
            "comment": "`execution-spec-tests` generated test",
            "filling-transition-tool": "ethereum-spec-evm-resolver 0.0.1",
            "description": "Test function documentation:\nTest the BLS12_G2ADD precompile using different call types.",
            "url": "https://github.com/ethereum/execution-spec-tests/blob/pectra-devnet-5@v1.2.0/tests/prague/eip2537_bls_12_381_precompiles/test_bls12_g2add.py#L203",
            "fixture_format": "state_test",
            "reference-spec": "https://github.com/ethereum/EIPs/blob/master/EIPS/eip-2537.md",
            "reference-spec-version": "cd0f016ad0c4c68b8b1f5c502ef61ab9353b6e5e"
        }
    }
}