{
    "tests/shanghai/eip3651_warm_coinbase/test_warm_coinbase.py::test_warm_coinbase_gas_usage[fork_Prague-state_test-EXTCODESIZE]": {
        "env": {
            "currentCoinbase": "0x2adc25665018aa1fe0e6bc666dac8fc2697ff9ba",
            "currentGasLimit": "0x016345785d8a0000",
            "currentNumber": "0x01",
            "currentTimestamp": "0x03e8",
            "currentRandom": "0x0000000000000000000000000000000000000000000000000000000000000000",
            "currentDifficulty": "0x00",
            "currentBaseFee": "0x07",
            "currentExcessBlobGas": "0x00"
        },
        "pre": {
            "0xa94f5374fce5edbc8e2a8697c15331677e6ebf0b": {
                "nonce": "0x00",
                "balance": "0x3635c9adc5dea00000",
                "code": "0x",
                "storage": {}
            },
            "0x0000000000000000000000000000000000001000": {
                "nonce": "0x01",
                "balance": "0x00",
                "code": "0x5a413b5a905090036004900360005500",
                "storage": {}
            }
        },
        "transaction": {
            "nonce": "0x00",
            "gasPrice": "0x0a",
            "gasLimit": [
                "0x05f5e100"
            ],
            "to": "0x0000000000000000000000000000000000001000",
            "value": [
                "0x00"
            ],
            "data": [
                "0x"
            ],
            "sender": "0xa94f5374fce5edbc8e2a8697c15331677e6ebf0b",
            "secretKey": "0x45a915e4d060149eb4365960e6a7a45f334393093061116b197e3240065ff2d8"
        },
        "post": {
            "Prague": [
                {
                    "hash": "0x082c3de5adc571777e13eefd28ff40345657383642d81b5e6fdf81bda2aa0d62",
                    "logs": "0x1dcc4de8dec75d7aab85b567b6ccd41ad312451b948a7413f0a142fd40d49347",
                    "txbytes": "0xf861800a8405f5e100940000000000000000000000000000000000001000808026a00c80636d627692750a38994c80e17de29770a0e34498f5e6eccd4f233ec21b5fa04c33c43ced36fe3329a16f21f2704902ac998ae26f175265e7b14a6229b1feb1",
                    "indexes": {
                        "data": 0,
                        "gas": 0,
                        "value": 0
                    }
                }
            ]
        },
        "_info": {
            "hash": "0x7c897ede3a441221d85dbe069b7f38670d0a3a8e1ac807dfcb050721fe2b6d35",
            "comment": "`execution-spec-tests` generated test",
            "filling-transition-tool": "ethereum-spec-evm-resolver 0.0.1",
            "description": "Test function documentation:\n\n    Test the gas usage of opcodes affected by assuming a warm coinbase:\n\n    - EXTCODESIZE\n    - EXTCODECOPY\n    - EXTCODEHASH\n    - BALANCE\n    - CALL\n    - CALLCODE\n    - DELEGATECALL\n    - STATICCALL",
            "url": "https://github.com/ethereum/execution-spec-tests/blob/pectra-devnet-5@v1.0.0/tests/shanghai/eip3651_warm_coinbase/test_warm_coinbase.py#L206",
            "fixture_format": "state_test",
            "reference-spec": "https://github.com/ethereum/EIPs/blob/master/EIPS/eip-3651.md",
            "reference-spec-version": "d94c694c6f12291bb6626669c3e8587eef3adff1"
        }
    },
    "tests/shanghai/eip3651_warm_coinbase/test_warm_coinbase.py::test_warm_coinbase_gas_usage[fork_Prague-state_test-EXTCODECOPY]": {
        "env": {
            "currentCoinbase": "0x2adc25665018aa1fe0e6bc666dac8fc2697ff9ba",
            "currentGasLimit": "0x016345785d8a0000",
            "currentNumber": "0x01",
            "currentTimestamp": "0x03e8",
            "currentRandom": "0x0000000000000000000000000000000000000000000000000000000000000000",
            "currentDifficulty": "0x00",
            "currentBaseFee": "0x07",
            "currentExcessBlobGas": "0x00"
        },
        "pre": {
            "0xa94f5374fce5edbc8e2a8697c15331677e6ebf0b": {
                "nonce": "0x00",
                "balance": "0x3635c9adc5dea00000",
                "code": "0x",
                "storage": {}
            },
            "0x0000000000000000000000000000000000001000": {
                "nonce": "0x01",
                "balance": "0x00",
                "code": "0x5a600060006000413c5a9003600d900360005500",
                "storage": {}
            }
        },
        "transaction": {
            "nonce": "0x00",
            "gasPrice": "0x0a",
            "gasLimit": [
                "0x05f5e100"
            ],
            "to": "0x0000000000000000000000000000000000001000",
            "value": [
                "0x00"
            ],
            "data": [
                "0x"
            ],
            "sender": "0xa94f5374fce5edbc8e2a8697c15331677e6ebf0b",
            "secretKey": "0x45a915e4d060149eb4365960e6a7a45f334393093061116b197e3240065ff2d8"
        },
        "post": {
            "Prague": [
                {
                    "hash": "0x5282024357d6cf8dae7e49a5cf539d7b9006611ac7dd007adc18c46549b1f30a",
                    "logs": "0x1dcc4de8dec75d7aab85b567b6ccd41ad312451b948a7413f0a142fd40d49347",
                    "txbytes": "0xf861800a8405f5e100940000000000000000000000000000000000001000808026a00c80636d627692750a38994c80e17de29770a0e34498f5e6eccd4f233ec21b5fa04c33c43ced36fe3329a16f21f2704902ac998ae26f175265e7b14a6229b1feb1",
                    "indexes": {
                        "data": 0,
                        "gas": 0,
                        "value": 0
                    }
                }
            ]
        },
        "_info": {
            "hash": "0x27581c085c6f9a0b45428bc130171365f843332bf5982f8c2faec5e52a8817a2",
            "comment": "`execution-spec-tests` generated test",
            "filling-transition-tool": "ethereum-spec-evm-resolver 0.0.1",
            "description": "Test function documentation:\n\n    Test the gas usage of opcodes affected by assuming a warm coinbase:\n\n    - EXTCODESIZE\n    - EXTCODECOPY\n    - EXTCODEHASH\n    - BALANCE\n    - CALL\n    - CALLCODE\n    - DELEGATECALL\n    - STATICCALL",
            "url": "https://github.com/ethereum/execution-spec-tests/blob/pectra-devnet-5@v1.0.0/tests/shanghai/eip3651_warm_coinbase/test_warm_coinbase.py#L206",
            "fixture_format": "state_test",
            "reference-spec": "https://github.com/ethereum/EIPs/blob/master/EIPS/eip-3651.md",
            "reference-spec-version": "d94c694c6f12291bb6626669c3e8587eef3adff1"
        }
    },
    "tests/shanghai/eip3651_warm_coinbase/test_warm_coinbase.py::test_warm_coinbase_gas_usage[fork_Prague-state_test-EXTCODEHASH]": {
        "env": {
            "currentCoinbase": "0x2adc25665018aa1fe0e6bc666dac8fc2697ff9ba",
            "currentGasLimit": "0x016345785d8a0000",
            "currentNumber": "0x01",
            "currentTimestamp": "0x03e8",
            "currentRandom": "0x0000000000000000000000000000000000000000000000000000000000000000",
            "currentDifficulty": "0x00",
            "currentBaseFee": "0x07",
            "currentExcessBlobGas": "0x00"
        },
        "pre": {
            "0xa94f5374fce5edbc8e2a8697c15331677e6ebf0b": {
                "nonce": "0x00",
                "balance": "0x3635c9adc5dea00000",
                "code": "0x",
                "storage": {}
            },
            "0x0000000000000000000000000000000000001000": {
                "nonce": "0x01",
                "balance": "0x00",
                "code": "0x5a413f5a905090036004900360005500",
                "storage": {}
            }
        },
        "transaction": {
            "nonce": "0x00",
            "gasPrice": "0x0a",
            "gasLimit": [
                "0x05f5e100"
            ],
            "to": "0x0000000000000000000000000000000000001000",
            "value": [
                "0x00"
            ],
            "data": [
                "0x"
            ],
            "sender": "0xa94f5374fce5edbc8e2a8697c15331677e6ebf0b",
            "secretKey": "0x45a915e4d060149eb4365960e6a7a45f334393093061116b197e3240065ff2d8"
        },
        "post": {
            "Prague": [
                {
                    "hash": "0x22978cd62c5277e63ed26fec4cd78a87a6f3bf572a4005e0a7e7c36e4c873a6d",
                    "logs": "0x1dcc4de8dec75d7aab85b567b6ccd41ad312451b948a7413f0a142fd40d49347",
                    "txbytes": "0xf861800a8405f5e100940000000000000000000000000000000000001000808026a00c80636d627692750a38994c80e17de29770a0e34498f5e6eccd4f233ec21b5fa04c33c43ced36fe3329a16f21f2704902ac998ae26f175265e7b14a6229b1feb1",
                    "indexes": {
                        "data": 0,
                        "gas": 0,
                        "value": 0
                    }
                }
            ]
        },
        "_info": {
            "hash": "0xd8b75191a415d20248b441ec71c1f6743e6083402edaa110933dd674a81ac802",
            "comment": "`execution-spec-tests` generated test",
            "filling-transition-tool": "ethereum-spec-evm-resolver 0.0.1",
            "description": "Test function documentation:\n\n    Test the gas usage of opcodes affected by assuming a warm coinbase:\n\n    - EXTCODESIZE\n    - EXTCODECOPY\n    - EXTCODEHASH\n    - BALANCE\n    - CALL\n    - CALLCODE\n    - DELEGATECALL\n    - STATICCALL",
            "url": "https://github.com/ethereum/execution-spec-tests/blob/pectra-devnet-5@v1.0.0/tests/shanghai/eip3651_warm_coinbase/test_warm_coinbase.py#L206",
            "fixture_format": "state_test",
            "reference-spec": "https://github.com/ethereum/EIPs/blob/master/EIPS/eip-3651.md",
            "reference-spec-version": "d94c694c6f12291bb6626669c3e8587eef3adff1"
        }
    },
    "tests/shanghai/eip3651_warm_coinbase/test_warm_coinbase.py::test_warm_coinbase_gas_usage[fork_Prague-state_test-BALANCE]": {
        "env": {
            "currentCoinbase": "0x2adc25665018aa1fe0e6bc666dac8fc2697ff9ba",
            "currentGasLimit": "0x016345785d8a0000",
            "currentNumber": "0x01",
            "currentTimestamp": "0x03e8",
            "currentRandom": "0x0000000000000000000000000000000000000000000000000000000000000000",
            "currentDifficulty": "0x00",
            "currentBaseFee": "0x07",
            "currentExcessBlobGas": "0x00"
        },
        "pre": {
            "0xa94f5374fce5edbc8e2a8697c15331677e6ebf0b": {
                "nonce": "0x00",
                "balance": "0x3635c9adc5dea00000",
                "code": "0x",
                "storage": {}
            },
            "0x0000000000000000000000000000000000001000": {
                "nonce": "0x01",
                "balance": "0x00",
                "code": "0x5a41315a905090036004900360005500",
                "storage": {}
            }
        },
        "transaction": {
            "nonce": "0x00",
            "gasPrice": "0x0a",
            "gasLimit": [
                "0x05f5e100"
            ],
            "to": "0x0000000000000000000000000000000000001000",
            "value": [
                "0x00"
            ],
            "data": [
                "0x"
            ],
            "sender": "0xa94f5374fce5edbc8e2a8697c15331677e6ebf0b",
            "secretKey": "0x45a915e4d060149eb4365960e6a7a45f334393093061116b197e3240065ff2d8"
        },
        "post": {
            "Prague": [
                {
                    "hash": "0xb60fd1a5fefc2514fadfbe52cc949aab69923eb02e3f1834c52bc1e8ddebdb18",
                    "logs": "0x1dcc4de8dec75d7aab85b567b6ccd41ad312451b948a7413f0a142fd40d49347",
                    "txbytes": "0xf861800a8405f5e100940000000000000000000000000000000000001000808026a00c80636d627692750a38994c80e17de29770a0e34498f5e6eccd4f233ec21b5fa04c33c43ced36fe3329a16f21f2704902ac998ae26f175265e7b14a6229b1feb1",
                    "indexes": {
                        "data": 0,
                        "gas": 0,
                        "value": 0
                    }
                }
            ]
        },
        "_info": {
            "hash": "0x7f9b2a22a1704364f66065e94f4c6010c3a57b7279ca0430d229deba0871ba39",
            "comment": "`execution-spec-tests` generated test",
            "filling-transition-tool": "ethereum-spec-evm-resolver 0.0.1",
            "description": "Test function documentation:\n\n    Test the gas usage of opcodes affected by assuming a warm coinbase:\n\n    - EXTCODESIZE\n    - EXTCODECOPY\n    - EXTCODEHASH\n    - BALANCE\n    - CALL\n    - CALLCODE\n    - DELEGATECALL\n    - STATICCALL",
            "url": "https://github.com/ethereum/execution-spec-tests/blob/pectra-devnet-5@v1.0.0/tests/shanghai/eip3651_warm_coinbase/test_warm_coinbase.py#L206",
            "fixture_format": "state_test",
            "reference-spec": "https://github.com/ethereum/EIPs/blob/master/EIPS/eip-3651.md",
            "reference-spec-version": "d94c694c6f12291bb6626669c3e8587eef3adff1"
        }
    },
    "tests/shanghai/eip3651_warm_coinbase/test_warm_coinbase.py::test_warm_coinbase_gas_usage[fork_Prague-state_test-CALL]": {
        "env": {
            "currentCoinbase": "0x2adc25665018aa1fe0e6bc666dac8fc2697ff9ba",
            "currentGasLimit": "0x016345785d8a0000",
            "currentNumber": "0x01",
            "currentTimestamp": "0x03e8",
            "currentRandom": "0x0000000000000000000000000000000000000000000000000000000000000000",
            "currentDifficulty": "0x00",
            "currentBaseFee": "0x07",
            "currentExcessBlobGas": "0x00"
        },
        "pre": {
            "0xa94f5374fce5edbc8e2a8697c15331677e6ebf0b": {
                "nonce": "0x00",
                "balance": "0x3635c9adc5dea00000",
                "code": "0x",
                "storage": {}
            },
            "0x0000000000000000000000000000000000001000": {
                "nonce": "0x01",
                "balance": "0x00",
                "code": "0x5a600060006000600060004160fff15a905090036016900360005500",
                "storage": {}
            }
        },
        "transaction": {
            "nonce": "0x00",
            "gasPrice": "0x0a",
            "gasLimit": [
                "0x05f5e100"
            ],
            "to": "0x0000000000000000000000000000000000001000",
            "value": [
                "0x00"
            ],
            "data": [
                "0x"
            ],
            "sender": "0xa94f5374fce5edbc8e2a8697c15331677e6ebf0b",
            "secretKey": "0x45a915e4d060149eb4365960e6a7a45f334393093061116b197e3240065ff2d8"
        },
        "post": {
            "Prague": [
                {
                    "hash": "0x2fec42f233d4dee3e392e908b2e3d88d22d218b86d7411d6e27fc13a81a09db0",
                    "logs": "0x1dcc4de8dec75d7aab85b567b6ccd41ad312451b948a7413f0a142fd40d49347",
                    "txbytes": "0xf861800a8405f5e100940000000000000000000000000000000000001000808026a00c80636d627692750a38994c80e17de29770a0e34498f5e6eccd4f233ec21b5fa04c33c43ced36fe3329a16f21f2704902ac998ae26f175265e7b14a6229b1feb1",
                    "indexes": {
                        "data": 0,
                        "gas": 0,
                        "value": 0
                    }
                }
            ]
        },
        "_info": {
            "hash": "0xadfc42351328c9785cc544ab6a8ab7763f24d77af3efca9844fe0a08fc7564d9",
            "comment": "`execution-spec-tests` generated test",
            "filling-transition-tool": "ethereum-spec-evm-resolver 0.0.1",
            "description": "Test function documentation:\n\n    Test the gas usage of opcodes affected by assuming a warm coinbase:\n\n    - EXTCODESIZE\n    - EXTCODECOPY\n    - EXTCODEHASH\n    - BALANCE\n    - CALL\n    - CALLCODE\n    - DELEGATECALL\n    - STATICCALL",
            "url": "https://github.com/ethereum/execution-spec-tests/blob/pectra-devnet-5@v1.0.0/tests/shanghai/eip3651_warm_coinbase/test_warm_coinbase.py#L206",
            "fixture_format": "state_test",
            "reference-spec": "https://github.com/ethereum/EIPs/blob/master/EIPS/eip-3651.md",
            "reference-spec-version": "d94c694c6f12291bb6626669c3e8587eef3adff1"
        }
    },
    "tests/shanghai/eip3651_warm_coinbase/test_warm_coinbase.py::test_warm_coinbase_gas_usage[fork_Prague-state_test-CALLCODE]": {
        "env": {
            "currentCoinbase": "0x2adc25665018aa1fe0e6bc666dac8fc2697ff9ba",
            "currentGasLimit": "0x016345785d8a0000",
            "currentNumber": "0x01",
            "currentTimestamp": "0x03e8",
            "currentRandom": "0x0000000000000000000000000000000000000000000000000000000000000000",
            "currentDifficulty": "0x00",
            "currentBaseFee": "0x07",
            "currentExcessBlobGas": "0x00"
        },
        "pre": {
            "0xa94f5374fce5edbc8e2a8697c15331677e6ebf0b": {
                "nonce": "0x00",
                "balance": "0x3635c9adc5dea00000",
                "code": "0x",
                "storage": {}
            },
            "0x0000000000000000000000000000000000001000": {
                "nonce": "0x01",
                "balance": "0x00",
                "code": "0x5a600060006000600060004160fff25a905090036016900360005500",
                "storage": {}
            }
        },
        "transaction": {
            "nonce": "0x00",
            "gasPrice": "0x0a",
            "gasLimit": [
                "0x05f5e100"
            ],
            "to": "0x0000000000000000000000000000000000001000",
            "value": [
                "0x00"
            ],
            "data": [
                "0x"
            ],
            "sender": "0xa94f5374fce5edbc8e2a8697c15331677e6ebf0b",
            "secretKey": "0x45a915e4d060149eb4365960e6a7a45f334393093061116b197e3240065ff2d8"
        },
        "post": {
            "Prague": [
                {
                    "hash": "0x6b886ef5cb96b9e1cc1cbd196c231330a6e3ff0a6e4eac597370e6241a256857",
                    "logs": "0x1dcc4de8dec75d7aab85b567b6ccd41ad312451b948a7413f0a142fd40d49347",
                    "txbytes": "0xf861800a8405f5e100940000000000000000000000000000000000001000808026a00c80636d627692750a38994c80e17de29770a0e34498f5e6eccd4f233ec21b5fa04c33c43ced36fe3329a16f21f2704902ac998ae26f175265e7b14a6229b1feb1",
                    "indexes": {
                        "data": 0,
                        "gas": 0,
                        "value": 0
                    }
                }
            ]
        },
        "_info": {
            "hash": "0xd043fad9035f9c0d1cbcf6c93e946dc38ae0e132e894b8be05aa27e9924de35d",
            "comment": "`execution-spec-tests` generated test",
            "filling-transition-tool": "ethereum-spec-evm-resolver 0.0.1",
            "description": "Test function documentation:\n\n    Test the gas usage of opcodes affected by assuming a warm coinbase:\n\n    - EXTCODESIZE\n    - EXTCODECOPY\n    - EXTCODEHASH\n    - BALANCE\n    - CALL\n    - CALLCODE\n    - DELEGATECALL\n    - STATICCALL",
            "url": "https://github.com/ethereum/execution-spec-tests/blob/pectra-devnet-5@v1.0.0/tests/shanghai/eip3651_warm_coinbase/test_warm_coinbase.py#L206",
            "fixture_format": "state_test",
            "reference-spec": "https://github.com/ethereum/EIPs/blob/master/EIPS/eip-3651.md",
            "reference-spec-version": "d94c694c6f12291bb6626669c3e8587eef3adff1"
        }
    },
    "tests/shanghai/eip3651_warm_coinbase/test_warm_coinbase.py::test_warm_coinbase_gas_usage[fork_Prague-state_test-DELEGATECALL]": {
        "env": {
            "currentCoinbase": "0x2adc25665018aa1fe0e6bc666dac8fc2697ff9ba",
            "currentGasLimit": "0x016345785d8a0000",
            "currentNumber": "0x01",
            "currentTimestamp": "0x03e8",
            "currentRandom": "0x0000000000000000000000000000000000000000000000000000000000000000",
            "currentDifficulty": "0x00",
            "currentBaseFee": "0x07",
            "currentExcessBlobGas": "0x00"
        },
        "pre": {
            "0xa94f5374fce5edbc8e2a8697c15331677e6ebf0b": {
                "nonce": "0x00",
                "balance": "0x3635c9adc5dea00000",
                "code": "0x",
                "storage": {}
            },
            "0x0000000000000000000000000000000000001000": {
                "nonce": "0x01",
                "balance": "0x00",
                "code": "0x5a60006000600060004160fff45a905090036013900360005500",
                "storage": {}
            }
        },
        "transaction": {
            "nonce": "0x00",
            "gasPrice": "0x0a",
            "gasLimit": [
                "0x05f5e100"
            ],
            "to": "0x0000000000000000000000000000000000001000",
            "value": [
                "0x00"
            ],
            "data": [
                "0x"
            ],
            "sender": "0xa94f5374fce5edbc8e2a8697c15331677e6ebf0b",
            "secretKey": "0x45a915e4d060149eb4365960e6a7a45f334393093061116b197e3240065ff2d8"
        },
        "post": {
            "Prague": [
                {
                    "hash": "0x61b36a917f6bfde93baafee379e371433af654e6a531b526b73a37d6a648f670",
                    "logs": "0x1dcc4de8dec75d7aab85b567b6ccd41ad312451b948a7413f0a142fd40d49347",
                    "txbytes": "0xf861800a8405f5e100940000000000000000000000000000000000001000808026a00c80636d627692750a38994c80e17de29770a0e34498f5e6eccd4f233ec21b5fa04c33c43ced36fe3329a16f21f2704902ac998ae26f175265e7b14a6229b1feb1",
                    "indexes": {
                        "data": 0,
                        "gas": 0,
                        "value": 0
                    }
                }
            ]
        },
        "_info": {
            "hash": "0x882199d4988cc98dd4cd4f03183d2c87fe49bbef06e03b8d93f4394f6356ef64",
            "comment": "`execution-spec-tests` generated test",
            "filling-transition-tool": "ethereum-spec-evm-resolver 0.0.1",
            "description": "Test function documentation:\n\n    Test the gas usage of opcodes affected by assuming a warm coinbase:\n\n    - EXTCODESIZE\n    - EXTCODECOPY\n    - EXTCODEHASH\n    - BALANCE\n    - CALL\n    - CALLCODE\n    - DELEGATECALL\n    - STATICCALL",
            "url": "https://github.com/ethereum/execution-spec-tests/blob/pectra-devnet-5@v1.0.0/tests/shanghai/eip3651_warm_coinbase/test_warm_coinbase.py#L206",
            "fixture_format": "state_test",
            "reference-spec": "https://github.com/ethereum/EIPs/blob/master/EIPS/eip-3651.md",
            "reference-spec-version": "d94c694c6f12291bb6626669c3e8587eef3adff1"
        }
    },
    "tests/shanghai/eip3651_warm_coinbase/test_warm_coinbase.py::test_warm_coinbase_gas_usage[fork_Prague-state_test-STATICCALL]": {
        "env": {
            "currentCoinbase": "0x2adc25665018aa1fe0e6bc666dac8fc2697ff9ba",
            "currentGasLimit": "0x016345785d8a0000",
            "currentNumber": "0x01",
            "currentTimestamp": "0x03e8",
            "currentRandom": "0x0000000000000000000000000000000000000000000000000000000000000000",
            "currentDifficulty": "0x00",
            "currentBaseFee": "0x07",
            "currentExcessBlobGas": "0x00"
        },
        "pre": {
            "0xa94f5374fce5edbc8e2a8697c15331677e6ebf0b": {
                "nonce": "0x00",
                "balance": "0x3635c9adc5dea00000",
                "code": "0x",
                "storage": {}
            },
            "0x0000000000000000000000000000000000001000": {
                "nonce": "0x01",
                "balance": "0x00",
                "code": "0x5a60006000600060004160fffa5a905090036013900360005500",
                "storage": {}
            }
        },
        "transaction": {
            "nonce": "0x00",
            "gasPrice": "0x0a",
            "gasLimit": [
                "0x05f5e100"
            ],
            "to": "0x0000000000000000000000000000000000001000",
            "value": [
                "0x00"
            ],
            "data": [
                "0x"
            ],
            "sender": "0xa94f5374fce5edbc8e2a8697c15331677e6ebf0b",
            "secretKey": "0x45a915e4d060149eb4365960e6a7a45f334393093061116b197e3240065ff2d8"
        },
        "post": {
            "Prague": [
                {
                    "hash": "0x9a5702b7c52f81bdba159880472007f46fa349f94755df73aca0fb0c51606b48",
                    "logs": "0x1dcc4de8dec75d7aab85b567b6ccd41ad312451b948a7413f0a142fd40d49347",
                    "txbytes": "0xf861800a8405f5e100940000000000000000000000000000000000001000808026a00c80636d627692750a38994c80e17de29770a0e34498f5e6eccd4f233ec21b5fa04c33c43ced36fe3329a16f21f2704902ac998ae26f175265e7b14a6229b1feb1",
                    "indexes": {
                        "data": 0,
                        "gas": 0,
                        "value": 0
                    }
                }
            ]
        },
        "_info": {
            "hash": "0x0d2a340b49e62c0ebfe2d1cb04e5cdbb320683ec7cc3448a4eecbfe26b87f603",
            "comment": "`execution-spec-tests` generated test",
            "filling-transition-tool": "ethereum-spec-evm-resolver 0.0.1",
            "description": "Test function documentation:\n\n    Test the gas usage of opcodes affected by assuming a warm coinbase:\n\n    - EXTCODESIZE\n    - EXTCODECOPY\n    - EXTCODEHASH\n    - BALANCE\n    - CALL\n    - CALLCODE\n    - DELEGATECALL\n    - STATICCALL",
            "url": "https://github.com/ethereum/execution-spec-tests/blob/pectra-devnet-5@v1.0.0/tests/shanghai/eip3651_warm_coinbase/test_warm_coinbase.py#L206",
            "fixture_format": "state_test",
            "reference-spec": "https://github.com/ethereum/EIPs/blob/master/EIPS/eip-3651.md",
            "reference-spec-version": "d94c694c6f12291bb6626669c3e8587eef3adff1"
        }
    }
}