{
    "tests/cancun/eip1153_tstore/test_tstorage.py::test_tload_after_tstore_is_zero[fork_Cancun-state_test]": {
        "env": {
            "currentCoinbase": "0x2adc25665018aa1fe0e6bc666dac8fc2697ff9ba",
            "currentGasLimit": "0x016345785d8a0000",
            "currentNumber": "0x01",
            "currentTimestamp": "0x03e8",
            "currentRandom": "0x0000000000000000000000000000000000000000000000000000000000000000",
            "currentDifficulty": "0x00",
            "currentBaseFee": "0x07",
            "currentExcessBlobGas": "0x00"
        },
        "pre": {
            "0xa94f5374fce5edbc8e2a8697c15331677e6ebf0b": {
                "nonce": "0x00",
                "balance": "0x989680",
                "code": "0x",
                "storage": {}
            },
            "0x0000000000000000000000000000000000000100": {
                "nonce": "0x00",
                "balance": "0x00",
                "code": "0x6104d260015d6104d260045d6104d27001000000000000000000000000000000005d6104d27ffffffffffffffffffffffffffffffffffffffffffffffffffffffffffffffffe5d60005c60005560035c6003556fffffffffffffffffffffffffffffffff5c6fffffffffffffffffffffffffffffffff557ffffffffffffffffffffffffffffffffffffffffffffffffffffffffffffffffd5c7ffffffffffffffffffffffffffffffffffffffffffffffffffffffffffffffffd5560025c60025560055c6005557001000000000000000000000000000000015c700100000000000000000000000000000001557fffffffffffffffffffffffffffffffffffffffffffffffffffffffffffffffff5c7fffffffffffffffffffffffffffffffffffffffffffffffffffffffffffffffff55",
                "storage": {
                    "0x01": "0xffff",
                    "0x04": "0xffff",
                    "0x0100000000000000000000000000000000": "0xffff",
                    "0xfffffffffffffffffffffffffffffffffffffffffffffffffffffffffffffffe": "0xffff",
                    "0x00": "0xffff",
                    "0x03": "0xffff",
                    "0xffffffffffffffffffffffffffffffff": "0xffff",
                    "0xfffffffffffffffffffffffffffffffffffffffffffffffffffffffffffffffd": "0xffff",
                    "0x02": "0xffff",
                    "0x05": "0xffff",
                    "0x0100000000000000000000000000000001": "0xffff",
                    "0xffffffffffffffffffffffffffffffffffffffffffffffffffffffffffffffff": "0xffff"
                }
            }
        },
        "transaction": {
            "nonce": "0x00",
            "gasPrice": "0x0a",
            "gasLimit": [
                "0x0f4240"
            ],
            "to": "0x0000000000000000000000000000000000000100",
            "value": [
                "0x00"
            ],
            "data": [
                "0x"
            ],
            "sender": "0xa94f5374fce5edbc8e2a8697c15331677e6ebf0b",
            "secretKey": "0x45a915e4d060149eb4365960e6a7a45f334393093061116b197e3240065ff2d8"
        },
        "post": {
            "Cancun": [
                {
                    "hash": "0x86578474ddb42289072283c49c29a4e00069afe6974372e429cc7dcd062ce2e9",
                    "logs": "0x1dcc4de8dec75d7aab85b567b6ccd41ad312451b948a7413f0a142fd40d49347",
                    "txbytes": "0xf860800a830f4240940000000000000000000000000000000000000100808025a06ed8419ab28c42e73d2f147ebdddfd5de4fb1eb6b4f332d0c5fab55da6ee7eaaa05930cef304a571952dbcc5d64ddb799bba262cfe26fcdded394288f1999164ce",
                    "indexes": {
                        "data": 0,
                        "gas": 0,
                        "value": 0
                    }
                }
            ]
        },
        "_info": {
            "hash": "0x4418b8463be157c10edab419a0452a13b15518c7c1667a446c08095b26f09885",
            "comment": "`execution-spec-tests` generated test",
            "filling-transition-tool": "evm version 1.14.6-unstable-7e5dd44a-20240705",
            "description": "Test function documentation:\n\n    Test that tload returns zero after tstore is called with zero.\n\n    Based on [ethereum/tests/.../03_tloadAfterStoreIs0Filler.yml](https://github.com/ethereum/tests/blob/9b00b68593f5869eb51a6659e1cc983e875e616b/src/EIPTestsFiller/StateTests/stEIP1153-transientStorage/03_tloadAfterStoreIs0Filler.yml)\",  # noqa: E501",
            "url": "https://github.com/ethereum/execution-spec-tests/blob/devnet-1@v1.3.0/tests/cancun/eip1153_tstore/test_tstorage.py#L137",
            "reference-spec": "https://github.com/ethereum/EIPs/blob/master/EIPS/eip-1153.md",
            "reference-spec-version": "6f0be621c76a05a7b3aaf0e9297afd425c26e9d0"
        }
    },
    "tests/cancun/eip1153_tstore/test_tstorage.py::test_tload_after_tstore_is_zero[fork_Prague-state_test]": {
        "env": {
            "currentCoinbase": "0x2adc25665018aa1fe0e6bc666dac8fc2697ff9ba",
            "currentGasLimit": "0x016345785d8a0000",
            "currentNumber": "0x01",
            "currentTimestamp": "0x03e8",
            "currentRandom": "0x0000000000000000000000000000000000000000000000000000000000000000",
            "currentDifficulty": "0x00",
            "currentBaseFee": "0x07",
            "currentExcessBlobGas": "0x00"
        },
        "pre": {
            "0xa94f5374fce5edbc8e2a8697c15331677e6ebf0b": {
                "nonce": "0x00",
                "balance": "0x989680",
                "code": "0x",
                "storage": {}
            },
            "0x0000000000000000000000000000000000000100": {
                "nonce": "0x00",
                "balance": "0x00",
                "code": "0x6104d260015d6104d260045d6104d27001000000000000000000000000000000005d6104d27ffffffffffffffffffffffffffffffffffffffffffffffffffffffffffffffffe5d60005c60005560035c6003556fffffffffffffffffffffffffffffffff5c6fffffffffffffffffffffffffffffffff557ffffffffffffffffffffffffffffffffffffffffffffffffffffffffffffffffd5c7ffffffffffffffffffffffffffffffffffffffffffffffffffffffffffffffffd5560025c60025560055c6005557001000000000000000000000000000000015c700100000000000000000000000000000001557fffffffffffffffffffffffffffffffffffffffffffffffffffffffffffffffff5c7fffffffffffffffffffffffffffffffffffffffffffffffffffffffffffffffff55",
                "storage": {
                    "0x01": "0xffff",
                    "0x04": "0xffff",
                    "0x0100000000000000000000000000000000": "0xffff",
                    "0xfffffffffffffffffffffffffffffffffffffffffffffffffffffffffffffffe": "0xffff",
                    "0x00": "0xffff",
                    "0x03": "0xffff",
                    "0xffffffffffffffffffffffffffffffff": "0xffff",
                    "0xfffffffffffffffffffffffffffffffffffffffffffffffffffffffffffffffd": "0xffff",
                    "0x02": "0xffff",
                    "0x05": "0xffff",
                    "0x0100000000000000000000000000000001": "0xffff",
                    "0xffffffffffffffffffffffffffffffffffffffffffffffffffffffffffffffff": "0xffff"
                }
            }
        },
        "transaction": {
            "nonce": "0x00",
            "gasPrice": "0x0a",
            "gasLimit": [
                "0x0f4240"
            ],
            "to": "0x0000000000000000000000000000000000000100",
            "value": [
                "0x00"
            ],
            "data": [
                "0x"
            ],
            "sender": "0xa94f5374fce5edbc8e2a8697c15331677e6ebf0b",
            "secretKey": "0x45a915e4d060149eb4365960e6a7a45f334393093061116b197e3240065ff2d8"
        },
        "post": {
            "Prague": [
                {
                    "hash": "0x86578474ddb42289072283c49c29a4e00069afe6974372e429cc7dcd062ce2e9",
                    "logs": "0x1dcc4de8dec75d7aab85b567b6ccd41ad312451b948a7413f0a142fd40d49347",
                    "txbytes": "0xf860800a830f4240940000000000000000000000000000000000000100808025a06ed8419ab28c42e73d2f147ebdddfd5de4fb1eb6b4f332d0c5fab55da6ee7eaaa05930cef304a571952dbcc5d64ddb799bba262cfe26fcdded394288f1999164ce",
                    "indexes": {
                        "data": 0,
                        "gas": 0,
                        "value": 0
                    }
                }
            ]
        },
        "_info": {
            "hash": "0x9172e38a373d06862e47e6bad5a18c45dfa787aa379db2adfa07871530492367",
            "comment": "`execution-spec-tests` generated test",
            "filling-transition-tool": "evm version 1.14.6-unstable-7e5dd44a-20240705",
            "description": "Test function documentation:\n\n    Test that tload returns zero after tstore is called with zero.\n\n    Based on [ethereum/tests/.../03_tloadAfterStoreIs0Filler.yml](https://github.com/ethereum/tests/blob/9b00b68593f5869eb51a6659e1cc983e875e616b/src/EIPTestsFiller/StateTests/stEIP1153-transientStorage/03_tloadAfterStoreIs0Filler.yml)\",  # noqa: E501",
            "url": "https://github.com/ethereum/execution-spec-tests/blob/devnet-1@v1.3.0/tests/cancun/eip1153_tstore/test_tstorage.py#L137",
            "reference-spec": "https://github.com/ethereum/EIPs/blob/master/EIPS/eip-1153.md",
            "reference-spec-version": "6f0be621c76a05a7b3aaf0e9297afd425c26e9d0"
        }
    }
}