{
    "tests/prague/eip7692_eof_v1/eip7069_extcall/test_address_space_extension.py::test_address_space_extension[fork_CancunEIP7692-state_test-target_opcode_EXTDELEGATECALL-EOFContract-max_20]": {
        "env": {
            "currentCoinbase": "0x2adc25665018aa1fe0e6bc666dac8fc2697ff9ba",
            "currentGasLimit": "0x016345785d8a0000",
            "currentNumber": "0x01",
            "currentTimestamp": "0x03e8",
            "currentRandom": "0x0000000000000000000000000000000000000000000000000000000000000000",
            "currentDifficulty": "0x00",
            "currentBaseFee": "0x07",
            "currentExcessBlobGas": "0x00"
        },
        "pre": {
            "0xa94f5374fce5edbc8e2a8697c15331677e6ebf0b": {
                "nonce": "0x00",
                "balance": "0x3635c9adc5dea00000",
                "code": "0x",
                "storage": {}
            },
            "0x0000000000000000000000000000000000001000": {
                "nonce": "0x01",
                "balance": "0x00",
                "code": "0xef00010100040200010018040000000080000360006000600035f96002553d600060003e60005160035500",
                "storage": {
                    "0x02": "0x1984",
                    "0x03": "0x1984"
                }
            },
            "0x0000000000000000000000000000000000001100": {
                "nonce": "0x01",
                "balance": "0x00",
                "code": "0x7f000000000000000000000000ffffffffffffffffffffffffffffffffffffffff6000526000600060206000600073000000000000000000000000000000000000100061c350f160015500",
                "storage": {
                    "0x01": "0x1984"
                }
            },
            "0xffffffffffffffffffffffffffffffffffffffff": {
                "nonce": "0x00",
                "balance": "0x00",
                "code": "0xef0001010004020001000904000000008000023060005260206000f3",
                "storage": {}
            }
        },
        "transaction": {
            "nonce": "0x00",
            "gasPrice": "0x0a",
            "gasLimit": [
                "0x02faf080"
            ],
            "to": "0x0000000000000000000000000000000000001100",
            "value": [
                "0x00"
            ],
            "data": [
                "0x"
            ],
            "sender": "0xa94f5374fce5edbc8e2a8697c15331677e6ebf0b",
            "secretKey": "0x45a915e4d060149eb4365960e6a7a45f334393093061116b197e3240065ff2d8"
        },
        "post": {
            "PragueEOF": [
                {
                    "hash": "0x6fe0af7af37bcf719535d7b27484ba2fc6b11e51d0ebb1465d2a2b6a38ca672f",
                    "logs": "0x1dcc4de8dec75d7aab85b567b6ccd41ad312451b948a7413f0a142fd40d49347",
                    "txbytes": "0xf861800a8402faf08094000000000000000000000000000000000000110080801ca056c88a6605edb3f99e9e7cc00f610552b178d48d42c0b35ad6fac734c0494f0ca03eeaa85d4f62077ba1752742940c70b52ca3c6cd939d7eaaa4157c45362365be",
                    "indexes": {
                        "data": 0,
                        "gas": 0,
                        "value": 0
                    }
                }
            ]
        },
        "_info": {
            "hash": "0x89440bb48d22e8f20d41deae5a389ea97553796f4917a447ca28790d2d101ac2",
            "comment": "`execution-spec-tests` generated test",
            "filling-transition-tool": "evmone-t8n 0.12.0-dev+commit.85a89e56",
            "description": "Test function documentation:\n\n    Test contacts with possibly extended address and fail if address is too large",
            "url": "https://github.com/ethereum/execution-spec-tests/blob/eip7692@v1.0.4/tests/prague/eip7692_eof_v1/eip7069_extcall/test_address_space_extension.py#L27",
            "reference-spec": "https://github.com/ethereum/EIPs/blob/master/EIPS/eip-7069.md",
            "reference-spec-version": "1795943aeacc86131d5ab6bb3d65824b3b1d4cad"
        }
    }
}