{
    "tests/osaka/eip7692_eof_v1/eip6206_jumpf/test_jumpf_execution.py::test_jumpf_to_retf[fork_Osaka-eof_state_test-backward]": {
        "env": {
            "currentCoinbase": "0x2adc25665018aa1fe0e6bc666dac8fc2697ff9ba",
            "currentGasLimit": "0x016345785d8a0000",
            "currentNumber": "0x01",
            "currentTimestamp": "0x03e8",
            "currentRandom": "0x0000000000000000000000000000000000000000000000000000000000000000",
            "currentDifficulty": "0x00",
            "currentBaseFee": "0x07",
            "currentExcessBlobGas": "0x00"
        },
        "pre": {
            "0xa94f5374fce5edbc8e2a8697c15331677e6ebf0b": {
                "nonce": "0x00",
                "balance": "0x3635c9adc5dea00000",
                "code": "0x",
                "storage": {}
            },
            "0x8a0a19589531694250d570040a0c4b74576919b8": {
                "nonce": "0x00",
                "balance": "0x3635c9adc5dea00000",
                "code": "0x",
                "storage": {}
            },
            "0x0000000000000000000000000000000000001000": {
                "nonce": "0x01",
                "balance": "0x00",
                "code": "0xef000101000c020003000a0001000304000000008000020000000000000000e3000261201560015500e4e50001",
                "storage": {}
            }
        },
        "transaction": {
            "nonce": "0x00",
            "gasPrice": "0x0a",
            "gasLimit": [
                "0x989680"
            ],
            "to": "0x0000000000000000000000000000000000001000",
            "value": [
                "0x00"
            ],
            "data": [
                "0x01"
            ],
            "sender": "0x8a0a19589531694250d570040a0c4b74576919b8",
            "secretKey": "0x9e7645d0cfd9c3a04eb7a9db59a4eb7d359f2e75c9164a9d6b9a7d54e1b6a36f"
        },
        "post": {
            "Osaka": [
                {
                    "hash": "0xa5a74739bec02f71710e3e3987846f1201cffdf08e3c80280d9e4adc47c4be86",
                    "logs": "0x1dcc4de8dec75d7aab85b567b6ccd41ad312451b948a7413f0a142fd40d49347",
                    "txbytes": "0xf860800a83989680940000000000000000000000000000000000001000800126a05ed11cfd964148acc54c0287052842c948defa51bc1c56c12c250bd2cb4fc263a02dfc859b24c992f204f9264906ea83e96b3bd0fd7c2ae0aa6c88e3195f433bc7",
                    "indexes": {
                        "data": 0,
                        "gas": 0,
                        "value": 0
                    },
                    "state": {
                        "0x0000000000000000000000000000000000001000": {
                            "nonce": "0x01",
                            "balance": "0x00",
                            "code": "0xef000101000c020003000a0001000304000000008000020000000000000000e3000261201560015500e4e50001",
                            "storage": {
                                "0x01": "0x2015"
                            }
                        },
                        "0x2adc25665018aa1fe0e6bc666dac8fc2697ff9ba": {
                            "nonce": "0x00",
                            "balance": "0x01f97d",
                            "code": "0x",
                            "storage": {}
                        },
                        "0x8a0a19589531694250d570040a0c4b74576919b8": {
                            "nonce": "0x01",
                            "balance": "0x3635c9adc5de996b0a",
                            "code": "0x",
                            "storage": {}
                        },
                        "0xa94f5374fce5edbc8e2a8697c15331677e6ebf0b": {
                            "nonce": "0x00",
                            "balance": "0x3635c9adc5dea00000",
                            "code": "0x",
                            "storage": {}
                        }
                    }
                }
            ]
        },
        "config": {
            "blobSchedule": {
                "Cancun": {
                    "target": "0x03",
                    "max": "0x06",
                    "baseFeeUpdateFraction": "0x32f0ed"
                },
                "Prague": {
                    "target": "0x06",
                    "max": "0x09",
                    "baseFeeUpdateFraction": "0x4c6964"
                }
            },
            "chainid": "0x01"
        },
        "_info": {
            "hash": "0x6fc70ea259248abe4ea1f1f90c017a6f48c5f1e2c87799f943209766078fe83b",
            "comment": "`execution-spec-tests` generated test",
            "filling-transition-tool": "evmone-t8n 0.14.1+commit.3186982f",
            "description": "Test function documentation:\nTests JUMPF to a returning section with RETF.",
            "url": "https://github.com/ethereum/execution-spec-tests/tree/v4.1.0/tests/osaka/eip7692_eof_v1/eip6206_jumpf/test_jumpf_execution.py#L47",
            "fixture-format": "state_test",
            "reference-spec": "https://github.com/ethereum/EIPs/blob/master/EIPS/eip-6206.md",
            "reference-spec-version": "2f365ea0cd58faa6e26013ea77ce6d538175f7d0"
        }
    },
    "tests/osaka/eip7692_eof_v1/eip6206_jumpf/test_jumpf_execution.py::test_jumpf_to_retf[fork_Osaka-eof_state_test-compatible_outputs]": {
        "env": {
            "currentCoinbase": "0x2adc25665018aa1fe0e6bc666dac8fc2697ff9ba",
            "currentGasLimit": "0x016345785d8a0000",
            "currentNumber": "0x01",
            "currentTimestamp": "0x03e8",
            "currentRandom": "0x0000000000000000000000000000000000000000000000000000000000000000",
            "currentDifficulty": "0x00",
            "currentBaseFee": "0x07",
            "currentExcessBlobGas": "0x00"
        },
        "pre": {
            "0xa94f5374fce5edbc8e2a8697c15331677e6ebf0b": {
                "nonce": "0x00",
                "balance": "0x3635c9adc5dea00000",
                "code": "0x",
                "storage": {}
            },
            "0x8a0a19589531694250d570040a0c4b74576919b8": {
                "nonce": "0x00",
                "balance": "0x3635c9adc5dea00000",
                "code": "0x",
                "storage": {}
            },
            "0x0000000000000000000000000000000000001000": {
                "nonce": "0x01",
                "balance": "0x00",
                "code": "0xef000101000c02000300050006000404000000008000020002000100010001e300015500612015e50002610001e4",
                "storage": {}
            }
        },
        "transaction": {
            "nonce": "0x00",
            "gasPrice": "0x0a",
            "gasLimit": [
                "0x989680"
            ],
            "to": "0x0000000000000000000000000000000000001000",
            "value": [
                "0x00"
            ],
            "data": [
                "0x01"
            ],
            "sender": "0x8a0a19589531694250d570040a0c4b74576919b8",
            "secretKey": "0x9e7645d0cfd9c3a04eb7a9db59a4eb7d359f2e75c9164a9d6b9a7d54e1b6a36f"
        },
        "post": {
            "Osaka": [
                {
                    "hash": "0x038605e0cacf97fab3dea14b0c61ba4b68bc9874deae82974361d3b1d819f9e6",
                    "logs": "0x1dcc4de8dec75d7aab85b567b6ccd41ad312451b948a7413f0a142fd40d49347",
                    "txbytes": "0xf860800a83989680940000000000000000000000000000000000001000800126a05ed11cfd964148acc54c0287052842c948defa51bc1c56c12c250bd2cb4fc263a02dfc859b24c992f204f9264906ea83e96b3bd0fd7c2ae0aa6c88e3195f433bc7",
                    "indexes": {
                        "data": 0,
                        "gas": 0,
                        "value": 0
                    },
                    "state": {
                        "0x0000000000000000000000000000000000001000": {
                            "nonce": "0x01",
                            "balance": "0x00",
                            "code": "0xef000101000c02000300050006000404000000008000020002000100010001e300015500612015e50002610001e4",
                            "storage": {
                                "0x01": "0x2015"
                            }
                        },
                        "0x2adc25665018aa1fe0e6bc666dac8fc2697ff9ba": {
                            "nonce": "0x00",
                            "balance": "0x01f97d",
                            "code": "0x",
                            "storage": {}
                        },
                        "0x8a0a19589531694250d570040a0c4b74576919b8": {
                            "nonce": "0x01",
                            "balance": "0x3635c9adc5de996b0a",
                            "code": "0x",
                            "storage": {}
                        },
                        "0xa94f5374fce5edbc8e2a8697c15331677e6ebf0b": {
                            "nonce": "0x00",
                            "balance": "0x3635c9adc5dea00000",
                            "code": "0x",
                            "storage": {}
                        }
                    }
                }
            ]
        },
        "config": {
            "blobSchedule": {
                "Cancun": {
                    "target": "0x03",
                    "max": "0x06",
                    "baseFeeUpdateFraction": "0x32f0ed"
                },
                "Prague": {
                    "target": "0x06",
                    "max": "0x09",
                    "baseFeeUpdateFraction": "0x4c6964"
                }
            },
            "chainid": "0x01"
        },
        "_info": {
            "hash": "0x621146f95bfba99618c78b462ec6b13b1f9693f6e5a488ba186a05096a436721",
            "comment": "`execution-spec-tests` generated test",
            "filling-transition-tool": "evmone-t8n 0.14.1+commit.3186982f",
            "description": "Test function documentation:\nTests JUMPF to a returning section with RETF.",
            "url": "https://github.com/ethereum/execution-spec-tests/tree/v4.1.0/tests/osaka/eip7692_eof_v1/eip6206_jumpf/test_jumpf_execution.py#L47",
            "fixture-format": "state_test",
            "reference-spec": "https://github.com/ethereum/EIPs/blob/master/EIPS/eip-6206.md",
            "reference-spec-version": "2f365ea0cd58faa6e26013ea77ce6d538175f7d0"
        }
    },
    "tests/osaka/eip7692_eof_v1/eip6206_jumpf/test_jumpf_execution.py::test_jumpf_to_retf[fork_Osaka-eof_state_test-equal_outputs]": {
        "env": {
            "currentCoinbase": "0x2adc25665018aa1fe0e6bc666dac8fc2697ff9ba",
            "currentGasLimit": "0x016345785d8a0000",
            "currentNumber": "0x01",
            "currentTimestamp": "0x03e8",
            "currentRandom": "0x0000000000000000000000000000000000000000000000000000000000000000",
            "currentDifficulty": "0x00",
            "currentBaseFee": "0x07",
            "currentExcessBlobGas": "0x00"
        },
        "pre": {
            "0xa94f5374fce5edbc8e2a8697c15331677e6ebf0b": {
                "nonce": "0x00",
                "balance": "0x3635c9adc5dea00000",
                "code": "0x",
                "storage": {}
            },
            "0x8a0a19589531694250d570040a0c4b74576919b8": {
                "nonce": "0x00",
                "balance": "0x3635c9adc5dea00000",
                "code": "0x",
                "storage": {}
            },
            "0x0000000000000000000000000000000000001000": {
                "nonce": "0x01",
                "balance": "0x00",
                "code": "0xef000101000c02000300050003000704000000008000020002000000020002e300015500e50002612015610001e4",
                "storage": {}
            }
        },
        "transaction": {
            "nonce": "0x00",
            "gasPrice": "0x0a",
            "gasLimit": [
                "0x989680"
            ],
            "to": "0x0000000000000000000000000000000000001000",
            "value": [
                "0x00"
            ],
            "data": [
                "0x01"
            ],
            "sender": "0x8a0a19589531694250d570040a0c4b74576919b8",
            "secretKey": "0x9e7645d0cfd9c3a04eb7a9db59a4eb7d359f2e75c9164a9d6b9a7d54e1b6a36f"
        },
        "post": {
            "Osaka": [
                {
                    "hash": "0x0f2e2d484d8dcce11445fd24d940df0e9a08edc2a70fbe73c6b0abef85b12254",
                    "logs": "0x1dcc4de8dec75d7aab85b567b6ccd41ad312451b948a7413f0a142fd40d49347",
                    "txbytes": "0xf860800a83989680940000000000000000000000000000000000001000800126a05ed11cfd964148acc54c0287052842c948defa51bc1c56c12c250bd2cb4fc263a02dfc859b24c992f204f9264906ea83e96b3bd0fd7c2ae0aa6c88e3195f433bc7",
                    "indexes": {
                        "data": 0,
                        "gas": 0,
                        "value": 0
                    },
                    "state": {
                        "0x0000000000000000000000000000000000001000": {
                            "nonce": "0x01",
                            "balance": "0x00",
                            "code": "0xef000101000c02000300050003000704000000008000020002000000020002e300015500e50002612015610001e4",
                            "storage": {
                                "0x01": "0x2015"
                            }
                        },
                        "0x2adc25665018aa1fe0e6bc666dac8fc2697ff9ba": {
                            "nonce": "0x00",
                            "balance": "0x01f97d",
                            "code": "0x",
                            "storage": {}
                        },
                        "0x8a0a19589531694250d570040a0c4b74576919b8": {
                            "nonce": "0x01",
                            "balance": "0x3635c9adc5de996b0a",
                            "code": "0x",
                            "storage": {}
                        },
                        "0xa94f5374fce5edbc8e2a8697c15331677e6ebf0b": {
                            "nonce": "0x00",
                            "balance": "0x3635c9adc5dea00000",
                            "code": "0x",
                            "storage": {}
                        }
                    }
                }
            ]
        },
        "config": {
            "blobSchedule": {
                "Cancun": {
                    "target": "0x03",
                    "max": "0x06",
                    "baseFeeUpdateFraction": "0x32f0ed"
                },
                "Prague": {
                    "target": "0x06",
                    "max": "0x09",
                    "baseFeeUpdateFraction": "0x4c6964"
                }
            },
            "chainid": "0x01"
        },
        "_info": {
            "hash": "0xc159d88440e32eed9bedde81c39275f5d92e4a0cdf9ecdb047bcbcbbf5c4b686",
            "comment": "`execution-spec-tests` generated test",
            "filling-transition-tool": "evmone-t8n 0.14.1+commit.3186982f",
            "description": "Test function documentation:\nTests JUMPF to a returning section with RETF.",
            "url": "https://github.com/ethereum/execution-spec-tests/tree/v4.1.0/tests/osaka/eip7692_eof_v1/eip6206_jumpf/test_jumpf_execution.py#L47",
            "fixture-format": "state_test",
            "reference-spec": "https://github.com/ethereum/EIPs/blob/master/EIPS/eip-6206.md",
            "reference-spec-version": "2f365ea0cd58faa6e26013ea77ce6d538175f7d0"
        }
    },
    "tests/osaka/eip7692_eof_v1/eip6206_jumpf/test_jumpf_execution.py::test_jumpf_to_retf[fork_Osaka-eof_state_test-forward]": {
        "env": {
            "currentCoinbase": "0x2adc25665018aa1fe0e6bc666dac8fc2697ff9ba",
            "currentGasLimit": "0x016345785d8a0000",
            "currentNumber": "0x01",
            "currentTimestamp": "0x03e8",
            "currentRandom": "0x0000000000000000000000000000000000000000000000000000000000000000",
            "currentDifficulty": "0x00",
            "currentBaseFee": "0x07",
            "currentExcessBlobGas": "0x00"
        },
        "pre": {
            "0xa94f5374fce5edbc8e2a8697c15331677e6ebf0b": {
                "nonce": "0x00",
                "balance": "0x3635c9adc5dea00000",
                "code": "0x",
                "storage": {}
            },
            "0x8a0a19589531694250d570040a0c4b74576919b8": {
                "nonce": "0x00",
                "balance": "0x3635c9adc5dea00000",
                "code": "0x",
                "storage": {}
            },
            "0x0000000000000000000000000000000000001000": {
                "nonce": "0x01",
                "balance": "0x00",
                "code": "0xef000101000c020003000a0003000104000000008000020000000000000000e3000161201560015500e50002e4",
                "storage": {}
            }
        },
        "transaction": {
            "nonce": "0x00",
            "gasPrice": "0x0a",
            "gasLimit": [
                "0x989680"
            ],
            "to": "0x0000000000000000000000000000000000001000",
            "value": [
                "0x00"
            ],
            "data": [
                "0x01"
            ],
            "sender": "0x8a0a19589531694250d570040a0c4b74576919b8",
            "secretKey": "0x9e7645d0cfd9c3a04eb7a9db59a4eb7d359f2e75c9164a9d6b9a7d54e1b6a36f"
        },
        "post": {
            "Osaka": [
                {
                    "hash": "0x23c45c405e4c6e37192079df16386967504873cf72bc441d554733cb369ca71d",
                    "logs": "0x1dcc4de8dec75d7aab85b567b6ccd41ad312451b948a7413f0a142fd40d49347",
                    "txbytes": "0xf860800a83989680940000000000000000000000000000000000001000800126a05ed11cfd964148acc54c0287052842c948defa51bc1c56c12c250bd2cb4fc263a02dfc859b24c992f204f9264906ea83e96b3bd0fd7c2ae0aa6c88e3195f433bc7",
                    "indexes": {
                        "data": 0,
                        "gas": 0,
                        "value": 0
                    },
                    "state": {
                        "0x0000000000000000000000000000000000001000": {
                            "nonce": "0x01",
                            "balance": "0x00",
                            "code": "0xef000101000c020003000a0003000104000000008000020000000000000000e3000161201560015500e50002e4",
                            "storage": {
                                "0x01": "0x2015"
                            }
                        },
                        "0x2adc25665018aa1fe0e6bc666dac8fc2697ff9ba": {
                            "nonce": "0x00",
                            "balance": "0x01f97d",
                            "code": "0x",
                            "storage": {}
                        },
                        "0x8a0a19589531694250d570040a0c4b74576919b8": {
                            "nonce": "0x01",
                            "balance": "0x3635c9adc5de996b0a",
                            "code": "0x",
                            "storage": {}
                        },
                        "0xa94f5374fce5edbc8e2a8697c15331677e6ebf0b": {
                            "nonce": "0x00",
                            "balance": "0x3635c9adc5dea00000",
                            "code": "0x",
                            "storage": {}
                        }
                    }
                }
            ]
        },
        "config": {
            "blobSchedule": {
                "Cancun": {
                    "target": "0x03",
                    "max": "0x06",
                    "baseFeeUpdateFraction": "0x32f0ed"
                },
                "Prague": {
                    "target": "0x06",
                    "max": "0x09",
                    "baseFeeUpdateFraction": "0x4c6964"
                }
            },
            "chainid": "0x01"
        },
        "_info": {
            "hash": "0xca3fae914550fbf897c9f9f9abbbf8b88a4beed1a925b388fd1e2cbec6456234",
            "comment": "`execution-spec-tests` generated test",
            "filling-transition-tool": "evmone-t8n 0.14.1+commit.3186982f",
            "description": "Test function documentation:\nTests JUMPF to a returning section with RETF.",
            "url": "https://github.com/ethereum/execution-spec-tests/tree/v4.1.0/tests/osaka/eip7692_eof_v1/eip6206_jumpf/test_jumpf_execution.py#L47",
            "fixture-format": "state_test",
            "reference-spec": "https://github.com/ethereum/EIPs/blob/master/EIPS/eip-6206.md",
            "reference-spec-version": "2f365ea0cd58faa6e26013ea77ce6d538175f7d0"
        }
    }
}