{
    "tests/osaka/eip7692_eof_v1/eip6206_jumpf/test_jumpf_execution.py::test_jumpf_and_retf[fork_Osaka-eof_state_test-1_to_0_to_1]": {
        "env": {
            "currentCoinbase": "0x2adc25665018aa1fe0e6bc666dac8fc2697ff9ba",
            "currentGasLimit": "0x016345785d8a0000",
            "currentNumber": "0x01",
            "currentTimestamp": "0x03e8",
            "currentRandom": "0x0000000000000000000000000000000000000000000000000000000000000000",
            "currentDifficulty": "0x00",
            "currentBaseFee": "0x07",
            "currentExcessBlobGas": "0x00"
        },
        "pre": {
            "0xa94f5374fce5edbc8e2a8697c15331677e6ebf0b": {
                "nonce": "0x00",
                "balance": "0x3635c9adc5dea00000",
                "code": "0x",
                "storage": {}
            },
            "0x8a0a19589531694250d570040a0c4b74576919b8": {
                "nonce": "0x00",
                "balance": "0x3635c9adc5dea00000",
                "code": "0x",
                "storage": {}
            },
            "0x0000000000000000000000000000000000001000": {
                "nonce": "0x01",
                "balance": "0x00",
                "code": "0xef00010100080200020008000dff000000008000010100000160015415e3000100e10001e4612015600155e50000",
                "storage": {}
            }
        },
        "transaction": {
            "nonce": "0x00",
            "gasPrice": "0x0a",
            "gasLimit": [
                "0x989680"
            ],
            "to": "0x0000000000000000000000000000000000001000",
            "value": [
                "0x00"
            ],
            "data": [
                "0x"
            ],
            "sender": "0x8a0a19589531694250d570040a0c4b74576919b8",
            "secretKey": "0x9e7645d0cfd9c3a04eb7a9db59a4eb7d359f2e75c9164a9d6b9a7d54e1b6a36f"
        },
        "post": {
            "Osaka": [
                {
                    "hash": "0xc44793769ff4fe98268ba4c6fcd3a3441da1921c16bebc2d50729891e661c6e8",
                    "logs": "0x1dcc4de8dec75d7aab85b567b6ccd41ad312451b948a7413f0a142fd40d49347",
                    "txbytes": "0xf860800a83989680940000000000000000000000000000000000001000808025a0ee4b7012f87e423cf429499851f8becb39a147eab3f63d6426efd4d51718c6e8a04b788f452a534aab1d43e25fb5e92d1f86f730ea714f85bd045b26713ef65c99",
                    "indexes": {
                        "data": 0,
                        "gas": 0,
                        "value": 0
                    },
                    "state": {
                        "0x0000000000000000000000000000000000001000": {
                            "nonce": "0x01",
                            "balance": "0x00",
                            "code": "0xef00010100080200020008000dff000000008000010100000160015415e3000100e10001e4612015600155e50000",
                            "storage": {
                                "0x01": "0x2015"
                            }
                        },
                        "0x2adc25665018aa1fe0e6bc666dac8fc2697ff9ba": {
                            "nonce": "0x00",
                            "balance": "0x01fac4",
                            "code": "0x",
                            "storage": {}
                        },
                        "0x8a0a19589531694250d570040a0c4b74576919b8": {
                            "nonce": "0x01",
                            "balance": "0x3635c9adc5de9966c8",
                            "code": "0x",
                            "storage": {}
                        },
                        "0xa94f5374fce5edbc8e2a8697c15331677e6ebf0b": {
                            "nonce": "0x00",
                            "balance": "0x3635c9adc5dea00000",
                            "code": "0x",
                            "storage": {}
                        }
                    }
                }
            ]
        },
        "config": {
            "blobSchedule": {
                "Cancun": {
                    "target": "0x03",
                    "max": "0x06",
                    "baseFeeUpdateFraction": "0x32f0ed"
                },
                "Prague": {
                    "target": "0x06",
                    "max": "0x09",
                    "baseFeeUpdateFraction": "0x4c6964"
                }
            },
            "chainid": "0x01"
        },
        "_info": {
            "hash": "0x6099ea16a341d8135739a5f32012422ac60c5a40004fea537329a53a11dc67ca",
            "comment": "`execution-spec-tests` generated test",
            "filling-transition-tool": "evmone-t8n 0.15.0+commit.4977c945",
            "description": "Test function documentation:\nTests JUMPF and RETF in the same section.",
            "url": "https://github.com/ethereum/execution-spec-tests/blob/e0cd6da30255e19ca166878b4591a4497f40957c/tests/osaka/eip7692_eof_v1/eip6206_jumpf/test_jumpf_execution.py#L154",
            "fixture-format": "state_test",
            "reference-spec": "https://github.com/ethereum/EIPs/blob/master/EIPS/eip-6206.md",
            "reference-spec-version": "2f365ea0cd58faa6e26013ea77ce6d538175f7d0"
        }
    },
    "tests/osaka/eip7692_eof_v1/eip6206_jumpf/test_jumpf_execution.py::test_jumpf_and_retf[fork_Osaka-eof_state_test-1_to_2_arg0]": {
        "env": {
            "currentCoinbase": "0x2adc25665018aa1fe0e6bc666dac8fc2697ff9ba",
            "currentGasLimit": "0x016345785d8a0000",
            "currentNumber": "0x01",
            "currentTimestamp": "0x03e8",
            "currentRandom": "0x0000000000000000000000000000000000000000000000000000000000000000",
            "currentDifficulty": "0x00",
            "currentBaseFee": "0x07",
            "currentExcessBlobGas": "0x00"
        },
        "pre": {
            "0xa94f5374fce5edbc8e2a8697c15331677e6ebf0b": {
                "nonce": "0x00",
                "balance": "0x3635c9adc5dea00000",
                "code": "0x",
                "storage": {}
            },
            "0x8a0a19589531694250d570040a0c4b74576919b8": {
                "nonce": "0x00",
                "balance": "0x3635c9adc5dea00000",
                "code": "0x",
                "storage": {}
            },
            "0x0000000000000000000000000000000000001000": {
                "nonce": "0x01",
                "balance": "0x00",
                "code": "0xef000101000c020003000400080007ff000000008000000000000100000002e30001005fe10003e50002e4612015600155e4",
                "storage": {}
            }
        },
        "transaction": {
            "nonce": "0x00",
            "gasPrice": "0x0a",
            "gasLimit": [
                "0x989680"
            ],
            "to": "0x0000000000000000000000000000000000001000",
            "value": [
                "0x00"
            ],
            "data": [
                "0x"
            ],
            "sender": "0x8a0a19589531694250d570040a0c4b74576919b8",
            "secretKey": "0x9e7645d0cfd9c3a04eb7a9db59a4eb7d359f2e75c9164a9d6b9a7d54e1b6a36f"
        },
        "post": {
            "Osaka": [
                {
                    "hash": "0x754844dd1a73635edd338db975e17d9f3b5dbf60dcb8a400871e18a569b3645d",
                    "logs": "0x1dcc4de8dec75d7aab85b567b6ccd41ad312451b948a7413f0a142fd40d49347",
                    "txbytes": "0xf860800a83989680940000000000000000000000000000000000001000808025a0ee4b7012f87e423cf429499851f8becb39a147eab3f63d6426efd4d51718c6e8a04b788f452a534aab1d43e25fb5e92d1f86f730ea714f85bd045b26713ef65c99",
                    "indexes": {
                        "data": 0,
                        "gas": 0,
                        "value": 0
                    },
                    "state": {
                        "0x0000000000000000000000000000000000001000": {
                            "nonce": "0x01",
                            "balance": "0x00",
                            "code": "0xef000101000c020003000400080007ff000000008000000000000100000002e30001005fe10003e50002e4612015600155e4",
                            "storage": {
                                "0x01": "0x2015"
                            }
                        },
                        "0x2adc25665018aa1fe0e6bc666dac8fc2697ff9ba": {
                            "nonce": "0x00",
                            "balance": "0x01f95f",
                            "code": "0x",
                            "storage": {}
                        },
                        "0x8a0a19589531694250d570040a0c4b74576919b8": {
                            "nonce": "0x01",
                            "balance": "0x3635c9adc5de996b6e",
                            "code": "0x",
                            "storage": {}
                        },
                        "0xa94f5374fce5edbc8e2a8697c15331677e6ebf0b": {
                            "nonce": "0x00",
                            "balance": "0x3635c9adc5dea00000",
                            "code": "0x",
                            "storage": {}
                        }
                    }
                }
            ]
        },
        "config": {
            "blobSchedule": {
                "Cancun": {
                    "target": "0x03",
                    "max": "0x06",
                    "baseFeeUpdateFraction": "0x32f0ed"
                },
                "Prague": {
                    "target": "0x06",
                    "max": "0x09",
                    "baseFeeUpdateFraction": "0x4c6964"
                }
            },
            "chainid": "0x01"
        },
        "_info": {
            "hash": "0xc14630f3d51e8cda921e450ec83204a507706e2e9ef126b4b0babf3216472b4e",
            "comment": "`execution-spec-tests` generated test",
            "filling-transition-tool": "evmone-t8n 0.15.0+commit.4977c945",
            "description": "Test function documentation:\nTests JUMPF and RETF in the same section.",
            "url": "https://github.com/ethereum/execution-spec-tests/blob/e0cd6da30255e19ca166878b4591a4497f40957c/tests/osaka/eip7692_eof_v1/eip6206_jumpf/test_jumpf_execution.py#L154",
            "fixture-format": "state_test",
            "reference-spec": "https://github.com/ethereum/EIPs/blob/master/EIPS/eip-6206.md",
            "reference-spec-version": "2f365ea0cd58faa6e26013ea77ce6d538175f7d0"
        }
    },
    "tests/osaka/eip7692_eof_v1/eip6206_jumpf/test_jumpf_execution.py::test_jumpf_and_retf[fork_Osaka-eof_state_test-1_to_2_arg1]": {
        "env": {
            "currentCoinbase": "0x2adc25665018aa1fe0e6bc666dac8fc2697ff9ba",
            "currentGasLimit": "0x016345785d8a0000",
            "currentNumber": "0x01",
            "currentTimestamp": "0x03e8",
            "currentRandom": "0x0000000000000000000000000000000000000000000000000000000000000000",
            "currentDifficulty": "0x00",
            "currentBaseFee": "0x07",
            "currentExcessBlobGas": "0x00"
        },
        "pre": {
            "0xa94f5374fce5edbc8e2a8697c15331677e6ebf0b": {
                "nonce": "0x00",
                "balance": "0x3635c9adc5dea00000",
                "code": "0x",
                "storage": {}
            },
            "0x8a0a19589531694250d570040a0c4b74576919b8": {
                "nonce": "0x00",
                "balance": "0x3635c9adc5dea00000",
                "code": "0x",
                "storage": {}
            },
            "0x0000000000000000000000000000000000001000": {
                "nonce": "0x01",
                "balance": "0x00",
                "code": "0xef000101000c0200030006000d0001ff0000000080000101000001000000006001e3000100e10001e4612015600155e50002e4",
                "storage": {}
            }
        },
        "transaction": {
            "nonce": "0x00",
            "gasPrice": "0x0a",
            "gasLimit": [
                "0x989680"
            ],
            "to": "0x0000000000000000000000000000000000001000",
            "value": [
                "0x00"
            ],
            "data": [
                "0x"
            ],
            "sender": "0x8a0a19589531694250d570040a0c4b74576919b8",
            "secretKey": "0x9e7645d0cfd9c3a04eb7a9db59a4eb7d359f2e75c9164a9d6b9a7d54e1b6a36f"
        },
        "post": {
            "Osaka": [
                {
                    "hash": "0x4dbe565fd6fef9b778137a6c1913dc0fdd2eb4cfa25f1c77f2f8ff0b209b4b88",
                    "logs": "0x1dcc4de8dec75d7aab85b567b6ccd41ad312451b948a7413f0a142fd40d49347",
                    "txbytes": "0xf860800a83989680940000000000000000000000000000000000001000808025a0ee4b7012f87e423cf429499851f8becb39a147eab3f63d6426efd4d51718c6e8a04b788f452a534aab1d43e25fb5e92d1f86f730ea714f85bd045b26713ef65c99",
                    "indexes": {
                        "data": 0,
                        "gas": 0,
                        "value": 0
                    },
                    "state": {
                        "0x0000000000000000000000000000000000001000": {
                            "nonce": "0x01",
                            "balance": "0x00",
                            "code": "0xef000101000c0200030006000d0001ff0000000080000101000001000000006001e3000100e10001e4612015600155e50002e4",
                            "storage": {
                                "0x01": "0x2015"
                            }
                        },
                        "0x2adc25665018aa1fe0e6bc666dac8fc2697ff9ba": {
                            "nonce": "0x00",
                            "balance": "0x01f962",
                            "code": "0x",
                            "storage": {}
                        },
                        "0x8a0a19589531694250d570040a0c4b74576919b8": {
                            "nonce": "0x01",
                            "balance": "0x3635c9adc5de996b64",
                            "code": "0x",
                            "storage": {}
                        },
                        "0xa94f5374fce5edbc8e2a8697c15331677e6ebf0b": {
                            "nonce": "0x00",
                            "balance": "0x3635c9adc5dea00000",
                            "code": "0x",
                            "storage": {}
                        }
                    }
                }
            ]
        },
        "config": {
            "blobSchedule": {
                "Cancun": {
                    "target": "0x03",
                    "max": "0x06",
                    "baseFeeUpdateFraction": "0x32f0ed"
                },
                "Prague": {
                    "target": "0x06",
                    "max": "0x09",
                    "baseFeeUpdateFraction": "0x4c6964"
                }
            },
            "chainid": "0x01"
        },
        "_info": {
            "hash": "0x6ad7acaa4b9f4a7f515a5c76403996a668b318b890a21b4d5ebce02a7b5e46ee",
            "comment": "`execution-spec-tests` generated test",
            "filling-transition-tool": "evmone-t8n 0.15.0+commit.4977c945",
            "description": "Test function documentation:\nTests JUMPF and RETF in the same section.",
            "url": "https://github.com/ethereum/execution-spec-tests/blob/e0cd6da30255e19ca166878b4591a4497f40957c/tests/osaka/eip7692_eof_v1/eip6206_jumpf/test_jumpf_execution.py#L154",
            "fixture-format": "state_test",
            "reference-spec": "https://github.com/ethereum/EIPs/blob/master/EIPS/eip-6206.md",
            "reference-spec-version": "2f365ea0cd58faa6e26013ea77ce6d538175f7d0"
        }
    },
    "tests/osaka/eip7692_eof_v1/eip6206_jumpf/test_jumpf_execution.py::test_jumpf_and_retf[fork_Osaka-eof_state_test-jumpf_to_returning]": {
        "env": {
            "currentCoinbase": "0x2adc25665018aa1fe0e6bc666dac8fc2697ff9ba",
            "currentGasLimit": "0x016345785d8a0000",
            "currentNumber": "0x01",
            "currentTimestamp": "0x03e8",
            "currentRandom": "0x0000000000000000000000000000000000000000000000000000000000000000",
            "currentDifficulty": "0x00",
            "currentBaseFee": "0x07",
            "currentExcessBlobGas": "0x00"
        },
        "pre": {
            "0xa94f5374fce5edbc8e2a8697c15331677e6ebf0b": {
                "nonce": "0x00",
                "balance": "0x3635c9adc5dea00000",
                "code": "0x",
                "storage": {}
            },
            "0x8a0a19589531694250d570040a0c4b74576919b8": {
                "nonce": "0x00",
                "balance": "0x3635c9adc5dea00000",
                "code": "0x",
                "storage": {}
            }
        },
        "transaction": {
            "nonce": "0x00",
            "gasPrice": "0x0a",
            "gasLimit": [
                "0x989680"
            ],
            "value": [
                "0x00"
            ],
            "data": [
                "0xef000101000c020003000400070001ff0000000080000101800000000000005fe50001e10001e4e50002e4"
            ],
            "sender": "0x8a0a19589531694250d570040a0c4b74576919b8",
            "secretKey": "0x9e7645d0cfd9c3a04eb7a9db59a4eb7d359f2e75c9164a9d6b9a7d54e1b6a36f",
            "to": ""
        },
        "post": {
            "Osaka": [
                {
                    "hash": "0x681541921f101fd19143a8cbb7d7f46a645bbad0cf48a3459c35d942bb8ffb28",
                    "logs": "0x1dcc4de8dec75d7aab85b567b6ccd41ad312451b948a7413f0a142fd40d49347",
                    "txbytes": "0xf877800a839896808080abef000101000c020003000400070001ff0000000080000101800000000000005fe50001e10001e4e50002e426a0ff5cf1e8e47997bca1c12ed0fdacc4aaea8c20fe5e1e538c0c9016f055c25ba8a013cadb85359cf9784005b8d7c93dd2aef3e98ec28421677c0c8e36fc1eabbb90",
                    "indexes": {
                        "data": 0,
                        "gas": 0,
                        "value": 0
                    },
                    "state": {
                        "0x2adc25665018aa1fe0e6bc666dac8fc2697ff9ba": {
                            "nonce": "0x00",
                            "balance": "0x027264",
                            "code": "0x",
                            "storage": {}
                        },
                        "0x8a0a19589531694250d570040a0c4b74576919b8": {
                            "nonce": "0x01",
                            "balance": "0x3635c9adc5de97d808",
                            "code": "0x",
                            "storage": {}
                        },
                        "0xa94f5374fce5edbc8e2a8697c15331677e6ebf0b": {
                            "nonce": "0x00",
                            "balance": "0x3635c9adc5dea00000",
                            "code": "0x",
                            "storage": {}
                        }
                    }
                }
            ]
        },
        "config": {
            "blobSchedule": {
                "Cancun": {
                    "target": "0x03",
                    "max": "0x06",
                    "baseFeeUpdateFraction": "0x32f0ed"
                },
                "Prague": {
                    "target": "0x06",
                    "max": "0x09",
                    "baseFeeUpdateFraction": "0x4c6964"
                }
            },
            "chainid": "0x01"
        },
        "_info": {
            "hash": "0xd44d8432b307f9ccc3e8cec6004b5a512ddaab87e7854fab5cd7890c0b935f4e",
            "comment": "`execution-spec-tests` generated test",
            "filling-transition-tool": "evmone-t8n 0.15.0+commit.4977c945",
            "description": "Test function documentation:\nTests JUMPF and RETF in the same section.",
            "url": "https://github.com/ethereum/execution-spec-tests/blob/e0cd6da30255e19ca166878b4591a4497f40957c/tests/osaka/eip7692_eof_v1/eip6206_jumpf/test_jumpf_execution.py#L154",
            "fixture-format": "state_test",
            "reference-spec": "https://github.com/ethereum/EIPs/blob/master/EIPS/eip-6206.md",
            "reference-spec-version": "2f365ea0cd58faa6e26013ea77ce6d538175f7d0"
        }
    },
    "tests/osaka/eip7692_eof_v1/eip6206_jumpf/test_jumpf_execution.py::test_jumpf_and_retf[fork_Osaka-eof_state_test-jumpf_to_returning_2]": {
        "env": {
            "currentCoinbase": "0x2adc25665018aa1fe0e6bc666dac8fc2697ff9ba",
            "currentGasLimit": "0x016345785d8a0000",
            "currentNumber": "0x01",
            "currentTimestamp": "0x03e8",
            "currentRandom": "0x0000000000000000000000000000000000000000000000000000000000000000",
            "currentDifficulty": "0x00",
            "currentBaseFee": "0x07",
            "currentExcessBlobGas": "0x00"
        },
        "pre": {
            "0xa94f5374fce5edbc8e2a8697c15331677e6ebf0b": {
                "nonce": "0x00",
                "balance": "0x3635c9adc5dea00000",
                "code": "0x",
                "storage": {}
            },
            "0x8a0a19589531694250d570040a0c4b74576919b8": {
                "nonce": "0x00",
                "balance": "0x3635c9adc5dea00000",
                "code": "0x",
                "storage": {}
            }
        },
        "transaction": {
            "nonce": "0x00",
            "gasPrice": "0x0a",
            "gasLimit": [
                "0x989680"
            ],
            "value": [
                "0x00"
            ],
            "data": [
                "0xef000101000c020003000400070001ff0000000080000101800000000000005fe50001e10003e50002e4e4"
            ],
            "sender": "0x8a0a19589531694250d570040a0c4b74576919b8",
            "secretKey": "0x9e7645d0cfd9c3a04eb7a9db59a4eb7d359f2e75c9164a9d6b9a7d54e1b6a36f",
            "to": ""
        },
        "post": {
            "Osaka": [
                {
                    "hash": "0x681541921f101fd19143a8cbb7d7f46a645bbad0cf48a3459c35d942bb8ffb28",
                    "logs": "0x1dcc4de8dec75d7aab85b567b6ccd41ad312451b948a7413f0a142fd40d49347",
                    "txbytes": "0xf877800a839896808080abef000101000c020003000400070001ff0000000080000101800000000000005fe50001e10003e50002e4e425a053846afdc5369d7119b56622104b4a3c1c5187aab7c4aabfa280c6e1bfacbe9da02e15b39c244f83db70e0cf73bda7cd27f28918e93dc5cc7235dcaf58f6371770",
                    "indexes": {
                        "data": 0,
                        "gas": 0,
                        "value": 0
                    },
                    "state": {
                        "0x2adc25665018aa1fe0e6bc666dac8fc2697ff9ba": {
                            "nonce": "0x00",
                            "balance": "0x027264",
                            "code": "0x",
                            "storage": {}
                        },
                        "0x8a0a19589531694250d570040a0c4b74576919b8": {
                            "nonce": "0x01",
                            "balance": "0x3635c9adc5de97d808",
                            "code": "0x",
                            "storage": {}
                        },
                        "0xa94f5374fce5edbc8e2a8697c15331677e6ebf0b": {
                            "nonce": "0x00",
                            "balance": "0x3635c9adc5dea00000",
                            "code": "0x",
                            "storage": {}
                        }
                    }
                }
            ]
        },
        "config": {
            "blobSchedule": {
                "Cancun": {
                    "target": "0x03",
                    "max": "0x06",
                    "baseFeeUpdateFraction": "0x32f0ed"
                },
                "Prague": {
                    "target": "0x06",
                    "max": "0x09",
                    "baseFeeUpdateFraction": "0x4c6964"
                }
            },
            "chainid": "0x01"
        },
        "_info": {
            "hash": "0xb1aec772398d4267e7812f2b9e36833c3d2762a6e5f602ca9e2751ec166ea064",
            "comment": "`execution-spec-tests` generated test",
            "filling-transition-tool": "evmone-t8n 0.15.0+commit.4977c945",
            "description": "Test function documentation:\nTests JUMPF and RETF in the same section.",
            "url": "https://github.com/ethereum/execution-spec-tests/blob/e0cd6da30255e19ca166878b4591a4497f40957c/tests/osaka/eip7692_eof_v1/eip6206_jumpf/test_jumpf_execution.py#L154",
            "fixture-format": "state_test",
            "reference-spec": "https://github.com/ethereum/EIPs/blob/master/EIPS/eip-6206.md",
            "reference-spec-version": "2f365ea0cd58faa6e26013ea77ce6d538175f7d0"
        }
    },
    "tests/osaka/eip7692_eof_v1/eip6206_jumpf/test_jumpf_execution.py::test_jumpf_and_retf[fork_Osaka-eof_state_test-retf_in_nonreturning]": {
        "env": {
            "currentCoinbase": "0x2adc25665018aa1fe0e6bc666dac8fc2697ff9ba",
            "currentGasLimit": "0x016345785d8a0000",
            "currentNumber": "0x01",
            "currentTimestamp": "0x03e8",
            "currentRandom": "0x0000000000000000000000000000000000000000000000000000000000000000",
            "currentDifficulty": "0x00",
            "currentBaseFee": "0x07",
            "currentExcessBlobGas": "0x00"
        },
        "pre": {
            "0xa94f5374fce5edbc8e2a8697c15331677e6ebf0b": {
                "nonce": "0x00",
                "balance": "0x3635c9adc5dea00000",
                "code": "0x",
                "storage": {}
            },
            "0x8a0a19589531694250d570040a0c4b74576919b8": {
                "nonce": "0x00",
                "balance": "0x3635c9adc5dea00000",
                "code": "0x",
                "storage": {}
            }
        },
        "transaction": {
            "nonce": "0x00",
            "gasPrice": "0x0a",
            "gasLimit": [
                "0x989680"
            ],
            "value": [
                "0x00"
            ],
            "data": [
                "0xef000101000802000200040007ff00000000800001018000005fe50001e10001e4e50000"
            ],
            "sender": "0x8a0a19589531694250d570040a0c4b74576919b8",
            "secretKey": "0x9e7645d0cfd9c3a04eb7a9db59a4eb7d359f2e75c9164a9d6b9a7d54e1b6a36f",
            "to": ""
        },
        "post": {
            "Osaka": [
                {
                    "hash": "0x2e2c6496b169a35a737467f7459de041fde75c334377cb1018b8d3e23ae3dfd3",
                    "logs": "0x1dcc4de8dec75d7aab85b567b6ccd41ad312451b948a7413f0a142fd40d49347",
                    "txbytes": "0xf870800a839896808080a4ef000101000802000200040007ff00000000800001018000005fe50001e10001e4e5000026a07407f86cdf80e781fb9fcaeaebdbf593c95ed5facc111c203b7debda26bc4c85a004da05279827959a25ecb0dac97f611a73cf5718e6aa13a199469e76f5780397",
                    "indexes": {
                        "data": 0,
                        "gas": 0,
                        "value": 0
                    },
                    "state": {
                        "0x2adc25665018aa1fe0e6bc666dac8fc2697ff9ba": {
                            "nonce": "0x00",
                            "balance": "0x0271a4",
                            "code": "0x",
                            "storage": {}
                        },
                        "0x8a0a19589531694250d570040a0c4b74576919b8": {
                            "nonce": "0x01",
                            "balance": "0x3635c9adc5de97da88",
                            "code": "0x",
                            "storage": {}
                        },
                        "0xa94f5374fce5edbc8e2a8697c15331677e6ebf0b": {
                            "nonce": "0x00",
                            "balance": "0x3635c9adc5dea00000",
                            "code": "0x",
                            "storage": {}
                        }
                    }
                }
            ]
        },
        "config": {
            "blobSchedule": {
                "Cancun": {
                    "target": "0x03",
                    "max": "0x06",
                    "baseFeeUpdateFraction": "0x32f0ed"
                },
                "Prague": {
                    "target": "0x06",
                    "max": "0x09",
                    "baseFeeUpdateFraction": "0x4c6964"
                }
            },
            "chainid": "0x01"
        },
        "_info": {
            "hash": "0x1f185d164a2fbd288bd70a8d00ba7096044fe21723499083442cfabbbc403187",
            "comment": "`execution-spec-tests` generated test",
            "filling-transition-tool": "evmone-t8n 0.15.0+commit.4977c945",
            "description": "Test function documentation:\nTests JUMPF and RETF in the same section.",
            "url": "https://github.com/ethereum/execution-spec-tests/blob/e0cd6da30255e19ca166878b4591a4497f40957c/tests/osaka/eip7692_eof_v1/eip6206_jumpf/test_jumpf_execution.py#L154",
            "fixture-format": "state_test",
            "reference-spec": "https://github.com/ethereum/EIPs/blob/master/EIPS/eip-6206.md",
            "reference-spec-version": "2f365ea0cd58faa6e26013ea77ce6d538175f7d0"
        }
    }
}