{
    "tests/osaka/eip7692_eof_v1/eip7620_eof_create/test_eofcreate.py::test_auxdata_variations[fork_Osaka-state_test-exact]": {
        "env": {
            "currentCoinbase": "0x2adc25665018aa1fe0e6bc666dac8fc2697ff9ba",
            "currentGasLimit": "0x016345785d8a0000",
            "currentNumber": "0x01",
            "currentTimestamp": "0x03e8",
            "currentRandom": "0x0000000000000000000000000000000000000000000000000000000000000000",
            "currentDifficulty": "0x00",
            "currentBaseFee": "0x07",
            "currentExcessBlobGas": "0x00"
        },
        "pre": {
            "0xa94f5374fce5edbc8e2a8697c15331677e6ebf0b": {
                "nonce": "0x00",
                "balance": "0x3635c9adc5dea00000",
                "code": "0x",
                "storage": {}
            },
            "0x0000000000000000000000000000000000001000": {
                "nonce": "0x01",
                "balance": "0x00",
                "code": "0xef0001010004020001000e0300010000005eff000000008000046000600060006000ec0060035500ef0001010004020001002a0300010000001aff000000008000027f6161626263636464656566660000000000000000000000000000000000000000600052600c6000ee00ef00010100040200010001ff0012000080000000414142424343",
                "storage": {
                    "0x03": "0x2009"
                }
            }
        },
        "transaction": {
            "nonce": "0x00",
            "gasPrice": "0x0a",
            "gasLimit": [
                "0x989680"
            ],
            "to": "0x0000000000000000000000000000000000001000",
            "value": [
                "0x00"
            ],
            "data": [
                "0x"
            ],
            "sender": "0xa94f5374fce5edbc8e2a8697c15331677e6ebf0b",
            "secretKey": "0x45a915e4d060149eb4365960e6a7a45f334393093061116b197e3240065ff2d8"
        },
        "post": {
            "Osaka": [
                {
                    "hash": "0xf15aa3d738d79cb96db8e52f8685d94115e85c14894177e00ef1b88e0cd3c035",
                    "logs": "0x1dcc4de8dec75d7aab85b567b6ccd41ad312451b948a7413f0a142fd40d49347",
                    "txbytes": "0xf860800a8398968094000000000000000000000000000000000000100080801ba00a827f57dab1e27137696202f240cb95cfc25acf2f077f6b32a7ca3ac039baf0a055fdd3269172368d880a16fa4192049edd5211d8cbb1d5222a0a77b11174d574",
                    "indexes": {
                        "data": 0,
                        "gas": 0,
                        "value": 0
                    },
                    "state": {
                        "0x0000000000000000000000000000000000001000": {
                            "nonce": "0x02",
                            "balance": "0x00",
                            "code": "0xef0001010004020001000e0300010000005eff000000008000046000600060006000ec0060035500ef0001010004020001002a0300010000001aff000000008000027f6161626263636464656566660000000000000000000000000000000000000000600052600c6000ee00ef00010100040200010001ff0012000080000000414142424343",
                            "storage": {
                                "0x03": "0x0a2c788d0e30f758f32d063d3203355e8bad4c0f"
                            }
                        },
                        "0x0a2c788d0e30f758f32d063d3203355e8bad4c0f": {
                            "nonce": "0x01",
                            "balance": "0x00",
                            "code": "0xef00010100040200010001ff0012000080000000414142424343616162626363646465656666",
                            "storage": {}
                        },
                        "0x2adc25665018aa1fe0e6bc666dac8fc2697ff9ba": {
                            "nonce": "0x00",
                            "balance": "0x030123",
                            "code": "0x",
                            "storage": {}
                        },
                        "0xa94f5374fce5edbc8e2a8697c15331677e6ebf0b": {
                            "nonce": "0x01",
                            "balance": "0x3635c9adc5de95fc36",
                            "code": "0x",
                            "storage": {}
                        }
                    }
                }
            ]
        },
        "config": {
            "blobSchedule": {
                "Cancun": {
                    "target": "0x03",
                    "max": "0x06",
                    "baseFeeUpdateFraction": "0x32f0ed"
                },
                "Prague": {
                    "target": "0x06",
                    "max": "0x09",
                    "baseFeeUpdateFraction": "0x4c6964"
                }
            },
            "chainid": "0x01"
        },
        "_info": {
            "hash": "0xb991ba02684d2918582d6b863e680f71ad2056e7bb5ac1087829da05d8fabaed",
            "comment": "`execution-spec-tests` generated test",
            "filling-transition-tool": "evmone-t8n 0.15.0+commit.4977c945",
            "description": "Test function documentation:\nVerifies that auxdata bytes are correctly handled in RETURNCODE.",
            "url": "https://github.com/ethereum/execution-spec-tests/blob/e0cd6da30255e19ca166878b4591a4497f40957c/tests/osaka/eip7692_eof_v1/eip7620_eof_create/test_eofcreate.py#L181",
            "fixture-format": "state_test",
            "reference-spec": "https://github.com/ethereum/EIPs/blob/master/EIPS/eip-7620.md",
            "reference-spec-version": "52ddbcdddcf72dd72427c319f2beddeb468e1737"
        }
    },
    "tests/osaka/eip7692_eof_v1/eip7620_eof_create/test_eofcreate.py::test_auxdata_variations[fork_Osaka-state_test-extra]": {
        "env": {
            "currentCoinbase": "0x2adc25665018aa1fe0e6bc666dac8fc2697ff9ba",
            "currentGasLimit": "0x016345785d8a0000",
            "currentNumber": "0x01",
            "currentTimestamp": "0x03e8",
            "currentRandom": "0x0000000000000000000000000000000000000000000000000000000000000000",
            "currentDifficulty": "0x00",
            "currentBaseFee": "0x07",
            "currentExcessBlobGas": "0x00"
        },
        "pre": {
            "0xa94f5374fce5edbc8e2a8697c15331677e6ebf0b": {
                "nonce": "0x00",
                "balance": "0x3635c9adc5dea00000",
                "code": "0x",
                "storage": {}
            },
            "0x0000000000000000000000000000000000001000": {
                "nonce": "0x01",
                "balance": "0x00",
                "code": "0xef0001010004020001000e0300010000005eff000000008000046000600060006000ec0060035500ef0001010004020001002a0300010000001aff000000008000027f616162626363646465656666676768686969000000000000000000000000000060005260126000ee00ef00010100040200010001ff0012000080000000414142424343",
                "storage": {
                    "0x03": "0x2009"
                }
            }
        },
        "transaction": {
            "nonce": "0x00",
            "gasPrice": "0x0a",
            "gasLimit": [
                "0x989680"
            ],
            "to": "0x0000000000000000000000000000000000001000",
            "value": [
                "0x00"
            ],
            "data": [
                "0x"
            ],
            "sender": "0xa94f5374fce5edbc8e2a8697c15331677e6ebf0b",
            "secretKey": "0x45a915e4d060149eb4365960e6a7a45f334393093061116b197e3240065ff2d8"
        },
        "post": {
            "Osaka": [
                {
                    "hash": "0xe27cbf27856e3c2b94b473840f027cb6646055cb5742d85c2ffbf1664157be46",
                    "logs": "0x1dcc4de8dec75d7aab85b567b6ccd41ad312451b948a7413f0a142fd40d49347",
                    "txbytes": "0xf860800a8398968094000000000000000000000000000000000000100080801ba00a827f57dab1e27137696202f240cb95cfc25acf2f077f6b32a7ca3ac039baf0a055fdd3269172368d880a16fa4192049edd5211d8cbb1d5222a0a77b11174d574",
                    "indexes": {
                        "data": 0,
                        "gas": 0,
                        "value": 0
                    },
                    "state": {
                        "0x0000000000000000000000000000000000001000": {
                            "nonce": "0x02",
                            "balance": "0x00",
                            "code": "0xef0001010004020001000e0300010000005eff000000008000046000600060006000ec0060035500ef0001010004020001002a0300010000001aff000000008000027f616162626363646465656666676768686969000000000000000000000000000060005260126000ee00ef00010100040200010001ff0012000080000000414142424343",
                            "storage": {
                                "0x03": "0x0a2c788d0e30f758f32d063d3203355e8bad4c0f"
                            }
                        },
                        "0x0a2c788d0e30f758f32d063d3203355e8bad4c0f": {
                            "nonce": "0x01",
                            "balance": "0x00",
                            "code": "0xef00010100040200010001ff0018000080000000414142424343616162626363646465656666676768686969",
                            "storage": {}
                        },
                        "0x2adc25665018aa1fe0e6bc666dac8fc2697ff9ba": {
                            "nonce": "0x00",
                            "balance": "0x030f33",
                            "code": "0x",
                            "storage": {}
                        },
                        "0xa94f5374fce5edbc8e2a8697c15331677e6ebf0b": {
                            "nonce": "0x01",
                            "balance": "0x3635c9adc5de95cd56",
                            "code": "0x",
                            "storage": {}
                        }
                    }
                }
            ]
        },
        "config": {
            "blobSchedule": {
                "Cancun": {
                    "target": "0x03",
                    "max": "0x06",
                    "baseFeeUpdateFraction": "0x32f0ed"
                },
                "Prague": {
                    "target": "0x06",
                    "max": "0x09",
                    "baseFeeUpdateFraction": "0x4c6964"
                }
            },
            "chainid": "0x01"
        },
        "_info": {
            "hash": "0x434eca42d6724160a8b2a523b989a6fb8619a34b77eb32afe1a6d019c93f1f14",
            "comment": "`execution-spec-tests` generated test",
            "filling-transition-tool": "evmone-t8n 0.15.0+commit.4977c945",
            "description": "Test function documentation:\nVerifies that auxdata bytes are correctly handled in RETURNCODE.",
            "url": "https://github.com/ethereum/execution-spec-tests/blob/e0cd6da30255e19ca166878b4591a4497f40957c/tests/osaka/eip7692_eof_v1/eip7620_eof_create/test_eofcreate.py#L181",
            "fixture-format": "state_test",
            "reference-spec": "https://github.com/ethereum/EIPs/blob/master/EIPS/eip-7620.md",
            "reference-spec-version": "52ddbcdddcf72dd72427c319f2beddeb468e1737"
        }
    },
    "tests/osaka/eip7692_eof_v1/eip7620_eof_create/test_eofcreate.py::test_auxdata_variations[fork_Osaka-state_test-one_byte_long]": {
        "env": {
            "currentCoinbase": "0x2adc25665018aa1fe0e6bc666dac8fc2697ff9ba",
            "currentGasLimit": "0x016345785d8a0000",
            "currentNumber": "0x01",
            "currentTimestamp": "0x03e8",
            "currentRandom": "0x0000000000000000000000000000000000000000000000000000000000000000",
            "currentDifficulty": "0x00",
            "currentBaseFee": "0x07",
            "currentExcessBlobGas": "0x00"
        },
        "pre": {
            "0xa94f5374fce5edbc8e2a8697c15331677e6ebf0b": {
                "nonce": "0x00",
                "balance": "0x3635c9adc5dea00000",
                "code": "0x",
                "storage": {}
            },
            "0x0000000000000000000000000000000000001000": {
                "nonce": "0x01",
                "balance": "0x00",
                "code": "0xef0001010004020001000e0300010000005eff000000008000046000600060006000ec0060035500ef0001010004020001002a0300010000001aff000000008000027f6161626263636464656566666700000000000000000000000000000000000000600052600d6000ee00ef00010100040200010001ff0012000080000000414142424343",
                "storage": {
                    "0x03": "0x2009"
                }
            }
        },
        "transaction": {
            "nonce": "0x00",
            "gasPrice": "0x0a",
            "gasLimit": [
                "0x989680"
            ],
            "to": "0x0000000000000000000000000000000000001000",
            "value": [
                "0x00"
            ],
            "data": [
                "0x"
            ],
            "sender": "0xa94f5374fce5edbc8e2a8697c15331677e6ebf0b",
            "secretKey": "0x45a915e4d060149eb4365960e6a7a45f334393093061116b197e3240065ff2d8"
        },
        "post": {
            "Osaka": [
                {
                    "hash": "0x4d838a93f620fbc9b0545aaeedf93fbf40e2c0ab9ee6f4886b099f699d1207e8",
                    "logs": "0x1dcc4de8dec75d7aab85b567b6ccd41ad312451b948a7413f0a142fd40d49347",
                    "txbytes": "0xf860800a8398968094000000000000000000000000000000000000100080801ba00a827f57dab1e27137696202f240cb95cfc25acf2f077f6b32a7ca3ac039baf0a055fdd3269172368d880a16fa4192049edd5211d8cbb1d5222a0a77b11174d574",
                    "indexes": {
                        "data": 0,
                        "gas": 0,
                        "value": 0
                    },
                    "state": {
                        "0x0000000000000000000000000000000000001000": {
                            "nonce": "0x02",
                            "balance": "0x00",
                            "code": "0xef0001010004020001000e0300010000005eff000000008000046000600060006000ec0060035500ef0001010004020001002a0300010000001aff000000008000027f6161626263636464656566666700000000000000000000000000000000000000600052600d6000ee00ef00010100040200010001ff0012000080000000414142424343",
                            "storage": {
                                "0x03": "0x0a2c788d0e30f758f32d063d3203355e8bad4c0f"
                            }
                        },
                        "0x0a2c788d0e30f758f32d063d3203355e8bad4c0f": {
                            "nonce": "0x01",
                            "balance": "0x00",
                            "code": "0xef00010100040200010001ff001300008000000041414242434361616262636364646565666667",
                            "storage": {}
                        },
                        "0x2adc25665018aa1fe0e6bc666dac8fc2697ff9ba": {
                            "nonce": "0x00",
                            "balance": "0x03037b",
                            "code": "0x",
                            "storage": {}
                        },
                        "0xa94f5374fce5edbc8e2a8697c15331677e6ebf0b": {
                            "nonce": "0x01",
                            "balance": "0x3635c9adc5de95f466",
                            "code": "0x",
                            "storage": {}
                        }
                    }
                }
            ]
        },
        "config": {
            "blobSchedule": {
                "Cancun": {
                    "target": "0x03",
                    "max": "0x06",
                    "baseFeeUpdateFraction": "0x32f0ed"
                },
                "Prague": {
                    "target": "0x06",
                    "max": "0x09",
                    "baseFeeUpdateFraction": "0x4c6964"
                }
            },
            "chainid": "0x01"
        },
        "_info": {
            "hash": "0xe47c89878353c710eb51c8d01b6620db5dfff7ee5beb31a2af4aa53c732977df",
            "comment": "`execution-spec-tests` generated test",
            "filling-transition-tool": "evmone-t8n 0.15.0+commit.4977c945",
            "description": "Test function documentation:\nVerifies that auxdata bytes are correctly handled in RETURNCODE.",
            "url": "https://github.com/ethereum/execution-spec-tests/blob/e0cd6da30255e19ca166878b4591a4497f40957c/tests/osaka/eip7692_eof_v1/eip7620_eof_create/test_eofcreate.py#L181",
            "fixture-format": "state_test",
            "reference-spec": "https://github.com/ethereum/EIPs/blob/master/EIPS/eip-7620.md",
            "reference-spec-version": "52ddbcdddcf72dd72427c319f2beddeb468e1737"
        }
    },
    "tests/osaka/eip7692_eof_v1/eip7620_eof_create/test_eofcreate.py::test_auxdata_variations[fork_Osaka-state_test-one_byte_short]": {
        "env": {
            "currentCoinbase": "0x2adc25665018aa1fe0e6bc666dac8fc2697ff9ba",
            "currentGasLimit": "0x016345785d8a0000",
            "currentNumber": "0x01",
            "currentTimestamp": "0x03e8",
            "currentRandom": "0x0000000000000000000000000000000000000000000000000000000000000000",
            "currentDifficulty": "0x00",
            "currentBaseFee": "0x07",
            "currentExcessBlobGas": "0x00"
        },
        "pre": {
            "0xa94f5374fce5edbc8e2a8697c15331677e6ebf0b": {
                "nonce": "0x00",
                "balance": "0x3635c9adc5dea00000",
                "code": "0x",
                "storage": {}
            },
            "0x0000000000000000000000000000000000001000": {
                "nonce": "0x01",
                "balance": "0x00",
                "code": "0xef0001010004020001000e0300010000005eff000000008000046000600060006000ec0060035500ef0001010004020001002a0300010000001aff000000008000027f6161626263636464656566000000000000000000000000000000000000000000600052600b6000ee00ef00010100040200010001ff0012000080000000414142424343",
                "storage": {
                    "0x03": "0x2009"
                }
            }
        },
        "transaction": {
            "nonce": "0x00",
            "gasPrice": "0x0a",
            "gasLimit": [
                "0x989680"
            ],
            "to": "0x0000000000000000000000000000000000001000",
            "value": [
                "0x00"
            ],
            "data": [
                "0x"
            ],
            "sender": "0xa94f5374fce5edbc8e2a8697c15331677e6ebf0b",
            "secretKey": "0x45a915e4d060149eb4365960e6a7a45f334393093061116b197e3240065ff2d8"
        },
        "post": {
            "Osaka": [
                {
                    "hash": "0xefc8b2273faaf40e07b8ce57b96927db6a4728a696d97dba4c000387af14ab55",
                    "logs": "0x1dcc4de8dec75d7aab85b567b6ccd41ad312451b948a7413f0a142fd40d49347",
                    "txbytes": "0xf860800a8398968094000000000000000000000000000000000000100080801ba00a827f57dab1e27137696202f240cb95cfc25acf2f077f6b32a7ca3ac039baf0a055fdd3269172368d880a16fa4192049edd5211d8cbb1d5222a0a77b11174d574",
                    "indexes": {
                        "data": 0,
                        "gas": 0,
                        "value": 0
                    },
                    "state": {
                        "0x0000000000000000000000000000000000001000": {
                            "nonce": "0x02",
                            "balance": "0x00",
                            "code": "0xef0001010004020001000e0300010000005eff000000008000046000600060006000ec0060035500ef0001010004020001002a0300010000001aff000000008000027f6161626263636464656566000000000000000000000000000000000000000000600052600b6000ee00ef00010100040200010001ff0012000080000000414142424343",
                            "storage": {}
                        },
                        "0x2adc25665018aa1fe0e6bc666dac8fc2697ff9ba": {
                            "nonce": "0x00",
                            "balance": "0x01c2a88a",
                            "code": "0x",
                            "storage": {}
                        },
                        "0xa94f5374fce5edbc8e2a8697c15331677e6ebf0b": {
                            "nonce": "0x01",
                            "balance": "0x3635c9adc5d8c1ce34",
                            "code": "0x",
                            "storage": {}
                        }
                    }
                }
            ]
        },
        "config": {
            "blobSchedule": {
                "Cancun": {
                    "target": "0x03",
                    "max": "0x06",
                    "baseFeeUpdateFraction": "0x32f0ed"
                },
                "Prague": {
                    "target": "0x06",
                    "max": "0x09",
                    "baseFeeUpdateFraction": "0x4c6964"
                }
            },
            "chainid": "0x01"
        },
        "_info": {
            "hash": "0xd432b354df669ed0091ce14455744f987c448a2d6611bbae6ff71679b8b666b9",
            "comment": "`execution-spec-tests` generated test",
            "filling-transition-tool": "evmone-t8n 0.15.0+commit.4977c945",
            "description": "Test function documentation:\nVerifies that auxdata bytes are correctly handled in RETURNCODE.",
            "url": "https://github.com/ethereum/execution-spec-tests/blob/e0cd6da30255e19ca166878b4591a4497f40957c/tests/osaka/eip7692_eof_v1/eip7620_eof_create/test_eofcreate.py#L181",
            "fixture-format": "state_test",
            "reference-spec": "https://github.com/ethereum/EIPs/blob/master/EIPS/eip-7620.md",
            "reference-spec-version": "52ddbcdddcf72dd72427c319f2beddeb468e1737"
        }
    },
    "tests/osaka/eip7692_eof_v1/eip7620_eof_create/test_eofcreate.py::test_auxdata_variations[fork_Osaka-state_test-short]": {
        "env": {
            "currentCoinbase": "0x2adc25665018aa1fe0e6bc666dac8fc2697ff9ba",
            "currentGasLimit": "0x016345785d8a0000",
            "currentNumber": "0x01",
            "currentTimestamp": "0x03e8",
            "currentRandom": "0x0000000000000000000000000000000000000000000000000000000000000000",
            "currentDifficulty": "0x00",
            "currentBaseFee": "0x07",
            "currentExcessBlobGas": "0x00"
        },
        "pre": {
            "0xa94f5374fce5edbc8e2a8697c15331677e6ebf0b": {
                "nonce": "0x00",
                "balance": "0x3635c9adc5dea00000",
                "code": "0x",
                "storage": {}
            },
            "0x0000000000000000000000000000000000001000": {
                "nonce": "0x01",
                "balance": "0x00",
                "code": "0xef0001010004020001000e0300010000005eff000000008000046000600060006000ec0060035500ef0001010004020001002a0300010000001aff000000008000027f616162626363000000000000000000000000000000000000000000000000000060005260066000ee00ef00010100040200010001ff0012000080000000414142424343",
                "storage": {
                    "0x03": "0x2009"
                }
            }
        },
        "transaction": {
            "nonce": "0x00",
            "gasPrice": "0x0a",
            "gasLimit": [
                "0x989680"
            ],
            "to": "0x0000000000000000000000000000000000001000",
            "value": [
                "0x00"
            ],
            "data": [
                "0x"
            ],
            "sender": "0xa94f5374fce5edbc8e2a8697c15331677e6ebf0b",
            "secretKey": "0x45a915e4d060149eb4365960e6a7a45f334393093061116b197e3240065ff2d8"
        },
        "post": {
            "Osaka": [
                {
                    "hash": "0xa6214034c32ee3e0a485d454e05565b1bb9eda1a20cd13acce4fa48121b4b807",
                    "logs": "0x1dcc4de8dec75d7aab85b567b6ccd41ad312451b948a7413f0a142fd40d49347",
                    "txbytes": "0xf860800a8398968094000000000000000000000000000000000000100080801ba00a827f57dab1e27137696202f240cb95cfc25acf2f077f6b32a7ca3ac039baf0a055fdd3269172368d880a16fa4192049edd5211d8cbb1d5222a0a77b11174d574",
                    "indexes": {
                        "data": 0,
                        "gas": 0,
                        "value": 0
                    },
                    "state": {
                        "0x0000000000000000000000000000000000001000": {
                            "nonce": "0x02",
                            "balance": "0x00",
                            "code": "0xef0001010004020001000e0300010000005eff000000008000046000600060006000ec0060035500ef0001010004020001002a0300010000001aff000000008000027f616162626363000000000000000000000000000000000000000000000000000060005260066000ee00ef00010100040200010001ff0012000080000000414142424343",
                            "storage": {}
                        },
                        "0x2adc25665018aa1fe0e6bc666dac8fc2697ff9ba": {
                            "nonce": "0x00",
                            "balance": "0x01c2a88a",
                            "code": "0x",
                            "storage": {}
                        },
                        "0xa94f5374fce5edbc8e2a8697c15331677e6ebf0b": {
                            "nonce": "0x01",
                            "balance": "0x3635c9adc5d8c1ce34",
                            "code": "0x",
                            "storage": {}
                        }
                    }
                }
            ]
        },
        "config": {
            "blobSchedule": {
                "Cancun": {
                    "target": "0x03",
                    "max": "0x06",
                    "baseFeeUpdateFraction": "0x32f0ed"
                },
                "Prague": {
                    "target": "0x06",
                    "max": "0x09",
                    "baseFeeUpdateFraction": "0x4c6964"
                }
            },
            "chainid": "0x01"
        },
        "_info": {
            "hash": "0x1bcb2bf22dfab7498f4c992312cf00556832074a88e2e9c2a053e3450160472e",
            "comment": "`execution-spec-tests` generated test",
            "filling-transition-tool": "evmone-t8n 0.15.0+commit.4977c945",
            "description": "Test function documentation:\nVerifies that auxdata bytes are correctly handled in RETURNCODE.",
            "url": "https://github.com/ethereum/execution-spec-tests/blob/e0cd6da30255e19ca166878b4591a4497f40957c/tests/osaka/eip7692_eof_v1/eip7620_eof_create/test_eofcreate.py#L181",
            "fixture-format": "state_test",
            "reference-spec": "https://github.com/ethereum/EIPs/blob/master/EIPS/eip-7620.md",
            "reference-spec-version": "52ddbcdddcf72dd72427c319f2beddeb468e1737"
        }
    },
    "tests/osaka/eip7692_eof_v1/eip7620_eof_create/test_eofcreate.py::test_auxdata_variations[fork_Osaka-state_test-zero]": {
        "env": {
            "currentCoinbase": "0x2adc25665018aa1fe0e6bc666dac8fc2697ff9ba",
            "currentGasLimit": "0x016345785d8a0000",
            "currentNumber": "0x01",
            "currentTimestamp": "0x03e8",
            "currentRandom": "0x0000000000000000000000000000000000000000000000000000000000000000",
            "currentDifficulty": "0x00",
            "currentBaseFee": "0x07",
            "currentExcessBlobGas": "0x00"
        },
        "pre": {
            "0xa94f5374fce5edbc8e2a8697c15331677e6ebf0b": {
                "nonce": "0x00",
                "balance": "0x3635c9adc5dea00000",
                "code": "0x",
                "storage": {}
            },
            "0x0000000000000000000000000000000000001000": {
                "nonce": "0x01",
                "balance": "0x00",
                "code": "0xef0001010004020001000e0300010000005eff000000008000046000600060006000ec0060035500ef0001010004020001002a0300010000001aff000000008000027f000000000000000000000000000000000000000000000000000000000000000060005260006000ee00ef00010100040200010001ff0012000080000000414142424343",
                "storage": {
                    "0x03": "0x2009"
                }
            }
        },
        "transaction": {
            "nonce": "0x00",
            "gasPrice": "0x0a",
            "gasLimit": [
                "0x989680"
            ],
            "to": "0x0000000000000000000000000000000000001000",
            "value": [
                "0x00"
            ],
            "data": [
                "0x"
            ],
            "sender": "0xa94f5374fce5edbc8e2a8697c15331677e6ebf0b",
            "secretKey": "0x45a915e4d060149eb4365960e6a7a45f334393093061116b197e3240065ff2d8"
        },
        "post": {
            "Osaka": [
                {
                    "hash": "0x7cd14130fde556b2bd95e4a0b68d7255a3b47346b5a7a99dfff79bcdbcbfff39",
                    "logs": "0x1dcc4de8dec75d7aab85b567b6ccd41ad312451b948a7413f0a142fd40d49347",
                    "txbytes": "0xf860800a8398968094000000000000000000000000000000000000100080801ba00a827f57dab1e27137696202f240cb95cfc25acf2f077f6b32a7ca3ac039baf0a055fdd3269172368d880a16fa4192049edd5211d8cbb1d5222a0a77b11174d574",
                    "indexes": {
                        "data": 0,
                        "gas": 0,
                        "value": 0
                    },
                    "state": {
                        "0x0000000000000000000000000000000000001000": {
                            "nonce": "0x02",
                            "balance": "0x00",
                            "code": "0xef0001010004020001000e0300010000005eff000000008000046000600060006000ec0060035500ef0001010004020001002a0300010000001aff000000008000027f000000000000000000000000000000000000000000000000000000000000000060005260006000ee00ef00010100040200010001ff0012000080000000414142424343",
                            "storage": {}
                        },
                        "0x2adc25665018aa1fe0e6bc666dac8fc2697ff9ba": {
                            "nonce": "0x00",
                            "balance": "0x01c2a88a",
                            "code": "0x",
                            "storage": {}
                        },
                        "0xa94f5374fce5edbc8e2a8697c15331677e6ebf0b": {
                            "nonce": "0x01",
                            "balance": "0x3635c9adc5d8c1ce34",
                            "code": "0x",
                            "storage": {}
                        }
                    }
                }
            ]
        },
        "config": {
            "blobSchedule": {
                "Cancun": {
                    "target": "0x03",
                    "max": "0x06",
                    "baseFeeUpdateFraction": "0x32f0ed"
                },
                "Prague": {
                    "target": "0x06",
                    "max": "0x09",
                    "baseFeeUpdateFraction": "0x4c6964"
                }
            },
            "chainid": "0x01"
        },
        "_info": {
            "hash": "0x6e38a9113183267967ce9a2045f53ce5ef518d214ce60a2234755869033761cb",
            "comment": "`execution-spec-tests` generated test",
            "filling-transition-tool": "evmone-t8n 0.15.0+commit.4977c945",
            "description": "Test function documentation:\nVerifies that auxdata bytes are correctly handled in RETURNCODE.",
            "url": "https://github.com/ethereum/execution-spec-tests/blob/e0cd6da30255e19ca166878b4591a4497f40957c/tests/osaka/eip7692_eof_v1/eip7620_eof_create/test_eofcreate.py#L181",
            "fixture-format": "state_test",
            "reference-spec": "https://github.com/ethereum/EIPs/blob/master/EIPS/eip-7620.md",
            "reference-spec-version": "52ddbcdddcf72dd72427c319f2beddeb468e1737"
        }
    }
}