{
    "tests/osaka/eip7692_eof_v1/eip7620_eof_create/test_eofcreate.py::test_eofcreate_revert_eof_returndata[fork_Osaka-state_test]": {
        "env": {
            "currentCoinbase": "0x2adc25665018aa1fe0e6bc666dac8fc2697ff9ba",
            "currentGasLimit": "0x016345785d8a0000",
            "currentNumber": "0x01",
            "currentTimestamp": "0x03e8",
            "currentRandom": "0x0000000000000000000000000000000000000000000000000000000000000000",
            "currentDifficulty": "0x00",
            "currentBaseFee": "0x07",
            "currentExcessBlobGas": "0x00"
        },
        "pre": {
            "0xa94f5374fce5edbc8e2a8697c15331677e6ebf0b": {
                "nonce": "0x00",
                "balance": "0x3635c9adc5dea00000",
                "code": "0x",
                "storage": {}
            },
            "0x0000000000000000000000000000000000001000": {
                "nonce": "0x01",
                "balance": "0x00",
                "code": "0xef000101000402000100170300010000001dff0000000080000436600060003760003660006000ec006003553d60075500ef0001010004020001000aff00000000800003366000600037366000fd",
                "storage": {
                    "0x03": "0x2009"
                }
            }
        },
        "transaction": {
            "nonce": "0x00",
            "gasPrice": "0x0a",
            "gasLimit": [
                "0x0f4240"
            ],
            "to": "0x0000000000000000000000000000000000001000",
            "value": [
                "0x00"
            ],
            "data": [
                "0xef00010100040200010001ff0000000080000000"
            ],
            "sender": "0xa94f5374fce5edbc8e2a8697c15331677e6ebf0b",
            "secretKey": "0x45a915e4d060149eb4365960e6a7a45f334393093061116b197e3240065ff2d8"
        },
        "post": {
            "Osaka": [
                {
                    "hash": "0x7ded4f337b92fa3729f62c7a2694e21dc215d13053fc5297c87b1e6a0fd7305f",
                    "logs": "0x1dcc4de8dec75d7aab85b567b6ccd41ad312451b948a7413f0a142fd40d49347",
                    "txbytes": "0xf874800a830f42409400000000000000000000000000000000000010008094ef00010100040200010001ff000000008000000025a03419eec7f792a921d904aa8b34207bbfc6924eec6401cc1215f0d1e1aa83a409a06ebe792bd23a642ebea7ce1b1417784a7628fe84b3469c89f338786c9cb34d9d",
                    "indexes": {
                        "data": 0,
                        "gas": 0,
                        "value": 0
                    },
                    "state": {
                        "0x0000000000000000000000000000000000001000": {
                            "nonce": "0x02",
                            "balance": "0x00",
                            "code": "0xef000101000402000100170300010000001dff0000000080000436600060003760003660006000ec006003553d60075500ef0001010004020001000aff00000000800003366000600037366000fd",
                            "storage": {
                                "0x07": "0x14"
                            }
                        },
                        "0x2adc25665018aa1fe0e6bc666dac8fc2697ff9ba": {
                            "nonce": "0x00",
                            "balance": "0x03754e",
                            "code": "0x",
                            "storage": {}
                        },
                        "0xa94f5374fce5edbc8e2a8697c15331677e6ebf0b": {
                            "nonce": "0x01",
                            "balance": "0x3635c9adc5de9478fc",
                            "code": "0x",
                            "storage": {}
                        }
                    }
                }
            ]
        },
        "config": {
            "blobSchedule": {
                "Cancun": {
                    "target": "0x03",
                    "max": "0x06",
                    "baseFeeUpdateFraction": "0x32f0ed"
                },
                "Prague": {
                    "target": "0x06",
                    "max": "0x09",
                    "baseFeeUpdateFraction": "0x4c6964"
                }
            },
            "chainid": "0x01"
        },
        "_info": {
            "hash": "0x1be6276521e0f7e6813705e4b8227d0423940d750f7198c79a5bee70bd6ba40a",
            "comment": "`execution-spec-tests` generated test",
            "filling-transition-tool": "evmone-t8n 0.15.0+commit.4977c945",
            "description": "Test function documentation:\nVerifies the return data is not being deployed, even if happens to be valid EOF.",
            "url": "https://github.com/ethereum/execution-spec-tests/blob/e0cd6da30255e19ca166878b4591a4497f40957c/tests/osaka/eip7692_eof_v1/eip7620_eof_create/test_eofcreate.py#L537",
            "fixture-format": "state_test",
            "reference-spec": "https://github.com/ethereum/EIPs/blob/master/EIPS/eip-7620.md",
            "reference-spec-version": "52ddbcdddcf72dd72427c319f2beddeb468e1737"
        }
    }
}