{
    "tests/osaka/eip7692_eof_v1/eip7620_eof_create/test_eofcreate.py::test_eofcreate_in_initcode[fork_Osaka-state_test]": {
        "env": {
            "currentCoinbase": "0x2adc25665018aa1fe0e6bc666dac8fc2697ff9ba",
            "currentGasLimit": "0x016345785d8a0000",
            "currentNumber": "0x01",
            "currentTimestamp": "0x03e8",
            "currentRandom": "0x0000000000000000000000000000000000000000000000000000000000000000",
            "currentDifficulty": "0x00",
            "currentBaseFee": "0x07",
            "currentExcessBlobGas": "0x00"
        },
        "pre": {
            "0xa94f5374fce5edbc8e2a8697c15331677e6ebf0b": {
                "nonce": "0x00",
                "balance": "0x3635c9adc5dea00000",
                "code": "0x",
                "storage": {}
            },
            "0x0000000000000000000000000000000000001000": {
                "nonce": "0x01",
                "balance": "0x00",
                "code": "0xef000101000402000100140300010000007fff000000008000046000600060006000ec0060035561201560015500ef000101000402000100190300020000003400000014ff000000008000046000600060006000ec0060035561201560015560006000ee01ef0001010004020001000603000100000014ff0000000080000260006000ee00ef00010100040200010001ff0000000080000000ef00010100040200010001ff0000000080000000",
                "storage": {}
            }
        },
        "transaction": {
            "nonce": "0x00",
            "gasPrice": "0x0a",
            "gasLimit": [
                "0x989680"
            ],
            "to": "0x0000000000000000000000000000000000001000",
            "value": [
                "0x00"
            ],
            "data": [
                "0x"
            ],
            "sender": "0xa94f5374fce5edbc8e2a8697c15331677e6ebf0b",
            "secretKey": "0x45a915e4d060149eb4365960e6a7a45f334393093061116b197e3240065ff2d8"
        },
        "post": {
            "Osaka": [
                {
                    "hash": "0x1f465d95ff5886f9c1ead475cd5d6ede8b1176eccfe2f6e11e144f1962d8be15",
                    "logs": "0x1dcc4de8dec75d7aab85b567b6ccd41ad312451b948a7413f0a142fd40d49347",
                    "txbytes": "0xf860800a8398968094000000000000000000000000000000000000100080801ba00a827f57dab1e27137696202f240cb95cfc25acf2f077f6b32a7ca3ac039baf0a055fdd3269172368d880a16fa4192049edd5211d8cbb1d5222a0a77b11174d574",
                    "indexes": {
                        "data": 0,
                        "gas": 0,
                        "value": 0
                    },
                    "state": {
                        "0x0000000000000000000000000000000000001000": {
                            "nonce": "0x02",
                            "balance": "0x00",
                            "code": "0xef000101000402000100140300010000007fff000000008000046000600060006000ec0060035561201560015500ef000101000402000100190300020000003400000014ff000000008000046000600060006000ec0060035561201560015560006000ee01ef0001010004020001000603000100000014ff0000000080000260006000ee00ef00010100040200010001ff0000000080000000ef00010100040200010001ff0000000080000000",
                            "storage": {
                                "0x01": "0x2015",
                                "0x03": "0x0a2c788d0e30f758f32d063d3203355e8bad4c0f"
                            }
                        },
                        "0x0a2c788d0e30f758f32d063d3203355e8bad4c0f": {
                            "nonce": "0x02",
                            "balance": "0x00",
                            "code": "0xef00010100040200010001ff0000000080000000",
                            "storage": {
                                "0x01": "0x2015",
                                "0x03": "0x4fa43b47d0ab41b4e9d52147206d10b921034823"
                            }
                        },
                        "0x2adc25665018aa1fe0e6bc666dac8fc2697ff9ba": {
                            "nonce": "0x00",
                            "balance": "0x084e6a",
                            "code": "0x",
                            "storage": {}
                        },
                        "0x4fa43b47d0ab41b4e9d52147206d10b921034823": {
                            "nonce": "0x01",
                            "balance": "0x00",
                            "code": "0xef00010100040200010001ff0000000080000000",
                            "storage": {}
                        },
                        "0xa94f5374fce5edbc8e2a8697c15331677e6ebf0b": {
                            "nonce": "0x01",
                            "balance": "0x3635c9adc5de844ff4",
                            "code": "0x",
                            "storage": {}
                        }
                    }
                }
            ]
        },
        "config": {
            "blobSchedule": {
                "Cancun": {
                    "target": "0x03",
                    "max": "0x06",
                    "baseFeeUpdateFraction": "0x32f0ed"
                },
                "Prague": {
                    "target": "0x06",
                    "max": "0x09",
                    "baseFeeUpdateFraction": "0x4c6964"
                }
            },
            "chainid": "0x01"
        },
        "_info": {
            "hash": "0xe8722c41c9032efddd8cb10226682f4031bf969447e648288f7c3258ca6c3037",
            "comment": "`execution-spec-tests` generated test",
            "filling-transition-tool": "evmone-t8n 0.15.0+commit.4977c945",
            "description": "Test function documentation:\nVerifies an EOFCREATE occuring within initcode creates that contract.",
            "url": "https://github.com/ethereum/execution-spec-tests/blob/e0cd6da30255e19ca166878b4591a4497f40957c/tests/osaka/eip7692_eof_v1/eip7620_eof_create/test_eofcreate.py#L313",
            "fixture-format": "state_test",
            "reference-spec": "https://github.com/ethereum/EIPs/blob/master/EIPS/eip-7620.md",
            "reference-spec-version": "52ddbcdddcf72dd72427c319f2beddeb468e1737"
        }
    }
}