{
    "tests/osaka/eip7692_eof_v1/eip7620_eof_create/test_eofcreate.py::test_return_data_cleared[fork_Osaka-state_test]": {
        "env": {
            "currentCoinbase": "0x2adc25665018aa1fe0e6bc666dac8fc2697ff9ba",
            "currentGasLimit": "0x016345785d8a0000",
            "currentNumber": "0x01",
            "currentTimestamp": "0x03e8",
            "currentRandom": "0x0000000000000000000000000000000000000000000000000000000000000000",
            "currentDifficulty": "0x00",
            "currentBaseFee": "0x07",
            "currentExcessBlobGas": "0x00"
        },
        "pre": {
            "0x0000000000000000000000000000000000001000": {
                "nonce": "0x01",
                "balance": "0x00",
                "code": "0xef0001010004020001000eff0000000080000264415867530960005260056000f3",
                "storage": {}
            },
            "0xa94f5374fce5edbc8e2a8697c15331677e6ebf0b": {
                "nonce": "0x00",
                "balance": "0x3635c9adc5dea00000",
                "code": "0x",
                "storage": {}
            },
            "0x0000000000000000000000000000000000001100": {
                "nonce": "0x01",
                "balance": "0x00",
                "code": "0xef0001010004020001002903000100000034ff00000000800004600060006000611000f86005553d6007556000600060006000ec006003553d601f5561201560015500ef0001010004020001000603000100000014ff0000000080000260006000ee00ef00010100040200010001ff0000000080000000",
                "storage": {}
            }
        },
        "transaction": {
            "nonce": "0x00",
            "gasPrice": "0x0a",
            "gasLimit": [
                "0x989680"
            ],
            "to": "0x0000000000000000000000000000000000001100",
            "value": [
                "0x00"
            ],
            "data": [
                "0x"
            ],
            "sender": "0xa94f5374fce5edbc8e2a8697c15331677e6ebf0b",
            "secretKey": "0x45a915e4d060149eb4365960e6a7a45f334393093061116b197e3240065ff2d8"
        },
        "post": {
            "Osaka": [
                {
                    "hash": "0x612ac879b7e4d695fcf4eaaf07fe23dee35043d46046931bdb6ba695b8ced7d9",
                    "logs": "0x1dcc4de8dec75d7aab85b567b6ccd41ad312451b948a7413f0a142fd40d49347",
                    "txbytes": "0xf860800a8398968094000000000000000000000000000000000000110080801ba0c0634ad48281e397767c0507c8eeec932a30766c477fd93569be5d0b5c141315a03d16004c8b03822114979a04bf9a289905df2048dd51add22be5fd2c6d319066",
                    "indexes": {
                        "data": 0,
                        "gas": 0,
                        "value": 0
                    },
                    "state": {
                        "0x0000000000000000000000000000000000001000": {
                            "nonce": "0x01",
                            "balance": "0x00",
                            "code": "0xef0001010004020001000eff0000000080000264415867530960005260056000f3",
                            "storage": {}
                        },
                        "0x0000000000000000000000000000000000001100": {
                            "nonce": "0x02",
                            "balance": "0x00",
                            "code": "0xef0001010004020001002903000100000034ff00000000800004600060006000611000f86005553d6007556000600060006000ec006003553d601f5561201560015500ef0001010004020001000603000100000014ff0000000080000260006000ee00ef00010100040200010001ff0000000080000000",
                            "storage": {
                                "0x01": "0x2015",
                                "0x03": "0x7e8d5a90eddfa495e87ce3127fd17136a7539219",
                                "0x07": "0x05"
                            }
                        },
                        "0x2adc25665018aa1fe0e6bc666dac8fc2697ff9ba": {
                            "nonce": "0x00",
                            "balance": "0x05f7c6",
                            "code": "0x",
                            "storage": {}
                        },
                        "0x7e8d5a90eddfa495e87ce3127fd17136a7539219": {
                            "nonce": "0x01",
                            "balance": "0x00",
                            "code": "0xef00010100040200010001ff0000000080000000",
                            "storage": {}
                        },
                        "0xa94f5374fce5edbc8e2a8697c15331677e6ebf0b": {
                            "nonce": "0x01",
                            "balance": "0x3635c9adc5de8c1b6c",
                            "code": "0x",
                            "storage": {}
                        }
                    }
                }
            ]
        },
        "config": {
            "blobSchedule": {
                "Cancun": {
                    "target": "0x03",
                    "max": "0x06",
                    "baseFeeUpdateFraction": "0x32f0ed"
                },
                "Prague": {
                    "target": "0x06",
                    "max": "0x09",
                    "baseFeeUpdateFraction": "0x4c6964"
                }
            },
            "chainid": "0x01"
        },
        "_info": {
            "hash": "0x15d7933b5e5d33c64e5fbcf2dd95bb442edf8422d0ebb11faa22b76a93a4d9c3",
            "comment": "`execution-spec-tests` generated test",
            "filling-transition-tool": "evmone-t8n 0.15.0+commit.4977c945",
            "description": "Test function documentation:\nVerifies the return data is not re-used from a extcall but is cleared upon eofcreate.",
            "url": "https://github.com/ethereum/execution-spec-tests/blob/e0cd6da30255e19ca166878b4591a4497f40957c/tests/osaka/eip7692_eof_v1/eip7620_eof_create/test_eofcreate.py#L421",
            "fixture-format": "state_test",
            "reference-spec": "https://github.com/ethereum/EIPs/blob/master/EIPS/eip-7620.md",
            "reference-spec-version": "52ddbcdddcf72dd72427c319f2beddeb468e1737"
        }
    }
}