{
    "tests/homestead/coverage/test_coverage.py::test_coverage[fork_Berlin-state_test]": {
        "env": {
            "currentCoinbase": "0x2adc25665018aa1fe0e6bc666dac8fc2697ff9ba",
            "currentGasLimit": "0x016345785d8a0000",
            "currentNumber": "0x01",
            "currentTimestamp": "0x03e8",
            "currentDifficulty": "0x020000"
        },
        "pre": {
            "0x0000000000000000000000000000000000001000": {
                "nonce": "0x01",
                "balance": "0x00",
                "code": "0x600060011b600060011c600a600b600c600d600e9080815f61010262010203630102030460015060046010600039",
                "storage": {}
            },
            "0x0000000000000000000000000000000000001100": {
                "nonce": "0x01",
                "balance": "0x0de0b6b3a7640000",
                "code": "0x600060006000600060006110005af160005260206000f3",
                "storage": {}
            },
            "0xa94f5374fce5edbc8e2a8697c15331677e6ebf0b": {
                "nonce": "0x00",
                "balance": "0x6124fee993bc0000",
                "code": "0x",
                "storage": {}
            }
        },
        "transaction": {
            "nonce": "0x00",
            "gasPrice": "0x0a",
            "gasLimit": [
                "0x0186a0"
            ],
            "to": "0x0000000000000000000000000000000000001100",
            "value": [
                "0x00"
            ],
            "data": [
                "0x"
            ],
            "sender": "0xa94f5374fce5edbc8e2a8697c15331677e6ebf0b",
            "secretKey": "0x45a915e4d060149eb4365960e6a7a45f334393093061116b197e3240065ff2d8"
        },
        "post": {
            "Berlin": [
                {
                    "hash": "0x04e5505151340d9d5ee2adcfc71921551c443af21642675f8520ea6c6bb5d267",
                    "logs": "0x1dcc4de8dec75d7aab85b567b6ccd41ad312451b948a7413f0a142fd40d49347",
                    "txbytes": "0xf860800a830186a094000000000000000000000000000000000000110080801ca00671a3e9dab47d17669ebe31855e9d6481d6c945fa946dd61fc374eb5420a220a03d6c864c60d6f9c901dcb2ec86286cbaeaa1e86c82c6fa7147cd4417db86bf9f",
                    "indexes": {
                        "data": 0,
                        "gas": 0,
                        "value": 0
                    },
                    "state": {
                        "0x0000000000000000000000000000000000001000": {
                            "nonce": "0x01",
                            "balance": "0x00",
                            "code": "0x600060011b600060011c600a600b600c600d600e9080815f61010262010203630102030460015060046010600039",
                            "storage": {}
                        },
                        "0x0000000000000000000000000000000000001100": {
                            "nonce": "0x01",
                            "balance": "0x0de0b6b3a7640000",
                            "code": "0x600060006000600060006110005af160005260206000f3",
                            "storage": {}
                        },
                        "0xa94f5374fce5edbc8e2a8697c15331677e6ebf0b": {
                            "nonce": "0x01",
                            "balance": "0x6124fee993acebc4",
                            "code": "0x",
                            "storage": {}
                        },
                        "0x2adc25665018aa1fe0e6bc666dac8fc2697ff9ba": {
                            "nonce": "0x00",
                            "balance": "0x0f143c",
                            "code": "0x",
                            "storage": {}
                        }
                    }
                }
            ]
        },
        "config": {
            "chainid": "0x01"
        },
        "_info": {
            "hash": "0xc36d3e27515aaf0af40b99b051f8a34ab59c0d01732eb2c905c7b34c0cacfbca",
            "comment": "`execution-spec-tests` generated test",
            "filling-transition-tool": "ethereum-spec-evm-resolver 0.0.5",
            "description": "Test function documentation:\n\n    Cover gaps that result from transforming Yul code into\n    `ethereum_test_tools.vm.opcode.Opcodes` bytecode.\n\n    E.g. Yul tends to optimize stack items by using `SWAP1` and `DUP1` opcodes, which are not\n    regularly used in python code.\n\n    Modify this test to cover more Yul code if required in the future.",
            "url": "https://github.com/ethereum/execution-spec-tests/tree/v4.1.0/tests/homestead/coverage/test_coverage.py#L13",
            "fixture-format": "state_test",
            "eels-resolution": {
                "git-url": "https://github.com/ethereum/execution-specs.git",
                "branch": "master",
                "commit": "78fb726158c69d8fa164e28f195fabf6ab59b915"
            }
        }
    },
    "tests/homestead/coverage/test_coverage.py::test_coverage[fork_Byzantium-state_test]": {
        "env": {
            "currentCoinbase": "0x2adc25665018aa1fe0e6bc666dac8fc2697ff9ba",
            "currentGasLimit": "0x016345785d8a0000",
            "currentNumber": "0x01",
            "currentTimestamp": "0x03e8",
            "currentDifficulty": "0x020000"
        },
        "pre": {
            "0x0000000000000000000000000000000000001000": {
                "nonce": "0x01",
                "balance": "0x00",
                "code": "0x600060011b600060011c600a600b600c600d600e9080815f61010262010203630102030460015060046010600039",
                "storage": {}
            },
            "0x0000000000000000000000000000000000001100": {
                "nonce": "0x01",
                "balance": "0x0de0b6b3a7640000",
                "code": "0x600060006000600060006110005af160005260206000f3",
                "storage": {}
            },
            "0xa94f5374fce5edbc8e2a8697c15331677e6ebf0b": {
                "nonce": "0x00",
                "balance": "0x6124fee993bc0000",
                "code": "0x",
                "storage": {}
            }
        },
        "transaction": {
            "nonce": "0x00",
            "gasPrice": "0x0a",
            "gasLimit": [
                "0x0186a0"
            ],
            "to": "0x0000000000000000000000000000000000001100",
            "value": [
                "0x00"
            ],
            "data": [
                "0x"
            ],
            "sender": "0xa94f5374fce5edbc8e2a8697c15331677e6ebf0b",
            "secretKey": "0x45a915e4d060149eb4365960e6a7a45f334393093061116b197e3240065ff2d8"
        },
        "post": {
            "Byzantium": [
                {
                    "hash": "0x3afe4b55f184c3febe3d5c256dd69e7ba055ce2cc62cc82a21027bd9cae7d72d",
                    "logs": "0x1dcc4de8dec75d7aab85b567b6ccd41ad312451b948a7413f0a142fd40d49347",
                    "txbytes": "0xf860800a830186a094000000000000000000000000000000000000110080801ca00671a3e9dab47d17669ebe31855e9d6481d6c945fa946dd61fc374eb5420a220a03d6c864c60d6f9c901dcb2ec86286cbaeaa1e86c82c6fa7147cd4417db86bf9f",
                    "indexes": {
                        "data": 0,
                        "gas": 0,
                        "value": 0
                    },
                    "state": {
                        "0x0000000000000000000000000000000000001000": {
                            "nonce": "0x01",
                            "balance": "0x00",
                            "code": "0x600060011b600060011c600a600b600c600d600e9080815f61010262010203630102030460015060046010600039",
                            "storage": {}
                        },
                        "0x0000000000000000000000000000000000001100": {
                            "nonce": "0x01",
                            "balance": "0x0de0b6b3a7640000",
                            "code": "0x600060006000600060006110005af160005260206000f3",
                            "storage": {}
                        },
                        "0xa94f5374fce5edbc8e2a8697c15331677e6ebf0b": {
                            "nonce": "0x01",
                            "balance": "0x6124fee993acecf0",
                            "code": "0x",
                            "storage": {}
                        },
                        "0x2adc25665018aa1fe0e6bc666dac8fc2697ff9ba": {
                            "nonce": "0x00",
                            "balance": "0x0f1310",
                            "code": "0x",
                            "storage": {}
                        }
                    }
                }
            ]
        },
        "config": {
            "chainid": "0x01"
        },
        "_info": {
            "hash": "0x2b2daf41619b2196c95c3c3b30ec4373d127fb90789d84d20cf00254628d64c2",
            "comment": "`execution-spec-tests` generated test",
            "filling-transition-tool": "ethereum-spec-evm-resolver 0.0.5",
            "description": "Test function documentation:\n\n    Cover gaps that result from transforming Yul code into\n    `ethereum_test_tools.vm.opcode.Opcodes` bytecode.\n\n    E.g. Yul tends to optimize stack items by using `SWAP1` and `DUP1` opcodes, which are not\n    regularly used in python code.\n\n    Modify this test to cover more Yul code if required in the future.",
            "url": "https://github.com/ethereum/execution-spec-tests/tree/v4.1.0/tests/homestead/coverage/test_coverage.py#L13",
            "fixture-format": "state_test",
            "eels-resolution": {
                "git-url": "https://github.com/ethereum/execution-specs.git",
                "branch": "master",
                "commit": "78fb726158c69d8fa164e28f195fabf6ab59b915"
            }
        }
    },
    "tests/homestead/coverage/test_coverage.py::test_coverage[fork_Cancun-state_test]": {
        "env": {
            "currentCoinbase": "0x2adc25665018aa1fe0e6bc666dac8fc2697ff9ba",
            "currentGasLimit": "0x016345785d8a0000",
            "currentNumber": "0x01",
            "currentTimestamp": "0x03e8",
            "currentRandom": "0x0000000000000000000000000000000000000000000000000000000000000000",
            "currentDifficulty": "0x00",
            "currentBaseFee": "0x07",
            "currentExcessBlobGas": "0x00"
        },
        "pre": {
            "0x0000000000000000000000000000000000001000": {
                "nonce": "0x01",
                "balance": "0x00",
                "code": "0x600060011b600060011c600a600b600c600d600e9080815f61010262010203630102030460015060046010600039",
                "storage": {}
            },
            "0x0000000000000000000000000000000000001100": {
                "nonce": "0x01",
                "balance": "0x0de0b6b3a7640000",
                "code": "0x600060006000600060006110005af160005260206000f3",
                "storage": {}
            },
            "0xa94f5374fce5edbc8e2a8697c15331677e6ebf0b": {
                "nonce": "0x00",
                "balance": "0x6124fee993bc0000",
                "code": "0x",
                "storage": {}
            }
        },
        "transaction": {
            "nonce": "0x00",
            "maxPriorityFeePerGas": "0x05",
            "maxFeePerGas": "0x0a",
            "gasLimit": [
                "0x0186a0"
            ],
            "to": "0x0000000000000000000000000000000000001100",
            "value": [
                "0x00"
            ],
            "data": [
                "0x"
            ],
            "accessLists": [
                []
            ],
            "sender": "0xa94f5374fce5edbc8e2a8697c15331677e6ebf0b",
            "secretKey": "0x45a915e4d060149eb4365960e6a7a45f334393093061116b197e3240065ff2d8"
        },
        "post": {
            "Cancun": [
                {
                    "hash": "0x8e183b0fe366af1c21333f7be7a1cb5a40e5ddd02780fb388793bcef40f1dac9",
                    "logs": "0x1dcc4de8dec75d7aab85b567b6ccd41ad312451b948a7413f0a142fd40d49347",
                    "txbytes": "0x02f8630180050a830186a09400000000000000000000000000000000000011008080c080a08f7a97fc84c20df70553febefc9f95ca6e508163e7a2896b7c08f62bd5343cc2a05879b2fb80033d28fa5e112066bacc62d200a299a21e1b93ea1abc759f307b53",
                    "indexes": {
                        "data": 0,
                        "gas": 0,
                        "value": 0
                    },
                    "state": {
                        "0x0000000000000000000000000000000000001000": {
                            "nonce": "0x01",
                            "balance": "0x00",
                            "code": "0x600060011b600060011c600a600b600c600d600e9080815f61010262010203630102030460015060046010600039",
                            "storage": {}
                        },
                        "0x0000000000000000000000000000000000001100": {
                            "nonce": "0x01",
                            "balance": "0x0de0b6b3a7640000",
                            "code": "0x600060006000600060006110005af160005260206000f3",
                            "storage": {}
                        },
                        "0xa94f5374fce5edbc8e2a8697c15331677e6ebf0b": {
                            "nonce": "0x01",
                            "balance": "0x6124fee993b861ca",
                            "code": "0x",
                            "storage": {}
                        },
                        "0x2adc25665018aa1fe0e6bc666dac8fc2697ff9ba": {
                            "nonce": "0x00",
                            "balance": "0x0115dd",
                            "code": "0x",
                            "storage": {}
                        }
                    }
                }
            ]
        },
        "config": {
            "blobSchedule": {
                "Cancun": {
                    "target": "0x03",
                    "max": "0x06",
                    "baseFeeUpdateFraction": "0x32f0ed"
                }
            },
            "chainid": "0x01"
        },
        "_info": {
            "hash": "0x206d5efd2c4db0fdddfbe6bf5c7301f0408159109f006f87b45e4dd3191021e0",
            "comment": "`execution-spec-tests` generated test",
            "filling-transition-tool": "ethereum-spec-evm-resolver 0.0.5",
            "description": "Test function documentation:\n\n    Cover gaps that result from transforming Yul code into\n    `ethereum_test_tools.vm.opcode.Opcodes` bytecode.\n\n    E.g. Yul tends to optimize stack items by using `SWAP1` and `DUP1` opcodes, which are not\n    regularly used in python code.\n\n    Modify this test to cover more Yul code if required in the future.",
            "url": "https://github.com/ethereum/execution-spec-tests/tree/v4.1.0/tests/homestead/coverage/test_coverage.py#L13",
            "fixture-format": "state_test",
            "eels-resolution": {
                "git-url": "https://github.com/ethereum/execution-specs.git",
                "branch": "master",
                "commit": "78fb726158c69d8fa164e28f195fabf6ab59b915"
            }
        }
    },
    "tests/homestead/coverage/test_coverage.py::test_coverage[fork_ConstantinopleFix-state_test]": {
        "env": {
            "currentCoinbase": "0x2adc25665018aa1fe0e6bc666dac8fc2697ff9ba",
            "currentGasLimit": "0x016345785d8a0000",
            "currentNumber": "0x01",
            "currentTimestamp": "0x03e8",
            "currentDifficulty": "0x020000"
        },
        "pre": {
            "0x0000000000000000000000000000000000001000": {
                "nonce": "0x01",
                "balance": "0x00",
                "code": "0x600060011b600060011c600a600b600c600d600e9080815f61010262010203630102030460015060046010600039",
                "storage": {}
            },
            "0x0000000000000000000000000000000000001100": {
                "nonce": "0x01",
                "balance": "0x0de0b6b3a7640000",
                "code": "0x600060006000600060006110005af160005260206000f3",
                "storage": {}
            },
            "0xa94f5374fce5edbc8e2a8697c15331677e6ebf0b": {
                "nonce": "0x00",
                "balance": "0x6124fee993bc0000",
                "code": "0x",
                "storage": {}
            }
        },
        "transaction": {
            "nonce": "0x00",
            "gasPrice": "0x0a",
            "gasLimit": [
                "0x0186a0"
            ],
            "to": "0x0000000000000000000000000000000000001100",
            "value": [
                "0x00"
            ],
            "data": [
                "0x"
            ],
            "sender": "0xa94f5374fce5edbc8e2a8697c15331677e6ebf0b",
            "secretKey": "0x45a915e4d060149eb4365960e6a7a45f334393093061116b197e3240065ff2d8"
        },
        "post": {
            "ConstantinopleFix": [
                {
                    "hash": "0x3afe4b55f184c3febe3d5c256dd69e7ba055ce2cc62cc82a21027bd9cae7d72d",
                    "logs": "0x1dcc4de8dec75d7aab85b567b6ccd41ad312451b948a7413f0a142fd40d49347",
                    "txbytes": "0xf860800a830186a094000000000000000000000000000000000000110080801ca00671a3e9dab47d17669ebe31855e9d6481d6c945fa946dd61fc374eb5420a220a03d6c864c60d6f9c901dcb2ec86286cbaeaa1e86c82c6fa7147cd4417db86bf9f",
                    "indexes": {
                        "data": 0,
                        "gas": 0,
                        "value": 0
                    },
                    "state": {
                        "0x0000000000000000000000000000000000001000": {
                            "nonce": "0x01",
                            "balance": "0x00",
                            "code": "0x600060011b600060011c600a600b600c600d600e9080815f61010262010203630102030460015060046010600039",
                            "storage": {}
                        },
                        "0x0000000000000000000000000000000000001100": {
                            "nonce": "0x01",
                            "balance": "0x0de0b6b3a7640000",
                            "code": "0x600060006000600060006110005af160005260206000f3",
                            "storage": {}
                        },
                        "0xa94f5374fce5edbc8e2a8697c15331677e6ebf0b": {
                            "nonce": "0x01",
                            "balance": "0x6124fee993acecf0",
                            "code": "0x",
                            "storage": {}
                        },
                        "0x2adc25665018aa1fe0e6bc666dac8fc2697ff9ba": {
                            "nonce": "0x00",
                            "balance": "0x0f1310",
                            "code": "0x",
                            "storage": {}
                        }
                    }
                }
            ]
        },
        "config": {
            "chainid": "0x01"
        },
        "_info": {
            "hash": "0x9c7f101d5ba80f2edb353b9196a1bb26b8896ed8765a677cb110365099ad6cc0",
            "comment": "`execution-spec-tests` generated test",
            "filling-transition-tool": "ethereum-spec-evm-resolver 0.0.5",
            "description": "Test function documentation:\n\n    Cover gaps that result from transforming Yul code into\n    `ethereum_test_tools.vm.opcode.Opcodes` bytecode.\n\n    E.g. Yul tends to optimize stack items by using `SWAP1` and `DUP1` opcodes, which are not\n    regularly used in python code.\n\n    Modify this test to cover more Yul code if required in the future.",
            "url": "https://github.com/ethereum/execution-spec-tests/tree/v4.1.0/tests/homestead/coverage/test_coverage.py#L13",
            "fixture-format": "state_test",
            "eels-resolution": {
                "git-url": "https://github.com/ethereum/execution-specs.git",
                "branch": "master",
                "commit": "78fb726158c69d8fa164e28f195fabf6ab59b915"
            }
        }
    },
    "tests/homestead/coverage/test_coverage.py::test_coverage[fork_Homestead-state_test]": {
        "env": {
            "currentCoinbase": "0x2adc25665018aa1fe0e6bc666dac8fc2697ff9ba",
            "currentGasLimit": "0x016345785d8a0000",
            "currentNumber": "0x01",
            "currentTimestamp": "0x03e8",
            "currentDifficulty": "0x020000"
        },
        "pre": {
            "0x0000000000000000000000000000000000001000": {
                "nonce": "0x01",
                "balance": "0x00",
                "code": "0x600060011b600060011c600a600b600c600d600e9080815f61010262010203630102030460015060046010600039",
                "storage": {}
            },
            "0x0000000000000000000000000000000000001100": {
                "nonce": "0x01",
                "balance": "0x0de0b6b3a7640000",
                "code": "0x600060006000600060006110005af160005260206000f3",
                "storage": {}
            },
            "0xa94f5374fce5edbc8e2a8697c15331677e6ebf0b": {
                "nonce": "0x00",
                "balance": "0x6124fee993bc0000",
                "code": "0x",
                "storage": {}
            }
        },
        "transaction": {
            "nonce": "0x00",
            "gasPrice": "0x0a",
            "gasLimit": [
                "0x0186a0"
            ],
            "to": "0x0000000000000000000000000000000000001100",
            "value": [
                "0x00"
            ],
            "data": [
                "0x"
            ],
            "sender": "0xa94f5374fce5edbc8e2a8697c15331677e6ebf0b",
            "secretKey": "0x45a915e4d060149eb4365960e6a7a45f334393093061116b197e3240065ff2d8"
        },
        "post": {
            "Homestead": [
                {
                    "hash": "0xa4d29830c2a776c86b40196ecbbeeca2c17fad6355524d339263a0a59701785e",
                    "logs": "0x1dcc4de8dec75d7aab85b567b6ccd41ad312451b948a7413f0a142fd40d49347",
                    "txbytes": "0xf860800a830186a094000000000000000000000000000000000000110080801ca00671a3e9dab47d17669ebe31855e9d6481d6c945fa946dd61fc374eb5420a220a03d6c864c60d6f9c901dcb2ec86286cbaeaa1e86c82c6fa7147cd4417db86bf9f",
                    "indexes": {
                        "data": 0,
                        "gas": 0,
                        "value": 0
                    },
                    "state": {
                        "0x0000000000000000000000000000000000001000": {
                            "nonce": "0x01",
                            "balance": "0x00",
                            "code": "0x600060011b600060011c600a600b600c600d600e9080815f61010262010203630102030460015060046010600039",
                            "storage": {}
                        },
                        "0x0000000000000000000000000000000000001100": {
                            "nonce": "0x01",
                            "balance": "0x0de0b6b3a7640000",
                            "code": "0x600060006000600060006110005af160005260206000f3",
                            "storage": {}
                        },
                        "0xa94f5374fce5edbc8e2a8697c15331677e6ebf0b": {
                            "nonce": "0x01",
                            "balance": "0x6124fee993acbdc0",
                            "code": "0x",
                            "storage": {}
                        },
                        "0x2adc25665018aa1fe0e6bc666dac8fc2697ff9ba": {
                            "nonce": "0x00",
                            "balance": "0x0f4240",
                            "code": "0x",
                            "storage": {}
                        }
                    }
                }
            ]
        },
        "config": {
            "chainid": "0x01"
        },
        "_info": {
            "hash": "0xd92cc109efeac0ddcdf6b2e2197905ec292993a502340301e56a6ab1eff4702f",
            "comment": "`execution-spec-tests` generated test",
            "filling-transition-tool": "ethereum-spec-evm-resolver 0.0.5",
            "description": "Test function documentation:\n\n    Cover gaps that result from transforming Yul code into\n    `ethereum_test_tools.vm.opcode.Opcodes` bytecode.\n\n    E.g. Yul tends to optimize stack items by using `SWAP1` and `DUP1` opcodes, which are not\n    regularly used in python code.\n\n    Modify this test to cover more Yul code if required in the future.",
            "url": "https://github.com/ethereum/execution-spec-tests/tree/v4.1.0/tests/homestead/coverage/test_coverage.py#L13",
            "fixture-format": "state_test",
            "eels-resolution": {
                "git-url": "https://github.com/ethereum/execution-specs.git",
                "branch": "master",
                "commit": "78fb726158c69d8fa164e28f195fabf6ab59b915"
            }
        }
    },
    "tests/homestead/coverage/test_coverage.py::test_coverage[fork_Istanbul-state_test]": {
        "env": {
            "currentCoinbase": "0x2adc25665018aa1fe0e6bc666dac8fc2697ff9ba",
            "currentGasLimit": "0x016345785d8a0000",
            "currentNumber": "0x01",
            "currentTimestamp": "0x03e8",
            "currentDifficulty": "0x020000"
        },
        "pre": {
            "0x0000000000000000000000000000000000001000": {
                "nonce": "0x01",
                "balance": "0x00",
                "code": "0x600060011b600060011c600a600b600c600d600e9080815f61010262010203630102030460015060046010600039",
                "storage": {}
            },
            "0x0000000000000000000000000000000000001100": {
                "nonce": "0x01",
                "balance": "0x0de0b6b3a7640000",
                "code": "0x600060006000600060006110005af160005260206000f3",
                "storage": {}
            },
            "0xa94f5374fce5edbc8e2a8697c15331677e6ebf0b": {
                "nonce": "0x00",
                "balance": "0x6124fee993bc0000",
                "code": "0x",
                "storage": {}
            }
        },
        "transaction": {
            "nonce": "0x00",
            "gasPrice": "0x0a",
            "gasLimit": [
                "0x0186a0"
            ],
            "to": "0x0000000000000000000000000000000000001100",
            "value": [
                "0x00"
            ],
            "data": [
                "0x"
            ],
            "sender": "0xa94f5374fce5edbc8e2a8697c15331677e6ebf0b",
            "secretKey": "0x45a915e4d060149eb4365960e6a7a45f334393093061116b197e3240065ff2d8"
        },
        "post": {
            "Istanbul": [
                {
                    "hash": "0x3afe4b55f184c3febe3d5c256dd69e7ba055ce2cc62cc82a21027bd9cae7d72d",
                    "logs": "0x1dcc4de8dec75d7aab85b567b6ccd41ad312451b948a7413f0a142fd40d49347",
                    "txbytes": "0xf860800a830186a094000000000000000000000000000000000000110080801ca00671a3e9dab47d17669ebe31855e9d6481d6c945fa946dd61fc374eb5420a220a03d6c864c60d6f9c901dcb2ec86286cbaeaa1e86c82c6fa7147cd4417db86bf9f",
                    "indexes": {
                        "data": 0,
                        "gas": 0,
                        "value": 0
                    },
                    "state": {
                        "0x0000000000000000000000000000000000001000": {
                            "nonce": "0x01",
                            "balance": "0x00",
                            "code": "0x600060011b600060011c600a600b600c600d600e9080815f61010262010203630102030460015060046010600039",
                            "storage": {}
                        },
                        "0x0000000000000000000000000000000000001100": {
                            "nonce": "0x01",
                            "balance": "0x0de0b6b3a7640000",
                            "code": "0x600060006000600060006110005af160005260206000f3",
                            "storage": {}
                        },
                        "0xa94f5374fce5edbc8e2a8697c15331677e6ebf0b": {
                            "nonce": "0x01",
                            "balance": "0x6124fee993acecf0",
                            "code": "0x",
                            "storage": {}
                        },
                        "0x2adc25665018aa1fe0e6bc666dac8fc2697ff9ba": {
                            "nonce": "0x00",
                            "balance": "0x0f1310",
                            "code": "0x",
                            "storage": {}
                        }
                    }
                }
            ]
        },
        "config": {
            "chainid": "0x01"
        },
        "_info": {
            "hash": "0x880c3e2d5b9dfe4b0666a0c51be43e828ac99f4bba032325353ebcbcbf52ad00",
            "comment": "`execution-spec-tests` generated test",
            "filling-transition-tool": "ethereum-spec-evm-resolver 0.0.5",
            "description": "Test function documentation:\n\n    Cover gaps that result from transforming Yul code into\n    `ethereum_test_tools.vm.opcode.Opcodes` bytecode.\n\n    E.g. Yul tends to optimize stack items by using `SWAP1` and `DUP1` opcodes, which are not\n    regularly used in python code.\n\n    Modify this test to cover more Yul code if required in the future.",
            "url": "https://github.com/ethereum/execution-spec-tests/tree/v4.1.0/tests/homestead/coverage/test_coverage.py#L13",
            "fixture-format": "state_test",
            "eels-resolution": {
                "git-url": "https://github.com/ethereum/execution-specs.git",
                "branch": "master",
                "commit": "78fb726158c69d8fa164e28f195fabf6ab59b915"
            }
        }
    },
    "tests/homestead/coverage/test_coverage.py::test_coverage[fork_London-state_test]": {
        "env": {
            "currentCoinbase": "0x2adc25665018aa1fe0e6bc666dac8fc2697ff9ba",
            "currentGasLimit": "0x016345785d8a0000",
            "currentNumber": "0x01",
            "currentTimestamp": "0x03e8",
            "currentDifficulty": "0x020000",
            "currentBaseFee": "0x07"
        },
        "pre": {
            "0x0000000000000000000000000000000000001000": {
                "nonce": "0x01",
                "balance": "0x00",
                "code": "0x600060011b600060011c600a600b600c600d600e9080815f61010262010203630102030460015060046010600039",
                "storage": {}
            },
            "0x0000000000000000000000000000000000001100": {
                "nonce": "0x01",
                "balance": "0x0de0b6b3a7640000",
                "code": "0x600060006000600060006110005af160005260206000f3",
                "storage": {}
            },
            "0xa94f5374fce5edbc8e2a8697c15331677e6ebf0b": {
                "nonce": "0x00",
                "balance": "0x6124fee993bc0000",
                "code": "0x",
                "storage": {}
            }
        },
        "transaction": {
            "nonce": "0x00",
            "gasPrice": "0x0a",
            "gasLimit": [
                "0x0186a0"
            ],
            "to": "0x0000000000000000000000000000000000001100",
            "value": [
                "0x00"
            ],
            "data": [
                "0x"
            ],
            "sender": "0xa94f5374fce5edbc8e2a8697c15331677e6ebf0b",
            "secretKey": "0x45a915e4d060149eb4365960e6a7a45f334393093061116b197e3240065ff2d8"
        },
        "post": {
            "London": [
                {
                    "hash": "0x8071c8868cfd69b471abe18ef635ae1b5394127f5645d1b12c6e8b0de59b9705",
                    "logs": "0x1dcc4de8dec75d7aab85b567b6ccd41ad312451b948a7413f0a142fd40d49347",
                    "txbytes": "0xf860800a830186a094000000000000000000000000000000000000110080801ca00671a3e9dab47d17669ebe31855e9d6481d6c945fa946dd61fc374eb5420a220a03d6c864c60d6f9c901dcb2ec86286cbaeaa1e86c82c6fa7147cd4417db86bf9f",
                    "indexes": {
                        "data": 0,
                        "gas": 0,
                        "value": 0
                    },
                    "state": {
                        "0x0000000000000000000000000000000000001000": {
                            "nonce": "0x01",
                            "balance": "0x00",
                            "code": "0x600060011b600060011c600a600b600c600d600e9080815f61010262010203630102030460015060046010600039",
                            "storage": {}
                        },
                        "0x0000000000000000000000000000000000001100": {
                            "nonce": "0x01",
                            "balance": "0x0de0b6b3a7640000",
                            "code": "0x600060006000600060006110005af160005260206000f3",
                            "storage": {}
                        },
                        "0xa94f5374fce5edbc8e2a8697c15331677e6ebf0b": {
                            "nonce": "0x01",
                            "balance": "0x6124fee993acebc4",
                            "code": "0x",
                            "storage": {}
                        },
                        "0x2adc25665018aa1fe0e6bc666dac8fc2697ff9ba": {
                            "nonce": "0x00",
                            "balance": "0x048612",
                            "code": "0x",
                            "storage": {}
                        }
                    }
                }
            ]
        },
        "config": {
            "chainid": "0x01"
        },
        "_info": {
            "hash": "0x8fdc1cdc6b11031f755d0a2e8580cdcfeaaead2d0bfef581ff767dbf3a9e220f",
            "comment": "`execution-spec-tests` generated test",
            "filling-transition-tool": "ethereum-spec-evm-resolver 0.0.5",
            "description": "Test function documentation:\n\n    Cover gaps that result from transforming Yul code into\n    `ethereum_test_tools.vm.opcode.Opcodes` bytecode.\n\n    E.g. Yul tends to optimize stack items by using `SWAP1` and `DUP1` opcodes, which are not\n    regularly used in python code.\n\n    Modify this test to cover more Yul code if required in the future.",
            "url": "https://github.com/ethereum/execution-spec-tests/tree/v4.1.0/tests/homestead/coverage/test_coverage.py#L13",
            "fixture-format": "state_test",
            "eels-resolution": {
                "git-url": "https://github.com/ethereum/execution-specs.git",
                "branch": "master",
                "commit": "78fb726158c69d8fa164e28f195fabf6ab59b915"
            }
        }
    },
    "tests/homestead/coverage/test_coverage.py::test_coverage[fork_Paris-state_test]": {
        "env": {
            "currentCoinbase": "0x2adc25665018aa1fe0e6bc666dac8fc2697ff9ba",
            "currentGasLimit": "0x016345785d8a0000",
            "currentNumber": "0x01",
            "currentTimestamp": "0x03e8",
            "currentRandom": "0x0000000000000000000000000000000000000000000000000000000000000000",
            "currentDifficulty": "0x00",
            "currentBaseFee": "0x07"
        },
        "pre": {
            "0x0000000000000000000000000000000000001000": {
                "nonce": "0x01",
                "balance": "0x00",
                "code": "0x600060011b600060011c600a600b600c600d600e9080815f61010262010203630102030460015060046010600039",
                "storage": {}
            },
            "0x0000000000000000000000000000000000001100": {
                "nonce": "0x01",
                "balance": "0x0de0b6b3a7640000",
                "code": "0x600060006000600060006110005af160005260206000f3",
                "storage": {}
            },
            "0xa94f5374fce5edbc8e2a8697c15331677e6ebf0b": {
                "nonce": "0x00",
                "balance": "0x6124fee993bc0000",
                "code": "0x",
                "storage": {}
            }
        },
        "transaction": {
            "nonce": "0x00",
            "gasPrice": "0x0a",
            "gasLimit": [
                "0x0186a0"
            ],
            "to": "0x0000000000000000000000000000000000001100",
            "value": [
                "0x00"
            ],
            "data": [
                "0x"
            ],
            "sender": "0xa94f5374fce5edbc8e2a8697c15331677e6ebf0b",
            "secretKey": "0x45a915e4d060149eb4365960e6a7a45f334393093061116b197e3240065ff2d8"
        },
        "post": {
            "Paris": [
                {
                    "hash": "0x8071c8868cfd69b471abe18ef635ae1b5394127f5645d1b12c6e8b0de59b9705",
                    "logs": "0x1dcc4de8dec75d7aab85b567b6ccd41ad312451b948a7413f0a142fd40d49347",
                    "txbytes": "0xf860800a830186a094000000000000000000000000000000000000110080801ca00671a3e9dab47d17669ebe31855e9d6481d6c945fa946dd61fc374eb5420a220a03d6c864c60d6f9c901dcb2ec86286cbaeaa1e86c82c6fa7147cd4417db86bf9f",
                    "indexes": {
                        "data": 0,
                        "gas": 0,
                        "value": 0
                    },
                    "state": {
                        "0x0000000000000000000000000000000000001000": {
                            "nonce": "0x01",
                            "balance": "0x00",
                            "code": "0x600060011b600060011c600a600b600c600d600e9080815f61010262010203630102030460015060046010600039",
                            "storage": {}
                        },
                        "0x0000000000000000000000000000000000001100": {
                            "nonce": "0x01",
                            "balance": "0x0de0b6b3a7640000",
                            "code": "0x600060006000600060006110005af160005260206000f3",
                            "storage": {}
                        },
                        "0xa94f5374fce5edbc8e2a8697c15331677e6ebf0b": {
                            "nonce": "0x01",
                            "balance": "0x6124fee993acebc4",
                            "code": "0x",
                            "storage": {}
                        },
                        "0x2adc25665018aa1fe0e6bc666dac8fc2697ff9ba": {
                            "nonce": "0x00",
                            "balance": "0x048612",
                            "code": "0x",
                            "storage": {}
                        }
                    }
                }
            ]
        },
        "config": {
            "chainid": "0x01"
        },
        "_info": {
            "hash": "0xb6e46a31b20e3016db04650b65e51db40e0ac2d8155478270a82f81c112d8851",
            "comment": "`execution-spec-tests` generated test",
            "filling-transition-tool": "ethereum-spec-evm-resolver 0.0.5",
            "description": "Test function documentation:\n\n    Cover gaps that result from transforming Yul code into\n    `ethereum_test_tools.vm.opcode.Opcodes` bytecode.\n\n    E.g. Yul tends to optimize stack items by using `SWAP1` and `DUP1` opcodes, which are not\n    regularly used in python code.\n\n    Modify this test to cover more Yul code if required in the future.",
            "url": "https://github.com/ethereum/execution-spec-tests/tree/v4.1.0/tests/homestead/coverage/test_coverage.py#L13",
            "fixture-format": "state_test",
            "eels-resolution": {
                "git-url": "https://github.com/ethereum/execution-specs.git",
                "branch": "master",
                "commit": "78fb726158c69d8fa164e28f195fabf6ab59b915"
            }
        }
    },
    "tests/homestead/coverage/test_coverage.py::test_coverage[fork_Prague-state_test]": {
        "env": {
            "currentCoinbase": "0x2adc25665018aa1fe0e6bc666dac8fc2697ff9ba",
            "currentGasLimit": "0x016345785d8a0000",
            "currentNumber": "0x01",
            "currentTimestamp": "0x03e8",
            "currentRandom": "0x0000000000000000000000000000000000000000000000000000000000000000",
            "currentDifficulty": "0x00",
            "currentBaseFee": "0x07",
            "currentExcessBlobGas": "0x00"
        },
        "pre": {
            "0x0000000000000000000000000000000000001000": {
                "nonce": "0x01",
                "balance": "0x00",
                "code": "0x600060011b600060011c600a600b600c600d600e9080815f61010262010203630102030460015060046010600039",
                "storage": {}
            },
            "0x0000000000000000000000000000000000001100": {
                "nonce": "0x01",
                "balance": "0x0de0b6b3a7640000",
                "code": "0x600060006000600060006110005af160005260206000f3",
                "storage": {}
            },
            "0xa94f5374fce5edbc8e2a8697c15331677e6ebf0b": {
                "nonce": "0x00",
                "balance": "0x6124fee993bc0000",
                "code": "0x",
                "storage": {}
            }
        },
        "transaction": {
            "nonce": "0x00",
            "maxPriorityFeePerGas": "0x05",
            "maxFeePerGas": "0x0a",
            "gasLimit": [
                "0x0186a0"
            ],
            "to": "0x0000000000000000000000000000000000001100",
            "value": [
                "0x00"
            ],
            "data": [
                "0x"
            ],
            "accessLists": [
                []
            ],
            "sender": "0xa94f5374fce5edbc8e2a8697c15331677e6ebf0b",
            "secretKey": "0x45a915e4d060149eb4365960e6a7a45f334393093061116b197e3240065ff2d8"
        },
        "post": {
            "Prague": [
                {
                    "hash": "0x8e183b0fe366af1c21333f7be7a1cb5a40e5ddd02780fb388793bcef40f1dac9",
                    "logs": "0x1dcc4de8dec75d7aab85b567b6ccd41ad312451b948a7413f0a142fd40d49347",
                    "txbytes": "0x02f8630180050a830186a09400000000000000000000000000000000000011008080c080a08f7a97fc84c20df70553febefc9f95ca6e508163e7a2896b7c08f62bd5343cc2a05879b2fb80033d28fa5e112066bacc62d200a299a21e1b93ea1abc759f307b53",
                    "indexes": {
                        "data": 0,
                        "gas": 0,
                        "value": 0
                    },
                    "state": {
                        "0x0000000000000000000000000000000000001000": {
                            "nonce": "0x01",
                            "balance": "0x00",
                            "code": "0x600060011b600060011c600a600b600c600d600e9080815f61010262010203630102030460015060046010600039",
                            "storage": {}
                        },
                        "0x0000000000000000000000000000000000001100": {
                            "nonce": "0x01",
                            "balance": "0x0de0b6b3a7640000",
                            "code": "0x600060006000600060006110005af160005260206000f3",
                            "storage": {}
                        },
                        "0xa94f5374fce5edbc8e2a8697c15331677e6ebf0b": {
                            "nonce": "0x01",
                            "balance": "0x6124fee993b861ca",
                            "code": "0x",
                            "storage": {}
                        },
                        "0x2adc25665018aa1fe0e6bc666dac8fc2697ff9ba": {
                            "nonce": "0x00",
                            "balance": "0x0115dd",
                            "code": "0x",
                            "storage": {}
                        }
                    }
                }
            ]
        },
        "config": {
            "blobSchedule": {
                "Cancun": {
                    "target": "0x03",
                    "max": "0x06",
                    "baseFeeUpdateFraction": "0x32f0ed"
                },
                "Prague": {
                    "target": "0x06",
                    "max": "0x09",
                    "baseFeeUpdateFraction": "0x4c6964"
                }
            },
            "chainid": "0x01"
        },
        "_info": {
            "hash": "0x81385c6fcbd0b8e88739617f25ad6b8a215ab69c311faeb3d0cc653178af210e",
            "comment": "`execution-spec-tests` generated test",
            "filling-transition-tool": "ethereum-spec-evm-resolver 0.0.5",
            "description": "Test function documentation:\n\n    Cover gaps that result from transforming Yul code into\n    `ethereum_test_tools.vm.opcode.Opcodes` bytecode.\n\n    E.g. Yul tends to optimize stack items by using `SWAP1` and `DUP1` opcodes, which are not\n    regularly used in python code.\n\n    Modify this test to cover more Yul code if required in the future.",
            "url": "https://github.com/ethereum/execution-spec-tests/tree/v4.1.0/tests/homestead/coverage/test_coverage.py#L13",
            "fixture-format": "state_test",
            "eels-resolution": {
                "git-url": "https://github.com/ethereum/execution-specs.git",
                "branch": "devnets/prague/6",
                "commit": "a25a8ab3a2989b15baac19eb327325e442342a60"
            }
        }
    },
    "tests/homestead/coverage/test_coverage.py::test_coverage[fork_Shanghai-state_test]": {
        "env": {
            "currentCoinbase": "0x2adc25665018aa1fe0e6bc666dac8fc2697ff9ba",
            "currentGasLimit": "0x016345785d8a0000",
            "currentNumber": "0x01",
            "currentTimestamp": "0x03e8",
            "currentRandom": "0x0000000000000000000000000000000000000000000000000000000000000000",
            "currentDifficulty": "0x00",
            "currentBaseFee": "0x07"
        },
        "pre": {
            "0x0000000000000000000000000000000000001000": {
                "nonce": "0x01",
                "balance": "0x00",
                "code": "0x600060011b600060011c600a600b600c600d600e9080815f61010262010203630102030460015060046010600039",
                "storage": {}
            },
            "0x0000000000000000000000000000000000001100": {
                "nonce": "0x01",
                "balance": "0x0de0b6b3a7640000",
                "code": "0x600060006000600060006110005af160005260206000f3",
                "storage": {}
            },
            "0xa94f5374fce5edbc8e2a8697c15331677e6ebf0b": {
                "nonce": "0x00",
                "balance": "0x6124fee993bc0000",
                "code": "0x",
                "storage": {}
            }
        },
        "transaction": {
            "nonce": "0x00",
            "gasPrice": "0x0a",
            "gasLimit": [
                "0x0186a0"
            ],
            "to": "0x0000000000000000000000000000000000001100",
            "value": [
                "0x00"
            ],
            "data": [
                "0x"
            ],
            "sender": "0xa94f5374fce5edbc8e2a8697c15331677e6ebf0b",
            "secretKey": "0x45a915e4d060149eb4365960e6a7a45f334393093061116b197e3240065ff2d8"
        },
        "post": {
            "Shanghai": [
                {
                    "hash": "0x8e183b0fe366af1c21333f7be7a1cb5a40e5ddd02780fb388793bcef40f1dac9",
                    "logs": "0x1dcc4de8dec75d7aab85b567b6ccd41ad312451b948a7413f0a142fd40d49347",
                    "txbytes": "0xf860800a830186a094000000000000000000000000000000000000110080801ca00671a3e9dab47d17669ebe31855e9d6481d6c945fa946dd61fc374eb5420a220a03d6c864c60d6f9c901dcb2ec86286cbaeaa1e86c82c6fa7147cd4417db86bf9f",
                    "indexes": {
                        "data": 0,
                        "gas": 0,
                        "value": 0
                    },
                    "state": {
                        "0x0000000000000000000000000000000000001000": {
                            "nonce": "0x01",
                            "balance": "0x00",
                            "code": "0x600060011b600060011c600a600b600c600d600e9080815f61010262010203630102030460015060046010600039",
                            "storage": {}
                        },
                        "0x0000000000000000000000000000000000001100": {
                            "nonce": "0x01",
                            "balance": "0x0de0b6b3a7640000",
                            "code": "0x600060006000600060006110005af160005260206000f3",
                            "storage": {}
                        },
                        "0xa94f5374fce5edbc8e2a8697c15331677e6ebf0b": {
                            "nonce": "0x01",
                            "balance": "0x6124fee993b861ca",
                            "code": "0x",
                            "storage": {}
                        },
                        "0x2adc25665018aa1fe0e6bc666dac8fc2697ff9ba": {
                            "nonce": "0x00",
                            "balance": "0x0115dd",
                            "code": "0x",
                            "storage": {}
                        }
                    }
                }
            ]
        },
        "config": {
            "chainid": "0x01"
        },
        "_info": {
            "hash": "0x7d2ac749e3298c20ce41c5f0e219c30ba20d9bfd61395287b309f7963785a6ae",
            "comment": "`execution-spec-tests` generated test",
            "filling-transition-tool": "ethereum-spec-evm-resolver 0.0.5",
            "description": "Test function documentation:\n\n    Cover gaps that result from transforming Yul code into\n    `ethereum_test_tools.vm.opcode.Opcodes` bytecode.\n\n    E.g. Yul tends to optimize stack items by using `SWAP1` and `DUP1` opcodes, which are not\n    regularly used in python code.\n\n    Modify this test to cover more Yul code if required in the future.",
            "url": "https://github.com/ethereum/execution-spec-tests/tree/v4.1.0/tests/homestead/coverage/test_coverage.py#L13",
            "fixture-format": "state_test",
            "eels-resolution": {
                "git-url": "https://github.com/ethereum/execution-specs.git",
                "branch": "master",
                "commit": "78fb726158c69d8fa164e28f195fabf6ab59b915"
            }
        }
    }
}