{
    "tests/osaka/eip7692_eof_v1/eip7069_extcall/test_gas.py::test_late_account_create[fork_Osaka-state_test-opcode_EXTCALL]": {
        "env": {
            "currentCoinbase": "0x2adc25665018aa1fe0e6bc666dac8fc2697ff9ba",
            "currentGasLimit": "0x016345785d8a0000",
            "currentNumber": "0x01",
            "currentTimestamp": "0x03e8",
            "currentRandom": "0x0000000000000000000000000000000000000000000000000000000000000000",
            "currentDifficulty": "0x00",
            "currentBaseFee": "0x07",
            "currentExcessBlobGas": "0x00"
        },
        "pre": {
            "0xa94f5374fce5edbc8e2a8697c15331677e6ebf0b": {
                "nonce": "0x00",
                "balance": "0x3635c9adc5dea00000",
                "code": "0x",
                "storage": {}
            },
            "0x0000000000000000000000000000000000001000": {
                "nonce": "0x01",
                "balance": "0x00",
                "code": "0xef000101000402000100270400000000800005600060006000640decafc0def860015f5f730000000000000000000000000000000decafc0de00",
                "storage": {}
            },
            "0x0000000000000000000000000000000000001100": {
                "nonce": "0x01",
                "balance": "0x05",
                "code": "0xef000101000402000100280400000000800005600060006000640decafc0def860015f5f730000000000000000000000000000000decafc0def800",
                "storage": {}
            },
            "0x0000000000000000000000000000000000001200": {
                "nonce": "0x01",
                "balance": "0x00",
                "code": "0x61110031506110003150640decafc0de315a600060006000600060006110005af1505a90035a600060006000600060006111005af1505a90035a600060006000600060006111005af1505a9003829003610001558190036100005500",
                "storage": {}
            }
        },
        "transaction": {
            "nonce": "0x00",
            "gasPrice": "0x0a",
            "gasLimit": [
                "0x016345785d8a0000"
            ],
            "to": "0x0000000000000000000000000000000000001200",
            "value": [
                "0x00"
            ],
            "data": [
                "0x"
            ],
            "sender": "0xa94f5374fce5edbc8e2a8697c15331677e6ebf0b",
            "secretKey": "0x45a915e4d060149eb4365960e6a7a45f334393093061116b197e3240065ff2d8"
        },
        "post": {
            "Osaka": [
                {
                    "hash": "0xde6bf2b04bd08ff992ac03c24c7c2d169f252f092ebfe751c89c44f0cab5a32d",
                    "logs": "0x1dcc4de8dec75d7aab85b567b6ccd41ad312451b948a7413f0a142fd40d49347",
                    "txbytes": "0xf865800a88016345785d8a0000940000000000000000000000000000000000001200808026a022e15292a00e41f8e5692b7018a26543a1bc62a2ee1d65f2a8d2926078549c0aa03299f97c12681fbd63aa5c6c8f09cefd5f89f8b39789fdedb040435c37e1fd8d",
                    "indexes": {
                        "data": 0,
                        "gas": 0,
                        "value": 0
                    },
                    "state": {
                        "0x0000000000000000000000000000000000001000": {
                            "nonce": "0x01",
                            "balance": "0x00",
                            "code": "0xef000101000402000100270400000000800005600060006000640decafc0def860015f5f730000000000000000000000000000000decafc0de00",
                            "storage": {}
                        },
                        "0x0000000000000000000000000000000000001100": {
                            "nonce": "0x01",
                            "balance": "0x03",
                            "code": "0xef000101000402000100280400000000800005600060006000640decafc0def860015f5f730000000000000000000000000000000decafc0def800",
                            "storage": {}
                        },
                        "0x0000000000000000000000000000000000001200": {
                            "nonce": "0x01",
                            "balance": "0x00",
                            "code": "0x61110031506110003150640decafc0de315a600060006000600060006110005af1505a90035a600060006000600060006111005af1505a90035a600060006000600060006111005af1505a9003829003610001558190036100005500",
                            "storage": {
                                "0x00": "0x8534",
                                "0x01": "0x238c"
                            }
                        },
                        "0x0000000000000000000000000000000decafc0de": {
                            "nonce": "0x00",
                            "balance": "0x02",
                            "code": "0x",
                            "storage": {}
                        },
                        "0x2adc25665018aa1fe0e6bc666dac8fc2697ff9ba": {
                            "nonce": "0x00",
                            "balance": "0x055b15",
                            "code": "0x",
                            "storage": {}
                        },
                        "0xa94f5374fce5edbc8e2a8697c15331677e6ebf0b": {
                            "nonce": "0x01",
                            "balance": "0x3635c9adc5de8e25ba",
                            "code": "0x",
                            "storage": {}
                        }
                    }
                }
            ]
        },
        "config": {
            "blobSchedule": {
                "Cancun": {
                    "target": "0x03",
                    "max": "0x06",
                    "baseFeeUpdateFraction": "0x32f0ed"
                },
                "Prague": {
                    "target": "0x06",
                    "max": "0x09",
                    "baseFeeUpdateFraction": "0x4c6964"
                }
            },
            "chainid": "0x01"
        },
        "_info": {
            "hash": "0xb62bacca10a0e18e6e03033d57d9e6a861fe650e1c99f8960e8ab8e634dd68d0",
            "comment": "`execution-spec-tests` generated test",
            "filling-transition-tool": "evmone-t8n 0.14.1+commit.3186982f",
            "description": "Test function documentation:\n\n    Test EXTCALL to a non-existent account after another EXT*CALL has called it and not\n    created it.",
            "url": "https://github.com/ethereum/execution-spec-tests/tree/v4.1.0/tests/osaka/eip7692_eof_v1/eip7069_extcall/test_gas.py#L191",
            "fixture-format": "state_test",
            "reference-spec": "https://github.com/ethereum/EIPs/blob/master/EIPS/eip-7069.md",
            "reference-spec-version": "1795943aeacc86131d5ab6bb3d65824b3b1d4cad"
        }
    },
    "tests/osaka/eip7692_eof_v1/eip7069_extcall/test_gas.py::test_late_account_create[fork_Osaka-state_test-opcode_EXTDELEGATECALL]": {
        "env": {
            "currentCoinbase": "0x2adc25665018aa1fe0e6bc666dac8fc2697ff9ba",
            "currentGasLimit": "0x016345785d8a0000",
            "currentNumber": "0x01",
            "currentTimestamp": "0x03e8",
            "currentRandom": "0x0000000000000000000000000000000000000000000000000000000000000000",
            "currentDifficulty": "0x00",
            "currentBaseFee": "0x07",
            "currentExcessBlobGas": "0x00"
        },
        "pre": {
            "0xa94f5374fce5edbc8e2a8697c15331677e6ebf0b": {
                "nonce": "0x00",
                "balance": "0x3635c9adc5dea00000",
                "code": "0x",
                "storage": {}
            },
            "0x0000000000000000000000000000000000001000": {
                "nonce": "0x01",
                "balance": "0x00",
                "code": "0xef00010100040200010025040000000080000560006000640decafc0def960015f5f730000000000000000000000000000000decafc0de00",
                "storage": {}
            },
            "0x0000000000000000000000000000000000001100": {
                "nonce": "0x01",
                "balance": "0x05",
                "code": "0xef00010100040200010026040000000080000560006000640decafc0def960015f5f730000000000000000000000000000000decafc0def800",
                "storage": {}
            },
            "0x0000000000000000000000000000000000001200": {
                "nonce": "0x01",
                "balance": "0x00",
                "code": "0x61110031506110003150640decafc0de315a600060006000600060006110005af1505a90035a600060006000600060006111005af1505a90035a600060006000600060006111005af1505a9003829003610001558190036100005500",
                "storage": {}
            }
        },
        "transaction": {
            "nonce": "0x00",
            "gasPrice": "0x0a",
            "gasLimit": [
                "0x016345785d8a0000"
            ],
            "to": "0x0000000000000000000000000000000000001200",
            "value": [
                "0x00"
            ],
            "data": [
                "0x"
            ],
            "sender": "0xa94f5374fce5edbc8e2a8697c15331677e6ebf0b",
            "secretKey": "0x45a915e4d060149eb4365960e6a7a45f334393093061116b197e3240065ff2d8"
        },
        "post": {
            "Osaka": [
                {
                    "hash": "0x5dc2d224da81b77ef6228db7ac31e525df55bf9ede3d1eb65240d97268c619f9",
                    "logs": "0x1dcc4de8dec75d7aab85b567b6ccd41ad312451b948a7413f0a142fd40d49347",
                    "txbytes": "0xf865800a88016345785d8a0000940000000000000000000000000000000000001200808026a022e15292a00e41f8e5692b7018a26543a1bc62a2ee1d65f2a8d2926078549c0aa03299f97c12681fbd63aa5c6c8f09cefd5f89f8b39789fdedb040435c37e1fd8d",
                    "indexes": {
                        "data": 0,
                        "gas": 0,
                        "value": 0
                    },
                    "state": {
                        "0x0000000000000000000000000000000000001000": {
                            "nonce": "0x01",
                            "balance": "0x00",
                            "code": "0xef00010100040200010025040000000080000560006000640decafc0def960015f5f730000000000000000000000000000000decafc0de00",
                            "storage": {}
                        },
                        "0x0000000000000000000000000000000000001100": {
                            "nonce": "0x01",
                            "balance": "0x03",
                            "code": "0xef00010100040200010026040000000080000560006000640decafc0def960015f5f730000000000000000000000000000000decafc0def800",
                            "storage": {}
                        },
                        "0x0000000000000000000000000000000000001200": {
                            "nonce": "0x01",
                            "balance": "0x00",
                            "code": "0x61110031506110003150640decafc0de315a600060006000600060006110005af1505a90035a600060006000600060006111005af1505a90035a600060006000600060006111005af1505a9003829003610001558190036100005500",
                            "storage": {
                                "0x00": "0x8534",
                                "0x01": "0x238c"
                            }
                        },
                        "0x0000000000000000000000000000000decafc0de": {
                            "nonce": "0x00",
                            "balance": "0x02",
                            "code": "0x",
                            "storage": {}
                        },
                        "0x2adc25665018aa1fe0e6bc666dac8fc2697ff9ba": {
                            "nonce": "0x00",
                            "balance": "0x055afa",
                            "code": "0x",
                            "storage": {}
                        },
                        "0xa94f5374fce5edbc8e2a8697c15331677e6ebf0b": {
                            "nonce": "0x01",
                            "balance": "0x3635c9adc5de8e2614",
                            "code": "0x",
                            "storage": {}
                        }
                    }
                }
            ]
        },
        "config": {
            "blobSchedule": {
                "Cancun": {
                    "target": "0x03",
                    "max": "0x06",
                    "baseFeeUpdateFraction": "0x32f0ed"
                },
                "Prague": {
                    "target": "0x06",
                    "max": "0x09",
                    "baseFeeUpdateFraction": "0x4c6964"
                }
            },
            "chainid": "0x01"
        },
        "_info": {
            "hash": "0xcc70523564ea66dd17543e2ed40f9e27508c5a28c8c662f55e36b369028577f1",
            "comment": "`execution-spec-tests` generated test",
            "filling-transition-tool": "evmone-t8n 0.14.1+commit.3186982f",
            "description": "Test function documentation:\n\n    Test EXTCALL to a non-existent account after another EXT*CALL has called it and not\n    created it.",
            "url": "https://github.com/ethereum/execution-spec-tests/tree/v4.1.0/tests/osaka/eip7692_eof_v1/eip7069_extcall/test_gas.py#L191",
            "fixture-format": "state_test",
            "reference-spec": "https://github.com/ethereum/EIPs/blob/master/EIPS/eip-7069.md",
            "reference-spec-version": "1795943aeacc86131d5ab6bb3d65824b3b1d4cad"
        }
    },
    "tests/osaka/eip7692_eof_v1/eip7069_extcall/test_gas.py::test_late_account_create[fork_Osaka-state_test-opcode_EXTSTATICCALL]": {
        "env": {
            "currentCoinbase": "0x2adc25665018aa1fe0e6bc666dac8fc2697ff9ba",
            "currentGasLimit": "0x016345785d8a0000",
            "currentNumber": "0x01",
            "currentTimestamp": "0x03e8",
            "currentRandom": "0x0000000000000000000000000000000000000000000000000000000000000000",
            "currentDifficulty": "0x00",
            "currentBaseFee": "0x07",
            "currentExcessBlobGas": "0x00"
        },
        "pre": {
            "0xa94f5374fce5edbc8e2a8697c15331677e6ebf0b": {
                "nonce": "0x00",
                "balance": "0x3635c9adc5dea00000",
                "code": "0x",
                "storage": {}
            },
            "0x0000000000000000000000000000000000001000": {
                "nonce": "0x01",
                "balance": "0x00",
                "code": "0xef00010100040200010025040000000080000560006000640decafc0defb60015f5f730000000000000000000000000000000decafc0de00",
                "storage": {}
            },
            "0x0000000000000000000000000000000000001100": {
                "nonce": "0x01",
                "balance": "0x05",
                "code": "0xef00010100040200010026040000000080000560006000640decafc0defb60015f5f730000000000000000000000000000000decafc0def800",
                "storage": {}
            },
            "0x0000000000000000000000000000000000001200": {
                "nonce": "0x01",
                "balance": "0x00",
                "code": "0x61110031506110003150640decafc0de315a600060006000600060006110005af1505a90035a600060006000600060006111005af1505a90035a600060006000600060006111005af1505a9003829003610001558190036100005500",
                "storage": {}
            }
        },
        "transaction": {
            "nonce": "0x00",
            "gasPrice": "0x0a",
            "gasLimit": [
                "0x016345785d8a0000"
            ],
            "to": "0x0000000000000000000000000000000000001200",
            "value": [
                "0x00"
            ],
            "data": [
                "0x"
            ],
            "sender": "0xa94f5374fce5edbc8e2a8697c15331677e6ebf0b",
            "secretKey": "0x45a915e4d060149eb4365960e6a7a45f334393093061116b197e3240065ff2d8"
        },
        "post": {
            "Osaka": [
                {
                    "hash": "0x07626f79e03a6c36de2c31ba96f195db1f9c3ad93d8ac06257df4999b5b66ea1",
                    "logs": "0x1dcc4de8dec75d7aab85b567b6ccd41ad312451b948a7413f0a142fd40d49347",
                    "txbytes": "0xf865800a88016345785d8a0000940000000000000000000000000000000000001200808026a022e15292a00e41f8e5692b7018a26543a1bc62a2ee1d65f2a8d2926078549c0aa03299f97c12681fbd63aa5c6c8f09cefd5f89f8b39789fdedb040435c37e1fd8d",
                    "indexes": {
                        "data": 0,
                        "gas": 0,
                        "value": 0
                    },
                    "state": {
                        "0x0000000000000000000000000000000000001000": {
                            "nonce": "0x01",
                            "balance": "0x00",
                            "code": "0xef00010100040200010025040000000080000560006000640decafc0defb60015f5f730000000000000000000000000000000decafc0de00",
                            "storage": {}
                        },
                        "0x0000000000000000000000000000000000001100": {
                            "nonce": "0x01",
                            "balance": "0x03",
                            "code": "0xef00010100040200010026040000000080000560006000640decafc0defb60015f5f730000000000000000000000000000000decafc0def800",
                            "storage": {}
                        },
                        "0x0000000000000000000000000000000000001200": {
                            "nonce": "0x01",
                            "balance": "0x00",
                            "code": "0x61110031506110003150640decafc0de315a600060006000600060006110005af1505a90035a600060006000600060006111005af1505a90035a600060006000600060006111005af1505a9003829003610001558190036100005500",
                            "storage": {
                                "0x00": "0x8534",
                                "0x01": "0x238c"
                            }
                        },
                        "0x0000000000000000000000000000000decafc0de": {
                            "nonce": "0x00",
                            "balance": "0x02",
                            "code": "0x",
                            "storage": {}
                        },
                        "0x2adc25665018aa1fe0e6bc666dac8fc2697ff9ba": {
                            "nonce": "0x00",
                            "balance": "0x055afa",
                            "code": "0x",
                            "storage": {}
                        },
                        "0xa94f5374fce5edbc8e2a8697c15331677e6ebf0b": {
                            "nonce": "0x01",
                            "balance": "0x3635c9adc5de8e2614",
                            "code": "0x",
                            "storage": {}
                        }
                    }
                }
            ]
        },
        "config": {
            "blobSchedule": {
                "Cancun": {
                    "target": "0x03",
                    "max": "0x06",
                    "baseFeeUpdateFraction": "0x32f0ed"
                },
                "Prague": {
                    "target": "0x06",
                    "max": "0x09",
                    "baseFeeUpdateFraction": "0x4c6964"
                }
            },
            "chainid": "0x01"
        },
        "_info": {
            "hash": "0x577cf4f7f2a0c488e01e76b402937997bbc6b8291d151f29a3775b58eabe0c72",
            "comment": "`execution-spec-tests` generated test",
            "filling-transition-tool": "evmone-t8n 0.14.1+commit.3186982f",
            "description": "Test function documentation:\n\n    Test EXTCALL to a non-existent account after another EXT*CALL has called it and not\n    created it.",
            "url": "https://github.com/ethereum/execution-spec-tests/tree/v4.1.0/tests/osaka/eip7692_eof_v1/eip7069_extcall/test_gas.py#L191",
            "fixture-format": "state_test",
            "reference-spec": "https://github.com/ethereum/EIPs/blob/master/EIPS/eip-7069.md",
            "reference-spec-version": "1795943aeacc86131d5ab6bb3d65824b3b1d4cad"
        }
    }
}