{
    "tests/prague/eip2537_bls_12_381_precompiles/test_bls12_map_fp_to_g1.py::test_valid[fork_Prague-state_test-bls_g1map_-]": {
        "env": {
            "currentCoinbase": "0x2adc25665018aa1fe0e6bc666dac8fc2697ff9ba",
            "currentGasLimit": "0x016345785d8a0000",
            "currentNumber": "0x01",
            "currentTimestamp": "0x03e8",
            "currentRandom": "0x0000000000000000000000000000000000000000000000000000000000000000",
            "currentDifficulty": "0x00",
            "currentBaseFee": "0x07",
            "currentExcessBlobGas": "0x00"
        },
        "pre": {
            "0x0000000000000000000000000000000000001000": {
                "nonce": "0x01",
                "balance": "0x00",
                "code": "0x366000600037600060003660006000601061157cf16000553d6001553d600060003e3d600020600255",
                "storage": {}
            },
            "0xa94f5374fce5edbc8e2a8697c15331677e6ebf0b": {
                "nonce": "0x00",
                "balance": "0x038d7ea4c68000",
                "code": "0x",
                "storage": {}
            }
        },
        "transaction": {
            "nonce": "0x00",
            "gasPrice": "0x0a",
            "gasLimit": [
                "0x98abfc"
            ],
            "to": "0x0000000000000000000000000000000000001000",
            "value": [
                "0x00"
            ],
            "data": [
                "0x00000000000000000000000000000000156c8a6a2c184569d69a76be144b5cdc5141d2d2ca4fe341f011e25e3969c55ad9e9b9ce2eb833c81a908e5fa4ac5f03"
            ],
            "sender": "0xa94f5374fce5edbc8e2a8697c15331677e6ebf0b",
            "secretKey": "0x45a915e4d060149eb4365960e6a7a45f334393093061116b197e3240065ff2d8"
        },
        "post": {
            "Prague": [
                {
                    "hash": "0x4e071fbf3e7b4eb12ef35f292c3fad240e6aa670c0b1d3e8ed5afb5c21538a00",
                    "logs": "0x1dcc4de8dec75d7aab85b567b6ccd41ad312451b948a7413f0a142fd40d49347",
                    "txbytes": "0xf8a1800a8398abfc94000000000000000000000000000000000000100080b84000000000000000000000000000000000156c8a6a2c184569d69a76be144b5cdc5141d2d2ca4fe341f011e25e3969c55ad9e9b9ce2eb833c81a908e5fa4ac5f0325a0ef49da3f8e8049a463cbe6564f308dbcae895bce1f82227d42fad8f8ee01f0f2a047996dab898e7d6d0008a4494b04bd2312a7790e21d8a1a95a8e31bbf6b6f273",
                    "indexes": {
                        "data": 0,
                        "gas": 0,
                        "value": 0
                    }
                }
            ]
        },
        "_info": {
            "hash": "0x4f3f3e55859c126063be146249baf9b2204310aa57d3e782a82f034ca771c3ed",
            "comment": "`execution-spec-tests` generated test",
            "filling-transition-tool": "ethereum-spec-evm-resolver 0.0.1",
            "description": "Test function documentation:\n\n    Test the BLS12_MAP_FP_TO_G1 precompile.",
            "url": "https://github.com/ethereum/execution-spec-tests/blob/pectra-devnet-5@v1.0.0/tests/prague/eip2537_bls_12_381_precompiles/test_bls12_map_fp_to_g1.py#L30",
            "fixture_format": "state_test",
            "reference-spec": "https://github.com/ethereum/EIPs/blob/master/EIPS/eip-2537.md",
            "reference-spec-version": "cd0f016ad0c4c68b8b1f5c502ef61ab9353b6e5e"
        }
    },
    "tests/prague/eip2537_bls_12_381_precompiles/test_bls12_map_fp_to_g1.py::test_valid[fork_Prague-state_test-bls_g1map_616263-]": {
        "env": {
            "currentCoinbase": "0x2adc25665018aa1fe0e6bc666dac8fc2697ff9ba",
            "currentGasLimit": "0x016345785d8a0000",
            "currentNumber": "0x01",
            "currentTimestamp": "0x03e8",
            "currentRandom": "0x0000000000000000000000000000000000000000000000000000000000000000",
            "currentDifficulty": "0x00",
            "currentBaseFee": "0x07",
            "currentExcessBlobGas": "0x00"
        },
        "pre": {
            "0x0000000000000000000000000000000000001000": {
                "nonce": "0x01",
                "balance": "0x00",
                "code": "0x366000600037600060003660006000601061157cf16000553d6001553d600060003e3d600020600255",
                "storage": {}
            },
            "0xa94f5374fce5edbc8e2a8697c15331677e6ebf0b": {
                "nonce": "0x00",
                "balance": "0x038d7ea4c68000",
                "code": "0x",
                "storage": {}
            }
        },
        "transaction": {
            "nonce": "0x00",
            "gasPrice": "0x0a",
            "gasLimit": [
                "0x98abfc"
            ],
            "to": "0x0000000000000000000000000000000000001000",
            "value": [
                "0x00"
            ],
            "data": [
                "0x00000000000000000000000000000000147e1ed29f06e4c5079b9d14fc89d2820d32419b990c1c7bb7dbea2a36a045124b31ffbde7c99329c05c559af1c6cc82"
            ],
            "sender": "0xa94f5374fce5edbc8e2a8697c15331677e6ebf0b",
            "secretKey": "0x45a915e4d060149eb4365960e6a7a45f334393093061116b197e3240065ff2d8"
        },
        "post": {
            "Prague": [
                {
                    "hash": "0xeb7c45608b308be900ffc221ac4d238019c6e2af675f84f9447d15430fce025e",
                    "logs": "0x1dcc4de8dec75d7aab85b567b6ccd41ad312451b948a7413f0a142fd40d49347",
                    "txbytes": "0xf8a1800a8398abfc94000000000000000000000000000000000000100080b84000000000000000000000000000000000147e1ed29f06e4c5079b9d14fc89d2820d32419b990c1c7bb7dbea2a36a045124b31ffbde7c99329c05c559af1c6cc8225a02518fef372179c7e9e6efdd3909eb85ef731088968fc31724a5fb9be8a6381efa077ce6b945b5ca4d3cd5cc51b182e84d4bf86e421c63714eb03d99c0210e2e5d9",
                    "indexes": {
                        "data": 0,
                        "gas": 0,
                        "value": 0
                    }
                }
            ]
        },
        "_info": {
            "hash": "0x05d6e71434268cec3573055d63bd7c13e986f5f8d7d8ce8e0366ff455ba3d6c9",
            "comment": "`execution-spec-tests` generated test",
            "filling-transition-tool": "ethereum-spec-evm-resolver 0.0.1",
            "description": "Test function documentation:\n\n    Test the BLS12_MAP_FP_TO_G1 precompile.",
            "url": "https://github.com/ethereum/execution-spec-tests/blob/pectra-devnet-5@v1.0.0/tests/prague/eip2537_bls_12_381_precompiles/test_bls12_map_fp_to_g1.py#L30",
            "fixture_format": "state_test",
            "reference-spec": "https://github.com/ethereum/EIPs/blob/master/EIPS/eip-2537.md",
            "reference-spec-version": "cd0f016ad0c4c68b8b1f5c502ef61ab9353b6e5e"
        }
    },
    "tests/prague/eip2537_bls_12_381_precompiles/test_bls12_map_fp_to_g1.py::test_valid[fork_Prague-state_test-bls_g1map_6162636465663031-]": {
        "env": {
            "currentCoinbase": "0x2adc25665018aa1fe0e6bc666dac8fc2697ff9ba",
            "currentGasLimit": "0x016345785d8a0000",
            "currentNumber": "0x01",
            "currentTimestamp": "0x03e8",
            "currentRandom": "0x0000000000000000000000000000000000000000000000000000000000000000",
            "currentDifficulty": "0x00",
            "currentBaseFee": "0x07",
            "currentExcessBlobGas": "0x00"
        },
        "pre": {
            "0x0000000000000000000000000000000000001000": {
                "nonce": "0x01",
                "balance": "0x00",
                "code": "0x366000600037600060003660006000601061157cf16000553d6001553d600060003e3d600020600255",
                "storage": {}
            },
            "0xa94f5374fce5edbc8e2a8697c15331677e6ebf0b": {
                "nonce": "0x00",
                "balance": "0x038d7ea4c68000",
                "code": "0x",
                "storage": {}
            }
        },
        "transaction": {
            "nonce": "0x00",
            "gasPrice": "0x0a",
            "gasLimit": [
                "0x98abfc"
            ],
            "to": "0x0000000000000000000000000000000000001000",
            "value": [
                "0x00"
            ],
            "data": [
                "0x0000000000000000000000000000000004090815ad598a06897dd89bcda860f25837d54e897298ce31e6947378134d3761dc59a572154963e8c954919ecfa82d"
            ],
            "sender": "0xa94f5374fce5edbc8e2a8697c15331677e6ebf0b",
            "secretKey": "0x45a915e4d060149eb4365960e6a7a45f334393093061116b197e3240065ff2d8"
        },
        "post": {
            "Prague": [
                {
                    "hash": "0x934ab0233c3fc614fbfc2bd64a7029304a73596f52e7874189ac701f9f617e82",
                    "logs": "0x1dcc4de8dec75d7aab85b567b6ccd41ad312451b948a7413f0a142fd40d49347",
                    "txbytes": "0xf8a1800a8398abfc94000000000000000000000000000000000000100080b8400000000000000000000000000000000004090815ad598a06897dd89bcda860f25837d54e897298ce31e6947378134d3761dc59a572154963e8c954919ecfa82d26a035b9d45836234fa585d2d6a20de7f5335d0d0a22fa4c1ea7f60b78ba20c8f9a7a07b845cc1e218980c7d696dd70610fcd9ffeb604fa2066f8c079cb536cca8bc60",
                    "indexes": {
                        "data": 0,
                        "gas": 0,
                        "value": 0
                    }
                }
            ]
        },
        "_info": {
            "hash": "0x6575cba7cb6e0781444e17fe86c8d27630092f6d819db5aebaba81c2bfae5124",
            "comment": "`execution-spec-tests` generated test",
            "filling-transition-tool": "ethereum-spec-evm-resolver 0.0.1",
            "description": "Test function documentation:\n\n    Test the BLS12_MAP_FP_TO_G1 precompile.",
            "url": "https://github.com/ethereum/execution-spec-tests/blob/pectra-devnet-5@v1.0.0/tests/prague/eip2537_bls_12_381_precompiles/test_bls12_map_fp_to_g1.py#L30",
            "fixture_format": "state_test",
            "reference-spec": "https://github.com/ethereum/EIPs/blob/master/EIPS/eip-2537.md",
            "reference-spec-version": "cd0f016ad0c4c68b8b1f5c502ef61ab9353b6e5e"
        }
    },
    "tests/prague/eip2537_bls_12_381_precompiles/test_bls12_map_fp_to_g1.py::test_valid[fork_Prague-state_test-bls_g1map_713132385f717171-]": {
        "env": {
            "currentCoinbase": "0x2adc25665018aa1fe0e6bc666dac8fc2697ff9ba",
            "currentGasLimit": "0x016345785d8a0000",
            "currentNumber": "0x01",
            "currentTimestamp": "0x03e8",
            "currentRandom": "0x0000000000000000000000000000000000000000000000000000000000000000",
            "currentDifficulty": "0x00",
            "currentBaseFee": "0x07",
            "currentExcessBlobGas": "0x00"
        },
        "pre": {
            "0x0000000000000000000000000000000000001000": {
                "nonce": "0x01",
                "balance": "0x00",
                "code": "0x366000600037600060003660006000601061157cf16000553d6001553d600060003e3d600020600255",
                "storage": {}
            },
            "0xa94f5374fce5edbc8e2a8697c15331677e6ebf0b": {
                "nonce": "0x00",
                "balance": "0x038d7ea4c68000",
                "code": "0x",
                "storage": {}
            }
        },
        "transaction": {
            "nonce": "0x00",
            "gasPrice": "0x0a",
            "gasLimit": [
                "0x98abfc"
            ],
            "to": "0x0000000000000000000000000000000000001000",
            "value": [
                "0x00"
            ],
            "data": [
                "0x0000000000000000000000000000000008dccd088ca55b8bfbc96fb50bb25c592faa867a8bb78d4e94a8cc2c92306190244532e91feba2b7fed977e3c3bb5a1f"
            ],
            "sender": "0xa94f5374fce5edbc8e2a8697c15331677e6ebf0b",
            "secretKey": "0x45a915e4d060149eb4365960e6a7a45f334393093061116b197e3240065ff2d8"
        },
        "post": {
            "Prague": [
                {
                    "hash": "0xa3f4abb0f359966f478d4b5389913fe62dc7812dd3a9657a1b26b7f8d1aa5e44",
                    "logs": "0x1dcc4de8dec75d7aab85b567b6ccd41ad312451b948a7413f0a142fd40d49347",
                    "txbytes": "0xf8a1800a8398abfc94000000000000000000000000000000000000100080b8400000000000000000000000000000000008dccd088ca55b8bfbc96fb50bb25c592faa867a8bb78d4e94a8cc2c92306190244532e91feba2b7fed977e3c3bb5a1f25a0a7252f999a68ba90f9dd119b4ef1a4c91a929acc58087817a4206991ea204605a073f65beae4207665531e352bdd10fa73ccd987738c06ae0a1a8df4441bbecfc8",
                    "indexes": {
                        "data": 0,
                        "gas": 0,
                        "value": 0
                    }
                }
            ]
        },
        "_info": {
            "hash": "0x7287341b29746e6ac2515b4681bf8b298477257307fefe3d48b3a94fa10326e2",
            "comment": "`execution-spec-tests` generated test",
            "filling-transition-tool": "ethereum-spec-evm-resolver 0.0.1",
            "description": "Test function documentation:\n\n    Test the BLS12_MAP_FP_TO_G1 precompile.",
            "url": "https://github.com/ethereum/execution-spec-tests/blob/pectra-devnet-5@v1.0.0/tests/prague/eip2537_bls_12_381_precompiles/test_bls12_map_fp_to_g1.py#L30",
            "fixture_format": "state_test",
            "reference-spec": "https://github.com/ethereum/EIPs/blob/master/EIPS/eip-2537.md",
            "reference-spec-version": "cd0f016ad0c4c68b8b1f5c502ef61ab9353b6e5e"
        }
    },
    "tests/prague/eip2537_bls_12_381_precompiles/test_bls12_map_fp_to_g1.py::test_valid[fork_Prague-state_test-bls_g1map_613531325f616161-]": {
        "env": {
            "currentCoinbase": "0x2adc25665018aa1fe0e6bc666dac8fc2697ff9ba",
            "currentGasLimit": "0x016345785d8a0000",
            "currentNumber": "0x01",
            "currentTimestamp": "0x03e8",
            "currentRandom": "0x0000000000000000000000000000000000000000000000000000000000000000",
            "currentDifficulty": "0x00",
            "currentBaseFee": "0x07",
            "currentExcessBlobGas": "0x00"
        },
        "pre": {
            "0x0000000000000000000000000000000000001000": {
                "nonce": "0x01",
                "balance": "0x00",
                "code": "0x366000600037600060003660006000601061157cf16000553d6001553d600060003e3d600020600255",
                "storage": {}
            },
            "0xa94f5374fce5edbc8e2a8697c15331677e6ebf0b": {
                "nonce": "0x00",
                "balance": "0x038d7ea4c68000",
                "code": "0x",
                "storage": {}
            }
        },
        "transaction": {
            "nonce": "0x00",
            "gasPrice": "0x0a",
            "gasLimit": [
                "0x98abfc"
            ],
            "to": "0x0000000000000000000000000000000000001000",
            "value": [
                "0x00"
            ],
            "data": [
                "0x000000000000000000000000000000000dd824886d2123a96447f6c56e3a3fa992fbfefdba17b6673f9f630ff19e4d326529db37e1c1be43f905bf9202e0278d"
            ],
            "sender": "0xa94f5374fce5edbc8e2a8697c15331677e6ebf0b",
            "secretKey": "0x45a915e4d060149eb4365960e6a7a45f334393093061116b197e3240065ff2d8"
        },
        "post": {
            "Prague": [
                {
                    "hash": "0xf1e4970bd93b9e0cdb7f540109ecc7d15d6659068469bd6894298f0c58d940c0",
                    "logs": "0x1dcc4de8dec75d7aab85b567b6ccd41ad312451b948a7413f0a142fd40d49347",
                    "txbytes": "0xf8a1800a8398abfc94000000000000000000000000000000000000100080b840000000000000000000000000000000000dd824886d2123a96447f6c56e3a3fa992fbfefdba17b6673f9f630ff19e4d326529db37e1c1be43f905bf9202e0278d25a0f67720e0388c35a38ffdd12f13ec09432878391d5e08fea97d5016427121a60ba027b08ea850aac826b21e3be0213f14f6f68804b85de2b9e1dfba772fd44e57a4",
                    "indexes": {
                        "data": 0,
                        "gas": 0,
                        "value": 0
                    }
                }
            ]
        },
        "_info": {
            "hash": "0x5c0953efd0c30783381410ba29d7d6823556d7a110fb167535edd57ecb975c33",
            "comment": "`execution-spec-tests` generated test",
            "filling-transition-tool": "ethereum-spec-evm-resolver 0.0.1",
            "description": "Test function documentation:\n\n    Test the BLS12_MAP_FP_TO_G1 precompile.",
            "url": "https://github.com/ethereum/execution-spec-tests/blob/pectra-devnet-5@v1.0.0/tests/prague/eip2537_bls_12_381_precompiles/test_bls12_map_fp_to_g1.py#L30",
            "fixture_format": "state_test",
            "reference-spec": "https://github.com/ethereum/EIPs/blob/master/EIPS/eip-2537.md",
            "reference-spec-version": "cd0f016ad0c4c68b8b1f5c502ef61ab9353b6e5e"
        }
    },
    "tests/prague/eip2537_bls_12_381_precompiles/test_bls12_map_fp_to_g1.py::test_valid[fork_Prague-state_test-fp_0-]": {
        "env": {
            "currentCoinbase": "0x2adc25665018aa1fe0e6bc666dac8fc2697ff9ba",
            "currentGasLimit": "0x016345785d8a0000",
            "currentNumber": "0x01",
            "currentTimestamp": "0x03e8",
            "currentRandom": "0x0000000000000000000000000000000000000000000000000000000000000000",
            "currentDifficulty": "0x00",
            "currentBaseFee": "0x07",
            "currentExcessBlobGas": "0x00"
        },
        "pre": {
            "0x0000000000000000000000000000000000001000": {
                "nonce": "0x01",
                "balance": "0x00",
                "code": "0x366000600037600060003660006000601061157cf16000553d6001553d600060003e3d600020600255",
                "storage": {}
            },
            "0xa94f5374fce5edbc8e2a8697c15331677e6ebf0b": {
                "nonce": "0x00",
                "balance": "0x038d7ea4c68000",
                "code": "0x",
                "storage": {}
            }
        },
        "transaction": {
            "nonce": "0x00",
            "gasPrice": "0x0a",
            "gasLimit": [
                "0x98abfc"
            ],
            "to": "0x0000000000000000000000000000000000001000",
            "value": [
                "0x00"
            ],
            "data": [
                "0x00000000000000000000000000000000000000000000000000000000000000000000000000000000000000000000000000000000000000000000000000000000"
            ],
            "sender": "0xa94f5374fce5edbc8e2a8697c15331677e6ebf0b",
            "secretKey": "0x45a915e4d060149eb4365960e6a7a45f334393093061116b197e3240065ff2d8"
        },
        "post": {
            "Prague": [
                {
                    "hash": "0xa3acecc31f9fbf1d8f6e88ce352affa2bb132dd7d881b19d56407a998203bdbe",
                    "logs": "0x1dcc4de8dec75d7aab85b567b6ccd41ad312451b948a7413f0a142fd40d49347",
                    "txbytes": "0xf8a1800a8398abfc94000000000000000000000000000000000000100080b8400000000000000000000000000000000000000000000000000000000000000000000000000000000000000000000000000000000000000000000000000000000026a0807adbd2954fba3657079a76ae307843262a8101918d3c3be638378a403c7b98a04b4dc294989dddff565ccbe2db44aee6c29aa7102f4ada0f6c0905eafeda3d70",
                    "indexes": {
                        "data": 0,
                        "gas": 0,
                        "value": 0
                    }
                }
            ]
        },
        "_info": {
            "hash": "0xc29cb8cd41d5c61df0ebc2b55b42a33ed16b83ac3309718a57ffc9075ac102f1",
            "comment": "`execution-spec-tests` generated test",
            "filling-transition-tool": "ethereum-spec-evm-resolver 0.0.1",
            "description": "Test function documentation:\n\n    Test the BLS12_MAP_FP_TO_G1 precompile.",
            "url": "https://github.com/ethereum/execution-spec-tests/blob/pectra-devnet-5@v1.0.0/tests/prague/eip2537_bls_12_381_precompiles/test_bls12_map_fp_to_g1.py#L30",
            "fixture_format": "state_test",
            "reference-spec": "https://github.com/ethereum/EIPs/blob/master/EIPS/eip-2537.md",
            "reference-spec-version": "cd0f016ad0c4c68b8b1f5c502ef61ab9353b6e5e"
        }
    },
    "tests/prague/eip2537_bls_12_381_precompiles/test_bls12_map_fp_to_g1.py::test_valid[fork_Prague-state_test-fp_p_minus_1-]": {
        "env": {
            "currentCoinbase": "0x2adc25665018aa1fe0e6bc666dac8fc2697ff9ba",
            "currentGasLimit": "0x016345785d8a0000",
            "currentNumber": "0x01",
            "currentTimestamp": "0x03e8",
            "currentRandom": "0x0000000000000000000000000000000000000000000000000000000000000000",
            "currentDifficulty": "0x00",
            "currentBaseFee": "0x07",
            "currentExcessBlobGas": "0x00"
        },
        "pre": {
            "0x0000000000000000000000000000000000001000": {
                "nonce": "0x01",
                "balance": "0x00",
                "code": "0x366000600037600060003660006000601061157cf16000553d6001553d600060003e3d600020600255",
                "storage": {}
            },
            "0xa94f5374fce5edbc8e2a8697c15331677e6ebf0b": {
                "nonce": "0x00",
                "balance": "0x038d7ea4c68000",
                "code": "0x",
                "storage": {}
            }
        },
        "transaction": {
            "nonce": "0x00",
            "gasPrice": "0x0a",
            "gasLimit": [
                "0x98abfc"
            ],
            "to": "0x0000000000000000000000000000000000001000",
            "value": [
                "0x00"
            ],
            "data": [
                "0x000000000000000000000000000000001a0111ea397fe69a4b1ba7b6434bacd764774b84f38512bf6730d2a0f6b0f6241eabfffeb153ffffb9feffffffffaaaa"
            ],
            "sender": "0xa94f5374fce5edbc8e2a8697c15331677e6ebf0b",
            "secretKey": "0x45a915e4d060149eb4365960e6a7a45f334393093061116b197e3240065ff2d8"
        },
        "post": {
            "Prague": [
                {
                    "hash": "0x60b90c777f3969cb04e20cb6d05563f623b4347517c1bbbe15902b82a4a0c0a0",
                    "logs": "0x1dcc4de8dec75d7aab85b567b6ccd41ad312451b948a7413f0a142fd40d49347",
                    "txbytes": "0xf8a1800a8398abfc94000000000000000000000000000000000000100080b840000000000000000000000000000000001a0111ea397fe69a4b1ba7b6434bacd764774b84f38512bf6730d2a0f6b0f6241eabfffeb153ffffb9feffffffffaaaa26a0ea5386628d5294a865ea85a0b753c970ffd0b91e9f5db518d026661ae873f5eba07fe80778b456814274df6545c145f5b18873ff69a5cb77bfb775692b79697c37",
                    "indexes": {
                        "data": 0,
                        "gas": 0,
                        "value": 0
                    }
                }
            ]
        },
        "_info": {
            "hash": "0x7a4c47d96ace2aa3b5d0920deebb55d3cee95ed36e666415e83b37f2c1f43ab4",
            "comment": "`execution-spec-tests` generated test",
            "filling-transition-tool": "ethereum-spec-evm-resolver 0.0.1",
            "description": "Test function documentation:\n\n    Test the BLS12_MAP_FP_TO_G1 precompile.",
            "url": "https://github.com/ethereum/execution-spec-tests/blob/pectra-devnet-5@v1.0.0/tests/prague/eip2537_bls_12_381_precompiles/test_bls12_map_fp_to_g1.py#L30",
            "fixture_format": "state_test",
            "reference-spec": "https://github.com/ethereum/EIPs/blob/master/EIPS/eip-2537.md",
            "reference-spec-version": "cd0f016ad0c4c68b8b1f5c502ef61ab9353b6e5e"
        }
    }
}