{
    "tests/prague/eip3074_auth_authcall/test_auth.py::test_all_zeros[fork_Prague-state_test]": {
        "env": {
            "currentCoinbase": "0x2adc25665018aa1fe0e6bc666dac8fc2697ff9ba",
            "currentGasLimit": "0x016345785d8a0000",
            "currentNumber": "0x01",
            "currentTimestamp": "0x03e8",
            "currentRandom": "0x0000000000000000000000000000000000000000000000000000000000000000",
            "currentDifficulty": "0x00",
            "currentBaseFee": "0x07",
            "currentExcessBlobGas": "0x00"
        },
        "pre": {
            "0x0000000000000000000000000000000000000100": {
                "nonce": "0x00",
                "balance": "0x00",
                "code": "0x600060006000f615600155",
                "storage": {}
            },
            "0xa94f5374fce5edbc8e2a8697c15331677e6ebf0b": {
                "nonce": "0x00",
                "balance": "0x3635c9adc5dea00000",
                "code": "0x",
                "storage": {}
            }
        },
        "transaction": {
            "nonce": "0x00",
            "gasPrice": "0x0a",
            "gasLimit": [
                "0xc350"
            ],
            "to": "0x0000000000000000000000000000000000000100",
            "value": [
                "0x00"
            ],
            "data": [
                "0x"
            ],
            "sender": "0xa94f5374fce5edbc8e2a8697c15331677e6ebf0b",
            "secretKey": "0x45a915e4d060149eb4365960e6a7a45f334393093061116b197e3240065ff2d8"
        },
        "post": {
            "Prague": [
                {
                    "hash": "0x799259336fc83d12d32fb9162fa5b06936c24bded416ef2fc0ee1207069de4a5",
                    "logs": "0x1dcc4de8dec75d7aab85b567b6ccd41ad312451b948a7413f0a142fd40d49347",
                    "txbytes": "0xf85f800a82c350940000000000000000000000000000000000000100808026a07d455e21a6fc7b29fbc7d829216dfc8744edd6e9b6d6f87d3566eb1c8170b2fba06678d744d8bcf1cc200cf7946b290ad18d175b27322bc92a0b1ea6166e235c01",
                    "indexes": {
                        "data": 0,
                        "gas": 0,
                        "value": 0
                    }
                }
            ]
        },
        "_info": {
            "hash": "0x8a2f32a40bd251cd391fcdb6b94ff41a97ba68688a941c7043cfbcf0e3469f4b",
            "comment": "`execution-spec-tests` generated test",
            "filling-transition-tool": "evm version 1.14.4-unstable-abee40f2-20240516",
            "reference-spec": "https://github.com/ethereum/EIPs/blob/master/EIPS/eip-3074.md",
            "reference-spec-version": "3b5fcad6b35782f8aaeba7d4ac26004e8fbd720f"
        }
    }
}