{
    "tests/prague/eip3074_auth_authcall/test_auth.py::test_extcodesize[fork_Prague-state_test]": {
        "env": {
            "currentCoinbase": "0x2adc25665018aa1fe0e6bc666dac8fc2697ff9ba",
            "currentGasLimit": "0x016345785d8a0000",
            "currentNumber": "0x01",
            "currentTimestamp": "0x03e8",
            "currentRandom": "0x0000000000000000000000000000000000000000000000000000000000000000",
            "currentDifficulty": "0x00",
            "currentBaseFee": "0x07",
            "currentExcessBlobGas": "0x00"
        },
        "pre": {
            "0x0000000000000000000000000000000000000100": {
                "nonce": "0x00",
                "balance": "0x00",
                "code": "0x366000600037366000738a0a19589531694250d570040a0c4b74576919b8f6156001555a738a0a19589531694250d570040a0c4b74576919b83b505a03600003600255",
                "storage": {}
            },
            "0xa94f5374fce5edbc8e2a8697c15331677e6ebf0b": {
                "nonce": "0x00",
                "balance": "0x3635c9adc5dea00000",
                "code": "0x",
                "storage": {}
            },
            "0x8a0a19589531694250d570040a0c4b74576919b8": {
                "nonce": "0x00",
                "balance": "0x00",
                "code": "0xfe",
                "storage": {}
            }
        },
        "transaction": {
            "nonce": "0x00",
            "gasPrice": "0x0a",
            "gasLimit": [
                "0x0f4240"
            ],
            "to": "0x0000000000000000000000000000000000000100",
            "value": [
                "0x00"
            ],
            "data": [
                "0x00c01efa6719dfdc96bc767a6aecd12c716ce2345f2ef5b9a7360628e91940a1d678c6781c6ef1c4e722f46d410efae55a47064c54594771f1548f75fad495412f0000000000000000000000000000000000000000000000000000000000000001"
            ],
            "sender": "0xa94f5374fce5edbc8e2a8697c15331677e6ebf0b",
            "secretKey": "0x45a915e4d060149eb4365960e6a7a45f334393093061116b197e3240065ff2d8"
        },
        "post": {
            "Prague": [
                {
                    "hash": "0x84e10939be31e3796b9d0ce3e0f13d29be4fa268809240b34ff442ce3158e5d8",
                    "logs": "0x1dcc4de8dec75d7aab85b567b6ccd41ad312451b948a7413f0a142fd40d49347",
                    "txbytes": "0xf8c2800a830f424094000000000000000000000000000000000000010080b86100c01efa6719dfdc96bc767a6aecd12c716ce2345f2ef5b9a7360628e91940a1d678c6781c6ef1c4e722f46d410efae55a47064c54594771f1548f75fad495412f000000000000000000000000000000000000000000000000000000000000000126a0c0e455d9bca09e46b48858d702f434adcc9fe2c9f8447968d6c8ab77dd5fd0e0a05fa7b70f37fc8ca1199cf29cce61b7a51b3a52acbbf82c07cefa2ae20fa5f86e",
                    "indexes": {
                        "data": 0,
                        "gas": 0,
                        "value": 0
                    }
                }
            ]
        },
        "_info": {
            "hash": "0x8f3b2017bbef64d2ddfaa7a83ce76aa8be91f955c36376552fa42e88e136f311",
            "comment": "`execution-spec-tests` generated test",
            "filling-transition-tool": "evm version 1.14.4-unstable-abee40f2-20240516",
            "reference-spec": "https://github.com/ethereum/EIPs/blob/master/EIPS/eip-3074.md",
            "reference-spec-version": "3b5fcad6b35782f8aaeba7d4ac26004e8fbd720f"
        }
    }
}