{
    "tests/prague/eip3074_auth_authcall/test_auth.py::test_short_memory[fork_Prague-state_test-commit_0xffffffffffffffffffffffffffffffffffffffffffffffffffffffffffffffff-ok_False]": {
        "env": {
            "currentCoinbase": "0x2adc25665018aa1fe0e6bc666dac8fc2697ff9ba",
            "currentGasLimit": "0x016345785d8a0000",
            "currentNumber": "0x01",
            "currentTimestamp": "0x03e8",
            "currentRandom": "0x0000000000000000000000000000000000000000000000000000000000000000",
            "currentDifficulty": "0x00",
            "currentBaseFee": "0x07",
            "currentExcessBlobGas": "0x00"
        },
        "pre": {
            "0x0000000000000000000000000000000000000100": {
                "nonce": "0x00",
                "balance": "0x00",
                "code": "0x36600060003760203603600073a94f5374fce5edbc8e2a8697c15331677e6ebf0bf6600155",
                "storage": {}
            },
            "0xa94f5374fce5edbc8e2a8697c15331677e6ebf0b": {
                "nonce": "0x00",
                "balance": "0x3635c9adc5dea00000",
                "code": "0x",
                "storage": {}
            }
        },
        "transaction": {
            "nonce": "0x00",
            "gasPrice": "0x0a",
            "gasLimit": [
                "0x0f4240"
            ],
            "to": "0x0000000000000000000000000000000000000100",
            "value": [
                "0x00"
            ],
            "data": [
                "0x01efa6202251167dd355ce12ce9d56ca74c3fade7105ceaf5f67d6adb5e4cbee786db663241198b5d1dcfabcd2d3e856e92def2a45f76daf29f3467f7a8652017bffffffffffffffffffffffffffffffffffffffffffffffffffffffffffffffff"
            ],
            "sender": "0xa94f5374fce5edbc8e2a8697c15331677e6ebf0b",
            "secretKey": "0x45a915e4d060149eb4365960e6a7a45f334393093061116b197e3240065ff2d8"
        },
        "post": {
            "Prague": [
                {
                    "hash": "0x8a7a17cf1a7d0a205472165f10044900823f761aca61069ee6a82323e25f7f21",
                    "logs": "0x1dcc4de8dec75d7aab85b567b6ccd41ad312451b948a7413f0a142fd40d49347",
                    "txbytes": "0xf8c2800a830f424094000000000000000000000000000000000000010080b86101efa6202251167dd355ce12ce9d56ca74c3fade7105ceaf5f67d6adb5e4cbee786db663241198b5d1dcfabcd2d3e856e92def2a45f76daf29f3467f7a8652017bffffffffffffffffffffffffffffffffffffffffffffffffffffffffffffffff25a094d97d46da5934b2c882c7976e1972036a2f5d2cb712ddcdab9c7b1b6ea4a0b1a0192032eaaaef0c68e8afac702d1b9b20f2902c0449f168355ddb84bb85e3460d",
                    "indexes": {
                        "data": 0,
                        "gas": 0,
                        "value": 0
                    }
                }
            ]
        },
        "_info": {
            "hash": "0x8d0275f0e896a913b31f12c5eb58240192c01aab2be7e019decf4b5816fabf1d",
            "comment": "`execution-spec-tests` generated test",
            "filling-transition-tool": "evm version 1.14.4-unstable-abee40f2-20240516",
            "reference-spec": "https://github.com/ethereum/EIPs/blob/master/EIPS/eip-3074.md",
            "reference-spec-version": "3b5fcad6b35782f8aaeba7d4ac26004e8fbd720f"
        }
    },
    "tests/prague/eip3074_auth_authcall/test_auth.py::test_short_memory[fork_Prague-state_test-commit_0x0000000000000000000000000000000000000000000000000000000000000000-ok_True]": {
        "env": {
            "currentCoinbase": "0x2adc25665018aa1fe0e6bc666dac8fc2697ff9ba",
            "currentGasLimit": "0x016345785d8a0000",
            "currentNumber": "0x01",
            "currentTimestamp": "0x03e8",
            "currentRandom": "0x0000000000000000000000000000000000000000000000000000000000000000",
            "currentDifficulty": "0x00",
            "currentBaseFee": "0x07",
            "currentExcessBlobGas": "0x00"
        },
        "pre": {
            "0x0000000000000000000000000000000000000100": {
                "nonce": "0x00",
                "balance": "0x00",
                "code": "0x36600060003760203603600073a94f5374fce5edbc8e2a8697c15331677e6ebf0bf6600155",
                "storage": {}
            },
            "0xa94f5374fce5edbc8e2a8697c15331677e6ebf0b": {
                "nonce": "0x00",
                "balance": "0x3635c9adc5dea00000",
                "code": "0x",
                "storage": {}
            }
        },
        "transaction": {
            "nonce": "0x00",
            "gasPrice": "0x0a",
            "gasLimit": [
                "0x0f4240"
            ],
            "to": "0x0000000000000000000000000000000000000100",
            "value": [
                "0x00"
            ],
            "data": [
                "0x0141257148a09b2c227a5d9e8180e51f35725c48e5fbd082607b30c0e133b9fbc129d0aeb5ce1cf0854ed5eb1d2d026d807fb59880650d614b99fd5555e16e38c5ffffffffffffffffffffffffffffffffffffffffffffffffffffffffffffffff"
            ],
            "sender": "0xa94f5374fce5edbc8e2a8697c15331677e6ebf0b",
            "secretKey": "0x45a915e4d060149eb4365960e6a7a45f334393093061116b197e3240065ff2d8"
        },
        "post": {
            "Prague": [
                {
                    "hash": "0xe888fe5f7e0d23f1cfcda7d0f502b39b4cac964e9f3670538e2127aec6423fc1",
                    "logs": "0x1dcc4de8dec75d7aab85b567b6ccd41ad312451b948a7413f0a142fd40d49347",
                    "txbytes": "0xf8c2800a830f424094000000000000000000000000000000000000010080b8610141257148a09b2c227a5d9e8180e51f35725c48e5fbd082607b30c0e133b9fbc129d0aeb5ce1cf0854ed5eb1d2d026d807fb59880650d614b99fd5555e16e38c5ffffffffffffffffffffffffffffffffffffffffffffffffffffffffffffffff26a014acd127b8ab8edcb02ad79e68c44d2303b2bec332992f61fc116150802176cca00ec6ed6ca6d6fa65d531514106b336772484d7bd214675ddd94dd8b8aee52faf",
                    "indexes": {
                        "data": 0,
                        "gas": 0,
                        "value": 0
                    }
                }
            ]
        },
        "_info": {
            "hash": "0x5518798e3efb26add3e447061d803f6538d38c87dc40ac3f47d05a360b2f6458",
            "comment": "`execution-spec-tests` generated test",
            "filling-transition-tool": "evm version 1.14.4-unstable-abee40f2-20240516",
            "reference-spec": "https://github.com/ethereum/EIPs/blob/master/EIPS/eip-3074.md",
            "reference-spec-version": "3b5fcad6b35782f8aaeba7d4ac26004e8fbd720f"
        }
    }
}