{
    "tests/prague/eip3074_auth_authcall/test_auth.py::test_stack_underflow[fork_Prague-state_test]": {
        "env": {
            "currentCoinbase": "0x2adc25665018aa1fe0e6bc666dac8fc2697ff9ba",
            "currentGasLimit": "0x016345785d8a0000",
            "currentNumber": "0x01",
            "currentTimestamp": "0x03e8",
            "currentRandom": "0x0000000000000000000000000000000000000000000000000000000000000000",
            "currentDifficulty": "0x00",
            "currentBaseFee": "0x07",
            "currentExcessBlobGas": "0x00"
        },
        "pre": {
            "0x0000000000000000000000000000000000000100": {
                "nonce": "0x00",
                "balance": "0x00",
                "code": "0x6000600060006000600073000000000000000000000000000000000000010161c350f115600155",
                "storage": {}
            },
            "0x0000000000000000000000000000000000000101": {
                "nonce": "0x00",
                "balance": "0x00",
                "code": "0x6001600355f66001600255",
                "storage": {}
            },
            "0xa94f5374fce5edbc8e2a8697c15331677e6ebf0b": {
                "nonce": "0x00",
                "balance": "0x3635c9adc5dea00000",
                "code": "0x",
                "storage": {}
            }
        },
        "transaction": {
            "nonce": "0x00",
            "gasPrice": "0x0a",
            "gasLimit": [
                "0x0186a0"
            ],
            "to": "0x0000000000000000000000000000000000000100",
            "value": [
                "0x00"
            ],
            "data": [
                "0x"
            ],
            "sender": "0xa94f5374fce5edbc8e2a8697c15331677e6ebf0b",
            "secretKey": "0x45a915e4d060149eb4365960e6a7a45f334393093061116b197e3240065ff2d8"
        },
        "post": {
            "Prague": [
                {
                    "hash": "0x96a6964100f00279aa1ad6d3efbe6e36518d21f8f69f1cad664b79a06248aaa0",
                    "logs": "0x1dcc4de8dec75d7aab85b567b6ccd41ad312451b948a7413f0a142fd40d49347",
                    "txbytes": "0xf860800a830186a0940000000000000000000000000000000000000100808025a086ddb9352affa90c20d71652b049404d8abcc6575e8e4a2c0bb9aa73fad9001ca01bb0d685e5589862ae3d2b083be59c4f754c326800dbc82712e9f81eebf2f61d",
                    "indexes": {
                        "data": 0,
                        "gas": 0,
                        "value": 0
                    }
                }
            ]
        },
        "_info": {
            "hash": "0xb4a3d2bc10e5756384c503093b1c1d499130e7a4a298811aa88442766c9cd828",
            "comment": "`execution-spec-tests` generated test",
            "filling-transition-tool": "evm version 1.14.4-unstable-abee40f2-20240516",
            "reference-spec": "https://github.com/ethereum/EIPs/blob/master/EIPS/eip-3074.md",
            "reference-spec-version": "3b5fcad6b35782f8aaeba7d4ac26004e8fbd720f"
        }
    }
}