{
    "invalidAddr" : {
        "_info" : {
            "comment" : "Ori Pomerantz qbzzt1@gmail.com",
            "filling-rpc-server" : "evm version 1.10.9-unstable-5d64c754-20210831",
            "filling-tool-version" : "retesteth-0.2.0-memory+commit.7c392173.Linux.g++",
            "generatedTestHash" : "f4f5b726193b4a4141d0e6ed8b7051cd30ac6f47bfeb3437df6a22cd886c279d",
            "labels" : {
                "0" : ":label ok",
                "1" : ":label ok",
                "10" : ":label ok",
                "11" : ":label ok",
                "12" : ":label ok",
                "13" : ":label ok",
                "14" : ":label ok",
                "15" : ":label ok",
                "16" : ":label ok",
                "17" : ":label ok",
                "18" : ":label ok",
                "19" : ":label ok",
                "2" : ":label ok",
                "20" : ":label ok",
                "21" : ":label ok",
                "22" : ":label ok",
                "23" : ":label ok",
                "24" : ":label ok",
                "25" : ":label ok",
                "26" : ":label ok",
                "27" : ":label ok",
                "28" : ":label ok",
                "29" : ":label ok",
                "3" : ":label ok",
                "30" : ":label ok",
                "31" : ":label ok",
                "32" : ":label ok",
                "33" : ":label ok",
                "34" : ":label ok",
                "35" : ":label ok",
                "36" : ":label ok",
                "37" : ":label ok",
                "38" : ":label ok",
                "39" : ":label ok",
                "4" : ":label ok",
                "40" : ":label ok",
                "41" : ":label ok",
                "42" : ":label ok",
                "43" : ":label ok",
                "44" : ":label ok",
                "45" : ":label ok",
                "46" : ":label ok",
                "47" : ":label ok",
                "48" : ":label ok",
                "49" : ":label ok",
                "5" : ":label ok",
                "50" : ":label ok",
                "51" : ":label ok",
                "52" : ":label ok",
                "53" : ":label ok",
                "54" : ":label ok",
                "55" : ":label ok",
                "56" : ":label ok",
                "57" : ":label ok",
                "58" : ":label ok",
                "59" : ":label ok",
                "6" : ":label ok",
                "60" : ":label ok",
                "61" : ":label ok",
                "62" : ":label ok",
                "63" : ":label ok",
                "64" : ":label ok",
                "65" : ":label ok",
                "66" : ":label ok",
                "67" : ":label ok",
                "68" : ":label ok",
                "69" : ":label ok",
                "7" : ":label ok",
                "70" : ":label ok",
                "71" : ":label ok",
                "72" : ":label ok",
                "73" : ":label ok",
                "74" : ":label ok",
                "75" : ":label ok",
                "76" : ":label ok",
                "77" : ":label ok",
                "78" : ":label ok",
                "79" : ":label ok",
                "8" : ":label ok",
                "80" : ":label ok",
                "81" : ":label ok",
                "82" : ":label ok",
                "83" : ":label ok",
                "84" : ":label ok",
                "9" : ":label ok"
            },
            "lllcversion" : "Version: 0.5.14-develop.2021.6.15+commit.401d5358.Linux.g++",
            "source" : "src/GeneralStateTestsFiller/stBadOpcode/invalidAddrFiller.yml",
            "sourceHash" : "5c2cc4103a6129043ea07c07899d34dc2ebc9ac63dfebabc40afee8cb3e45102"
        },
        "env" : {
            "currentBaseFee" : "0x0a",
            "currentCoinbase" : "0x2adc25665018aa1fe0e6bc666dac8fc2697ff9ba",
            "currentDifficulty" : "0x020000",
            "currentGasLimit" : "0x05f5e100",
            "currentNumber" : "0x01",
            "currentTimestamp" : "0x03e8",
            "previousHash" : "0x5e20a0453cecd065ea59c37ac63e079ee08998b6045136a8ce6635c7912ec0b6"
        },
        "post" : {
            "Berlin" : [
                {
                    "hash" : "0x00356a727930dee841f8053bd0240583eda648a9a90761adea65e54f247b59aa",
                    "indexes" : {
                        "data" : 31,
                        "gas" : 0,
                        "value" : 0
                    },
                    "logs" : "0x1dcc4de8dec75d7aab85b567b6ccd41ad312451b948a7413f0a142fd40d49347",
                    "txbytes" : "0xf8c6800a8404c4b40094cccccccccccccccccccccccccccccccccccccccc01b864048071d3000000000000000000000000000000000000000000000000000000000000003f000000000000000000000000000000000000000000000000000000000000000200000000000000000000000000000000000000000000000000000000000000001ca0e40d223f6020fd8c140e355cd9fc0e201dfde933c4073e88d7cd3a5d3c6b2dc8a00b5758558c6fe9543321d03afaa0aebd06b2005cb90802ffd4a13c39bcf219a9"
                }
            ]
        },
        "pre" : {
            "0x000000000000000000000000000000000000c0de" : {
                "balance" : "0x010000",
                "code" : "0x63deadbeef6000526101206000f300",
                "nonce" : "0x00",
                "storage" : {
                }
            },
            "0x0000000000000000000000000000000000dead01" : {
                "balance" : "0x1000",
                "code" : "0x600035ff00",
                "nonce" : "0x00",
                "storage" : {
                }
            },
            "0x0000000000000000000000000000000000dead02" : {
                "balance" : "0x1000",
                "code" : "0x600035ff00",
                "nonce" : "0x00",
                "storage" : {
                }
            },
            "0xa94f5374fce5edbc8e2a8697c15331677e6ebf0b" : {
                "balance" : "0x0ba1a9ce0ba1a9ce",
                "code" : "0x",
                "nonce" : "0x00",
                "storage" : {
                }
            },
            "0xcccccccccccccccccccccccccccccccccccccccc" : {
                "balance" : "0x0ba1a9ce0ba1a9ce",
                "code" : "0x60016024351461001157600050610019565b61c0de612000525b60026024351461002b57600050610032565b6002612000525b6000604435146100445760005061004d565b61200051612040525b60016044351461005f57600050610071565b60a060020a6001026120005101612040525b60026044351461008357600050610095565b60fe60020a6001026120005101612040525b6003604435146100a7576000506100b9565b60ff60020a6001026120005101612040525b6004604435146100cb576000506100dd565b60a060020a6001026120005103612040525b67ff00ff00ff00ff006120205266ff00ff00ff00ff6120605260316004351461010857600050610139565b61200051316120205261204051316120605260016024351461012f57600061208052610138565b62010000612080525b5b603b6004351461014b5760005061017a565b612000513b61202052612040513b6120605260016024351461017257600061208052610179565b600f612080525b5b603c6004351461018c576000506101e0565b60206000612020612000513c60206000612060612040513c6001602435146101b9576000612080526101df565b7f63deadbeef6000526101206000f3000000000000000000000000000000000000612080525b5b603f600435146101f257600050610240565b612000513f61202052612040513f612060526001602435146102195760006120805261023f565b7f85ab232a015279867a1f5b5da4f9688c6c92e555c122e9147f9d13bc53c03e92612080525b5b60f160043514610252576000506102bb565b60206120206020612000600061200051611000f15060206120606020612000600061204051611000f1506001602435146102b0577f9267d3dbed802941483f1afa2a6bc68de5f653128aca9bf1461c5d0a3ad36ed2612080526102ba565b63deadbeef612080525b5b60f2600435146102cd57600050610336565b60206120206020612000600061200051611000f25060206120606020612000600061204051611000f25060016024351461032b577f9267d3dbed802941483f1afa2a6bc68de5f653128aca9bf1461c5d0a3ad36ed261208052610335565b63deadbeef612080525b5b60f460043514610348576000506103ad565b6020612020602061200061200051611000f4506020612060602061200061204051611000f4506001602435146103a2577f9267d3dbed802941483f1afa2a6bc68de5f653128aca9bf1461c5d0a3ad36ed2612080526103ac565b63deadbeef612080525b5b60fa600435146103bf57600050610424565b6020612020602061200061200051611000fa506020612060602061200061204051611000fa50600160243514610419577f9267d3dbed802941483f1afa2a6bc68de5f653128aca9bf1461c5d0a3ad36ed261208052610423565b63deadbeef612080525b5b60ff60043514610436576000506104b6565b61200051316120a052600060006020612000600062dead016310000000f150612000513161202052600060006020612040600062dead026310000000f150612000513161206052612020516120605103612060526120a0516120205103612020526001602435146104ad57611000612080526104b5565b611000612080525b5b61206051612020510360005561208051612020510360015560006101005500",
                "nonce" : "0x00",
                "storage" : {
                    "0x0100" : "0x60a7"
                }
            }
        },
        "transaction" : {
            "data" : [
                "0x048071d3000000000000000000000000000000000000000000000000000000000000003100000000000000000000000000000000000000000000000000000000000000010000000000000000000000000000000000000000000000000000000000000000",
                "0x048071d3000000000000000000000000000000000000000000000000000000000000003100000000000000000000000000000000000000000000000000000000000000020000000000000000000000000000000000000000000000000000000000000000",
                "0x048071d3000000000000000000000000000000000000000000000000000000000000003100000000000000000000000000000000000000000000000000000000000000010000000000000000000000000000000000000000000000000000000000000001",
                "0x048071d3000000000000000000000000000000000000000000000000000000000000003100000000000000000000000000000000000000000000000000000000000000020000000000000000000000000000000000000000000000000000000000000001",
                "0x048071d3000000000000000000000000000000000000000000000000000000000000003100000000000000000000000000000000000000000000000000000000000000010000000000000000000000000000000000000000000000000000000000000002",
                "0x048071d3000000000000000000000000000000000000000000000000000000000000003100000000000000000000000000000000000000000000000000000000000000020000000000000000000000000000000000000000000000000000000000000002",
                "0x048071d3000000000000000000000000000000000000000000000000000000000000003100000000000000000000000000000000000000000000000000000000000000010000000000000000000000000000000000000000000000000000000000000003",
                "0x048071d3000000000000000000000000000000000000000000000000000000000000003100000000000000000000000000000000000000000000000000000000000000020000000000000000000000000000000000000000000000000000000000000003",
                "0x048071d3000000000000000000000000000000000000000000000000000000000000003100000000000000000000000000000000000000000000000000000000000000010000000000000000000000000000000000000000000000000000000000000004",
                "0x048071d3000000000000000000000000000000000000000000000000000000000000003100000000000000000000000000000000000000000000000000000000000000020000000000000000000000000000000000000000000000000000000000000004",
                "0x048071d3000000000000000000000000000000000000000000000000000000000000003b00000000000000000000000000000000000000000000000000000000000000010000000000000000000000000000000000000000000000000000000000000000",
                "0x048071d3000000000000000000000000000000000000000000000000000000000000003b00000000000000000000000000000000000000000000000000000000000000020000000000000000000000000000000000000000000000000000000000000000",
                "0x048071d3000000000000000000000000000000000000000000000000000000000000003b00000000000000000000000000000000000000000000000000000000000000010000000000000000000000000000000000000000000000000000000000000001",
                "0x048071d3000000000000000000000000000000000000000000000000000000000000003b00000000000000000000000000000000000000000000000000000000000000020000000000000000000000000000000000000000000000000000000000000001",
                "0x048071d3000000000000000000000000000000000000000000000000000000000000003b00000000000000000000000000000000000000000000000000000000000000010000000000000000000000000000000000000000000000000000000000000002",
                "0x048071d3000000000000000000000000000000000000000000000000000000000000003b00000000000000000000000000000000000000000000000000000000000000020000000000000000000000000000000000000000000000000000000000000002",
                "0x048071d3000000000000000000000000000000000000000000000000000000000000003b00000000000000000000000000000000000000000000000000000000000000010000000000000000000000000000000000000000000000000000000000000003",
                "0x048071d3000000000000000000000000000000000000000000000000000000000000003b00000000000000000000000000000000000000000000000000000000000000020000000000000000000000000000000000000000000000000000000000000003",
                "0x048071d3000000000000000000000000000000000000000000000000000000000000003b00000000000000000000000000000000000000000000000000000000000000010000000000000000000000000000000000000000000000000000000000000004",
                "0x048071d3000000000000000000000000000000000000000000000000000000000000003b00000000000000000000000000000000000000000000000000000000000000020000000000000000000000000000000000000000000000000000000000000004",
                "0x048071d3000000000000000000000000000000000000000000000000000000000000003c00000000000000000000000000000000000000000000000000000000000000010000000000000000000000000000000000000000000000000000000000000000",
                "0x048071d3000000000000000000000000000000000000000000000000000000000000003c00000000000000000000000000000000000000000000000000000000000000020000000000000000000000000000000000000000000000000000000000000000",
                "0x048071d3000000000000000000000000000000000000000000000000000000000000003c00000000000000000000000000000000000000000000000000000000000000010000000000000000000000000000000000000000000000000000000000000001",
                "0x048071d3000000000000000000000000000000000000000000000000000000000000003c00000000000000000000000000000000000000000000000000000000000000020000000000000000000000000000000000000000000000000000000000000001",
                "0x048071d3000000000000000000000000000000000000000000000000000000000000003c00000000000000000000000000000000000000000000000000000000000000010000000000000000000000000000000000000000000000000000000000000002",
                "0x048071d3000000000000000000000000000000000000000000000000000000000000003c00000000000000000000000000000000000000000000000000000000000000020000000000000000000000000000000000000000000000000000000000000002",
                "0x048071d3000000000000000000000000000000000000000000000000000000000000003c00000000000000000000000000000000000000000000000000000000000000010000000000000000000000000000000000000000000000000000000000000003",
                "0x048071d3000000000000000000000000000000000000000000000000000000000000003c00000000000000000000000000000000000000000000000000000000000000020000000000000000000000000000000000000000000000000000000000000003",
                "0x048071d3000000000000000000000000000000000000000000000000000000000000003c00000000000000000000000000000000000000000000000000000000000000010000000000000000000000000000000000000000000000000000000000000004",
                "0x048071d3000000000000000000000000000000000000000000000000000000000000003c00000000000000000000000000000000000000000000000000000000000000020000000000000000000000000000000000000000000000000000000000000004",
                "0x048071d3000000000000000000000000000000000000000000000000000000000000003f00000000000000000000000000000000000000000000000000000000000000010000000000000000000000000000000000000000000000000000000000000000",
                "0x048071d3000000000000000000000000000000000000000000000000000000000000003f00000000000000000000000000000000000000000000000000000000000000020000000000000000000000000000000000000000000000000000000000000000",
                "0x048071d3000000000000000000000000000000000000000000000000000000000000003f00000000000000000000000000000000000000000000000000000000000000010000000000000000000000000000000000000000000000000000000000000001",
                "0x048071d3000000000000000000000000000000000000000000000000000000000000003f00000000000000000000000000000000000000000000000000000000000000020000000000000000000000000000000000000000000000000000000000000001",
                "0x048071d3000000000000000000000000000000000000000000000000000000000000003f00000000000000000000000000000000000000000000000000000000000000010000000000000000000000000000000000000000000000000000000000000002",
                "0x048071d3000000000000000000000000000000000000000000000000000000000000003f00000000000000000000000000000000000000000000000000000000000000020000000000000000000000000000000000000000000000000000000000000002",
                "0x048071d3000000000000000000000000000000000000000000000000000000000000003f00000000000000000000000000000000000000000000000000000000000000010000000000000000000000000000000000000000000000000000000000000003",
                "0x048071d3000000000000000000000000000000000000000000000000000000000000003f00000000000000000000000000000000000000000000000000000000000000020000000000000000000000000000000000000000000000000000000000000003",
                "0x048071d3000000000000000000000000000000000000000000000000000000000000003f00000000000000000000000000000000000000000000000000000000000000010000000000000000000000000000000000000000000000000000000000000004",
                "0x048071d3000000000000000000000000000000000000000000000000000000000000003f00000000000000000000000000000000000000000000000000000000000000020000000000000000000000000000000000000000000000000000000000000004",
                "0x048071d300000000000000000000000000000000000000000000000000000000000000f100000000000000000000000000000000000000000000000000000000000000010000000000000000000000000000000000000000000000000000000000000000",
                "0x048071d300000000000000000000000000000000000000000000000000000000000000f100000000000000000000000000000000000000000000000000000000000000020000000000000000000000000000000000000000000000000000000000000000",
                "0x048071d300000000000000000000000000000000000000000000000000000000000000f100000000000000000000000000000000000000000000000000000000000000010000000000000000000000000000000000000000000000000000000000000001",
                "0x048071d300000000000000000000000000000000000000000000000000000000000000f100000000000000000000000000000000000000000000000000000000000000020000000000000000000000000000000000000000000000000000000000000001",
                "0x048071d300000000000000000000000000000000000000000000000000000000000000f100000000000000000000000000000000000000000000000000000000000000010000000000000000000000000000000000000000000000000000000000000002",
                "0x048071d300000000000000000000000000000000000000000000000000000000000000f100000000000000000000000000000000000000000000000000000000000000020000000000000000000000000000000000000000000000000000000000000002",
                "0x048071d300000000000000000000000000000000000000000000000000000000000000f100000000000000000000000000000000000000000000000000000000000000010000000000000000000000000000000000000000000000000000000000000003",
                "0x048071d300000000000000000000000000000000000000000000000000000000000000f100000000000000000000000000000000000000000000000000000000000000020000000000000000000000000000000000000000000000000000000000000003",
                "0x048071d300000000000000000000000000000000000000000000000000000000000000f100000000000000000000000000000000000000000000000000000000000000010000000000000000000000000000000000000000000000000000000000000004",
                "0x048071d300000000000000000000000000000000000000000000000000000000000000f100000000000000000000000000000000000000000000000000000000000000020000000000000000000000000000000000000000000000000000000000000004",
                "0x048071d300000000000000000000000000000000000000000000000000000000000000f200000000000000000000000000000000000000000000000000000000000000010000000000000000000000000000000000000000000000000000000000000000",
                "0x048071d300000000000000000000000000000000000000000000000000000000000000f200000000000000000000000000000000000000000000000000000000000000020000000000000000000000000000000000000000000000000000000000000000",
                "0x048071d300000000000000000000000000000000000000000000000000000000000000f200000000000000000000000000000000000000000000000000000000000000010000000000000000000000000000000000000000000000000000000000000001",
                "0x048071d300000000000000000000000000000000000000000000000000000000000000f200000000000000000000000000000000000000000000000000000000000000020000000000000000000000000000000000000000000000000000000000000001",
                "0x048071d300000000000000000000000000000000000000000000000000000000000000f200000000000000000000000000000000000000000000000000000000000000010000000000000000000000000000000000000000000000000000000000000002",
                "0x048071d300000000000000000000000000000000000000000000000000000000000000f200000000000000000000000000000000000000000000000000000000000000020000000000000000000000000000000000000000000000000000000000000002",
                "0x048071d300000000000000000000000000000000000000000000000000000000000000f200000000000000000000000000000000000000000000000000000000000000010000000000000000000000000000000000000000000000000000000000000003",
                "0x048071d300000000000000000000000000000000000000000000000000000000000000f200000000000000000000000000000000000000000000000000000000000000020000000000000000000000000000000000000000000000000000000000000003",
                "0x048071d300000000000000000000000000000000000000000000000000000000000000f200000000000000000000000000000000000000000000000000000000000000010000000000000000000000000000000000000000000000000000000000000004",
                "0x048071d300000000000000000000000000000000000000000000000000000000000000f200000000000000000000000000000000000000000000000000000000000000020000000000000000000000000000000000000000000000000000000000000004",
                "0x048071d300000000000000000000000000000000000000000000000000000000000000f400000000000000000000000000000000000000000000000000000000000000010000000000000000000000000000000000000000000000000000000000000000",
                "0x048071d300000000000000000000000000000000000000000000000000000000000000f400000000000000000000000000000000000000000000000000000000000000020000000000000000000000000000000000000000000000000000000000000000",
                "0x048071d300000000000000000000000000000000000000000000000000000000000000f400000000000000000000000000000000000000000000000000000000000000010000000000000000000000000000000000000000000000000000000000000001",
                "0x048071d300000000000000000000000000000000000000000000000000000000000000f400000000000000000000000000000000000000000000000000000000000000020000000000000000000000000000000000000000000000000000000000000001",
                "0x048071d300000000000000000000000000000000000000000000000000000000000000f400000000000000000000000000000000000000000000000000000000000000010000000000000000000000000000000000000000000000000000000000000002",
                "0x048071d300000000000000000000000000000000000000000000000000000000000000f400000000000000000000000000000000000000000000000000000000000000020000000000000000000000000000000000000000000000000000000000000002",
                "0x048071d300000000000000000000000000000000000000000000000000000000000000f400000000000000000000000000000000000000000000000000000000000000010000000000000000000000000000000000000000000000000000000000000003",
                "0x048071d300000000000000000000000000000000000000000000000000000000000000f400000000000000000000000000000000000000000000000000000000000000020000000000000000000000000000000000000000000000000000000000000003",
                "0x048071d300000000000000000000000000000000000000000000000000000000000000f400000000000000000000000000000000000000000000000000000000000000010000000000000000000000000000000000000000000000000000000000000004",
                "0x048071d300000000000000000000000000000000000000000000000000000000000000f400000000000000000000000000000000000000000000000000000000000000020000000000000000000000000000000000000000000000000000000000000004",
                "0x048071d300000000000000000000000000000000000000000000000000000000000000fa00000000000000000000000000000000000000000000000000000000000000010000000000000000000000000000000000000000000000000000000000000000",
                "0x048071d300000000000000000000000000000000000000000000000000000000000000fa00000000000000000000000000000000000000000000000000000000000000020000000000000000000000000000000000000000000000000000000000000000",
                "0x048071d300000000000000000000000000000000000000000000000000000000000000fa00000000000000000000000000000000000000000000000000000000000000010000000000000000000000000000000000000000000000000000000000000001",
                "0x048071d300000000000000000000000000000000000000000000000000000000000000fa00000000000000000000000000000000000000000000000000000000000000020000000000000000000000000000000000000000000000000000000000000001",
                "0x048071d300000000000000000000000000000000000000000000000000000000000000fa00000000000000000000000000000000000000000000000000000000000000010000000000000000000000000000000000000000000000000000000000000002",
                "0x048071d300000000000000000000000000000000000000000000000000000000000000fa00000000000000000000000000000000000000000000000000000000000000020000000000000000000000000000000000000000000000000000000000000002",
                "0x048071d300000000000000000000000000000000000000000000000000000000000000fa00000000000000000000000000000000000000000000000000000000000000010000000000000000000000000000000000000000000000000000000000000003",
                "0x048071d300000000000000000000000000000000000000000000000000000000000000fa00000000000000000000000000000000000000000000000000000000000000020000000000000000000000000000000000000000000000000000000000000003",
                "0x048071d300000000000000000000000000000000000000000000000000000000000000fa00000000000000000000000000000000000000000000000000000000000000010000000000000000000000000000000000000000000000000000000000000004",
                "0x048071d300000000000000000000000000000000000000000000000000000000000000fa00000000000000000000000000000000000000000000000000000000000000020000000000000000000000000000000000000000000000000000000000000004",
                "0x048071d300000000000000000000000000000000000000000000000000000000000000ff00000000000000000000000000000000000000000000000000000000000000010000000000000000000000000000000000000000000000000000000000000000",
                "0x048071d300000000000000000000000000000000000000000000000000000000000000ff00000000000000000000000000000000000000000000000000000000000000010000000000000000000000000000000000000000000000000000000000000001",
                "0x048071d300000000000000000000000000000000000000000000000000000000000000ff00000000000000000000000000000000000000000000000000000000000000010000000000000000000000000000000000000000000000000000000000000002",
                "0x048071d300000000000000000000000000000000000000000000000000000000000000ff00000000000000000000000000000000000000000000000000000000000000010000000000000000000000000000000000000000000000000000000000000003",
                "0x048071d300000000000000000000000000000000000000000000000000000000000000ff00000000000000000000000000000000000000000000000000000000000000010000000000000000000000000000000000000000000000000000000000000004"
            ],
            "gasLimit" : [
                "0x04c4b400"
            ],
            "gasPrice" : "0x0a",
            "nonce" : "0x00",
            "secretKey" : "0x45a915e4d060149eb4365960e6a7a45f334393093061116b197e3240065ff2d8",
            "to" : "0xcccccccccccccccccccccccccccccccccccccccc",
            "value" : [
                "0x01"
            ]
        }
    }
}