{
    "tests/osaka/eip7692_eof_v1/eip4750_functions/test_callf_execution.py::test_callf_retf_memory_context[fork_Osaka-state_test]": {
        "env": {
            "currentCoinbase": "0x2adc25665018aa1fe0e6bc666dac8fc2697ff9ba",
            "currentGasLimit": "0x016345785d8a0000",
            "currentNumber": "0x01",
            "currentTimestamp": "0x03e8",
            "currentRandom": "0x0000000000000000000000000000000000000000000000000000000000000000",
            "currentDifficulty": "0x00",
            "currentBaseFee": "0x07",
            "currentExcessBlobGas": "0x00"
        },
        "pre": {
            "0x0000000000000000000000000000000000001000": {
                "nonce": "0x01",
                "balance": "0x00",
                "code": "0xef0001010008020002001f0015ff00000000800002000000026120156000556001600052e3000159600155600051600255602051600355005960045560005160055560026000526003602052e4",
                "storage": {}
            },
            "0xa94f5374fce5edbc8e2a8697c15331677e6ebf0b": {
                "nonce": "0x00",
                "balance": "0x3635c9adc5dea00000",
                "code": "0x",
                "storage": {}
            }
        },
        "transaction": {
            "nonce": "0x00",
            "gasPrice": "0x0a",
            "gasLimit": [
                "0x07a120"
            ],
            "to": "0x0000000000000000000000000000000000001000",
            "value": [
                "0x00"
            ],
            "data": [
                "0x"
            ],
            "sender": "0xa94f5374fce5edbc8e2a8697c15331677e6ebf0b",
            "secretKey": "0x45a915e4d060149eb4365960e6a7a45f334393093061116b197e3240065ff2d8"
        },
        "post": {
            "Osaka": [
                {
                    "hash": "0xd2023cf5dbc7808ed47a85e088903f81980cde71a1e302640c48f9aa8a5a2652",
                    "logs": "0x1dcc4de8dec75d7aab85b567b6ccd41ad312451b948a7413f0a142fd40d49347",
                    "txbytes": "0xf85f800a8307a120940000000000000000000000000000000000001000808026a00141be98af88ea73fa99d7dcda246716f1ffb823e2a37ce07796aa32c39f1a0e9f2235efef08f9ca13c3ea4b4f2bc22810b5d3d8d570945dba45024e456c1a71",
                    "indexes": {
                        "data": 0,
                        "gas": 0,
                        "value": 0
                    },
                    "state": {
                        "0x0000000000000000000000000000000000001000": {
                            "nonce": "0x01",
                            "balance": "0x00",
                            "code": "0xef0001010008020002001f0015ff00000000800002000000026120156000556001600052e3000159600155600051600255602051600355005960045560005160055560026000526003602052e4",
                            "storage": {
                                "0x00": "0x2015",
                                "0x01": "0x40",
                                "0x02": "0x02",
                                "0x03": "0x03",
                                "0x04": "0x20",
                                "0x05": "0x01"
                            }
                        },
                        "0x2adc25665018aa1fe0e6bc666dac8fc2697ff9ba": {
                            "nonce": "0x00",
                            "balance": "0x0708fc",
                            "code": "0x",
                            "storage": {}
                        },
                        "0xa94f5374fce5edbc8e2a8697c15331677e6ebf0b": {
                            "nonce": "0x01",
                            "balance": "0x3635c9adc5de888cb8",
                            "code": "0x",
                            "storage": {}
                        }
                    }
                }
            ]
        },
        "config": {
            "blobSchedule": {
                "Cancun": {
                    "target": "0x03",
                    "max": "0x06",
                    "baseFeeUpdateFraction": "0x32f0ed"
                },
                "Prague": {
                    "target": "0x06",
                    "max": "0x09",
                    "baseFeeUpdateFraction": "0x4c6964"
                }
            },
            "chainid": "0x01"
        },
        "_info": {
            "hash": "0x33fcd39d4f982aab890c4c3302a855e572ddad3b0da1df313fa774d960fbba10",
            "comment": "`execution-spec-tests` generated test",
            "filling-transition-tool": "evmone-t8n 0.15.0+commit.4977c945",
            "description": "Test function documentation:\nVerifies CALLF and RETF don't corrupt memory.",
            "url": "https://github.com/ethereum/execution-spec-tests/blob/e0cd6da30255e19ca166878b4591a4497f40957c/tests/osaka/eip7692_eof_v1/eip4750_functions/test_callf_execution.py#L673",
            "fixture-format": "state_test",
            "reference-spec": "https://github.com/ethereum/EIPs/blob/master/EIPS/eip-4750.md",
            "reference-spec-version": "14400434e1199c57d912082127b1d22643788d11"
        }
    }
}