{
    "tests/frontier/opcodes/test_call_and_callcode_gas_calculation.py::test_value_transfer_gas_calculation[fork_London-state_test-callee_opcode_CALL-caller_gas_limit_36620-is_sufficient_gas_True]": {
        "env": {
            "currentCoinbase": "0x2adc25665018aa1fe0e6bc666dac8fc2697ff9ba",
            "currentGasLimit": "0x016345785d8a0000",
            "currentNumber": "0x01",
            "currentTimestamp": "0x03e8",
            "currentDifficulty": "0x020000",
            "currentBaseFee": "0x07"
        },
        "pre": {
            "0xa94f5374fce5edbc8e2a8697c15331677e6ebf0b": {
                "nonce": "0x00",
                "balance": "0x0ba1a9ce",
                "code": "0x",
                "storage": {}
            },
            "0x0000000000000000000000000000000000001000": {
                "nonce": "0x01",
                "balance": "0x03",
                "code": "0x6000600060006000600173feffffffffffffffffffffffffffffffffffffff5af1",
                "storage": {}
            },
            "0x0000000000000000000000000000000000001100": {
                "nonce": "0x01",
                "balance": "0x03",
                "code": "0x60006000600060006000730000000000000000000000000000000000001000618f0cf1600055",
                "storage": {}
            }
        },
        "transaction": {
            "nonce": "0x00",
            "gasPrice": "0x07",
            "gasLimit": [
                "0x07a120"
            ],
            "to": "0x0000000000000000000000000000000000001100",
            "value": [
                "0x01"
            ],
            "data": [
                "0x"
            ],
            "sender": "0xa94f5374fce5edbc8e2a8697c15331677e6ebf0b",
            "secretKey": "0x45a915e4d060149eb4365960e6a7a45f334393093061116b197e3240065ff2d8"
        },
        "post": {
            "London": [
                {
                    "hash": "0x9dee15c7e3bc70ba91c0454765011961753b9fe53dad941edd1d3d51b2f96ea2",
                    "logs": "0x1dcc4de8dec75d7aab85b567b6ccd41ad312451b948a7413f0a142fd40d49347",
                    "txbytes": "0xf86080078307a120940000000000000000000000000000000000001100018026a0ecc9874339d435625195c859cc00c3774467e76dd19e1b4b3b1e1a95194cc5eba060121ebb9db52f6a1fcb4a6ca6a93d2c396b0afb467ee34a9856228ef9fb71ed",
                    "indexes": {
                        "data": 0,
                        "gas": 0,
                        "value": 0
                    }
                }
            ]
        },
        "_info": {
            "hash": "0x56bd00061a9a68b9c3d571c51ca5f6588d44af55b0945b59f0507eae7eb4be0b",
            "comment": "`execution-spec-tests` generated test",
            "filling-transition-tool": "evm version 1.14.6-unstable-7e5dd44a-20240705",
            "description": "Test function documentation:\n\n    Tests the nested CALL/CALLCODE opcode gas consumption with a positive value transfer.",
            "url": "https://github.com/ethereum/execution-spec-tests/blob/devnet-1@v1.3.0/tests/frontier/opcodes/test_call_and_callcode_gas_calculation.py#L142"
        }
    },
    "tests/frontier/opcodes/test_call_and_callcode_gas_calculation.py::test_value_transfer_gas_calculation[fork_London-state_test-callee_opcode_CALL-caller_gas_limit_36619-is_sufficient_gas_False]": {
        "env": {
            "currentCoinbase": "0x2adc25665018aa1fe0e6bc666dac8fc2697ff9ba",
            "currentGasLimit": "0x016345785d8a0000",
            "currentNumber": "0x01",
            "currentTimestamp": "0x03e8",
            "currentDifficulty": "0x020000",
            "currentBaseFee": "0x07"
        },
        "pre": {
            "0xa94f5374fce5edbc8e2a8697c15331677e6ebf0b": {
                "nonce": "0x00",
                "balance": "0x0ba1a9ce",
                "code": "0x",
                "storage": {}
            },
            "0x0000000000000000000000000000000000001000": {
                "nonce": "0x01",
                "balance": "0x03",
                "code": "0x6000600060006000600173feffffffffffffffffffffffffffffffffffffff5af1",
                "storage": {}
            },
            "0x0000000000000000000000000000000000001100": {
                "nonce": "0x01",
                "balance": "0x03",
                "code": "0x60006000600060006000730000000000000000000000000000000000001000618f0bf1600055",
                "storage": {}
            }
        },
        "transaction": {
            "nonce": "0x00",
            "gasPrice": "0x07",
            "gasLimit": [
                "0x07a120"
            ],
            "to": "0x0000000000000000000000000000000000001100",
            "value": [
                "0x01"
            ],
            "data": [
                "0x"
            ],
            "sender": "0xa94f5374fce5edbc8e2a8697c15331677e6ebf0b",
            "secretKey": "0x45a915e4d060149eb4365960e6a7a45f334393093061116b197e3240065ff2d8"
        },
        "post": {
            "London": [
                {
                    "hash": "0x546ff1781e7ab4fa39d8e8c403b207621ac92608aeb839c94eec52f55e8490d8",
                    "logs": "0x1dcc4de8dec75d7aab85b567b6ccd41ad312451b948a7413f0a142fd40d49347",
                    "txbytes": "0xf86080078307a120940000000000000000000000000000000000001100018026a0ecc9874339d435625195c859cc00c3774467e76dd19e1b4b3b1e1a95194cc5eba060121ebb9db52f6a1fcb4a6ca6a93d2c396b0afb467ee34a9856228ef9fb71ed",
                    "indexes": {
                        "data": 0,
                        "gas": 0,
                        "value": 0
                    }
                }
            ]
        },
        "_info": {
            "hash": "0x58f0e84ee16c46dba1b470ac4671e59bebee9c7cffe9083ac9e004f783c31d00",
            "comment": "`execution-spec-tests` generated test",
            "filling-transition-tool": "evm version 1.14.6-unstable-7e5dd44a-20240705",
            "description": "Test function documentation:\n\n    Tests the nested CALL/CALLCODE opcode gas consumption with a positive value transfer.",
            "url": "https://github.com/ethereum/execution-spec-tests/blob/devnet-1@v1.3.0/tests/frontier/opcodes/test_call_and_callcode_gas_calculation.py#L142"
        }
    },
    "tests/frontier/opcodes/test_call_and_callcode_gas_calculation.py::test_value_transfer_gas_calculation[fork_London-state_test-callee_opcode_CALLCODE-caller_gas_limit_11620-is_sufficient_gas_True]": {
        "env": {
            "currentCoinbase": "0x2adc25665018aa1fe0e6bc666dac8fc2697ff9ba",
            "currentGasLimit": "0x016345785d8a0000",
            "currentNumber": "0x01",
            "currentTimestamp": "0x03e8",
            "currentDifficulty": "0x020000",
            "currentBaseFee": "0x07"
        },
        "pre": {
            "0xa94f5374fce5edbc8e2a8697c15331677e6ebf0b": {
                "nonce": "0x00",
                "balance": "0x0ba1a9ce",
                "code": "0x",
                "storage": {}
            },
            "0x0000000000000000000000000000000000001000": {
                "nonce": "0x01",
                "balance": "0x03",
                "code": "0x6000600060006000600173feffffffffffffffffffffffffffffffffffffff5af2",
                "storage": {}
            },
            "0x0000000000000000000000000000000000001100": {
                "nonce": "0x01",
                "balance": "0x03",
                "code": "0x60006000600060006000730000000000000000000000000000000000001000612d64f1600055",
                "storage": {}
            }
        },
        "transaction": {
            "nonce": "0x00",
            "gasPrice": "0x07",
            "gasLimit": [
                "0x07a120"
            ],
            "to": "0x0000000000000000000000000000000000001100",
            "value": [
                "0x01"
            ],
            "data": [
                "0x"
            ],
            "sender": "0xa94f5374fce5edbc8e2a8697c15331677e6ebf0b",
            "secretKey": "0x45a915e4d060149eb4365960e6a7a45f334393093061116b197e3240065ff2d8"
        },
        "post": {
            "London": [
                {
                    "hash": "0x4c6bc9dab354793d8935a7beca436e615421f1105f52d0cee7b25d2bc286da71",
                    "logs": "0x1dcc4de8dec75d7aab85b567b6ccd41ad312451b948a7413f0a142fd40d49347",
                    "txbytes": "0xf86080078307a120940000000000000000000000000000000000001100018026a0ecc9874339d435625195c859cc00c3774467e76dd19e1b4b3b1e1a95194cc5eba060121ebb9db52f6a1fcb4a6ca6a93d2c396b0afb467ee34a9856228ef9fb71ed",
                    "indexes": {
                        "data": 0,
                        "gas": 0,
                        "value": 0
                    }
                }
            ]
        },
        "_info": {
            "hash": "0x73b246929e650618246ebf167db091b6f6266995528bfa63cb512416834d2e89",
            "comment": "`execution-spec-tests` generated test",
            "filling-transition-tool": "evm version 1.14.6-unstable-7e5dd44a-20240705",
            "description": "Test function documentation:\n\n    Tests the nested CALL/CALLCODE opcode gas consumption with a positive value transfer.",
            "url": "https://github.com/ethereum/execution-spec-tests/blob/devnet-1@v1.3.0/tests/frontier/opcodes/test_call_and_callcode_gas_calculation.py#L142"
        }
    },
    "tests/frontier/opcodes/test_call_and_callcode_gas_calculation.py::test_value_transfer_gas_calculation[fork_London-state_test-callee_opcode_CALLCODE-caller_gas_limit_11619-is_sufficient_gas_False]": {
        "env": {
            "currentCoinbase": "0x2adc25665018aa1fe0e6bc666dac8fc2697ff9ba",
            "currentGasLimit": "0x016345785d8a0000",
            "currentNumber": "0x01",
            "currentTimestamp": "0x03e8",
            "currentDifficulty": "0x020000",
            "currentBaseFee": "0x07"
        },
        "pre": {
            "0xa94f5374fce5edbc8e2a8697c15331677e6ebf0b": {
                "nonce": "0x00",
                "balance": "0x0ba1a9ce",
                "code": "0x",
                "storage": {}
            },
            "0x0000000000000000000000000000000000001000": {
                "nonce": "0x01",
                "balance": "0x03",
                "code": "0x6000600060006000600173feffffffffffffffffffffffffffffffffffffff5af2",
                "storage": {}
            },
            "0x0000000000000000000000000000000000001100": {
                "nonce": "0x01",
                "balance": "0x03",
                "code": "0x60006000600060006000730000000000000000000000000000000000001000612d63f1600055",
                "storage": {}
            }
        },
        "transaction": {
            "nonce": "0x00",
            "gasPrice": "0x07",
            "gasLimit": [
                "0x07a120"
            ],
            "to": "0x0000000000000000000000000000000000001100",
            "value": [
                "0x01"
            ],
            "data": [
                "0x"
            ],
            "sender": "0xa94f5374fce5edbc8e2a8697c15331677e6ebf0b",
            "secretKey": "0x45a915e4d060149eb4365960e6a7a45f334393093061116b197e3240065ff2d8"
        },
        "post": {
            "London": [
                {
                    "hash": "0x2254d6d1443a71aee04d048b833e9f00c5401d9c46a2ccff37dae3e78f75aead",
                    "logs": "0x1dcc4de8dec75d7aab85b567b6ccd41ad312451b948a7413f0a142fd40d49347",
                    "txbytes": "0xf86080078307a120940000000000000000000000000000000000001100018026a0ecc9874339d435625195c859cc00c3774467e76dd19e1b4b3b1e1a95194cc5eba060121ebb9db52f6a1fcb4a6ca6a93d2c396b0afb467ee34a9856228ef9fb71ed",
                    "indexes": {
                        "data": 0,
                        "gas": 0,
                        "value": 0
                    }
                }
            ]
        },
        "_info": {
            "hash": "0x519c04ad7aac866c8986d20c63788798783a4e28a680ae4e9c8dacda67000a1c",
            "comment": "`execution-spec-tests` generated test",
            "filling-transition-tool": "evm version 1.14.6-unstable-7e5dd44a-20240705",
            "description": "Test function documentation:\n\n    Tests the nested CALL/CALLCODE opcode gas consumption with a positive value transfer.",
            "url": "https://github.com/ethereum/execution-spec-tests/blob/devnet-1@v1.3.0/tests/frontier/opcodes/test_call_and_callcode_gas_calculation.py#L142"
        }
    },
    "tests/frontier/opcodes/test_call_and_callcode_gas_calculation.py::test_value_transfer_gas_calculation[fork_Paris-state_test-callee_opcode_CALL-caller_gas_limit_36620-is_sufficient_gas_True]": {
        "env": {
            "currentCoinbase": "0x2adc25665018aa1fe0e6bc666dac8fc2697ff9ba",
            "currentGasLimit": "0x016345785d8a0000",
            "currentNumber": "0x01",
            "currentTimestamp": "0x03e8",
            "currentRandom": "0x0000000000000000000000000000000000000000000000000000000000000000",
            "currentDifficulty": "0x00",
            "currentBaseFee": "0x07"
        },
        "pre": {
            "0xa94f5374fce5edbc8e2a8697c15331677e6ebf0b": {
                "nonce": "0x00",
                "balance": "0x0ba1a9ce",
                "code": "0x",
                "storage": {}
            },
            "0x0000000000000000000000000000000000001000": {
                "nonce": "0x01",
                "balance": "0x03",
                "code": "0x6000600060006000600173feffffffffffffffffffffffffffffffffffffff5af1",
                "storage": {}
            },
            "0x0000000000000000000000000000000000001100": {
                "nonce": "0x01",
                "balance": "0x03",
                "code": "0x60006000600060006000730000000000000000000000000000000000001000618f0cf1600055",
                "storage": {}
            }
        },
        "transaction": {
            "nonce": "0x00",
            "gasPrice": "0x07",
            "gasLimit": [
                "0x07a120"
            ],
            "to": "0x0000000000000000000000000000000000001100",
            "value": [
                "0x01"
            ],
            "data": [
                "0x"
            ],
            "sender": "0xa94f5374fce5edbc8e2a8697c15331677e6ebf0b",
            "secretKey": "0x45a915e4d060149eb4365960e6a7a45f334393093061116b197e3240065ff2d8"
        },
        "post": {
            "Paris": [
                {
                    "hash": "0x9dee15c7e3bc70ba91c0454765011961753b9fe53dad941edd1d3d51b2f96ea2",
                    "logs": "0x1dcc4de8dec75d7aab85b567b6ccd41ad312451b948a7413f0a142fd40d49347",
                    "txbytes": "0xf86080078307a120940000000000000000000000000000000000001100018026a0ecc9874339d435625195c859cc00c3774467e76dd19e1b4b3b1e1a95194cc5eba060121ebb9db52f6a1fcb4a6ca6a93d2c396b0afb467ee34a9856228ef9fb71ed",
                    "indexes": {
                        "data": 0,
                        "gas": 0,
                        "value": 0
                    }
                }
            ]
        },
        "_info": {
            "hash": "0x57259d4936bfa14f03795281e28d9cd8be7fffa027d1ead448a2cfebf88ddbdc",
            "comment": "`execution-spec-tests` generated test",
            "filling-transition-tool": "evm version 1.14.6-unstable-7e5dd44a-20240705",
            "description": "Test function documentation:\n\n    Tests the nested CALL/CALLCODE opcode gas consumption with a positive value transfer.",
            "url": "https://github.com/ethereum/execution-spec-tests/blob/devnet-1@v1.3.0/tests/frontier/opcodes/test_call_and_callcode_gas_calculation.py#L142"
        }
    },
    "tests/frontier/opcodes/test_call_and_callcode_gas_calculation.py::test_value_transfer_gas_calculation[fork_Paris-state_test-callee_opcode_CALL-caller_gas_limit_36619-is_sufficient_gas_False]": {
        "env": {
            "currentCoinbase": "0x2adc25665018aa1fe0e6bc666dac8fc2697ff9ba",
            "currentGasLimit": "0x016345785d8a0000",
            "currentNumber": "0x01",
            "currentTimestamp": "0x03e8",
            "currentRandom": "0x0000000000000000000000000000000000000000000000000000000000000000",
            "currentDifficulty": "0x00",
            "currentBaseFee": "0x07"
        },
        "pre": {
            "0xa94f5374fce5edbc8e2a8697c15331677e6ebf0b": {
                "nonce": "0x00",
                "balance": "0x0ba1a9ce",
                "code": "0x",
                "storage": {}
            },
            "0x0000000000000000000000000000000000001000": {
                "nonce": "0x01",
                "balance": "0x03",
                "code": "0x6000600060006000600173feffffffffffffffffffffffffffffffffffffff5af1",
                "storage": {}
            },
            "0x0000000000000000000000000000000000001100": {
                "nonce": "0x01",
                "balance": "0x03",
                "code": "0x60006000600060006000730000000000000000000000000000000000001000618f0bf1600055",
                "storage": {}
            }
        },
        "transaction": {
            "nonce": "0x00",
            "gasPrice": "0x07",
            "gasLimit": [
                "0x07a120"
            ],
            "to": "0x0000000000000000000000000000000000001100",
            "value": [
                "0x01"
            ],
            "data": [
                "0x"
            ],
            "sender": "0xa94f5374fce5edbc8e2a8697c15331677e6ebf0b",
            "secretKey": "0x45a915e4d060149eb4365960e6a7a45f334393093061116b197e3240065ff2d8"
        },
        "post": {
            "Paris": [
                {
                    "hash": "0x546ff1781e7ab4fa39d8e8c403b207621ac92608aeb839c94eec52f55e8490d8",
                    "logs": "0x1dcc4de8dec75d7aab85b567b6ccd41ad312451b948a7413f0a142fd40d49347",
                    "txbytes": "0xf86080078307a120940000000000000000000000000000000000001100018026a0ecc9874339d435625195c859cc00c3774467e76dd19e1b4b3b1e1a95194cc5eba060121ebb9db52f6a1fcb4a6ca6a93d2c396b0afb467ee34a9856228ef9fb71ed",
                    "indexes": {
                        "data": 0,
                        "gas": 0,
                        "value": 0
                    }
                }
            ]
        },
        "_info": {
            "hash": "0xa7862e7aa2997e1698af0745fae0841198074c19da9a15f821be42eece689af5",
            "comment": "`execution-spec-tests` generated test",
            "filling-transition-tool": "evm version 1.14.6-unstable-7e5dd44a-20240705",
            "description": "Test function documentation:\n\n    Tests the nested CALL/CALLCODE opcode gas consumption with a positive value transfer.",
            "url": "https://github.com/ethereum/execution-spec-tests/blob/devnet-1@v1.3.0/tests/frontier/opcodes/test_call_and_callcode_gas_calculation.py#L142"
        }
    },
    "tests/frontier/opcodes/test_call_and_callcode_gas_calculation.py::test_value_transfer_gas_calculation[fork_Paris-state_test-callee_opcode_CALLCODE-caller_gas_limit_11620-is_sufficient_gas_True]": {
        "env": {
            "currentCoinbase": "0x2adc25665018aa1fe0e6bc666dac8fc2697ff9ba",
            "currentGasLimit": "0x016345785d8a0000",
            "currentNumber": "0x01",
            "currentTimestamp": "0x03e8",
            "currentRandom": "0x0000000000000000000000000000000000000000000000000000000000000000",
            "currentDifficulty": "0x00",
            "currentBaseFee": "0x07"
        },
        "pre": {
            "0xa94f5374fce5edbc8e2a8697c15331677e6ebf0b": {
                "nonce": "0x00",
                "balance": "0x0ba1a9ce",
                "code": "0x",
                "storage": {}
            },
            "0x0000000000000000000000000000000000001000": {
                "nonce": "0x01",
                "balance": "0x03",
                "code": "0x6000600060006000600173feffffffffffffffffffffffffffffffffffffff5af2",
                "storage": {}
            },
            "0x0000000000000000000000000000000000001100": {
                "nonce": "0x01",
                "balance": "0x03",
                "code": "0x60006000600060006000730000000000000000000000000000000000001000612d64f1600055",
                "storage": {}
            }
        },
        "transaction": {
            "nonce": "0x00",
            "gasPrice": "0x07",
            "gasLimit": [
                "0x07a120"
            ],
            "to": "0x0000000000000000000000000000000000001100",
            "value": [
                "0x01"
            ],
            "data": [
                "0x"
            ],
            "sender": "0xa94f5374fce5edbc8e2a8697c15331677e6ebf0b",
            "secretKey": "0x45a915e4d060149eb4365960e6a7a45f334393093061116b197e3240065ff2d8"
        },
        "post": {
            "Paris": [
                {
                    "hash": "0x4c6bc9dab354793d8935a7beca436e615421f1105f52d0cee7b25d2bc286da71",
                    "logs": "0x1dcc4de8dec75d7aab85b567b6ccd41ad312451b948a7413f0a142fd40d49347",
                    "txbytes": "0xf86080078307a120940000000000000000000000000000000000001100018026a0ecc9874339d435625195c859cc00c3774467e76dd19e1b4b3b1e1a95194cc5eba060121ebb9db52f6a1fcb4a6ca6a93d2c396b0afb467ee34a9856228ef9fb71ed",
                    "indexes": {
                        "data": 0,
                        "gas": 0,
                        "value": 0
                    }
                }
            ]
        },
        "_info": {
            "hash": "0x16ebe147faeda373e15faeff6cd8bcccff93518983373edc14953e76404b645e",
            "comment": "`execution-spec-tests` generated test",
            "filling-transition-tool": "evm version 1.14.6-unstable-7e5dd44a-20240705",
            "description": "Test function documentation:\n\n    Tests the nested CALL/CALLCODE opcode gas consumption with a positive value transfer.",
            "url": "https://github.com/ethereum/execution-spec-tests/blob/devnet-1@v1.3.0/tests/frontier/opcodes/test_call_and_callcode_gas_calculation.py#L142"
        }
    },
    "tests/frontier/opcodes/test_call_and_callcode_gas_calculation.py::test_value_transfer_gas_calculation[fork_Paris-state_test-callee_opcode_CALLCODE-caller_gas_limit_11619-is_sufficient_gas_False]": {
        "env": {
            "currentCoinbase": "0x2adc25665018aa1fe0e6bc666dac8fc2697ff9ba",
            "currentGasLimit": "0x016345785d8a0000",
            "currentNumber": "0x01",
            "currentTimestamp": "0x03e8",
            "currentRandom": "0x0000000000000000000000000000000000000000000000000000000000000000",
            "currentDifficulty": "0x00",
            "currentBaseFee": "0x07"
        },
        "pre": {
            "0xa94f5374fce5edbc8e2a8697c15331677e6ebf0b": {
                "nonce": "0x00",
                "balance": "0x0ba1a9ce",
                "code": "0x",
                "storage": {}
            },
            "0x0000000000000000000000000000000000001000": {
                "nonce": "0x01",
                "balance": "0x03",
                "code": "0x6000600060006000600173feffffffffffffffffffffffffffffffffffffff5af2",
                "storage": {}
            },
            "0x0000000000000000000000000000000000001100": {
                "nonce": "0x01",
                "balance": "0x03",
                "code": "0x60006000600060006000730000000000000000000000000000000000001000612d63f1600055",
                "storage": {}
            }
        },
        "transaction": {
            "nonce": "0x00",
            "gasPrice": "0x07",
            "gasLimit": [
                "0x07a120"
            ],
            "to": "0x0000000000000000000000000000000000001100",
            "value": [
                "0x01"
            ],
            "data": [
                "0x"
            ],
            "sender": "0xa94f5374fce5edbc8e2a8697c15331677e6ebf0b",
            "secretKey": "0x45a915e4d060149eb4365960e6a7a45f334393093061116b197e3240065ff2d8"
        },
        "post": {
            "Paris": [
                {
                    "hash": "0x2254d6d1443a71aee04d048b833e9f00c5401d9c46a2ccff37dae3e78f75aead",
                    "logs": "0x1dcc4de8dec75d7aab85b567b6ccd41ad312451b948a7413f0a142fd40d49347",
                    "txbytes": "0xf86080078307a120940000000000000000000000000000000000001100018026a0ecc9874339d435625195c859cc00c3774467e76dd19e1b4b3b1e1a95194cc5eba060121ebb9db52f6a1fcb4a6ca6a93d2c396b0afb467ee34a9856228ef9fb71ed",
                    "indexes": {
                        "data": 0,
                        "gas": 0,
                        "value": 0
                    }
                }
            ]
        },
        "_info": {
            "hash": "0x2e7ca90b858f376402200a61d78a35f3e8eb5b1f994c2b127a005b08434746ef",
            "comment": "`execution-spec-tests` generated test",
            "filling-transition-tool": "evm version 1.14.6-unstable-7e5dd44a-20240705",
            "description": "Test function documentation:\n\n    Tests the nested CALL/CALLCODE opcode gas consumption with a positive value transfer.",
            "url": "https://github.com/ethereum/execution-spec-tests/blob/devnet-1@v1.3.0/tests/frontier/opcodes/test_call_and_callcode_gas_calculation.py#L142"
        }
    },
    "tests/frontier/opcodes/test_call_and_callcode_gas_calculation.py::test_value_transfer_gas_calculation[fork_Shanghai-state_test-callee_opcode_CALL-caller_gas_limit_36620-is_sufficient_gas_True]": {
        "env": {
            "currentCoinbase": "0x2adc25665018aa1fe0e6bc666dac8fc2697ff9ba",
            "currentGasLimit": "0x016345785d8a0000",
            "currentNumber": "0x01",
            "currentTimestamp": "0x03e8",
            "currentRandom": "0x0000000000000000000000000000000000000000000000000000000000000000",
            "currentDifficulty": "0x00",
            "currentBaseFee": "0x07"
        },
        "pre": {
            "0xa94f5374fce5edbc8e2a8697c15331677e6ebf0b": {
                "nonce": "0x00",
                "balance": "0x0ba1a9ce",
                "code": "0x",
                "storage": {}
            },
            "0x0000000000000000000000000000000000001000": {
                "nonce": "0x01",
                "balance": "0x03",
                "code": "0x6000600060006000600173feffffffffffffffffffffffffffffffffffffff5af1",
                "storage": {}
            },
            "0x0000000000000000000000000000000000001100": {
                "nonce": "0x01",
                "balance": "0x03",
                "code": "0x60006000600060006000730000000000000000000000000000000000001000618f0cf1600055",
                "storage": {}
            }
        },
        "transaction": {
            "nonce": "0x00",
            "gasPrice": "0x07",
            "gasLimit": [
                "0x07a120"
            ],
            "to": "0x0000000000000000000000000000000000001100",
            "value": [
                "0x01"
            ],
            "data": [
                "0x"
            ],
            "sender": "0xa94f5374fce5edbc8e2a8697c15331677e6ebf0b",
            "secretKey": "0x45a915e4d060149eb4365960e6a7a45f334393093061116b197e3240065ff2d8"
        },
        "post": {
            "Shanghai": [
                {
                    "hash": "0x9dee15c7e3bc70ba91c0454765011961753b9fe53dad941edd1d3d51b2f96ea2",
                    "logs": "0x1dcc4de8dec75d7aab85b567b6ccd41ad312451b948a7413f0a142fd40d49347",
                    "txbytes": "0xf86080078307a120940000000000000000000000000000000000001100018026a0ecc9874339d435625195c859cc00c3774467e76dd19e1b4b3b1e1a95194cc5eba060121ebb9db52f6a1fcb4a6ca6a93d2c396b0afb467ee34a9856228ef9fb71ed",
                    "indexes": {
                        "data": 0,
                        "gas": 0,
                        "value": 0
                    }
                }
            ]
        },
        "_info": {
            "hash": "0xe58f48d7a89c69148005d3449860d44932855f36c6ad1aa8a8065c6797750027",
            "comment": "`execution-spec-tests` generated test",
            "filling-transition-tool": "evm version 1.14.6-unstable-7e5dd44a-20240705",
            "description": "Test function documentation:\n\n    Tests the nested CALL/CALLCODE opcode gas consumption with a positive value transfer.",
            "url": "https://github.com/ethereum/execution-spec-tests/blob/devnet-1@v1.3.0/tests/frontier/opcodes/test_call_and_callcode_gas_calculation.py#L142"
        }
    },
    "tests/frontier/opcodes/test_call_and_callcode_gas_calculation.py::test_value_transfer_gas_calculation[fork_Shanghai-state_test-callee_opcode_CALL-caller_gas_limit_36619-is_sufficient_gas_False]": {
        "env": {
            "currentCoinbase": "0x2adc25665018aa1fe0e6bc666dac8fc2697ff9ba",
            "currentGasLimit": "0x016345785d8a0000",
            "currentNumber": "0x01",
            "currentTimestamp": "0x03e8",
            "currentRandom": "0x0000000000000000000000000000000000000000000000000000000000000000",
            "currentDifficulty": "0x00",
            "currentBaseFee": "0x07"
        },
        "pre": {
            "0xa94f5374fce5edbc8e2a8697c15331677e6ebf0b": {
                "nonce": "0x00",
                "balance": "0x0ba1a9ce",
                "code": "0x",
                "storage": {}
            },
            "0x0000000000000000000000000000000000001000": {
                "nonce": "0x01",
                "balance": "0x03",
                "code": "0x6000600060006000600173feffffffffffffffffffffffffffffffffffffff5af1",
                "storage": {}
            },
            "0x0000000000000000000000000000000000001100": {
                "nonce": "0x01",
                "balance": "0x03",
                "code": "0x60006000600060006000730000000000000000000000000000000000001000618f0bf1600055",
                "storage": {}
            }
        },
        "transaction": {
            "nonce": "0x00",
            "gasPrice": "0x07",
            "gasLimit": [
                "0x07a120"
            ],
            "to": "0x0000000000000000000000000000000000001100",
            "value": [
                "0x01"
            ],
            "data": [
                "0x"
            ],
            "sender": "0xa94f5374fce5edbc8e2a8697c15331677e6ebf0b",
            "secretKey": "0x45a915e4d060149eb4365960e6a7a45f334393093061116b197e3240065ff2d8"
        },
        "post": {
            "Shanghai": [
                {
                    "hash": "0x546ff1781e7ab4fa39d8e8c403b207621ac92608aeb839c94eec52f55e8490d8",
                    "logs": "0x1dcc4de8dec75d7aab85b567b6ccd41ad312451b948a7413f0a142fd40d49347",
                    "txbytes": "0xf86080078307a120940000000000000000000000000000000000001100018026a0ecc9874339d435625195c859cc00c3774467e76dd19e1b4b3b1e1a95194cc5eba060121ebb9db52f6a1fcb4a6ca6a93d2c396b0afb467ee34a9856228ef9fb71ed",
                    "indexes": {
                        "data": 0,
                        "gas": 0,
                        "value": 0
                    }
                }
            ]
        },
        "_info": {
            "hash": "0xc88182d7e844706f3337044d5fd0efae0ce49daa83dee5d8088da7eb18338960",
            "comment": "`execution-spec-tests` generated test",
            "filling-transition-tool": "evm version 1.14.6-unstable-7e5dd44a-20240705",
            "description": "Test function documentation:\n\n    Tests the nested CALL/CALLCODE opcode gas consumption with a positive value transfer.",
            "url": "https://github.com/ethereum/execution-spec-tests/blob/devnet-1@v1.3.0/tests/frontier/opcodes/test_call_and_callcode_gas_calculation.py#L142"
        }
    },
    "tests/frontier/opcodes/test_call_and_callcode_gas_calculation.py::test_value_transfer_gas_calculation[fork_Shanghai-state_test-callee_opcode_CALLCODE-caller_gas_limit_11620-is_sufficient_gas_True]": {
        "env": {
            "currentCoinbase": "0x2adc25665018aa1fe0e6bc666dac8fc2697ff9ba",
            "currentGasLimit": "0x016345785d8a0000",
            "currentNumber": "0x01",
            "currentTimestamp": "0x03e8",
            "currentRandom": "0x0000000000000000000000000000000000000000000000000000000000000000",
            "currentDifficulty": "0x00",
            "currentBaseFee": "0x07"
        },
        "pre": {
            "0xa94f5374fce5edbc8e2a8697c15331677e6ebf0b": {
                "nonce": "0x00",
                "balance": "0x0ba1a9ce",
                "code": "0x",
                "storage": {}
            },
            "0x0000000000000000000000000000000000001000": {
                "nonce": "0x01",
                "balance": "0x03",
                "code": "0x6000600060006000600173feffffffffffffffffffffffffffffffffffffff5af2",
                "storage": {}
            },
            "0x0000000000000000000000000000000000001100": {
                "nonce": "0x01",
                "balance": "0x03",
                "code": "0x60006000600060006000730000000000000000000000000000000000001000612d64f1600055",
                "storage": {}
            }
        },
        "transaction": {
            "nonce": "0x00",
            "gasPrice": "0x07",
            "gasLimit": [
                "0x07a120"
            ],
            "to": "0x0000000000000000000000000000000000001100",
            "value": [
                "0x01"
            ],
            "data": [
                "0x"
            ],
            "sender": "0xa94f5374fce5edbc8e2a8697c15331677e6ebf0b",
            "secretKey": "0x45a915e4d060149eb4365960e6a7a45f334393093061116b197e3240065ff2d8"
        },
        "post": {
            "Shanghai": [
                {
                    "hash": "0x4c6bc9dab354793d8935a7beca436e615421f1105f52d0cee7b25d2bc286da71",
                    "logs": "0x1dcc4de8dec75d7aab85b567b6ccd41ad312451b948a7413f0a142fd40d49347",
                    "txbytes": "0xf86080078307a120940000000000000000000000000000000000001100018026a0ecc9874339d435625195c859cc00c3774467e76dd19e1b4b3b1e1a95194cc5eba060121ebb9db52f6a1fcb4a6ca6a93d2c396b0afb467ee34a9856228ef9fb71ed",
                    "indexes": {
                        "data": 0,
                        "gas": 0,
                        "value": 0
                    }
                }
            ]
        },
        "_info": {
            "hash": "0x6423a3b512d461d7061884391a832816caf9e28d91439b2e38ab63a9989b09eb",
            "comment": "`execution-spec-tests` generated test",
            "filling-transition-tool": "evm version 1.14.6-unstable-7e5dd44a-20240705",
            "description": "Test function documentation:\n\n    Tests the nested CALL/CALLCODE opcode gas consumption with a positive value transfer.",
            "url": "https://github.com/ethereum/execution-spec-tests/blob/devnet-1@v1.3.0/tests/frontier/opcodes/test_call_and_callcode_gas_calculation.py#L142"
        }
    },
    "tests/frontier/opcodes/test_call_and_callcode_gas_calculation.py::test_value_transfer_gas_calculation[fork_Shanghai-state_test-callee_opcode_CALLCODE-caller_gas_limit_11619-is_sufficient_gas_False]": {
        "env": {
            "currentCoinbase": "0x2adc25665018aa1fe0e6bc666dac8fc2697ff9ba",
            "currentGasLimit": "0x016345785d8a0000",
            "currentNumber": "0x01",
            "currentTimestamp": "0x03e8",
            "currentRandom": "0x0000000000000000000000000000000000000000000000000000000000000000",
            "currentDifficulty": "0x00",
            "currentBaseFee": "0x07"
        },
        "pre": {
            "0xa94f5374fce5edbc8e2a8697c15331677e6ebf0b": {
                "nonce": "0x00",
                "balance": "0x0ba1a9ce",
                "code": "0x",
                "storage": {}
            },
            "0x0000000000000000000000000000000000001000": {
                "nonce": "0x01",
                "balance": "0x03",
                "code": "0x6000600060006000600173feffffffffffffffffffffffffffffffffffffff5af2",
                "storage": {}
            },
            "0x0000000000000000000000000000000000001100": {
                "nonce": "0x01",
                "balance": "0x03",
                "code": "0x60006000600060006000730000000000000000000000000000000000001000612d63f1600055",
                "storage": {}
            }
        },
        "transaction": {
            "nonce": "0x00",
            "gasPrice": "0x07",
            "gasLimit": [
                "0x07a120"
            ],
            "to": "0x0000000000000000000000000000000000001100",
            "value": [
                "0x01"
            ],
            "data": [
                "0x"
            ],
            "sender": "0xa94f5374fce5edbc8e2a8697c15331677e6ebf0b",
            "secretKey": "0x45a915e4d060149eb4365960e6a7a45f334393093061116b197e3240065ff2d8"
        },
        "post": {
            "Shanghai": [
                {
                    "hash": "0x2254d6d1443a71aee04d048b833e9f00c5401d9c46a2ccff37dae3e78f75aead",
                    "logs": "0x1dcc4de8dec75d7aab85b567b6ccd41ad312451b948a7413f0a142fd40d49347",
                    "txbytes": "0xf86080078307a120940000000000000000000000000000000000001100018026a0ecc9874339d435625195c859cc00c3774467e76dd19e1b4b3b1e1a95194cc5eba060121ebb9db52f6a1fcb4a6ca6a93d2c396b0afb467ee34a9856228ef9fb71ed",
                    "indexes": {
                        "data": 0,
                        "gas": 0,
                        "value": 0
                    }
                }
            ]
        },
        "_info": {
            "hash": "0x535c36d6e5292eefca12dd99cdc6092ee4590a660dcaf4810a36d6c665b1d3bb",
            "comment": "`execution-spec-tests` generated test",
            "filling-transition-tool": "evm version 1.14.6-unstable-7e5dd44a-20240705",
            "description": "Test function documentation:\n\n    Tests the nested CALL/CALLCODE opcode gas consumption with a positive value transfer.",
            "url": "https://github.com/ethereum/execution-spec-tests/blob/devnet-1@v1.3.0/tests/frontier/opcodes/test_call_and_callcode_gas_calculation.py#L142"
        }
    }
}