{
    "tests/homestead/coverage/test_coverage.py::test_coverage[fork_Berlin-state_test]": {
        "env": {
            "currentCoinbase": "0x2adc25665018aa1fe0e6bc666dac8fc2697ff9ba",
            "currentGasLimit": "0x016345785d8a0000",
            "currentNumber": "0x01",
            "currentTimestamp": "0x03e8",
            "currentDifficulty": "0x020000"
        },
        "pre": {
            "0x0000000000000000000000000000000000001000": {
                "nonce": "0x01",
                "balance": "0x00",
                "code": "0x600060011b600060011c600a600b600c600d600e9080815f61010262010203630102030460015060046010600039",
                "storage": {}
            },
            "0x0000000000000000000000000000000000001100": {
                "nonce": "0x01",
                "balance": "0x0de0b6b3a7640000",
                "code": "0x600060006000600060006110005af160005260206000f3",
                "storage": {}
            },
            "0xa94f5374fce5edbc8e2a8697c15331677e6ebf0b": {
                "nonce": "0x00",
                "balance": "0x6124fee993bc0000",
                "code": "0x",
                "storage": {}
            }
        },
        "transaction": {
            "nonce": "0x00",
            "gasPrice": "0x0a",
            "gasLimit": [
                "0x0186a0"
            ],
            "to": "0x0000000000000000000000000000000000001100",
            "value": [
                "0x00"
            ],
            "data": [
                "0x"
            ],
            "sender": "0xa94f5374fce5edbc8e2a8697c15331677e6ebf0b",
            "secretKey": "0x45a915e4d060149eb4365960e6a7a45f334393093061116b197e3240065ff2d8"
        },
        "post": {
            "Berlin": [
                {
                    "hash": "0x04e5505151340d9d5ee2adcfc71921551c443af21642675f8520ea6c6bb5d267",
                    "logs": "0x1dcc4de8dec75d7aab85b567b6ccd41ad312451b948a7413f0a142fd40d49347",
                    "txbytes": "0xf860800a830186a094000000000000000000000000000000000000110080801ca00671a3e9dab47d17669ebe31855e9d6481d6c945fa946dd61fc374eb5420a220a03d6c864c60d6f9c901dcb2ec86286cbaeaa1e86c82c6fa7147cd4417db86bf9f",
                    "indexes": {
                        "data": 0,
                        "gas": 0,
                        "value": 0
                    },
                    "state": {
                        "0x0000000000000000000000000000000000001000": {
                            "nonce": "0x01",
                            "balance": "0x00",
                            "code": "0x600060011b600060011c600a600b600c600d600e9080815f61010262010203630102030460015060046010600039",
                            "storage": {}
                        },
                        "0x0000000000000000000000000000000000001100": {
                            "nonce": "0x01",
                            "balance": "0x0de0b6b3a7640000",
                            "code": "0x600060006000600060006110005af160005260206000f3",
                            "storage": {}
                        },
                        "0xa94f5374fce5edbc8e2a8697c15331677e6ebf0b": {
                            "nonce": "0x01",
                            "balance": "0x6124fee993acebc4",
                            "code": "0x",
                            "storage": {}
                        },
                        "0x2adc25665018aa1fe0e6bc666dac8fc2697ff9ba": {
                            "nonce": "0x00",
                            "balance": "0x0f143c",
                            "code": "0x",
                            "storage": {}
                        }
                    }
                }
            ]
        },
        "config": {},
        "_info": {
            "hash": "0x97fdee8eee8ffdfe7a79c2a77d52c624371ebfce0ed9fbd65c46f013e5b03b85",
            "comment": "`execution-spec-tests` generated test",
            "filling-transition-tool": "ethereum-spec-evm-resolver 0.0.5",
            "description": "Test function documentation:\n\n    Cover gaps that result from transforming Yul code into\n    `ethereum_test_tools.vm.opcode.Opcodes` bytecode.\n\n    E.g. Yul tends to optimize stack items by using `SWAP1` and `DUP1` opcodes, which are not\n    regularly used in python code.\n\n    Modify this test to cover more Yul code if required in the future.",
            "url": "https://github.com/ethereum/execution-spec-tests/blob/pectra-devnet-6@v1.0.0/tests/homestead/coverage/test_coverage.py#L13",
            "fixture_format": "state_test",
            "eels-resolution": {
                "git-url": "https://github.com/ethereum/execution-specs.git",
                "branch": "master",
                "commit": "9b95554a88d2a8485f8180254d0f6a493a593fda"
            }
        }
    },
    "tests/homestead/coverage/test_coverage.py::test_coverage[fork_Byzantium-state_test]": {
        "env": {
            "currentCoinbase": "0x2adc25665018aa1fe0e6bc666dac8fc2697ff9ba",
            "currentGasLimit": "0x016345785d8a0000",
            "currentNumber": "0x01",
            "currentTimestamp": "0x03e8",
            "currentDifficulty": "0x020000"
        },
        "pre": {
            "0x0000000000000000000000000000000000001000": {
                "nonce": "0x01",
                "balance": "0x00",
                "code": "0x600060011b600060011c600a600b600c600d600e9080815f61010262010203630102030460015060046010600039",
                "storage": {}
            },
            "0x0000000000000000000000000000000000001100": {
                "nonce": "0x01",
                "balance": "0x0de0b6b3a7640000",
                "code": "0x600060006000600060006110005af160005260206000f3",
                "storage": {}
            },
            "0xa94f5374fce5edbc8e2a8697c15331677e6ebf0b": {
                "nonce": "0x00",
                "balance": "0x6124fee993bc0000",
                "code": "0x",
                "storage": {}
            }
        },
        "transaction": {
            "nonce": "0x00",
            "gasPrice": "0x0a",
            "gasLimit": [
                "0x0186a0"
            ],
            "to": "0x0000000000000000000000000000000000001100",
            "value": [
                "0x00"
            ],
            "data": [
                "0x"
            ],
            "sender": "0xa94f5374fce5edbc8e2a8697c15331677e6ebf0b",
            "secretKey": "0x45a915e4d060149eb4365960e6a7a45f334393093061116b197e3240065ff2d8"
        },
        "post": {
            "Byzantium": [
                {
                    "hash": "0x3afe4b55f184c3febe3d5c256dd69e7ba055ce2cc62cc82a21027bd9cae7d72d",
                    "logs": "0x1dcc4de8dec75d7aab85b567b6ccd41ad312451b948a7413f0a142fd40d49347",
                    "txbytes": "0xf860800a830186a094000000000000000000000000000000000000110080801ca00671a3e9dab47d17669ebe31855e9d6481d6c945fa946dd61fc374eb5420a220a03d6c864c60d6f9c901dcb2ec86286cbaeaa1e86c82c6fa7147cd4417db86bf9f",
                    "indexes": {
                        "data": 0,
                        "gas": 0,
                        "value": 0
                    },
                    "state": {
                        "0x0000000000000000000000000000000000001000": {
                            "nonce": "0x01",
                            "balance": "0x00",
                            "code": "0x600060011b600060011c600a600b600c600d600e9080815f61010262010203630102030460015060046010600039",
                            "storage": {}
                        },
                        "0x0000000000000000000000000000000000001100": {
                            "nonce": "0x01",
                            "balance": "0x0de0b6b3a7640000",
                            "code": "0x600060006000600060006110005af160005260206000f3",
                            "storage": {}
                        },
                        "0xa94f5374fce5edbc8e2a8697c15331677e6ebf0b": {
                            "nonce": "0x01",
                            "balance": "0x6124fee993acecf0",
                            "code": "0x",
                            "storage": {}
                        },
                        "0x2adc25665018aa1fe0e6bc666dac8fc2697ff9ba": {
                            "nonce": "0x00",
                            "balance": "0x0f1310",
                            "code": "0x",
                            "storage": {}
                        }
                    }
                }
            ]
        },
        "config": {},
        "_info": {
            "hash": "0x74858972cdb783de7b30113f201c6cd78f68ec8ab80a34c5f96c684a0e7a1e23",
            "comment": "`execution-spec-tests` generated test",
            "filling-transition-tool": "ethereum-spec-evm-resolver 0.0.5",
            "description": "Test function documentation:\n\n    Cover gaps that result from transforming Yul code into\n    `ethereum_test_tools.vm.opcode.Opcodes` bytecode.\n\n    E.g. Yul tends to optimize stack items by using `SWAP1` and `DUP1` opcodes, which are not\n    regularly used in python code.\n\n    Modify this test to cover more Yul code if required in the future.",
            "url": "https://github.com/ethereum/execution-spec-tests/blob/pectra-devnet-6@v1.0.0/tests/homestead/coverage/test_coverage.py#L13",
            "fixture_format": "state_test",
            "eels-resolution": {
                "git-url": "https://github.com/ethereum/execution-specs.git",
                "branch": "master",
                "commit": "9b95554a88d2a8485f8180254d0f6a493a593fda"
            }
        }
    },
    "tests/homestead/coverage/test_coverage.py::test_coverage[fork_Cancun-state_test]": {
        "env": {
            "currentCoinbase": "0x2adc25665018aa1fe0e6bc666dac8fc2697ff9ba",
            "currentGasLimit": "0x016345785d8a0000",
            "currentNumber": "0x01",
            "currentTimestamp": "0x03e8",
            "currentRandom": "0x0000000000000000000000000000000000000000000000000000000000000000",
            "currentDifficulty": "0x00",
            "currentBaseFee": "0x07",
            "currentExcessBlobGas": "0x00"
        },
        "pre": {
            "0x0000000000000000000000000000000000001000": {
                "nonce": "0x01",
                "balance": "0x00",
                "code": "0x600060011b600060011c600a600b600c600d600e9080815f61010262010203630102030460015060046010600039",
                "storage": {}
            },
            "0x0000000000000000000000000000000000001100": {
                "nonce": "0x01",
                "balance": "0x0de0b6b3a7640000",
                "code": "0x600060006000600060006110005af160005260206000f3",
                "storage": {}
            },
            "0xa94f5374fce5edbc8e2a8697c15331677e6ebf0b": {
                "nonce": "0x00",
                "balance": "0x6124fee993bc0000",
                "code": "0x",
                "storage": {}
            }
        },
        "transaction": {
            "nonce": "0x00",
            "maxPriorityFeePerGas": "0x05",
            "maxFeePerGas": "0x0a",
            "gasLimit": [
                "0x0186a0"
            ],
            "to": "0x0000000000000000000000000000000000001100",
            "value": [
                "0x00"
            ],
            "data": [
                "0x"
            ],
            "accessLists": [
                []
            ],
            "sender": "0xa94f5374fce5edbc8e2a8697c15331677e6ebf0b",
            "secretKey": "0x45a915e4d060149eb4365960e6a7a45f334393093061116b197e3240065ff2d8"
        },
        "post": {
            "Cancun": [
                {
                    "hash": "0x8e183b0fe366af1c21333f7be7a1cb5a40e5ddd02780fb388793bcef40f1dac9",
                    "logs": "0x1dcc4de8dec75d7aab85b567b6ccd41ad312451b948a7413f0a142fd40d49347",
                    "txbytes": "0x02f8630180050a830186a09400000000000000000000000000000000000011008080c080a08f7a97fc84c20df70553febefc9f95ca6e508163e7a2896b7c08f62bd5343cc2a05879b2fb80033d28fa5e112066bacc62d200a299a21e1b93ea1abc759f307b53",
                    "indexes": {
                        "data": 0,
                        "gas": 0,
                        "value": 0
                    },
                    "state": {
                        "0x0000000000000000000000000000000000001000": {
                            "nonce": "0x01",
                            "balance": "0x00",
                            "code": "0x600060011b600060011c600a600b600c600d600e9080815f61010262010203630102030460015060046010600039",
                            "storage": {}
                        },
                        "0x0000000000000000000000000000000000001100": {
                            "nonce": "0x01",
                            "balance": "0x0de0b6b3a7640000",
                            "code": "0x600060006000600060006110005af160005260206000f3",
                            "storage": {}
                        },
                        "0xa94f5374fce5edbc8e2a8697c15331677e6ebf0b": {
                            "nonce": "0x01",
                            "balance": "0x6124fee993b861ca",
                            "code": "0x",
                            "storage": {}
                        },
                        "0x2adc25665018aa1fe0e6bc666dac8fc2697ff9ba": {
                            "nonce": "0x00",
                            "balance": "0x0115dd",
                            "code": "0x",
                            "storage": {}
                        }
                    }
                }
            ]
        },
        "config": {
            "blobSchedule": {
                "Cancun": {
                    "target": "0x03",
                    "max": "0x06",
                    "baseFeeUpdateFraction": "0x32f0ed"
                }
            }
        },
        "_info": {
            "hash": "0x84a6a8df9cc1b5609ecb49463f914a9fdd494ec33d212b4327f1817db4a675b7",
            "comment": "`execution-spec-tests` generated test",
            "filling-transition-tool": "ethereum-spec-evm-resolver 0.0.5",
            "description": "Test function documentation:\n\n    Cover gaps that result from transforming Yul code into\n    `ethereum_test_tools.vm.opcode.Opcodes` bytecode.\n\n    E.g. Yul tends to optimize stack items by using `SWAP1` and `DUP1` opcodes, which are not\n    regularly used in python code.\n\n    Modify this test to cover more Yul code if required in the future.",
            "url": "https://github.com/ethereum/execution-spec-tests/blob/pectra-devnet-6@v1.0.0/tests/homestead/coverage/test_coverage.py#L13",
            "fixture_format": "state_test",
            "eels-resolution": {
                "git-url": "https://github.com/ethereum/execution-specs.git",
                "branch": "master",
                "commit": "9b95554a88d2a8485f8180254d0f6a493a593fda"
            }
        }
    },
    "tests/homestead/coverage/test_coverage.py::test_coverage[fork_ConstantinopleFix-state_test]": {
        "env": {
            "currentCoinbase": "0x2adc25665018aa1fe0e6bc666dac8fc2697ff9ba",
            "currentGasLimit": "0x016345785d8a0000",
            "currentNumber": "0x01",
            "currentTimestamp": "0x03e8",
            "currentDifficulty": "0x020000"
        },
        "pre": {
            "0x0000000000000000000000000000000000001000": {
                "nonce": "0x01",
                "balance": "0x00",
                "code": "0x600060011b600060011c600a600b600c600d600e9080815f61010262010203630102030460015060046010600039",
                "storage": {}
            },
            "0x0000000000000000000000000000000000001100": {
                "nonce": "0x01",
                "balance": "0x0de0b6b3a7640000",
                "code": "0x600060006000600060006110005af160005260206000f3",
                "storage": {}
            },
            "0xa94f5374fce5edbc8e2a8697c15331677e6ebf0b": {
                "nonce": "0x00",
                "balance": "0x6124fee993bc0000",
                "code": "0x",
                "storage": {}
            }
        },
        "transaction": {
            "nonce": "0x00",
            "gasPrice": "0x0a",
            "gasLimit": [
                "0x0186a0"
            ],
            "to": "0x0000000000000000000000000000000000001100",
            "value": [
                "0x00"
            ],
            "data": [
                "0x"
            ],
            "sender": "0xa94f5374fce5edbc8e2a8697c15331677e6ebf0b",
            "secretKey": "0x45a915e4d060149eb4365960e6a7a45f334393093061116b197e3240065ff2d8"
        },
        "post": {
            "ConstantinopleFix": [
                {
                    "hash": "0x3afe4b55f184c3febe3d5c256dd69e7ba055ce2cc62cc82a21027bd9cae7d72d",
                    "logs": "0x1dcc4de8dec75d7aab85b567b6ccd41ad312451b948a7413f0a142fd40d49347",
                    "txbytes": "0xf860800a830186a094000000000000000000000000000000000000110080801ca00671a3e9dab47d17669ebe31855e9d6481d6c945fa946dd61fc374eb5420a220a03d6c864c60d6f9c901dcb2ec86286cbaeaa1e86c82c6fa7147cd4417db86bf9f",
                    "indexes": {
                        "data": 0,
                        "gas": 0,
                        "value": 0
                    },
                    "state": {
                        "0x0000000000000000000000000000000000001000": {
                            "nonce": "0x01",
                            "balance": "0x00",
                            "code": "0x600060011b600060011c600a600b600c600d600e9080815f61010262010203630102030460015060046010600039",
                            "storage": {}
                        },
                        "0x0000000000000000000000000000000000001100": {
                            "nonce": "0x01",
                            "balance": "0x0de0b6b3a7640000",
                            "code": "0x600060006000600060006110005af160005260206000f3",
                            "storage": {}
                        },
                        "0xa94f5374fce5edbc8e2a8697c15331677e6ebf0b": {
                            "nonce": "0x01",
                            "balance": "0x6124fee993acecf0",
                            "code": "0x",
                            "storage": {}
                        },
                        "0x2adc25665018aa1fe0e6bc666dac8fc2697ff9ba": {
                            "nonce": "0x00",
                            "balance": "0x0f1310",
                            "code": "0x",
                            "storage": {}
                        }
                    }
                }
            ]
        },
        "config": {},
        "_info": {
            "hash": "0x86407b67c9e98c966e386ff0d56a0e8c0788c7d8c2802b82f740aedad2cdd0fd",
            "comment": "`execution-spec-tests` generated test",
            "filling-transition-tool": "ethereum-spec-evm-resolver 0.0.5",
            "description": "Test function documentation:\n\n    Cover gaps that result from transforming Yul code into\n    `ethereum_test_tools.vm.opcode.Opcodes` bytecode.\n\n    E.g. Yul tends to optimize stack items by using `SWAP1` and `DUP1` opcodes, which are not\n    regularly used in python code.\n\n    Modify this test to cover more Yul code if required in the future.",
            "url": "https://github.com/ethereum/execution-spec-tests/blob/pectra-devnet-6@v1.0.0/tests/homestead/coverage/test_coverage.py#L13",
            "fixture_format": "state_test",
            "eels-resolution": {
                "git-url": "https://github.com/ethereum/execution-specs.git",
                "branch": "master",
                "commit": "9b95554a88d2a8485f8180254d0f6a493a593fda"
            }
        }
    },
    "tests/homestead/coverage/test_coverage.py::test_coverage[fork_Homestead-state_test]": {
        "env": {
            "currentCoinbase": "0x2adc25665018aa1fe0e6bc666dac8fc2697ff9ba",
            "currentGasLimit": "0x016345785d8a0000",
            "currentNumber": "0x01",
            "currentTimestamp": "0x03e8",
            "currentDifficulty": "0x020000"
        },
        "pre": {
            "0x0000000000000000000000000000000000001000": {
                "nonce": "0x01",
                "balance": "0x00",
                "code": "0x600060011b600060011c600a600b600c600d600e9080815f61010262010203630102030460015060046010600039",
                "storage": {}
            },
            "0x0000000000000000000000000000000000001100": {
                "nonce": "0x01",
                "balance": "0x0de0b6b3a7640000",
                "code": "0x600060006000600060006110005af160005260206000f3",
                "storage": {}
            },
            "0xa94f5374fce5edbc8e2a8697c15331677e6ebf0b": {
                "nonce": "0x00",
                "balance": "0x6124fee993bc0000",
                "code": "0x",
                "storage": {}
            }
        },
        "transaction": {
            "nonce": "0x00",
            "gasPrice": "0x0a",
            "gasLimit": [
                "0x0186a0"
            ],
            "to": "0x0000000000000000000000000000000000001100",
            "value": [
                "0x00"
            ],
            "data": [
                "0x"
            ],
            "sender": "0xa94f5374fce5edbc8e2a8697c15331677e6ebf0b",
            "secretKey": "0x45a915e4d060149eb4365960e6a7a45f334393093061116b197e3240065ff2d8"
        },
        "post": {
            "Homestead": [
                {
                    "hash": "0xa4d29830c2a776c86b40196ecbbeeca2c17fad6355524d339263a0a59701785e",
                    "logs": "0x1dcc4de8dec75d7aab85b567b6ccd41ad312451b948a7413f0a142fd40d49347",
                    "txbytes": "0xf860800a830186a094000000000000000000000000000000000000110080801ca00671a3e9dab47d17669ebe31855e9d6481d6c945fa946dd61fc374eb5420a220a03d6c864c60d6f9c901dcb2ec86286cbaeaa1e86c82c6fa7147cd4417db86bf9f",
                    "indexes": {
                        "data": 0,
                        "gas": 0,
                        "value": 0
                    },
                    "state": {
                        "0x0000000000000000000000000000000000001000": {
                            "nonce": "0x01",
                            "balance": "0x00",
                            "code": "0x600060011b600060011c600a600b600c600d600e9080815f61010262010203630102030460015060046010600039",
                            "storage": {}
                        },
                        "0x0000000000000000000000000000000000001100": {
                            "nonce": "0x01",
                            "balance": "0x0de0b6b3a7640000",
                            "code": "0x600060006000600060006110005af160005260206000f3",
                            "storage": {}
                        },
                        "0xa94f5374fce5edbc8e2a8697c15331677e6ebf0b": {
                            "nonce": "0x01",
                            "balance": "0x6124fee993acbdc0",
                            "code": "0x",
                            "storage": {}
                        },
                        "0x2adc25665018aa1fe0e6bc666dac8fc2697ff9ba": {
                            "nonce": "0x00",
                            "balance": "0x0f4240",
                            "code": "0x",
                            "storage": {}
                        }
                    }
                }
            ]
        },
        "config": {},
        "_info": {
            "hash": "0x7e3cb2da8345e535ede4970af3757887573b3d0e035abd2aef7e4ef49375de8f",
            "comment": "`execution-spec-tests` generated test",
            "filling-transition-tool": "ethereum-spec-evm-resolver 0.0.5",
            "description": "Test function documentation:\n\n    Cover gaps that result from transforming Yul code into\n    `ethereum_test_tools.vm.opcode.Opcodes` bytecode.\n\n    E.g. Yul tends to optimize stack items by using `SWAP1` and `DUP1` opcodes, which are not\n    regularly used in python code.\n\n    Modify this test to cover more Yul code if required in the future.",
            "url": "https://github.com/ethereum/execution-spec-tests/blob/pectra-devnet-6@v1.0.0/tests/homestead/coverage/test_coverage.py#L13",
            "fixture_format": "state_test",
            "eels-resolution": {
                "git-url": "https://github.com/ethereum/execution-specs.git",
                "branch": "master",
                "commit": "9b95554a88d2a8485f8180254d0f6a493a593fda"
            }
        }
    },
    "tests/homestead/coverage/test_coverage.py::test_coverage[fork_Istanbul-state_test]": {
        "env": {
            "currentCoinbase": "0x2adc25665018aa1fe0e6bc666dac8fc2697ff9ba",
            "currentGasLimit": "0x016345785d8a0000",
            "currentNumber": "0x01",
            "currentTimestamp": "0x03e8",
            "currentDifficulty": "0x020000"
        },
        "pre": {
            "0x0000000000000000000000000000000000001000": {
                "nonce": "0x01",
                "balance": "0x00",
                "code": "0x600060011b600060011c600a600b600c600d600e9080815f61010262010203630102030460015060046010600039",
                "storage": {}
            },
            "0x0000000000000000000000000000000000001100": {
                "nonce": "0x01",
                "balance": "0x0de0b6b3a7640000",
                "code": "0x600060006000600060006110005af160005260206000f3",
                "storage": {}
            },
            "0xa94f5374fce5edbc8e2a8697c15331677e6ebf0b": {
                "nonce": "0x00",
                "balance": "0x6124fee993bc0000",
                "code": "0x",
                "storage": {}
            }
        },
        "transaction": {
            "nonce": "0x00",
            "gasPrice": "0x0a",
            "gasLimit": [
                "0x0186a0"
            ],
            "to": "0x0000000000000000000000000000000000001100",
            "value": [
                "0x00"
            ],
            "data": [
                "0x"
            ],
            "sender": "0xa94f5374fce5edbc8e2a8697c15331677e6ebf0b",
            "secretKey": "0x45a915e4d060149eb4365960e6a7a45f334393093061116b197e3240065ff2d8"
        },
        "post": {
            "Istanbul": [
                {
                    "hash": "0x3afe4b55f184c3febe3d5c256dd69e7ba055ce2cc62cc82a21027bd9cae7d72d",
                    "logs": "0x1dcc4de8dec75d7aab85b567b6ccd41ad312451b948a7413f0a142fd40d49347",
                    "txbytes": "0xf860800a830186a094000000000000000000000000000000000000110080801ca00671a3e9dab47d17669ebe31855e9d6481d6c945fa946dd61fc374eb5420a220a03d6c864c60d6f9c901dcb2ec86286cbaeaa1e86c82c6fa7147cd4417db86bf9f",
                    "indexes": {
                        "data": 0,
                        "gas": 0,
                        "value": 0
                    },
                    "state": {
                        "0x0000000000000000000000000000000000001000": {
                            "nonce": "0x01",
                            "balance": "0x00",
                            "code": "0x600060011b600060011c600a600b600c600d600e9080815f61010262010203630102030460015060046010600039",
                            "storage": {}
                        },
                        "0x0000000000000000000000000000000000001100": {
                            "nonce": "0x01",
                            "balance": "0x0de0b6b3a7640000",
                            "code": "0x600060006000600060006110005af160005260206000f3",
                            "storage": {}
                        },
                        "0xa94f5374fce5edbc8e2a8697c15331677e6ebf0b": {
                            "nonce": "0x01",
                            "balance": "0x6124fee993acecf0",
                            "code": "0x",
                            "storage": {}
                        },
                        "0x2adc25665018aa1fe0e6bc666dac8fc2697ff9ba": {
                            "nonce": "0x00",
                            "balance": "0x0f1310",
                            "code": "0x",
                            "storage": {}
                        }
                    }
                }
            ]
        },
        "config": {},
        "_info": {
            "hash": "0xe6045f9981224d049a5d4bd8005df99a588050377bc898ee3b06a8febecaa6ed",
            "comment": "`execution-spec-tests` generated test",
            "filling-transition-tool": "ethereum-spec-evm-resolver 0.0.5",
            "description": "Test function documentation:\n\n    Cover gaps that result from transforming Yul code into\n    `ethereum_test_tools.vm.opcode.Opcodes` bytecode.\n\n    E.g. Yul tends to optimize stack items by using `SWAP1` and `DUP1` opcodes, which are not\n    regularly used in python code.\n\n    Modify this test to cover more Yul code if required in the future.",
            "url": "https://github.com/ethereum/execution-spec-tests/blob/pectra-devnet-6@v1.0.0/tests/homestead/coverage/test_coverage.py#L13",
            "fixture_format": "state_test",
            "eels-resolution": {
                "git-url": "https://github.com/ethereum/execution-specs.git",
                "branch": "master",
                "commit": "9b95554a88d2a8485f8180254d0f6a493a593fda"
            }
        }
    },
    "tests/homestead/coverage/test_coverage.py::test_coverage[fork_London-state_test]": {
        "env": {
            "currentCoinbase": "0x2adc25665018aa1fe0e6bc666dac8fc2697ff9ba",
            "currentGasLimit": "0x016345785d8a0000",
            "currentNumber": "0x01",
            "currentTimestamp": "0x03e8",
            "currentDifficulty": "0x020000",
            "currentBaseFee": "0x07"
        },
        "pre": {
            "0x0000000000000000000000000000000000001000": {
                "nonce": "0x01",
                "balance": "0x00",
                "code": "0x600060011b600060011c600a600b600c600d600e9080815f61010262010203630102030460015060046010600039",
                "storage": {}
            },
            "0x0000000000000000000000000000000000001100": {
                "nonce": "0x01",
                "balance": "0x0de0b6b3a7640000",
                "code": "0x600060006000600060006110005af160005260206000f3",
                "storage": {}
            },
            "0xa94f5374fce5edbc8e2a8697c15331677e6ebf0b": {
                "nonce": "0x00",
                "balance": "0x6124fee993bc0000",
                "code": "0x",
                "storage": {}
            }
        },
        "transaction": {
            "nonce": "0x00",
            "gasPrice": "0x0a",
            "gasLimit": [
                "0x0186a0"
            ],
            "to": "0x0000000000000000000000000000000000001100",
            "value": [
                "0x00"
            ],
            "data": [
                "0x"
            ],
            "sender": "0xa94f5374fce5edbc8e2a8697c15331677e6ebf0b",
            "secretKey": "0x45a915e4d060149eb4365960e6a7a45f334393093061116b197e3240065ff2d8"
        },
        "post": {
            "London": [
                {
                    "hash": "0x8071c8868cfd69b471abe18ef635ae1b5394127f5645d1b12c6e8b0de59b9705",
                    "logs": "0x1dcc4de8dec75d7aab85b567b6ccd41ad312451b948a7413f0a142fd40d49347",
                    "txbytes": "0xf860800a830186a094000000000000000000000000000000000000110080801ca00671a3e9dab47d17669ebe31855e9d6481d6c945fa946dd61fc374eb5420a220a03d6c864c60d6f9c901dcb2ec86286cbaeaa1e86c82c6fa7147cd4417db86bf9f",
                    "indexes": {
                        "data": 0,
                        "gas": 0,
                        "value": 0
                    },
                    "state": {
                        "0x0000000000000000000000000000000000001000": {
                            "nonce": "0x01",
                            "balance": "0x00",
                            "code": "0x600060011b600060011c600a600b600c600d600e9080815f61010262010203630102030460015060046010600039",
                            "storage": {}
                        },
                        "0x0000000000000000000000000000000000001100": {
                            "nonce": "0x01",
                            "balance": "0x0de0b6b3a7640000",
                            "code": "0x600060006000600060006110005af160005260206000f3",
                            "storage": {}
                        },
                        "0xa94f5374fce5edbc8e2a8697c15331677e6ebf0b": {
                            "nonce": "0x01",
                            "balance": "0x6124fee993acebc4",
                            "code": "0x",
                            "storage": {}
                        },
                        "0x2adc25665018aa1fe0e6bc666dac8fc2697ff9ba": {
                            "nonce": "0x00",
                            "balance": "0x048612",
                            "code": "0x",
                            "storage": {}
                        }
                    }
                }
            ]
        },
        "config": {},
        "_info": {
            "hash": "0x4a30e4d7ffd528b40d9ff14892fa7fc46ac9d98f08a2bdea2e999cf1d048567b",
            "comment": "`execution-spec-tests` generated test",
            "filling-transition-tool": "ethereum-spec-evm-resolver 0.0.5",
            "description": "Test function documentation:\n\n    Cover gaps that result from transforming Yul code into\n    `ethereum_test_tools.vm.opcode.Opcodes` bytecode.\n\n    E.g. Yul tends to optimize stack items by using `SWAP1` and `DUP1` opcodes, which are not\n    regularly used in python code.\n\n    Modify this test to cover more Yul code if required in the future.",
            "url": "https://github.com/ethereum/execution-spec-tests/blob/pectra-devnet-6@v1.0.0/tests/homestead/coverage/test_coverage.py#L13",
            "fixture_format": "state_test",
            "eels-resolution": {
                "git-url": "https://github.com/ethereum/execution-specs.git",
                "branch": "master",
                "commit": "9b95554a88d2a8485f8180254d0f6a493a593fda"
            }
        }
    },
    "tests/homestead/coverage/test_coverage.py::test_coverage[fork_Paris-state_test]": {
        "env": {
            "currentCoinbase": "0x2adc25665018aa1fe0e6bc666dac8fc2697ff9ba",
            "currentGasLimit": "0x016345785d8a0000",
            "currentNumber": "0x01",
            "currentTimestamp": "0x03e8",
            "currentRandom": "0x0000000000000000000000000000000000000000000000000000000000000000",
            "currentDifficulty": "0x00",
            "currentBaseFee": "0x07"
        },
        "pre": {
            "0x0000000000000000000000000000000000001000": {
                "nonce": "0x01",
                "balance": "0x00",
                "code": "0x600060011b600060011c600a600b600c600d600e9080815f61010262010203630102030460015060046010600039",
                "storage": {}
            },
            "0x0000000000000000000000000000000000001100": {
                "nonce": "0x01",
                "balance": "0x0de0b6b3a7640000",
                "code": "0x600060006000600060006110005af160005260206000f3",
                "storage": {}
            },
            "0xa94f5374fce5edbc8e2a8697c15331677e6ebf0b": {
                "nonce": "0x00",
                "balance": "0x6124fee993bc0000",
                "code": "0x",
                "storage": {}
            }
        },
        "transaction": {
            "nonce": "0x00",
            "gasPrice": "0x0a",
            "gasLimit": [
                "0x0186a0"
            ],
            "to": "0x0000000000000000000000000000000000001100",
            "value": [
                "0x00"
            ],
            "data": [
                "0x"
            ],
            "sender": "0xa94f5374fce5edbc8e2a8697c15331677e6ebf0b",
            "secretKey": "0x45a915e4d060149eb4365960e6a7a45f334393093061116b197e3240065ff2d8"
        },
        "post": {
            "Paris": [
                {
                    "hash": "0x8071c8868cfd69b471abe18ef635ae1b5394127f5645d1b12c6e8b0de59b9705",
                    "logs": "0x1dcc4de8dec75d7aab85b567b6ccd41ad312451b948a7413f0a142fd40d49347",
                    "txbytes": "0xf860800a830186a094000000000000000000000000000000000000110080801ca00671a3e9dab47d17669ebe31855e9d6481d6c945fa946dd61fc374eb5420a220a03d6c864c60d6f9c901dcb2ec86286cbaeaa1e86c82c6fa7147cd4417db86bf9f",
                    "indexes": {
                        "data": 0,
                        "gas": 0,
                        "value": 0
                    },
                    "state": {
                        "0x0000000000000000000000000000000000001000": {
                            "nonce": "0x01",
                            "balance": "0x00",
                            "code": "0x600060011b600060011c600a600b600c600d600e9080815f61010262010203630102030460015060046010600039",
                            "storage": {}
                        },
                        "0x0000000000000000000000000000000000001100": {
                            "nonce": "0x01",
                            "balance": "0x0de0b6b3a7640000",
                            "code": "0x600060006000600060006110005af160005260206000f3",
                            "storage": {}
                        },
                        "0xa94f5374fce5edbc8e2a8697c15331677e6ebf0b": {
                            "nonce": "0x01",
                            "balance": "0x6124fee993acebc4",
                            "code": "0x",
                            "storage": {}
                        },
                        "0x2adc25665018aa1fe0e6bc666dac8fc2697ff9ba": {
                            "nonce": "0x00",
                            "balance": "0x048612",
                            "code": "0x",
                            "storage": {}
                        }
                    }
                }
            ]
        },
        "config": {},
        "_info": {
            "hash": "0xf650aa4fec4a1a21bff0fd138cb8921093e0fcfebcc4964623805defbbf8832a",
            "comment": "`execution-spec-tests` generated test",
            "filling-transition-tool": "ethereum-spec-evm-resolver 0.0.5",
            "description": "Test function documentation:\n\n    Cover gaps that result from transforming Yul code into\n    `ethereum_test_tools.vm.opcode.Opcodes` bytecode.\n\n    E.g. Yul tends to optimize stack items by using `SWAP1` and `DUP1` opcodes, which are not\n    regularly used in python code.\n\n    Modify this test to cover more Yul code if required in the future.",
            "url": "https://github.com/ethereum/execution-spec-tests/blob/pectra-devnet-6@v1.0.0/tests/homestead/coverage/test_coverage.py#L13",
            "fixture_format": "state_test",
            "eels-resolution": {
                "git-url": "https://github.com/ethereum/execution-specs.git",
                "branch": "master",
                "commit": "9b95554a88d2a8485f8180254d0f6a493a593fda"
            }
        }
    },
    "tests/homestead/coverage/test_coverage.py::test_coverage[fork_Prague-state_test]": {
        "env": {
            "currentCoinbase": "0x2adc25665018aa1fe0e6bc666dac8fc2697ff9ba",
            "currentGasLimit": "0x016345785d8a0000",
            "currentNumber": "0x01",
            "currentTimestamp": "0x03e8",
            "currentRandom": "0x0000000000000000000000000000000000000000000000000000000000000000",
            "currentDifficulty": "0x00",
            "currentBaseFee": "0x07",
            "currentExcessBlobGas": "0x00"
        },
        "pre": {
            "0x0000000000000000000000000000000000001000": {
                "nonce": "0x01",
                "balance": "0x00",
                "code": "0x600060011b600060011c600a600b600c600d600e9080815f61010262010203630102030460015060046010600039",
                "storage": {}
            },
            "0x0000000000000000000000000000000000001100": {
                "nonce": "0x01",
                "balance": "0x0de0b6b3a7640000",
                "code": "0x600060006000600060006110005af160005260206000f3",
                "storage": {}
            },
            "0xa94f5374fce5edbc8e2a8697c15331677e6ebf0b": {
                "nonce": "0x00",
                "balance": "0x6124fee993bc0000",
                "code": "0x",
                "storage": {}
            }
        },
        "transaction": {
            "nonce": "0x00",
            "maxPriorityFeePerGas": "0x05",
            "maxFeePerGas": "0x0a",
            "gasLimit": [
                "0x0186a0"
            ],
            "to": "0x0000000000000000000000000000000000001100",
            "value": [
                "0x00"
            ],
            "data": [
                "0x"
            ],
            "accessLists": [
                []
            ],
            "sender": "0xa94f5374fce5edbc8e2a8697c15331677e6ebf0b",
            "secretKey": "0x45a915e4d060149eb4365960e6a7a45f334393093061116b197e3240065ff2d8"
        },
        "post": {
            "Prague": [
                {
                    "hash": "0x8e183b0fe366af1c21333f7be7a1cb5a40e5ddd02780fb388793bcef40f1dac9",
                    "logs": "0x1dcc4de8dec75d7aab85b567b6ccd41ad312451b948a7413f0a142fd40d49347",
                    "txbytes": "0x02f8630180050a830186a09400000000000000000000000000000000000011008080c080a08f7a97fc84c20df70553febefc9f95ca6e508163e7a2896b7c08f62bd5343cc2a05879b2fb80033d28fa5e112066bacc62d200a299a21e1b93ea1abc759f307b53",
                    "indexes": {
                        "data": 0,
                        "gas": 0,
                        "value": 0
                    },
                    "state": {
                        "0x0000000000000000000000000000000000001000": {
                            "nonce": "0x01",
                            "balance": "0x00",
                            "code": "0x600060011b600060011c600a600b600c600d600e9080815f61010262010203630102030460015060046010600039",
                            "storage": {}
                        },
                        "0x0000000000000000000000000000000000001100": {
                            "nonce": "0x01",
                            "balance": "0x0de0b6b3a7640000",
                            "code": "0x600060006000600060006110005af160005260206000f3",
                            "storage": {}
                        },
                        "0xa94f5374fce5edbc8e2a8697c15331677e6ebf0b": {
                            "nonce": "0x01",
                            "balance": "0x6124fee993b861ca",
                            "code": "0x",
                            "storage": {}
                        },
                        "0x2adc25665018aa1fe0e6bc666dac8fc2697ff9ba": {
                            "nonce": "0x00",
                            "balance": "0x0115dd",
                            "code": "0x",
                            "storage": {}
                        }
                    }
                }
            ]
        },
        "config": {
            "blobSchedule": {
                "Cancun": {
                    "target": "0x03",
                    "max": "0x06",
                    "baseFeeUpdateFraction": "0x32f0ed"
                },
                "Prague": {
                    "target": "0x06",
                    "max": "0x09",
                    "baseFeeUpdateFraction": "0x4c6964"
                }
            }
        },
        "_info": {
            "hash": "0x4a1f9154fe691b2078bf49ba7662986d920a28057a13f3231d282dd30eb9d039",
            "comment": "`execution-spec-tests` generated test",
            "filling-transition-tool": "ethereum-spec-evm-resolver 0.0.5",
            "description": "Test function documentation:\n\n    Cover gaps that result from transforming Yul code into\n    `ethereum_test_tools.vm.opcode.Opcodes` bytecode.\n\n    E.g. Yul tends to optimize stack items by using `SWAP1` and `DUP1` opcodes, which are not\n    regularly used in python code.\n\n    Modify this test to cover more Yul code if required in the future.",
            "url": "https://github.com/ethereum/execution-spec-tests/blob/pectra-devnet-6@v1.0.0/tests/homestead/coverage/test_coverage.py#L13",
            "fixture_format": "state_test",
            "eels-resolution": {
                "git-url": "https://github.com/ethereum/execution-specs.git",
                "branch": "devnets/prague/6",
                "commit": "fa33d824decac0a6ac55adc943e7f139b0719f0e"
            }
        }
    },
    "tests/homestead/coverage/test_coverage.py::test_coverage[fork_Shanghai-state_test]": {
        "env": {
            "currentCoinbase": "0x2adc25665018aa1fe0e6bc666dac8fc2697ff9ba",
            "currentGasLimit": "0x016345785d8a0000",
            "currentNumber": "0x01",
            "currentTimestamp": "0x03e8",
            "currentRandom": "0x0000000000000000000000000000000000000000000000000000000000000000",
            "currentDifficulty": "0x00",
            "currentBaseFee": "0x07"
        },
        "pre": {
            "0x0000000000000000000000000000000000001000": {
                "nonce": "0x01",
                "balance": "0x00",
                "code": "0x600060011b600060011c600a600b600c600d600e9080815f61010262010203630102030460015060046010600039",
                "storage": {}
            },
            "0x0000000000000000000000000000000000001100": {
                "nonce": "0x01",
                "balance": "0x0de0b6b3a7640000",
                "code": "0x600060006000600060006110005af160005260206000f3",
                "storage": {}
            },
            "0xa94f5374fce5edbc8e2a8697c15331677e6ebf0b": {
                "nonce": "0x00",
                "balance": "0x6124fee993bc0000",
                "code": "0x",
                "storage": {}
            }
        },
        "transaction": {
            "nonce": "0x00",
            "gasPrice": "0x0a",
            "gasLimit": [
                "0x0186a0"
            ],
            "to": "0x0000000000000000000000000000000000001100",
            "value": [
                "0x00"
            ],
            "data": [
                "0x"
            ],
            "sender": "0xa94f5374fce5edbc8e2a8697c15331677e6ebf0b",
            "secretKey": "0x45a915e4d060149eb4365960e6a7a45f334393093061116b197e3240065ff2d8"
        },
        "post": {
            "Shanghai": [
                {
                    "hash": "0x8e183b0fe366af1c21333f7be7a1cb5a40e5ddd02780fb388793bcef40f1dac9",
                    "logs": "0x1dcc4de8dec75d7aab85b567b6ccd41ad312451b948a7413f0a142fd40d49347",
                    "txbytes": "0xf860800a830186a094000000000000000000000000000000000000110080801ca00671a3e9dab47d17669ebe31855e9d6481d6c945fa946dd61fc374eb5420a220a03d6c864c60d6f9c901dcb2ec86286cbaeaa1e86c82c6fa7147cd4417db86bf9f",
                    "indexes": {
                        "data": 0,
                        "gas": 0,
                        "value": 0
                    },
                    "state": {
                        "0x0000000000000000000000000000000000001000": {
                            "nonce": "0x01",
                            "balance": "0x00",
                            "code": "0x600060011b600060011c600a600b600c600d600e9080815f61010262010203630102030460015060046010600039",
                            "storage": {}
                        },
                        "0x0000000000000000000000000000000000001100": {
                            "nonce": "0x01",
                            "balance": "0x0de0b6b3a7640000",
                            "code": "0x600060006000600060006110005af160005260206000f3",
                            "storage": {}
                        },
                        "0xa94f5374fce5edbc8e2a8697c15331677e6ebf0b": {
                            "nonce": "0x01",
                            "balance": "0x6124fee993b861ca",
                            "code": "0x",
                            "storage": {}
                        },
                        "0x2adc25665018aa1fe0e6bc666dac8fc2697ff9ba": {
                            "nonce": "0x00",
                            "balance": "0x0115dd",
                            "code": "0x",
                            "storage": {}
                        }
                    }
                }
            ]
        },
        "config": {},
        "_info": {
            "hash": "0xdd8500da2d5c4ed17c37c7ceac617f87ac71e7dbad8b93fa5ae7dc209cc2b1bc",
            "comment": "`execution-spec-tests` generated test",
            "filling-transition-tool": "ethereum-spec-evm-resolver 0.0.5",
            "description": "Test function documentation:\n\n    Cover gaps that result from transforming Yul code into\n    `ethereum_test_tools.vm.opcode.Opcodes` bytecode.\n\n    E.g. Yul tends to optimize stack items by using `SWAP1` and `DUP1` opcodes, which are not\n    regularly used in python code.\n\n    Modify this test to cover more Yul code if required in the future.",
            "url": "https://github.com/ethereum/execution-spec-tests/blob/pectra-devnet-6@v1.0.0/tests/homestead/coverage/test_coverage.py#L13",
            "fixture_format": "state_test",
            "eels-resolution": {
                "git-url": "https://github.com/ethereum/execution-specs.git",
                "branch": "master",
                "commit": "9b95554a88d2a8485f8180254d0f6a493a593fda"
            }
        }
    }
}