{
    "tests/osaka/eip7692_eof_v1/eip3540_eof_v1/test_extcode.py::test_legacy_calls_eof_sstore[fork_Osaka-state_test]": {
        "env": {
            "currentCoinbase": "0x2adc25665018aa1fe0e6bc666dac8fc2697ff9ba",
            "currentGasLimit": "0x016345785d8a0000",
            "currentNumber": "0x01",
            "currentTimestamp": "0x03e8",
            "currentRandom": "0x0000000000000000000000000000000000000000000000000000000000000000",
            "currentDifficulty": "0x00",
            "currentBaseFee": "0x07",
            "currentExcessBlobGas": "0x00"
        },
        "pre": {
            "0x0000000000000000000000000000000000001000": {
                "nonce": "0x01",
                "balance": "0x00",
                "code": "0xef000101000402000100040400000000800000e0000000",
                "storage": {}
            },
            "0x0000000000000000000000000000000000001100": {
                "nonce": "0x01",
                "balance": "0x00",
                "code": "0x60025b00",
                "storage": {}
            },
            "0x0000000000000000000000000000000000001200": {
                "nonce": "0x01",
                "balance": "0x00",
                "code": "0x6111003b6000556111003b600060006111003c6000516001556111003f6002556110003b6003556006600060206110003c6020516004557fcccccccccccccccccccccccccccccccccccccccccccccccccccccccccccccccc6040526008601360406110003c6040516005556110003f600655",
                "storage": {}
            },
            "0xa94f5374fce5edbc8e2a8697c15331677e6ebf0b": {
                "nonce": "0x00",
                "balance": "0x3635c9adc5dea00000",
                "code": "0x",
                "storage": {}
            }
        },
        "transaction": {
            "nonce": "0x00",
            "gasPrice": "0x0a",
            "gasLimit": [
                "0x02faf080"
            ],
            "to": "0x0000000000000000000000000000000000001200",
            "value": [
                "0x00"
            ],
            "data": [
                "0x"
            ],
            "sender": "0xa94f5374fce5edbc8e2a8697c15331677e6ebf0b",
            "secretKey": "0x45a915e4d060149eb4365960e6a7a45f334393093061116b197e3240065ff2d8"
        },
        "post": {
            "Osaka": [
                {
                    "hash": "0xfdef2f9623a6aa8b263343f9d540719594cd2815307d373cdd92087d28ff43d8",
                    "logs": "0x1dcc4de8dec75d7aab85b567b6ccd41ad312451b948a7413f0a142fd40d49347",
                    "txbytes": "0xf861800a8402faf08094000000000000000000000000000000000000120080801ca0a1e643d63381920366e4a3c8585ea62b0b5129c5068e82c1ab925755a312300ca0478ccccc7869805668c19a8e84adef75e29a9f02556255d04768e325bdeef4b0",
                    "indexes": {
                        "data": 0,
                        "gas": 0,
                        "value": 0
                    },
                    "state": {
                        "0x0000000000000000000000000000000000001000": {
                            "nonce": "0x01",
                            "balance": "0x00",
                            "code": "0xef000101000402000100040400000000800000e0000000",
                            "storage": {}
                        },
                        "0x0000000000000000000000000000000000001100": {
                            "nonce": "0x01",
                            "balance": "0x00",
                            "code": "0x60025b00",
                            "storage": {}
                        },
                        "0x0000000000000000000000000000000000001200": {
                            "nonce": "0x01",
                            "balance": "0x00",
                            "code": "0x6111003b6000556111003b600060006111003c6000516001556111003f6002556110003b6003556006600060206110003c6020516004557fcccccccccccccccccccccccccccccccccccccccccccccccccccccccccccccccc6040526008601360406110003c6040516005556110003f600655",
                            "storage": {
                                "0x00": "0x04",
                                "0x01": "0x60025b0000000000000000000000000000000000000000000000000000000000",
                                "0x02": "0x854774aba1a837412a610c9fb4e2aa1340700b9d0073a74476b5ea0d7856da7c",
                                "0x03": "0x02",
                                "0x04": "0xef00000000000000000000000000000000000000000000000000000000000000",
                                "0x05": "0xcccccccccccccccccccccccccccccccccccccccccccccccc",
                                "0x06": "0x9dbf3648db8210552e9c4f75c6a1c3057c0ca432043bd648be15fe7be05646f5"
                            }
                        },
                        "0x2adc25665018aa1fe0e6bc666dac8fc2697ff9ba": {
                            "nonce": "0x00",
                            "balance": "0x08504a",
                            "code": "0x",
                            "storage": {}
                        },
                        "0xa94f5374fce5edbc8e2a8697c15331677e6ebf0b": {
                            "nonce": "0x01",
                            "balance": "0x3635c9adc5de8449b4",
                            "code": "0x",
                            "storage": {}
                        }
                    }
                }
            ]
        },
        "config": {
            "blobSchedule": {
                "Cancun": {
                    "target": "0x03",
                    "max": "0x06",
                    "baseFeeUpdateFraction": "0x32f0ed"
                },
                "Prague": {
                    "target": "0x06",
                    "max": "0x09",
                    "baseFeeUpdateFraction": "0x4c6964"
                }
            },
            "chainid": "0x01"
        },
        "_info": {
            "hash": "0xea6453eb9ded5f18bd0880d32aded72fda6dc588557a465bda607d3c0cc48b59",
            "comment": "`execution-spec-tests` generated test",
            "filling-transition-tool": "evmone-t8n 0.14.1+commit.3186982f",
            "description": "Test function documentation:\nTest EXTCODE* opcodes calling EOF and legacy contracts.",
            "url": "https://github.com/ethereum/execution-spec-tests/tree/v4.1.0/tests/osaka/eip7692_eof_v1/eip3540_eof_v1/test_extcode.py#L25",
            "fixture-format": "state_test",
            "reference-spec": "https://github.com/ethereum/EIPs/blob/master/EIPS/eip-4750.md",
            "reference-spec-version": "90f716078d0b08ce508a1e57803f885cc2f2e15e"
        }
    }
}