{
    "tests/prague/eip2537_bls_12_381_precompiles/test_bls12_g2add.py::test_valid[fork_Prague-state_test-bls_g2add_g2+p2-]": {
        "env": {
            "currentCoinbase": "0x2adc25665018aa1fe0e6bc666dac8fc2697ff9ba",
            "currentGasLimit": "0x016345785d8a0000",
            "currentNumber": "0x01",
            "currentTimestamp": "0x03e8",
            "currentRandom": "0x0000000000000000000000000000000000000000000000000000000000000000",
            "currentDifficulty": "0x00",
            "currentBaseFee": "0x07",
            "currentExcessBlobGas": "0x00"
        },
        "pre": {
            "0xaaaaaaaaaaaaaaaaaaaaaaaaaaaaaaaaaaaaaaaa": {
                "nonce": "0x01",
                "balance": "0x00",
                "code": "0x366000600037600060003660006000600e610320f16000553d6001553d600060003e3d600020600255",
                "storage": {}
            },
            "0xa94f5374fce5edbc8e2a8697c15331677e6ebf0b": {
                "nonce": "0x00",
                "balance": "0x038d7ea4c68000",
                "code": "0x",
                "storage": {}
            }
        },
        "transaction": {
            "nonce": "0x00",
            "gasPrice": "0x0a",
            "gasLimit": [
                "0x9899a0"
            ],
            "to": "0xaaaaaaaaaaaaaaaaaaaaaaaaaaaaaaaaaaaaaaaa",
            "value": [
                "0x00"
            ],
            "data": [
                "0x00000000000000000000000000000000024aa2b2f08f0a91260805272dc51051c6e47ad4fa403b02b4510b647ae3d1770bac0326a805bbefd48056c8c121bdb80000000000000000000000000000000013e02b6052719f607dacd3a088274f65596bd0d09920b61ab5da61bbdc7f5049334cf11213945d57e5ac7d055d042b7e000000000000000000000000000000000ce5d527727d6e118cc9cdc6da2e351aadfd9baa8cbdd3a76d429a695160d12c923ac9cc3baca289e193548608b82801000000000000000000000000000000000606c4a02ea734cc32acd2b02bc28b99cb3e287e85a763af267492ab572e99ab3f370d275cec1da1aaa9075ff05f79be00000000000000000000000000000000103121a2ceaae586d240843a398967325f8eb5a93e8fea99b62b9f88d8556c80dd726a4b30e84a36eeabaf3592937f2700000000000000000000000000000000086b990f3da2aeac0a36143b7d7c824428215140db1bb859338764cb58458f081d92664f9053b50b3fbd2e4723121b68000000000000000000000000000000000f9e7ba9a86a8f7624aa2b42dcc8772e1af4ae115685e60abc2c9b90242167acef3d0be4050bf935eed7c3b6fc7ba77e000000000000000000000000000000000d22c3652d0dc6f0fc9316e14268477c2049ef772e852108d269d9c38dba1d4802e8dae479818184c08f9a569d878451"
            ],
            "sender": "0xa94f5374fce5edbc8e2a8697c15331677e6ebf0b",
            "secretKey": "0x45a915e4d060149eb4365960e6a7a45f334393093061116b197e3240065ff2d8"
        },
        "post": {
            "Prague": [
                {
                    "hash": "0x03b76e84bc3fc90187e21b6e93bbf1d67527ecb75301bb2d3f114bfb0ba26134",
                    "logs": "0x1dcc4de8dec75d7aab85b567b6ccd41ad312451b948a7413f0a142fd40d49347",
                    "txbytes": "0xf90262800a839899a094aaaaaaaaaaaaaaaaaaaaaaaaaaaaaaaaaaaaaaaa80b9020000000000000000000000000000000000024aa2b2f08f0a91260805272dc51051c6e47ad4fa403b02b4510b647ae3d1770bac0326a805bbefd48056c8c121bdb80000000000000000000000000000000013e02b6052719f607dacd3a088274f65596bd0d09920b61ab5da61bbdc7f5049334cf11213945d57e5ac7d055d042b7e000000000000000000000000000000000ce5d527727d6e118cc9cdc6da2e351aadfd9baa8cbdd3a76d429a695160d12c923ac9cc3baca289e193548608b82801000000000000000000000000000000000606c4a02ea734cc32acd2b02bc28b99cb3e287e85a763af267492ab572e99ab3f370d275cec1da1aaa9075ff05f79be00000000000000000000000000000000103121a2ceaae586d240843a398967325f8eb5a93e8fea99b62b9f88d8556c80dd726a4b30e84a36eeabaf3592937f2700000000000000000000000000000000086b990f3da2aeac0a36143b7d7c824428215140db1bb859338764cb58458f081d92664f9053b50b3fbd2e4723121b68000000000000000000000000000000000f9e7ba9a86a8f7624aa2b42dcc8772e1af4ae115685e60abc2c9b90242167acef3d0be4050bf935eed7c3b6fc7ba77e000000000000000000000000000000000d22c3652d0dc6f0fc9316e14268477c2049ef772e852108d269d9c38dba1d4802e8dae479818184c08f9a569d87845125a0b721dd2e4751a49f73013aa8f2b2c4a55cf0ed59c90a6f60a3e07991e1b42ef3a03d3283a92701d13262dbb9f13ccde61dafc61ce6bc9c0e9d59b32ec4825e0bbe",
                    "indexes": {
                        "data": 0,
                        "gas": 0,
                        "value": 0
                    }
                }
            ]
        },
        "_info": {
            "hash": "0x1ae861f554b6fe35a344e96666faeb7853138cccaf1657e8c5ddd9e7474c36bd",
            "comment": "`execution-spec-tests` generated test",
            "filling-transition-tool": "evm version 1.14.4-unstable-abee40f2-20240516",
            "reference-spec": "https://github.com/ethereum/EIPs/blob/master/EIPS/eip-2537.md",
            "reference-spec-version": "cd0f016ad0c4c68b8b1f5c502ef61ab9353b6e5e"
        }
    },
    "tests/prague/eip2537_bls_12_381_precompiles/test_bls12_g2add.py::test_valid[fork_Prague-state_test-bls_g2add_p2+g2-]": {
        "env": {
            "currentCoinbase": "0x2adc25665018aa1fe0e6bc666dac8fc2697ff9ba",
            "currentGasLimit": "0x016345785d8a0000",
            "currentNumber": "0x01",
            "currentTimestamp": "0x03e8",
            "currentRandom": "0x0000000000000000000000000000000000000000000000000000000000000000",
            "currentDifficulty": "0x00",
            "currentBaseFee": "0x07",
            "currentExcessBlobGas": "0x00"
        },
        "pre": {
            "0xaaaaaaaaaaaaaaaaaaaaaaaaaaaaaaaaaaaaaaaa": {
                "nonce": "0x01",
                "balance": "0x00",
                "code": "0x366000600037600060003660006000600e610320f16000553d6001553d600060003e3d600020600255",
                "storage": {}
            },
            "0xa94f5374fce5edbc8e2a8697c15331677e6ebf0b": {
                "nonce": "0x00",
                "balance": "0x038d7ea4c68000",
                "code": "0x",
                "storage": {}
            }
        },
        "transaction": {
            "nonce": "0x00",
            "gasPrice": "0x0a",
            "gasLimit": [
                "0x9899a0"
            ],
            "to": "0xaaaaaaaaaaaaaaaaaaaaaaaaaaaaaaaaaaaaaaaa",
            "value": [
                "0x00"
            ],
            "data": [
                "0x00000000000000000000000000000000103121a2ceaae586d240843a398967325f8eb5a93e8fea99b62b9f88d8556c80dd726a4b30e84a36eeabaf3592937f2700000000000000000000000000000000086b990f3da2aeac0a36143b7d7c824428215140db1bb859338764cb58458f081d92664f9053b50b3fbd2e4723121b68000000000000000000000000000000000f9e7ba9a86a8f7624aa2b42dcc8772e1af4ae115685e60abc2c9b90242167acef3d0be4050bf935eed7c3b6fc7ba77e000000000000000000000000000000000d22c3652d0dc6f0fc9316e14268477c2049ef772e852108d269d9c38dba1d4802e8dae479818184c08f9a569d87845100000000000000000000000000000000024aa2b2f08f0a91260805272dc51051c6e47ad4fa403b02b4510b647ae3d1770bac0326a805bbefd48056c8c121bdb80000000000000000000000000000000013e02b6052719f607dacd3a088274f65596bd0d09920b61ab5da61bbdc7f5049334cf11213945d57e5ac7d055d042b7e000000000000000000000000000000000ce5d527727d6e118cc9cdc6da2e351aadfd9baa8cbdd3a76d429a695160d12c923ac9cc3baca289e193548608b82801000000000000000000000000000000000606c4a02ea734cc32acd2b02bc28b99cb3e287e85a763af267492ab572e99ab3f370d275cec1da1aaa9075ff05f79be"
            ],
            "sender": "0xa94f5374fce5edbc8e2a8697c15331677e6ebf0b",
            "secretKey": "0x45a915e4d060149eb4365960e6a7a45f334393093061116b197e3240065ff2d8"
        },
        "post": {
            "Prague": [
                {
                    "hash": "0x03b76e84bc3fc90187e21b6e93bbf1d67527ecb75301bb2d3f114bfb0ba26134",
                    "logs": "0x1dcc4de8dec75d7aab85b567b6ccd41ad312451b948a7413f0a142fd40d49347",
                    "txbytes": "0xf90262800a839899a094aaaaaaaaaaaaaaaaaaaaaaaaaaaaaaaaaaaaaaaa80b9020000000000000000000000000000000000103121a2ceaae586d240843a398967325f8eb5a93e8fea99b62b9f88d8556c80dd726a4b30e84a36eeabaf3592937f2700000000000000000000000000000000086b990f3da2aeac0a36143b7d7c824428215140db1bb859338764cb58458f081d92664f9053b50b3fbd2e4723121b68000000000000000000000000000000000f9e7ba9a86a8f7624aa2b42dcc8772e1af4ae115685e60abc2c9b90242167acef3d0be4050bf935eed7c3b6fc7ba77e000000000000000000000000000000000d22c3652d0dc6f0fc9316e14268477c2049ef772e852108d269d9c38dba1d4802e8dae479818184c08f9a569d87845100000000000000000000000000000000024aa2b2f08f0a91260805272dc51051c6e47ad4fa403b02b4510b647ae3d1770bac0326a805bbefd48056c8c121bdb80000000000000000000000000000000013e02b6052719f607dacd3a088274f65596bd0d09920b61ab5da61bbdc7f5049334cf11213945d57e5ac7d055d042b7e000000000000000000000000000000000ce5d527727d6e118cc9cdc6da2e351aadfd9baa8cbdd3a76d429a695160d12c923ac9cc3baca289e193548608b82801000000000000000000000000000000000606c4a02ea734cc32acd2b02bc28b99cb3e287e85a763af267492ab572e99ab3f370d275cec1da1aaa9075ff05f79be25a0313c11ff2a39e9ce225afcb8eedbda2258a577db5d4024595dcb2fd0c84ebde7a06d3ae90a17d6e9e61fd63a2ba3b005b7f1f7d014a14abfcc430e3e626779727b",
                    "indexes": {
                        "data": 0,
                        "gas": 0,
                        "value": 0
                    }
                }
            ]
        },
        "_info": {
            "hash": "0x8418323bc39c47a0ce33769f6021f880afd270b965fd7f1c54bbf0876c23d1f3",
            "comment": "`execution-spec-tests` generated test",
            "filling-transition-tool": "evm version 1.14.4-unstable-abee40f2-20240516",
            "reference-spec": "https://github.com/ethereum/EIPs/blob/master/EIPS/eip-2537.md",
            "reference-spec-version": "cd0f016ad0c4c68b8b1f5c502ef61ab9353b6e5e"
        }
    },
    "tests/prague/eip2537_bls_12_381_precompiles/test_bls12_g2add.py::test_valid[fork_Prague-state_test-bls_g2add_g2_wrong_order+g2-]": {
        "env": {
            "currentCoinbase": "0x2adc25665018aa1fe0e6bc666dac8fc2697ff9ba",
            "currentGasLimit": "0x016345785d8a0000",
            "currentNumber": "0x01",
            "currentTimestamp": "0x03e8",
            "currentRandom": "0x0000000000000000000000000000000000000000000000000000000000000000",
            "currentDifficulty": "0x00",
            "currentBaseFee": "0x07",
            "currentExcessBlobGas": "0x00"
        },
        "pre": {
            "0xaaaaaaaaaaaaaaaaaaaaaaaaaaaaaaaaaaaaaaaa": {
                "nonce": "0x01",
                "balance": "0x00",
                "code": "0x366000600037600060003660006000600e610320f16000553d6001553d600060003e3d600020600255",
                "storage": {}
            },
            "0xa94f5374fce5edbc8e2a8697c15331677e6ebf0b": {
                "nonce": "0x00",
                "balance": "0x038d7ea4c68000",
                "code": "0x",
                "storage": {}
            }
        },
        "transaction": {
            "nonce": "0x00",
            "gasPrice": "0x0a",
            "gasLimit": [
                "0x9899a0"
            ],
            "to": "0xaaaaaaaaaaaaaaaaaaaaaaaaaaaaaaaaaaaaaaaa",
            "value": [
                "0x00"
            ],
            "data": [
                "0x00000000000000000000000000000000197bfd0342bbc8bee2beced2f173e1a87be576379b343e93232d6cef98d84b1d696e5612ff283ce2cfdccb2cfb65fa0c00000000000000000000000000000000184e811f55e6f9d84d77d2f79102fd7ea7422f4759df5bf7f6331d550245e3f1bcf6a30e3b29110d85e0ca16f9f6ae7a000000000000000000000000000000000f10e1eb3c1e53d2ad9cf2d398b2dc22c5842fab0a74b174f691a7e914975da3564d835cd7d2982815b8ac57f507348f000000000000000000000000000000000767d1c453890f1b9110fda82f5815c27281aba3f026ee868e4176a0654feea41a96575e0c4d58a14dbfbcc05b5010b100000000000000000000000000000000024aa2b2f08f0a91260805272dc51051c6e47ad4fa403b02b4510b647ae3d1770bac0326a805bbefd48056c8c121bdb80000000000000000000000000000000013e02b6052719f607dacd3a088274f65596bd0d09920b61ab5da61bbdc7f5049334cf11213945d57e5ac7d055d042b7e000000000000000000000000000000000ce5d527727d6e118cc9cdc6da2e351aadfd9baa8cbdd3a76d429a695160d12c923ac9cc3baca289e193548608b82801000000000000000000000000000000000606c4a02ea734cc32acd2b02bc28b99cb3e287e85a763af267492ab572e99ab3f370d275cec1da1aaa9075ff05f79be"
            ],
            "sender": "0xa94f5374fce5edbc8e2a8697c15331677e6ebf0b",
            "secretKey": "0x45a915e4d060149eb4365960e6a7a45f334393093061116b197e3240065ff2d8"
        },
        "post": {
            "Prague": [
                {
                    "hash": "0xd7e2ddafa1df4065d10fd9e42b68ab328e9e79debee04b883ee421424084c33e",
                    "logs": "0x1dcc4de8dec75d7aab85b567b6ccd41ad312451b948a7413f0a142fd40d49347",
                    "txbytes": "0xf90262800a839899a094aaaaaaaaaaaaaaaaaaaaaaaaaaaaaaaaaaaaaaaa80b9020000000000000000000000000000000000197bfd0342bbc8bee2beced2f173e1a87be576379b343e93232d6cef98d84b1d696e5612ff283ce2cfdccb2cfb65fa0c00000000000000000000000000000000184e811f55e6f9d84d77d2f79102fd7ea7422f4759df5bf7f6331d550245e3f1bcf6a30e3b29110d85e0ca16f9f6ae7a000000000000000000000000000000000f10e1eb3c1e53d2ad9cf2d398b2dc22c5842fab0a74b174f691a7e914975da3564d835cd7d2982815b8ac57f507348f000000000000000000000000000000000767d1c453890f1b9110fda82f5815c27281aba3f026ee868e4176a0654feea41a96575e0c4d58a14dbfbcc05b5010b100000000000000000000000000000000024aa2b2f08f0a91260805272dc51051c6e47ad4fa403b02b4510b647ae3d1770bac0326a805bbefd48056c8c121bdb80000000000000000000000000000000013e02b6052719f607dacd3a088274f65596bd0d09920b61ab5da61bbdc7f5049334cf11213945d57e5ac7d055d042b7e000000000000000000000000000000000ce5d527727d6e118cc9cdc6da2e351aadfd9baa8cbdd3a76d429a695160d12c923ac9cc3baca289e193548608b82801000000000000000000000000000000000606c4a02ea734cc32acd2b02bc28b99cb3e287e85a763af267492ab572e99ab3f370d275cec1da1aaa9075ff05f79be26a0048fef2a5e07d5cad16e7ed1e5bfb9b567ad2b2e39b7ce723e09390b97f46ac7a043f8ff2bd921e947c98d069d665a9230e4a4c483608b7a99e11521bbc74f4465",
                    "indexes": {
                        "data": 0,
                        "gas": 0,
                        "value": 0
                    }
                }
            ]
        },
        "_info": {
            "hash": "0xcbf0258f5387f5cda613c65bc5f24b4979534cec9b51b2729b7c82dfa8be1304",
            "comment": "`execution-spec-tests` generated test",
            "filling-transition-tool": "evm version 1.14.4-unstable-abee40f2-20240516",
            "reference-spec": "https://github.com/ethereum/EIPs/blob/master/EIPS/eip-2537.md",
            "reference-spec-version": "cd0f016ad0c4c68b8b1f5c502ef61ab9353b6e5e"
        }
    },
    "tests/prague/eip2537_bls_12_381_precompiles/test_bls12_g2add.py::test_valid[fork_Prague-state_test-bls_g2add_(g2+0=g2)-]": {
        "env": {
            "currentCoinbase": "0x2adc25665018aa1fe0e6bc666dac8fc2697ff9ba",
            "currentGasLimit": "0x016345785d8a0000",
            "currentNumber": "0x01",
            "currentTimestamp": "0x03e8",
            "currentRandom": "0x0000000000000000000000000000000000000000000000000000000000000000",
            "currentDifficulty": "0x00",
            "currentBaseFee": "0x07",
            "currentExcessBlobGas": "0x00"
        },
        "pre": {
            "0xaaaaaaaaaaaaaaaaaaaaaaaaaaaaaaaaaaaaaaaa": {
                "nonce": "0x01",
                "balance": "0x00",
                "code": "0x366000600037600060003660006000600e610320f16000553d6001553d600060003e3d600020600255",
                "storage": {}
            },
            "0xa94f5374fce5edbc8e2a8697c15331677e6ebf0b": {
                "nonce": "0x00",
                "balance": "0x038d7ea4c68000",
                "code": "0x",
                "storage": {}
            }
        },
        "transaction": {
            "nonce": "0x00",
            "gasPrice": "0x0a",
            "gasLimit": [
                "0x9899a0"
            ],
            "to": "0xaaaaaaaaaaaaaaaaaaaaaaaaaaaaaaaaaaaaaaaa",
            "value": [
                "0x00"
            ],
            "data": [
                "0x00000000000000000000000000000000024aa2b2f08f0a91260805272dc51051c6e47ad4fa403b02b4510b647ae3d1770bac0326a805bbefd48056c8c121bdb80000000000000000000000000000000013e02b6052719f607dacd3a088274f65596bd0d09920b61ab5da61bbdc7f5049334cf11213945d57e5ac7d055d042b7e000000000000000000000000000000000ce5d527727d6e118cc9cdc6da2e351aadfd9baa8cbdd3a76d429a695160d12c923ac9cc3baca289e193548608b82801000000000000000000000000000000000606c4a02ea734cc32acd2b02bc28b99cb3e287e85a763af267492ab572e99ab3f370d275cec1da1aaa9075ff05f79be00000000000000000000000000000000000000000000000000000000000000000000000000000000000000000000000000000000000000000000000000000000000000000000000000000000000000000000000000000000000000000000000000000000000000000000000000000000000000000000000000000000000000000000000000000000000000000000000000000000000000000000000000000000000000000000000000000000000000000000000000000000000000000000000000000000000000000000000000000000000000000000000000000000000000000000000000000000000000000000000000000000000000000000000000000000"
            ],
            "sender": "0xa94f5374fce5edbc8e2a8697c15331677e6ebf0b",
            "secretKey": "0x45a915e4d060149eb4365960e6a7a45f334393093061116b197e3240065ff2d8"
        },
        "post": {
            "Prague": [
                {
                    "hash": "0x9e21623075ed4c9415ff2faf6a8316cccae853b59db750bda3441937c128a81f",
                    "logs": "0x1dcc4de8dec75d7aab85b567b6ccd41ad312451b948a7413f0a142fd40d49347",
                    "txbytes": "0xf90262800a839899a094aaaaaaaaaaaaaaaaaaaaaaaaaaaaaaaaaaaaaaaa80b9020000000000000000000000000000000000024aa2b2f08f0a91260805272dc51051c6e47ad4fa403b02b4510b647ae3d1770bac0326a805bbefd48056c8c121bdb80000000000000000000000000000000013e02b6052719f607dacd3a088274f65596bd0d09920b61ab5da61bbdc7f5049334cf11213945d57e5ac7d055d042b7e000000000000000000000000000000000ce5d527727d6e118cc9cdc6da2e351aadfd9baa8cbdd3a76d429a695160d12c923ac9cc3baca289e193548608b82801000000000000000000000000000000000606c4a02ea734cc32acd2b02bc28b99cb3e287e85a763af267492ab572e99ab3f370d275cec1da1aaa9075ff05f79be0000000000000000000000000000000000000000000000000000000000000000000000000000000000000000000000000000000000000000000000000000000000000000000000000000000000000000000000000000000000000000000000000000000000000000000000000000000000000000000000000000000000000000000000000000000000000000000000000000000000000000000000000000000000000000000000000000000000000000000000000000000000000000000000000000000000000000000000000000000000000000000000000000000000000000000000000000000000000000000000000000000000000000000000000000000026a040372f2f9cbd7f4a73e81dbe182b06d2628827786e54fa826bb08d59d265febaa04d627546cbbe7e3b36c3558db686c9cd3333f57d44bc5435a2bf68626816d2ae",
                    "indexes": {
                        "data": 0,
                        "gas": 0,
                        "value": 0
                    }
                }
            ]
        },
        "_info": {
            "hash": "0x18069907547872a550ce8f79b96ee16946f82e1466558ce7782c4fda93f422eb",
            "comment": "`execution-spec-tests` generated test",
            "filling-transition-tool": "evm version 1.14.4-unstable-abee40f2-20240516",
            "reference-spec": "https://github.com/ethereum/EIPs/blob/master/EIPS/eip-2537.md",
            "reference-spec-version": "cd0f016ad0c4c68b8b1f5c502ef61ab9353b6e5e"
        }
    },
    "tests/prague/eip2537_bls_12_381_precompiles/test_bls12_g2add.py::test_valid[fork_Prague-state_test-bls_g2add_(p2+0=p2)-]": {
        "env": {
            "currentCoinbase": "0x2adc25665018aa1fe0e6bc666dac8fc2697ff9ba",
            "currentGasLimit": "0x016345785d8a0000",
            "currentNumber": "0x01",
            "currentTimestamp": "0x03e8",
            "currentRandom": "0x0000000000000000000000000000000000000000000000000000000000000000",
            "currentDifficulty": "0x00",
            "currentBaseFee": "0x07",
            "currentExcessBlobGas": "0x00"
        },
        "pre": {
            "0xaaaaaaaaaaaaaaaaaaaaaaaaaaaaaaaaaaaaaaaa": {
                "nonce": "0x01",
                "balance": "0x00",
                "code": "0x366000600037600060003660006000600e610320f16000553d6001553d600060003e3d600020600255",
                "storage": {}
            },
            "0xa94f5374fce5edbc8e2a8697c15331677e6ebf0b": {
                "nonce": "0x00",
                "balance": "0x038d7ea4c68000",
                "code": "0x",
                "storage": {}
            }
        },
        "transaction": {
            "nonce": "0x00",
            "gasPrice": "0x0a",
            "gasLimit": [
                "0x9899a0"
            ],
            "to": "0xaaaaaaaaaaaaaaaaaaaaaaaaaaaaaaaaaaaaaaaa",
            "value": [
                "0x00"
            ],
            "data": [
                "0x00000000000000000000000000000000103121a2ceaae586d240843a398967325f8eb5a93e8fea99b62b9f88d8556c80dd726a4b30e84a36eeabaf3592937f2700000000000000000000000000000000086b990f3da2aeac0a36143b7d7c824428215140db1bb859338764cb58458f081d92664f9053b50b3fbd2e4723121b68000000000000000000000000000000000f9e7ba9a86a8f7624aa2b42dcc8772e1af4ae115685e60abc2c9b90242167acef3d0be4050bf935eed7c3b6fc7ba77e000000000000000000000000000000000d22c3652d0dc6f0fc9316e14268477c2049ef772e852108d269d9c38dba1d4802e8dae479818184c08f9a569d87845100000000000000000000000000000000000000000000000000000000000000000000000000000000000000000000000000000000000000000000000000000000000000000000000000000000000000000000000000000000000000000000000000000000000000000000000000000000000000000000000000000000000000000000000000000000000000000000000000000000000000000000000000000000000000000000000000000000000000000000000000000000000000000000000000000000000000000000000000000000000000000000000000000000000000000000000000000000000000000000000000000000000000000000000000000000"
            ],
            "sender": "0xa94f5374fce5edbc8e2a8697c15331677e6ebf0b",
            "secretKey": "0x45a915e4d060149eb4365960e6a7a45f334393093061116b197e3240065ff2d8"
        },
        "post": {
            "Prague": [
                {
                    "hash": "0xacf8a1a16f8569b823e7fe37bd2373107dce94d98a85383f71983baee6c92ea7",
                    "logs": "0x1dcc4de8dec75d7aab85b567b6ccd41ad312451b948a7413f0a142fd40d49347",
                    "txbytes": "0xf90262800a839899a094aaaaaaaaaaaaaaaaaaaaaaaaaaaaaaaaaaaaaaaa80b9020000000000000000000000000000000000103121a2ceaae586d240843a398967325f8eb5a93e8fea99b62b9f88d8556c80dd726a4b30e84a36eeabaf3592937f2700000000000000000000000000000000086b990f3da2aeac0a36143b7d7c824428215140db1bb859338764cb58458f081d92664f9053b50b3fbd2e4723121b68000000000000000000000000000000000f9e7ba9a86a8f7624aa2b42dcc8772e1af4ae115685e60abc2c9b90242167acef3d0be4050bf935eed7c3b6fc7ba77e000000000000000000000000000000000d22c3652d0dc6f0fc9316e14268477c2049ef772e852108d269d9c38dba1d4802e8dae479818184c08f9a569d8784510000000000000000000000000000000000000000000000000000000000000000000000000000000000000000000000000000000000000000000000000000000000000000000000000000000000000000000000000000000000000000000000000000000000000000000000000000000000000000000000000000000000000000000000000000000000000000000000000000000000000000000000000000000000000000000000000000000000000000000000000000000000000000000000000000000000000000000000000000000000000000000000000000000000000000000000000000000000000000000000000000000000000000000000000000000026a0bb7b1f2ccfdff147c147b57c23634a6d65bdb3b75390879d81b41b6866bb06c0a07dffbb83dbb07c7ac000670067c70227562a8bd90e216f8d545ab7926c947ff9",
                    "indexes": {
                        "data": 0,
                        "gas": 0,
                        "value": 0
                    }
                }
            ]
        },
        "_info": {
            "hash": "0xc23f2f5ab31d0e14927eb91b39b5043f3c89e1730c2487d145fdb766756d94fe",
            "comment": "`execution-spec-tests` generated test",
            "filling-transition-tool": "evm version 1.14.4-unstable-abee40f2-20240516",
            "reference-spec": "https://github.com/ethereum/EIPs/blob/master/EIPS/eip-2537.md",
            "reference-spec-version": "cd0f016ad0c4c68b8b1f5c502ef61ab9353b6e5e"
        }
    },
    "tests/prague/eip2537_bls_12_381_precompiles/test_bls12_g2add.py::test_valid[fork_Prague-state_test-bls_g2add_(g2-g2=0)-]": {
        "env": {
            "currentCoinbase": "0x2adc25665018aa1fe0e6bc666dac8fc2697ff9ba",
            "currentGasLimit": "0x016345785d8a0000",
            "currentNumber": "0x01",
            "currentTimestamp": "0x03e8",
            "currentRandom": "0x0000000000000000000000000000000000000000000000000000000000000000",
            "currentDifficulty": "0x00",
            "currentBaseFee": "0x07",
            "currentExcessBlobGas": "0x00"
        },
        "pre": {
            "0xaaaaaaaaaaaaaaaaaaaaaaaaaaaaaaaaaaaaaaaa": {
                "nonce": "0x01",
                "balance": "0x00",
                "code": "0x366000600037600060003660006000600e610320f16000553d6001553d600060003e3d600020600255",
                "storage": {}
            },
            "0xa94f5374fce5edbc8e2a8697c15331677e6ebf0b": {
                "nonce": "0x00",
                "balance": "0x038d7ea4c68000",
                "code": "0x",
                "storage": {}
            }
        },
        "transaction": {
            "nonce": "0x00",
            "gasPrice": "0x0a",
            "gasLimit": [
                "0x9899a0"
            ],
            "to": "0xaaaaaaaaaaaaaaaaaaaaaaaaaaaaaaaaaaaaaaaa",
            "value": [
                "0x00"
            ],
            "data": [
                "0x00000000000000000000000000000000024aa2b2f08f0a91260805272dc51051c6e47ad4fa403b02b4510b647ae3d1770bac0326a805bbefd48056c8c121bdb80000000000000000000000000000000013e02b6052719f607dacd3a088274f65596bd0d09920b61ab5da61bbdc7f5049334cf11213945d57e5ac7d055d042b7e000000000000000000000000000000000ce5d527727d6e118cc9cdc6da2e351aadfd9baa8cbdd3a76d429a695160d12c923ac9cc3baca289e193548608b82801000000000000000000000000000000000606c4a02ea734cc32acd2b02bc28b99cb3e287e85a763af267492ab572e99ab3f370d275cec1da1aaa9075ff05f79be00000000000000000000000000000000024aa2b2f08f0a91260805272dc51051c6e47ad4fa403b02b4510b647ae3d1770bac0326a805bbefd48056c8c121bdb80000000000000000000000000000000013e02b6052719f607dacd3a088274f65596bd0d09920b61ab5da61bbdc7f5049334cf11213945d57e5ac7d055d042b7e000000000000000000000000000000000d1b3cc2c7027888be51d9ef691d77bcb679afda66c73f17f9ee3837a55024f78c71363275a75d75d86bab79f74782aa0000000000000000000000000000000013fa4d4a0ad8b1ce186ed5061789213d993923066dddaf1040bc3ff59f825c78df74f2d75467e25e0f55f8a00fa030ed"
            ],
            "sender": "0xa94f5374fce5edbc8e2a8697c15331677e6ebf0b",
            "secretKey": "0x45a915e4d060149eb4365960e6a7a45f334393093061116b197e3240065ff2d8"
        },
        "post": {
            "Prague": [
                {
                    "hash": "0x7c4b75ff32f166dadf3b7d6302cf36d965e2fd58150ffe6f553f8c369ce477d8",
                    "logs": "0x1dcc4de8dec75d7aab85b567b6ccd41ad312451b948a7413f0a142fd40d49347",
                    "txbytes": "0xf90262800a839899a094aaaaaaaaaaaaaaaaaaaaaaaaaaaaaaaaaaaaaaaa80b9020000000000000000000000000000000000024aa2b2f08f0a91260805272dc51051c6e47ad4fa403b02b4510b647ae3d1770bac0326a805bbefd48056c8c121bdb80000000000000000000000000000000013e02b6052719f607dacd3a088274f65596bd0d09920b61ab5da61bbdc7f5049334cf11213945d57e5ac7d055d042b7e000000000000000000000000000000000ce5d527727d6e118cc9cdc6da2e351aadfd9baa8cbdd3a76d429a695160d12c923ac9cc3baca289e193548608b82801000000000000000000000000000000000606c4a02ea734cc32acd2b02bc28b99cb3e287e85a763af267492ab572e99ab3f370d275cec1da1aaa9075ff05f79be00000000000000000000000000000000024aa2b2f08f0a91260805272dc51051c6e47ad4fa403b02b4510b647ae3d1770bac0326a805bbefd48056c8c121bdb80000000000000000000000000000000013e02b6052719f607dacd3a088274f65596bd0d09920b61ab5da61bbdc7f5049334cf11213945d57e5ac7d055d042b7e000000000000000000000000000000000d1b3cc2c7027888be51d9ef691d77bcb679afda66c73f17f9ee3837a55024f78c71363275a75d75d86bab79f74782aa0000000000000000000000000000000013fa4d4a0ad8b1ce186ed5061789213d993923066dddaf1040bc3ff59f825c78df74f2d75467e25e0f55f8a00fa030ed26a0d88f9810baaec65400a7af5ada7b5ab82f6adc5d2275b2711d5534d3ff6b623ca02864679830b0af694c3361fefb6ec2db1545e88d3482f01485470ec3175842eb",
                    "indexes": {
                        "data": 0,
                        "gas": 0,
                        "value": 0
                    }
                }
            ]
        },
        "_info": {
            "hash": "0x43eba838e521b8ed475ff2af2e8a505c5c5b08df156f1aa0c45a11380a783c9f",
            "comment": "`execution-spec-tests` generated test",
            "filling-transition-tool": "evm version 1.14.4-unstable-abee40f2-20240516",
            "reference-spec": "https://github.com/ethereum/EIPs/blob/master/EIPS/eip-2537.md",
            "reference-spec-version": "cd0f016ad0c4c68b8b1f5c502ef61ab9353b6e5e"
        }
    },
    "tests/prague/eip2537_bls_12_381_precompiles/test_bls12_g2add.py::test_valid[fork_Prague-state_test-bls_g2add_(p2-p2=0)-]": {
        "env": {
            "currentCoinbase": "0x2adc25665018aa1fe0e6bc666dac8fc2697ff9ba",
            "currentGasLimit": "0x016345785d8a0000",
            "currentNumber": "0x01",
            "currentTimestamp": "0x03e8",
            "currentRandom": "0x0000000000000000000000000000000000000000000000000000000000000000",
            "currentDifficulty": "0x00",
            "currentBaseFee": "0x07",
            "currentExcessBlobGas": "0x00"
        },
        "pre": {
            "0xaaaaaaaaaaaaaaaaaaaaaaaaaaaaaaaaaaaaaaaa": {
                "nonce": "0x01",
                "balance": "0x00",
                "code": "0x366000600037600060003660006000600e610320f16000553d6001553d600060003e3d600020600255",
                "storage": {}
            },
            "0xa94f5374fce5edbc8e2a8697c15331677e6ebf0b": {
                "nonce": "0x00",
                "balance": "0x038d7ea4c68000",
                "code": "0x",
                "storage": {}
            }
        },
        "transaction": {
            "nonce": "0x00",
            "gasPrice": "0x0a",
            "gasLimit": [
                "0x9899a0"
            ],
            "to": "0xaaaaaaaaaaaaaaaaaaaaaaaaaaaaaaaaaaaaaaaa",
            "value": [
                "0x00"
            ],
            "data": [
                "0x00000000000000000000000000000000103121a2ceaae586d240843a398967325f8eb5a93e8fea99b62b9f88d8556c80dd726a4b30e84a36eeabaf3592937f2700000000000000000000000000000000086b990f3da2aeac0a36143b7d7c824428215140db1bb859338764cb58458f081d92664f9053b50b3fbd2e4723121b68000000000000000000000000000000000f9e7ba9a86a8f7624aa2b42dcc8772e1af4ae115685e60abc2c9b90242167acef3d0be4050bf935eed7c3b6fc7ba77e000000000000000000000000000000000d22c3652d0dc6f0fc9316e14268477c2049ef772e852108d269d9c38dba1d4802e8dae479818184c08f9a569d87845100000000000000000000000000000000103121a2ceaae586d240843a398967325f8eb5a93e8fea99b62b9f88d8556c80dd726a4b30e84a36eeabaf3592937f2700000000000000000000000000000000086b990f3da2aeac0a36143b7d7c824428215140db1bb859338764cb58458f081d92664f9053b50b3fbd2e4723121b68000000000000000000000000000000000a6296409115572426717c73668335a949829d739cff2cb4ab043710d28f8e772f6ef41aac4806c9cb273c490384032d000000000000000000000000000000000cde4e850c721fa94e8890d500e3655b442d5c0dc4fff1b694c6f8dd68f6d8dc1bc3251a37d27e7af96f65a96278265a"
            ],
            "sender": "0xa94f5374fce5edbc8e2a8697c15331677e6ebf0b",
            "secretKey": "0x45a915e4d060149eb4365960e6a7a45f334393093061116b197e3240065ff2d8"
        },
        "post": {
            "Prague": [
                {
                    "hash": "0x9e388428b1d7808aa80913abceeadbcec38219a2ee7cc9cc5d34a00757fd0478",
                    "logs": "0x1dcc4de8dec75d7aab85b567b6ccd41ad312451b948a7413f0a142fd40d49347",
                    "txbytes": "0xf90262800a839899a094aaaaaaaaaaaaaaaaaaaaaaaaaaaaaaaaaaaaaaaa80b9020000000000000000000000000000000000103121a2ceaae586d240843a398967325f8eb5a93e8fea99b62b9f88d8556c80dd726a4b30e84a36eeabaf3592937f2700000000000000000000000000000000086b990f3da2aeac0a36143b7d7c824428215140db1bb859338764cb58458f081d92664f9053b50b3fbd2e4723121b68000000000000000000000000000000000f9e7ba9a86a8f7624aa2b42dcc8772e1af4ae115685e60abc2c9b90242167acef3d0be4050bf935eed7c3b6fc7ba77e000000000000000000000000000000000d22c3652d0dc6f0fc9316e14268477c2049ef772e852108d269d9c38dba1d4802e8dae479818184c08f9a569d87845100000000000000000000000000000000103121a2ceaae586d240843a398967325f8eb5a93e8fea99b62b9f88d8556c80dd726a4b30e84a36eeabaf3592937f2700000000000000000000000000000000086b990f3da2aeac0a36143b7d7c824428215140db1bb859338764cb58458f081d92664f9053b50b3fbd2e4723121b68000000000000000000000000000000000a6296409115572426717c73668335a949829d739cff2cb4ab043710d28f8e772f6ef41aac4806c9cb273c490384032d000000000000000000000000000000000cde4e850c721fa94e8890d500e3655b442d5c0dc4fff1b694c6f8dd68f6d8dc1bc3251a37d27e7af96f65a96278265a25a0c116faf3cdbd39b669f476a372c2e04828d75ef71472955214e144db81cd3f8ba07126d33cc35f33b57f471a5c012c4e30359c10ceb220d41d87aa9c6241953333",
                    "indexes": {
                        "data": 0,
                        "gas": 0,
                        "value": 0
                    }
                }
            ]
        },
        "_info": {
            "hash": "0x1047c736adff8d8c4b51c662cda3bf53a7dfbccb786bd3fca8b9766fc7e609a4",
            "comment": "`execution-spec-tests` generated test",
            "filling-transition-tool": "evm version 1.14.4-unstable-abee40f2-20240516",
            "reference-spec": "https://github.com/ethereum/EIPs/blob/master/EIPS/eip-2537.md",
            "reference-spec-version": "cd0f016ad0c4c68b8b1f5c502ef61ab9353b6e5e"
        }
    },
    "tests/prague/eip2537_bls_12_381_precompiles/test_bls12_g2add.py::test_valid[fork_Prague-state_test-bls_g2add_(g2+g2=2*g2)-]": {
        "env": {
            "currentCoinbase": "0x2adc25665018aa1fe0e6bc666dac8fc2697ff9ba",
            "currentGasLimit": "0x016345785d8a0000",
            "currentNumber": "0x01",
            "currentTimestamp": "0x03e8",
            "currentRandom": "0x0000000000000000000000000000000000000000000000000000000000000000",
            "currentDifficulty": "0x00",
            "currentBaseFee": "0x07",
            "currentExcessBlobGas": "0x00"
        },
        "pre": {
            "0xaaaaaaaaaaaaaaaaaaaaaaaaaaaaaaaaaaaaaaaa": {
                "nonce": "0x01",
                "balance": "0x00",
                "code": "0x366000600037600060003660006000600e610320f16000553d6001553d600060003e3d600020600255",
                "storage": {}
            },
            "0xa94f5374fce5edbc8e2a8697c15331677e6ebf0b": {
                "nonce": "0x00",
                "balance": "0x038d7ea4c68000",
                "code": "0x",
                "storage": {}
            }
        },
        "transaction": {
            "nonce": "0x00",
            "gasPrice": "0x0a",
            "gasLimit": [
                "0x9899a0"
            ],
            "to": "0xaaaaaaaaaaaaaaaaaaaaaaaaaaaaaaaaaaaaaaaa",
            "value": [
                "0x00"
            ],
            "data": [
                "0x00000000000000000000000000000000024aa2b2f08f0a91260805272dc51051c6e47ad4fa403b02b4510b647ae3d1770bac0326a805bbefd48056c8c121bdb80000000000000000000000000000000013e02b6052719f607dacd3a088274f65596bd0d09920b61ab5da61bbdc7f5049334cf11213945d57e5ac7d055d042b7e000000000000000000000000000000000ce5d527727d6e118cc9cdc6da2e351aadfd9baa8cbdd3a76d429a695160d12c923ac9cc3baca289e193548608b82801000000000000000000000000000000000606c4a02ea734cc32acd2b02bc28b99cb3e287e85a763af267492ab572e99ab3f370d275cec1da1aaa9075ff05f79be00000000000000000000000000000000024aa2b2f08f0a91260805272dc51051c6e47ad4fa403b02b4510b647ae3d1770bac0326a805bbefd48056c8c121bdb80000000000000000000000000000000013e02b6052719f607dacd3a088274f65596bd0d09920b61ab5da61bbdc7f5049334cf11213945d57e5ac7d055d042b7e000000000000000000000000000000000ce5d527727d6e118cc9cdc6da2e351aadfd9baa8cbdd3a76d429a695160d12c923ac9cc3baca289e193548608b82801000000000000000000000000000000000606c4a02ea734cc32acd2b02bc28b99cb3e287e85a763af267492ab572e99ab3f370d275cec1da1aaa9075ff05f79be"
            ],
            "sender": "0xa94f5374fce5edbc8e2a8697c15331677e6ebf0b",
            "secretKey": "0x45a915e4d060149eb4365960e6a7a45f334393093061116b197e3240065ff2d8"
        },
        "post": {
            "Prague": [
                {
                    "hash": "0xdde05bbeadda0eb7b9e7c85f20b9c19db747fc2a4e52819ed23541af4d7a5724",
                    "logs": "0x1dcc4de8dec75d7aab85b567b6ccd41ad312451b948a7413f0a142fd40d49347",
                    "txbytes": "0xf90262800a839899a094aaaaaaaaaaaaaaaaaaaaaaaaaaaaaaaaaaaaaaaa80b9020000000000000000000000000000000000024aa2b2f08f0a91260805272dc51051c6e47ad4fa403b02b4510b647ae3d1770bac0326a805bbefd48056c8c121bdb80000000000000000000000000000000013e02b6052719f607dacd3a088274f65596bd0d09920b61ab5da61bbdc7f5049334cf11213945d57e5ac7d055d042b7e000000000000000000000000000000000ce5d527727d6e118cc9cdc6da2e351aadfd9baa8cbdd3a76d429a695160d12c923ac9cc3baca289e193548608b82801000000000000000000000000000000000606c4a02ea734cc32acd2b02bc28b99cb3e287e85a763af267492ab572e99ab3f370d275cec1da1aaa9075ff05f79be00000000000000000000000000000000024aa2b2f08f0a91260805272dc51051c6e47ad4fa403b02b4510b647ae3d1770bac0326a805bbefd48056c8c121bdb80000000000000000000000000000000013e02b6052719f607dacd3a088274f65596bd0d09920b61ab5da61bbdc7f5049334cf11213945d57e5ac7d055d042b7e000000000000000000000000000000000ce5d527727d6e118cc9cdc6da2e351aadfd9baa8cbdd3a76d429a695160d12c923ac9cc3baca289e193548608b82801000000000000000000000000000000000606c4a02ea734cc32acd2b02bc28b99cb3e287e85a763af267492ab572e99ab3f370d275cec1da1aaa9075ff05f79be25a0aacc70fb1e5c154a6900fcc1e9562986fb7f452c4a6eedab9c2c0836adf12967a0072893a12af98b096a4a675f4b47af6ec8b8c9b2641b6752369ff605d95215de",
                    "indexes": {
                        "data": 0,
                        "gas": 0,
                        "value": 0
                    }
                }
            ]
        },
        "_info": {
            "hash": "0xd816b8fddf36a046e0022448f1c6a02f7aec1035d574ffb994db4075d903e766",
            "comment": "`execution-spec-tests` generated test",
            "filling-transition-tool": "evm version 1.14.4-unstable-abee40f2-20240516",
            "reference-spec": "https://github.com/ethereum/EIPs/blob/master/EIPS/eip-2537.md",
            "reference-spec-version": "cd0f016ad0c4c68b8b1f5c502ef61ab9353b6e5e"
        }
    },
    "tests/prague/eip2537_bls_12_381_precompiles/test_bls12_g2add.py::test_valid[fork_Prague-state_test-bls_g2add_(p2+p2=2*p2)-]": {
        "env": {
            "currentCoinbase": "0x2adc25665018aa1fe0e6bc666dac8fc2697ff9ba",
            "currentGasLimit": "0x016345785d8a0000",
            "currentNumber": "0x01",
            "currentTimestamp": "0x03e8",
            "currentRandom": "0x0000000000000000000000000000000000000000000000000000000000000000",
            "currentDifficulty": "0x00",
            "currentBaseFee": "0x07",
            "currentExcessBlobGas": "0x00"
        },
        "pre": {
            "0xaaaaaaaaaaaaaaaaaaaaaaaaaaaaaaaaaaaaaaaa": {
                "nonce": "0x01",
                "balance": "0x00",
                "code": "0x366000600037600060003660006000600e610320f16000553d6001553d600060003e3d600020600255",
                "storage": {}
            },
            "0xa94f5374fce5edbc8e2a8697c15331677e6ebf0b": {
                "nonce": "0x00",
                "balance": "0x038d7ea4c68000",
                "code": "0x",
                "storage": {}
            }
        },
        "transaction": {
            "nonce": "0x00",
            "gasPrice": "0x0a",
            "gasLimit": [
                "0x9899a0"
            ],
            "to": "0xaaaaaaaaaaaaaaaaaaaaaaaaaaaaaaaaaaaaaaaa",
            "value": [
                "0x00"
            ],
            "data": [
                "0x00000000000000000000000000000000103121a2ceaae586d240843a398967325f8eb5a93e8fea99b62b9f88d8556c80dd726a4b30e84a36eeabaf3592937f2700000000000000000000000000000000086b990f3da2aeac0a36143b7d7c824428215140db1bb859338764cb58458f081d92664f9053b50b3fbd2e4723121b68000000000000000000000000000000000f9e7ba9a86a8f7624aa2b42dcc8772e1af4ae115685e60abc2c9b90242167acef3d0be4050bf935eed7c3b6fc7ba77e000000000000000000000000000000000d22c3652d0dc6f0fc9316e14268477c2049ef772e852108d269d9c38dba1d4802e8dae479818184c08f9a569d87845100000000000000000000000000000000103121a2ceaae586d240843a398967325f8eb5a93e8fea99b62b9f88d8556c80dd726a4b30e84a36eeabaf3592937f2700000000000000000000000000000000086b990f3da2aeac0a36143b7d7c824428215140db1bb859338764cb58458f081d92664f9053b50b3fbd2e4723121b68000000000000000000000000000000000f9e7ba9a86a8f7624aa2b42dcc8772e1af4ae115685e60abc2c9b90242167acef3d0be4050bf935eed7c3b6fc7ba77e000000000000000000000000000000000d22c3652d0dc6f0fc9316e14268477c2049ef772e852108d269d9c38dba1d4802e8dae479818184c08f9a569d878451"
            ],
            "sender": "0xa94f5374fce5edbc8e2a8697c15331677e6ebf0b",
            "secretKey": "0x45a915e4d060149eb4365960e6a7a45f334393093061116b197e3240065ff2d8"
        },
        "post": {
            "Prague": [
                {
                    "hash": "0x10dac82e5eadd444c975591cac9dbf79bfc2265ea948c0bf42fb8f722190dcfa",
                    "logs": "0x1dcc4de8dec75d7aab85b567b6ccd41ad312451b948a7413f0a142fd40d49347",
                    "txbytes": "0xf90262800a839899a094aaaaaaaaaaaaaaaaaaaaaaaaaaaaaaaaaaaaaaaa80b9020000000000000000000000000000000000103121a2ceaae586d240843a398967325f8eb5a93e8fea99b62b9f88d8556c80dd726a4b30e84a36eeabaf3592937f2700000000000000000000000000000000086b990f3da2aeac0a36143b7d7c824428215140db1bb859338764cb58458f081d92664f9053b50b3fbd2e4723121b68000000000000000000000000000000000f9e7ba9a86a8f7624aa2b42dcc8772e1af4ae115685e60abc2c9b90242167acef3d0be4050bf935eed7c3b6fc7ba77e000000000000000000000000000000000d22c3652d0dc6f0fc9316e14268477c2049ef772e852108d269d9c38dba1d4802e8dae479818184c08f9a569d87845100000000000000000000000000000000103121a2ceaae586d240843a398967325f8eb5a93e8fea99b62b9f88d8556c80dd726a4b30e84a36eeabaf3592937f2700000000000000000000000000000000086b990f3da2aeac0a36143b7d7c824428215140db1bb859338764cb58458f081d92664f9053b50b3fbd2e4723121b68000000000000000000000000000000000f9e7ba9a86a8f7624aa2b42dcc8772e1af4ae115685e60abc2c9b90242167acef3d0be4050bf935eed7c3b6fc7ba77e000000000000000000000000000000000d22c3652d0dc6f0fc9316e14268477c2049ef772e852108d269d9c38dba1d4802e8dae479818184c08f9a569d87845125a01baa7f1c6c51576b66afbbd62c82874567454f8f4bfe081470cab9ff9cd21246a06c85e7187293c6c8fafbc281b3a0a8ad9203a6d7d4dd57d365a097816018c843",
                    "indexes": {
                        "data": 0,
                        "gas": 0,
                        "value": 0
                    }
                }
            ]
        },
        "_info": {
            "hash": "0xa18428e72ac611872f00eecb9e8cb1aed2139476a6e3c9ab64d9afcd505cc9d6",
            "comment": "`execution-spec-tests` generated test",
            "filling-transition-tool": "evm version 1.14.4-unstable-abee40f2-20240516",
            "reference-spec": "https://github.com/ethereum/EIPs/blob/master/EIPS/eip-2537.md",
            "reference-spec-version": "cd0f016ad0c4c68b8b1f5c502ef61ab9353b6e5e"
        }
    },
    "tests/prague/eip2537_bls_12_381_precompiles/test_bls12_g2add.py::test_valid[fork_Prague-state_test-not_in_subgroup-]": {
        "env": {
            "currentCoinbase": "0x2adc25665018aa1fe0e6bc666dac8fc2697ff9ba",
            "currentGasLimit": "0x016345785d8a0000",
            "currentNumber": "0x01",
            "currentTimestamp": "0x03e8",
            "currentRandom": "0x0000000000000000000000000000000000000000000000000000000000000000",
            "currentDifficulty": "0x00",
            "currentBaseFee": "0x07",
            "currentExcessBlobGas": "0x00"
        },
        "pre": {
            "0xaaaaaaaaaaaaaaaaaaaaaaaaaaaaaaaaaaaaaaaa": {
                "nonce": "0x01",
                "balance": "0x00",
                "code": "0x366000600037600060003660006000600e610320f16000553d6001553d600060003e3d600020600255",
                "storage": {}
            },
            "0xa94f5374fce5edbc8e2a8697c15331677e6ebf0b": {
                "nonce": "0x00",
                "balance": "0x038d7ea4c68000",
                "code": "0x",
                "storage": {}
            }
        },
        "transaction": {
            "nonce": "0x00",
            "gasPrice": "0x0a",
            "gasLimit": [
                "0x9899a0"
            ],
            "to": "0xaaaaaaaaaaaaaaaaaaaaaaaaaaaaaaaaaaaaaaaa",
            "value": [
                "0x00"
            ],
            "data": [
                "0x00000000000000000000000000000000000000000000000000000000000000000000000000000000000000000000000000000000000000000000000000000001000000000000000000000000000000000000000000000000000000000000000000000000000000000000000000000000000000000000000000000000000000010000000000000000000000000000000017faa6201231304f270b858dad9462089f2a5b83388e4b10773abc1eef6d193b9fce4e8ea2d9d28e3c3a315aa7de14ca0000000000000000000000000000000000cc12449be6ac4e7f367e7242250427c4fb4c39325d3164ad397c1837a90f0ea1a534757df374dd6569345eb41ed76e00000000000000000000000000000000000000000000000000000000000000000000000000000000000000000000000000000000000000000000000000000001000000000000000000000000000000000000000000000000000000000000000000000000000000000000000000000000000000000000000000000000000000010000000000000000000000000000000017faa6201231304f270b858dad9462089f2a5b83388e4b10773abc1eef6d193b9fce4e8ea2d9d28e3c3a315aa7de14ca0000000000000000000000000000000000cc12449be6ac4e7f367e7242250427c4fb4c39325d3164ad397c1837a90f0ea1a534757df374dd6569345eb41ed76e"
            ],
            "sender": "0xa94f5374fce5edbc8e2a8697c15331677e6ebf0b",
            "secretKey": "0x45a915e4d060149eb4365960e6a7a45f334393093061116b197e3240065ff2d8"
        },
        "post": {
            "Prague": [
                {
                    "hash": "0x73065c80b5b697977cf12a50ce5a1a3bb9e03212344ebfcb0499015768e1c0ab",
                    "logs": "0x1dcc4de8dec75d7aab85b567b6ccd41ad312451b948a7413f0a142fd40d49347",
                    "txbytes": "0xf90262800a839899a094aaaaaaaaaaaaaaaaaaaaaaaaaaaaaaaaaaaaaaaa80b9020000000000000000000000000000000000000000000000000000000000000000000000000000000000000000000000000000000000000000000000000000000001000000000000000000000000000000000000000000000000000000000000000000000000000000000000000000000000000000000000000000000000000000010000000000000000000000000000000017faa6201231304f270b858dad9462089f2a5b83388e4b10773abc1eef6d193b9fce4e8ea2d9d28e3c3a315aa7de14ca0000000000000000000000000000000000cc12449be6ac4e7f367e7242250427c4fb4c39325d3164ad397c1837a90f0ea1a534757df374dd6569345eb41ed76e00000000000000000000000000000000000000000000000000000000000000000000000000000000000000000000000000000000000000000000000000000001000000000000000000000000000000000000000000000000000000000000000000000000000000000000000000000000000000000000000000000000000000010000000000000000000000000000000017faa6201231304f270b858dad9462089f2a5b83388e4b10773abc1eef6d193b9fce4e8ea2d9d28e3c3a315aa7de14ca0000000000000000000000000000000000cc12449be6ac4e7f367e7242250427c4fb4c39325d3164ad397c1837a90f0ea1a534757df374dd6569345eb41ed76e26a04dc01cdae2149293d8c232b1d2ff894891def294bdca04fa7f8701351353a8c4a0443aa00142e7b86479f3462d73d82dd33433a3e6c338f14a521ee65af27f1c7f",
                    "indexes": {
                        "data": 0,
                        "gas": 0,
                        "value": 0
                    }
                }
            ]
        },
        "_info": {
            "hash": "0xbff5e8409094229a4349adfac8e9407b0a336ac03f4a9e330cbde76280e66e52",
            "comment": "`execution-spec-tests` generated test",
            "filling-transition-tool": "evm version 1.14.4-unstable-abee40f2-20240516",
            "reference-spec": "https://github.com/ethereum/EIPs/blob/master/EIPS/eip-2537.md",
            "reference-spec-version": "cd0f016ad0c4c68b8b1f5c502ef61ab9353b6e5e"
        }
    }
}