{
    "tests/prague/eip2537_bls_12_381_precompiles/test_bls12_variable_length_input_contracts.py::test_invalid_gas_g2msm[fork_Prague-state_test-precompile_address_16---zero_gas_passed]": {
        "env": {
            "currentCoinbase": "0x2adc25665018aa1fe0e6bc666dac8fc2697ff9ba",
            "currentGasLimit": "0x016345785d8a0000",
            "currentNumber": "0x01",
            "currentTimestamp": "0x03e8",
            "currentRandom": "0x0000000000000000000000000000000000000000000000000000000000000000",
            "currentDifficulty": "0x00",
            "currentBaseFee": "0x07",
            "currentExcessBlobGas": "0x00"
        },
        "pre": {
            "0x0000000000000000000000000000000000001000": {
                "nonce": "0x01",
                "balance": "0x00",
                "code": "0x600060006101206000600060106000f1600155",
                "storage": {}
            },
            "0xa94f5374fce5edbc8e2a8697c15331677e6ebf0b": {
                "nonce": "0x00",
                "balance": "0x038d7ea4c68000",
                "code": "0x",
                "storage": {}
            }
        },
        "transaction": {
            "nonce": "0x00",
            "gasPrice": "0x0a",
            "gasLimit": [
                "0x05f5e100"
            ],
            "to": "0x0000000000000000000000000000000000001000",
            "value": [
                "0x00"
            ],
            "data": [
                "0x"
            ],
            "sender": "0xa94f5374fce5edbc8e2a8697c15331677e6ebf0b",
            "secretKey": "0x45a915e4d060149eb4365960e6a7a45f334393093061116b197e3240065ff2d8"
        },
        "post": {
            "Prague": [
                {
                    "hash": "0xcacc261c13340ca0a33daaecaef209085bdf302b1509ec7fb8f27efd8aaa6cda",
                    "logs": "0x1dcc4de8dec75d7aab85b567b6ccd41ad312451b948a7413f0a142fd40d49347",
                    "txbytes": "0xf861800a8405f5e100940000000000000000000000000000000000001000808026a00c80636d627692750a38994c80e17de29770a0e34498f5e6eccd4f233ec21b5fa04c33c43ced36fe3329a16f21f2704902ac998ae26f175265e7b14a6229b1feb1",
                    "indexes": {
                        "data": 0,
                        "gas": 0,
                        "value": 0
                    }
                }
            ]
        },
        "_info": {
            "hash": "0x9f2d0a247de6ad8d6cc2ec0838dd00a1f59b067039b1a3015502f7fb6da3f3fc",
            "comment": "`execution-spec-tests` generated test",
            "filling-transition-tool": "evm version 1.14.6-unstable-7e5dd44a-20240705",
            "description": "Test function documentation:\n\n    Test the BLS12_G2MSM discount gas table in full, by expecting the call to fail for\n    all possible input lengths because the appropriate amount of gas is not provided.\n\n    If any of the calls succeeds, the test will fail.",
            "url": "https://github.com/ethereum/execution-spec-tests/blob/devnet-1@v1.3.0/tests/prague/eip2537_bls_12_381_precompiles/test_bls12_variable_length_input_contracts.py#L266",
            "reference-spec": "https://github.com/ethereum/EIPs/blob/master/EIPS/eip-2537.md",
            "reference-spec-version": "cd0f016ad0c4c68b8b1f5c502ef61ab9353b6e5e"
        }
    },
    "tests/prague/eip2537_bls_12_381_precompiles/test_bls12_variable_length_input_contracts.py::test_invalid_gas_g2msm[fork_Prague-state_test-precompile_address_16---insufficient_gas_full_discount_table]": {
        "env": {
            "currentCoinbase": "0x2adc25665018aa1fe0e6bc666dac8fc2697ff9ba",
            "currentGasLimit": "0x016345785d8a0000",
            "currentNumber": "0x01",
            "currentTimestamp": "0x03e8",
            "currentRandom": "0x0000000000000000000000000000000000000000000000000000000000000000",
            "currentDifficulty": "0x00",
            "currentBaseFee": "0x07",
            "currentExcessBlobGas": "0x00"
        },
        "pre": {
            "0x0000000000000000000000000000000000001000": {
                "nonce": "0x01",
                "balance": "0x00",
                "code": "0x6000600061012060006000601061d2eff1600155600060006102406000600060106201382ff160025560006000610360600060006010620192e3f1600355600060006104806000600060106201c2b3f1600455600060006105a060006000601062020a11f1600555600060006106c0600060006010620240e9f1600655600060006107e06000600060106202673bf16007556000600061090060006000601062027d07f160085560006000610a206000600060106202b4edf160095560006000610b406000600060106202e78df1600a5560006000610c60600060006010620314e7f1600b5560006000610d8060006000601062033f17f1600c5560006000610ea060006000601062036212f1600d5560006000610fc060006000601062037fc7f1600e55600060006110e060006000601062039836f1600f55600060006112006000600060106203ab5ff1601055600060006113206000600060106203da21f1601155600060006114406000600060106204077bf1601255600060006115606000600060106204336df16013556000600061168060006000601062045df7f1601455600060006117a060006000601062048719f1601555600060006118c06000600060106204aed3f1601655600060006119e06000600060106204d525f160175560006000611b006000600060106204fa0ff160185560006000611c2060006000601062051d91f160195560006000611d4060006000601062053fabf1601a5560006000611e6060006000601062055b9ef1601b5560006000611f8060006000601062057abbf1601c55600060006120a060006000601062059870f1601d55600060006121c06000600060106205b4bdf1601e55600060006122e06000600060106205cfa2f1601f55600060006124006000600060106205e91ff1602055600060006125206000600060106206129bf160215560006000612640600060006010620635c3f16022556000600061276060006000601062065e5ef1602355600060006128806000600060106206804bf1602455600060006129a06000600060106206a805f160255560006000612ac06000600060106206c8b7f160265560006000612be06000600060106206ef90f160275560006000612d0060006000601062070f07f160285560006000612e20600060006010620734fff160295560006000612f406000600060106207533bf1602a556000600061306060006000601062077852f1602b556000600061318060006000601062079553f1602c55600060006132a06000600060106207b989f1602d55600060006133c06000600060106207d54ff1602e55600060006134e06000600060106207f8a4f1602f55600060006136006000600060106208132ff160305560006000613720600060006010620835a3f16031556000600061384060006000601062084ef3f16032556000600061396060006000601062087086f160335560006000613a806000600060106208889bf160345560006000613ba06000600060106208a94df160355560006000613cc06000600060106208c027f160365560006000613de06000600060106208dff8f160375560006000613f006000600060106208f597f16038556000600061402060006000601062091487f1603955600060006141406000600060106209331df1603a5560006000614260600060006010620946faf1603b5560006000614380600060006010620964aff1603c55600060006144a060006000601062097751f1603d55600060006145c060006000601062099425f1603e55600060006146e06000600060106209a58cf1603f55600060006148006000600060106209c17ff1604055600060006149206000600060106209dd18f160415560006000614a406000600060106209f857f160425560006000614b60600060006010620a133cf160435560006000614c80600060006010620a39bbf160445560006000614da0600060006010620a5419f160455560006000614ec0600060006010620a6e1df160465560006000614fe0600060006010620a87c7f160475560006000615100600060006010620aadbff160485560006000615220600060006010620ac6e2f160495560006000615340600060006010620adfabf1604a5560006000615460600060006010620af81af1604b5560006000615580600060006010620b1d8bf1604c55600060006156a0600060006010620b3573f1604d55600060006157c0600060006010620b4d01f1604e55600060006158e0600060006010620b7218f1604f5560006000615a00600060006010620b891ff160505560006000615b20600060006010620b9fccf160515560006000615c40600060006010620bb61ff160525560006000615d60600060006010620bdaaff160535560006000615e80600060006010620bf07bf160545560006000615fa0600060006010620c05edf1605555600060006160c0600060006010620c1b05f1605655600060006161e0600060006010620c3f0ef160575560006000616300600060006010620c539ff160585560006000616420600060006010620c67d6f160595560006000616540600060006010620c7bb3f1605a5560006000616660600060006010620c9f35f1605b5560006000616780600060006010620cb28bf1605c55600060006168a0600060006010620cc587f1605d55600060006169c0600060006010620cd829f1605e5560006000616ae0600060006010620cfb24f1605f5560006000616c00600060006010620d0d3ff160605560006000616d20600060006010620d1f00f160615560006000616e40600060006010620d3067f160625560006000616f60600060006010620d52dbf160635560006000617080600060006010620d63bbf1606455600060006171a0600060006010620d7441f1606555600060006172c0600060006010620d846df1606655600060006173e0600060006010620da65af160675560006000617500600060006010620db5fff160685560006000617620600060006010620dc54af160695560006000617740600060006010620de6ddf1606a5560006000617860600060006010620df5a1f1606b5560006000617980600060006010620e040bf1606c5560006000617aa0600060006010620e121bf1606d5560006000617bc0600060006010620e3327f1606e5560006000617ce0600060006010620e40b0f1606f5560006000617e00600060006010620e4ddff160705560006000617f20600060006010620e5ab4f160715560006000618040600060006010620e7b39f160725560006000618160600060006010620e8787f160735560006000618280600060006010620e937bf1607455600060006183a0600060006010620e9f15f1607555600060006184c0600060006010620ebf13f1607655600060006185e0600060006010620eca26f160775560006000618700600060006010620ed4dff160785560006000618820600060006010620edf3ef160795560006000618940600060006010620efeb5f1607a5560006000618a60600060006010620f088df1607b5560006000618b80600060006010620f120bf1607c5560006000618ca0600060006010620f1b2ff1607d5560006000618dc0600060006010620f3a1ff1607e5560006000618ee0600060006010620f42bcf1607f5560006000619000600060006010620f4afff1608055",
                "storage": {}
            },
            "0xa94f5374fce5edbc8e2a8697c15331677e6ebf0b": {
                "nonce": "0x00",
                "balance": "0x038d7ea4c68000",
                "code": "0x",
                "storage": {}
            }
        },
        "transaction": {
            "nonce": "0x00",
            "gasPrice": "0x0a",
            "gasLimit": [
                "0x05f5e100"
            ],
            "to": "0x0000000000000000000000000000000000001000",
            "value": [
                "0x00"
            ],
            "data": [
                "0x"
            ],
            "sender": "0xa94f5374fce5edbc8e2a8697c15331677e6ebf0b",
            "secretKey": "0x45a915e4d060149eb4365960e6a7a45f334393093061116b197e3240065ff2d8"
        },
        "post": {
            "Prague": [
                {
                    "hash": "0x9784a0863941029fdd6cbf6605f7c2d5f4fb6943896da971e37dff7b9bb6a540",
                    "logs": "0x1dcc4de8dec75d7aab85b567b6ccd41ad312451b948a7413f0a142fd40d49347",
                    "txbytes": "0xf861800a8405f5e100940000000000000000000000000000000000001000808026a00c80636d627692750a38994c80e17de29770a0e34498f5e6eccd4f233ec21b5fa04c33c43ced36fe3329a16f21f2704902ac998ae26f175265e7b14a6229b1feb1",
                    "indexes": {
                        "data": 0,
                        "gas": 0,
                        "value": 0
                    }
                }
            ]
        },
        "_info": {
            "hash": "0x57145fb5c95c1d3f4514b2b9c14a014418962ce3c107b677002680f73e347d6e",
            "comment": "`execution-spec-tests` generated test",
            "filling-transition-tool": "evm version 1.14.6-unstable-7e5dd44a-20240705",
            "description": "Test function documentation:\n\n    Test the BLS12_G2MSM discount gas table in full, by expecting the call to fail for\n    all possible input lengths because the appropriate amount of gas is not provided.\n\n    If any of the calls succeeds, the test will fail.",
            "url": "https://github.com/ethereum/execution-spec-tests/blob/devnet-1@v1.3.0/tests/prague/eip2537_bls_12_381_precompiles/test_bls12_variable_length_input_contracts.py#L266",
            "reference-spec": "https://github.com/ethereum/EIPs/blob/master/EIPS/eip-2537.md",
            "reference-spec-version": "cd0f016ad0c4c68b8b1f5c502ef61ab9353b6e5e"
        }
    }
}