{
    "tests/prague/eip2537_bls_12_381_precompiles/test_bls12_variable_length_input_contracts.py::test_invalid_gas_g1msm[fork_Prague-state_test-precompile_address_13---zero_gas_passed]": {
        "env": {
            "currentCoinbase": "0x2adc25665018aa1fe0e6bc666dac8fc2697ff9ba",
            "currentGasLimit": "0x016345785d8a0000",
            "currentNumber": "0x01",
            "currentTimestamp": "0x03e8",
            "currentRandom": "0x0000000000000000000000000000000000000000000000000000000000000000",
            "currentDifficulty": "0x00",
            "currentBaseFee": "0x07",
            "currentExcessBlobGas": "0x00"
        },
        "pre": {
            "0x0000000000000000000000000000000000001000": {
                "nonce": "0x01",
                "balance": "0x00",
                "code": "0x6000600060a060006000600d6000f1600155",
                "storage": {}
            },
            "0xa94f5374fce5edbc8e2a8697c15331677e6ebf0b": {
                "nonce": "0x00",
                "balance": "0x038d7ea4c68000",
                "code": "0x",
                "storage": {}
            }
        },
        "transaction": {
            "nonce": "0x00",
            "gasPrice": "0x0a",
            "gasLimit": [
                "0x05f5e100"
            ],
            "to": "0x0000000000000000000000000000000000001000",
            "value": [
                "0x00"
            ],
            "data": [
                "0x"
            ],
            "sender": "0xa94f5374fce5edbc8e2a8697c15331677e6ebf0b",
            "secretKey": "0x45a915e4d060149eb4365960e6a7a45f334393093061116b197e3240065ff2d8"
        },
        "post": {
            "Prague": [
                {
                    "hash": "0x899f2b22c6ba38858d1efe1c6ff4a820542eb767bfb78e7ba5c8d5eb4e0ec870",
                    "logs": "0x1dcc4de8dec75d7aab85b567b6ccd41ad312451b948a7413f0a142fd40d49347",
                    "txbytes": "0xf861800a8405f5e100940000000000000000000000000000000000001000808026a00c80636d627692750a38994c80e17de29770a0e34498f5e6eccd4f233ec21b5fa04c33c43ced36fe3329a16f21f2704902ac998ae26f175265e7b14a6229b1feb1",
                    "indexes": {
                        "data": 0,
                        "gas": 0,
                        "value": 0
                    }
                }
            ]
        },
        "_info": {
            "hash": "0x8cd37b0157b62758d4ccbf862b61d77ebc00e5c07fa980db5f552fda59461b23",
            "comment": "`execution-spec-tests` generated test",
            "filling-transition-tool": "evm version 1.14.6-unstable-7e5dd44a-20240705",
            "description": "Test function documentation:\n\n    Test the BLS12_G1MSM discount gas table in full, by expecting the call to fail for\n    all possible input lengths because the appropriate amount of gas is not provided.\n\n    If any of the calls succeeds, the test will fail.",
            "url": "https://github.com/ethereum/execution-spec-tests/blob/devnet-1@v1.3.0/tests/prague/eip2537_bls_12_381_precompiles/test_bls12_variable_length_input_contracts.py#L141",
            "reference-spec": "https://github.com/ethereum/EIPs/blob/master/EIPS/eip-2537.md",
            "reference-spec-version": "cd0f016ad0c4c68b8b1f5c502ef61ab9353b6e5e"
        }
    },
    "tests/prague/eip2537_bls_12_381_precompiles/test_bls12_variable_length_input_contracts.py::test_invalid_gas_g1msm[fork_Prague-state_test-precompile_address_13---insufficient_gas_full_discount_table]": {
        "env": {
            "currentCoinbase": "0x2adc25665018aa1fe0e6bc666dac8fc2697ff9ba",
            "currentGasLimit": "0x016345785d8a0000",
            "currentNumber": "0x01",
            "currentTimestamp": "0x03e8",
            "currentRandom": "0x0000000000000000000000000000000000000000000000000000000000000000",
            "currentDifficulty": "0x00",
            "currentBaseFee": "0x07",
            "currentExcessBlobGas": "0x00"
        },
        "pre": {
            "0x0000000000000000000000000000000000001000": {
                "nonce": "0x01",
                "balance": "0x00",
                "code": "0x6000600060a060006000600d61383ff16001556000600061014060006000600d61533ff1600255600060006101e060006000600d616b6ff16003556000600061028060006000600d61782ff16004556000600061032060006000600d618b37f1600555600060006103c060006000600d6199d7f16006556000600061046060006000600d61a40ff16007556000600061050060006000600d61a9dff1600855600060006105a060006000600d61b8c7f16009556000600061064060006000600d61c647f1600a55600060006106e060006000600d61d25ff1600b556000600061078060006000600d61dd9ff1600c556000600061082060006000600d61e6f3f1600d55600060006108c060006000600d61eedff1600e556000600061096060006000600d61f563f1600f5560006000610a0060006000600d61fa7ff160105560006000610aa060006000600d620106f7f160115560006000610b4060006000600d6201130ff160125560006000610be060006000600d62011ec7f160135560006000610c8060006000600d62012a1ff160145560006000610d2060006000600d62013517f160155560006000610dc060006000600d62013faff160165560006000610e6060006000600d620149e7f160175560006000610f0060006000600d620153bff160185560006000610fa060006000600d62015d37f16019556000600061104060006000600d6201664ff1601a55600060006110e060006000600d62016dc3f1601b556000600061118060006000600d6201760ff1601c556000600061122060006000600d62017dfbf1601d55600060006112c060006000600d62018587f1601e556000600061136060006000600d62018cb3f1601f556000600061140060006000600d6201937ff1602055600060006114a060006000600d62019e8ff16021556000600061154060006000600d6201a7eff1602255600060006115e060006000600d6201b2c3f16023556000600061168060006000600d6201bbcff16024556000600061172060006000600d6201c667f1602555600060006117c060006000600d6201cf1ff16026556000600061186060006000600d6201d97bf16027556000600061190060006000600d6201e1dff1602855600060006119a060006000600d6201ebfff160295560006000611a4060006000600d6201f40ff1602a5560006000611ae060006000600d6201fdf3f1602b5560006000611b8060006000600d620205aff1602c5560006000611c2060006000600d62020f57f1602d5560006000611cc060006000600d620216bff1602e5560006000611d6060006000600d6202202bf1602f5560006000611e0060006000600d6202273ff160305560006000611ea060006000600d6202306ff160315560006000611f4060006000600d6202372ff160325560006000611fe060006000600d62024023f16033556000600061208060006000600d6202468ff16034556000600061212060006000600d62024f47f1603555600060006121c060006000600d6202555ff16036556000600061226060006000600d62025ddbf16037556000600061230060006000600d6202639ff1603855600060006123a060006000600d62026bdff16039556000600061244060006000600d62027407f1603a55600060006124e060006000600d62027953f1603b556000600061258060006000600d6202813ff1603c556000600061262060006000600d62028637f1603d55600060006126c060006000600d62028de7f1603e556000600061276060006000600d6202928bf1603f556000600061280060006000600d620299fff1604055600060006128a060006000600d6202a15bf16041556000600061294060006000600d6202a89ff1604255600060006129e060006000600d6202afcbf160435560006000612a8060006000600d6202ba0ff160445560006000612b2060006000600d6202c117f160455560006000612bc060006000600d6202c807f160465560006000612c6060006000600d6202cedff160475560006000612d0060006000600d6202d8fff160485560006000612da060006000600d6202dfb3f160495560006000612e4060006000600d6202e64ff1604a5560006000612ee060006000600d6202ecd3f1604b5560006000612f8060006000600d6202f6cff1604c556000600061302060006000600d6202fd2ff1604d55600060006130c060006000600d62030377f1604e556000600061316060006000600d62030d5bf1604f556000600061320060006000600d6203137ff1605055600060006132a060006000600d6203198bf16051556000600061334060006000600d62031f7ff1605255600060006133e060006000600d6203293ff16053556000600061348060006000600d62032f0ff16054556000600061352060006000600d620334c7f1605555600060006135c060006000600d62033a67f16056556000600061366060006000600d62034403f16057556000600061370060006000600d6203497ff1605855600060006137a060006000600d62034ee3f16059556000600061384060006000600d6203542ff1605a55600060006138e060006000600d62035da7f1605b556000600061398060006000600d620362cff1605c5560006000613a2060006000600d620367dff1605d5560006000613ac060006000600d62036cd7f1605e5560006000613b6060006000600d6203762bf1605f5560006000613c0060006000600d62037afff160605560006000613ca060006000600d62037fbbf160615560006000613d4060006000600d6203845ff160625560006000613de060006000600d62038d8ff160635560006000613e8060006000600d6203920ff160645560006000613f2060006000600d62039677f160655560006000613fc060006000600d62039ac7f16066556000600061406060006000600d6203a3d3f16067556000600061410060006000600d6203a7fff1606855600060006141a060006000600d6203ac13f16069556000600061424060006000600d6203b507f1606a55600060006142e060006000600d6203b8f7f1606b556000600061438060006000600d6203bccff1606c556000600061442060006000600d6203c08ff1606d55600060006144c060006000600d6203c95ff1606e556000600061456060006000600d6203ccfbf1606f556000600061460060006000600d6203d07ff1607055600060006146a060006000600d6203d3ebf16071556000600061474060006000600d6203dc97f1607255600060006147e060006000600d6203dfdff16073556000600061488060006000600d6203e30ff16074556000600061492060006000600d6203e627f1607555600060006149c060006000600d6203eeaff160765560006000614a6060006000600d6203f1a3f160775560006000614b0060006000600d6203f47ff160785560006000614ba060006000600d6203f743f160795560006000614c4060006000600d6203ffa7f1607a5560006000614ce060006000600d62040247f1607b5560006000614d8060006000600d620404cff1607c5560006000614e2060006000600d6204073ff1607d5560006000614ec060006000600d62040f7ff1607e5560006000614f6060006000600d620411cbf1607f556000600061500060006000600d620413fff1608055",
                "storage": {}
            },
            "0xa94f5374fce5edbc8e2a8697c15331677e6ebf0b": {
                "nonce": "0x00",
                "balance": "0x038d7ea4c68000",
                "code": "0x",
                "storage": {}
            }
        },
        "transaction": {
            "nonce": "0x00",
            "gasPrice": "0x0a",
            "gasLimit": [
                "0x05f5e100"
            ],
            "to": "0x0000000000000000000000000000000000001000",
            "value": [
                "0x00"
            ],
            "data": [
                "0x"
            ],
            "sender": "0xa94f5374fce5edbc8e2a8697c15331677e6ebf0b",
            "secretKey": "0x45a915e4d060149eb4365960e6a7a45f334393093061116b197e3240065ff2d8"
        },
        "post": {
            "Prague": [
                {
                    "hash": "0x47131a91906a1e1b231fd17321835273a38eef7ef382dc7d4a184ef04a65de1d",
                    "logs": "0x1dcc4de8dec75d7aab85b567b6ccd41ad312451b948a7413f0a142fd40d49347",
                    "txbytes": "0xf861800a8405f5e100940000000000000000000000000000000000001000808026a00c80636d627692750a38994c80e17de29770a0e34498f5e6eccd4f233ec21b5fa04c33c43ced36fe3329a16f21f2704902ac998ae26f175265e7b14a6229b1feb1",
                    "indexes": {
                        "data": 0,
                        "gas": 0,
                        "value": 0
                    }
                }
            ]
        },
        "_info": {
            "hash": "0xe6762b516a70beb95ae6df26e87a4b32eb95915e4d16ebba4fdb0c143493704e",
            "comment": "`execution-spec-tests` generated test",
            "filling-transition-tool": "evm version 1.14.6-unstable-7e5dd44a-20240705",
            "description": "Test function documentation:\n\n    Test the BLS12_G1MSM discount gas table in full, by expecting the call to fail for\n    all possible input lengths because the appropriate amount of gas is not provided.\n\n    If any of the calls succeeds, the test will fail.",
            "url": "https://github.com/ethereum/execution-spec-tests/blob/devnet-1@v1.3.0/tests/prague/eip2537_bls_12_381_precompiles/test_bls12_variable_length_input_contracts.py#L141",
            "reference-spec": "https://github.com/ethereum/EIPs/blob/master/EIPS/eip-2537.md",
            "reference-spec-version": "cd0f016ad0c4c68b8b1f5c502ef61ab9353b6e5e"
        }
    }
}