{
    "tests/prague/eip2537_bls_12_381_precompiles/test_bls12_variable_length_input_contracts.py::test_valid_gas_g2msm[fork_Prague-state_test-precompile_address_16---exact_gas_full_discount_table]": {
        "env": {
            "currentCoinbase": "0x2adc25665018aa1fe0e6bc666dac8fc2697ff9ba",
            "currentGasLimit": "0x016345785d8a0000",
            "currentNumber": "0x01",
            "currentTimestamp": "0x03e8",
            "currentRandom": "0x0000000000000000000000000000000000000000000000000000000000000000",
            "currentDifficulty": "0x00",
            "currentBaseFee": "0x07",
            "currentExcessBlobGas": "0x00"
        },
        "pre": {
            "0x0000000000000000000000000000000000001000": {
                "nonce": "0x01",
                "balance": "0x00",
                "code": "0x6000600061012060006000601061d2f0f16001556000600061024060006000601062013830f160025560006000610360600060006010620192e4f1600355600060006104806000600060106201c2b4f1600455600060006105a060006000601062020a12f1600555600060006106c0600060006010620240eaf1600655600060006107e06000600060106202673cf16007556000600061090060006000601062027d08f160085560006000610a206000600060106202b4eef160095560006000610b406000600060106202e78ef1600a5560006000610c60600060006010620314e8f1600b5560006000610d8060006000601062033f18f1600c5560006000610ea060006000601062036213f1600d5560006000610fc060006000601062037fc8f1600e55600060006110e060006000601062039837f1600f55600060006112006000600060106203ab60f1601055600060006113206000600060106203da22f1601155600060006114406000600060106204077cf1601255600060006115606000600060106204336ef16013556000600061168060006000601062045df8f1601455600060006117a06000600060106204871af1601555600060006118c06000600060106204aed4f1601655600060006119e06000600060106204d526f160175560006000611b006000600060106204fa10f160185560006000611c2060006000601062051d92f160195560006000611d4060006000601062053facf1601a5560006000611e6060006000601062055b9ff1601b5560006000611f8060006000601062057abcf1601c55600060006120a060006000601062059871f1601d55600060006121c06000600060106205b4bef1601e55600060006122e06000600060106205cfa3f1601f55600060006124006000600060106205e920f1602055600060006125206000600060106206129cf160215560006000612640600060006010620635c4f16022556000600061276060006000601062065e5ff1602355600060006128806000600060106206804cf1602455600060006129a06000600060106206a806f160255560006000612ac06000600060106206c8b8f160265560006000612be06000600060106206ef91f160275560006000612d0060006000601062070f08f160285560006000612e2060006000601062073500f160295560006000612f406000600060106207533cf1602a556000600061306060006000601062077853f1602b556000600061318060006000601062079554f1602c55600060006132a06000600060106207b98af1602d55600060006133c06000600060106207d550f1602e55600060006134e06000600060106207f8a5f1602f556000600061360060006000601062081330f160305560006000613720600060006010620835a4f16031556000600061384060006000601062084ef4f16032556000600061396060006000601062087087f160335560006000613a806000600060106208889cf160345560006000613ba06000600060106208a94ef160355560006000613cc06000600060106208c028f160365560006000613de06000600060106208dff9f160375560006000613f006000600060106208f598f16038556000600061402060006000601062091488f1603955600060006141406000600060106209331ef1603a5560006000614260600060006010620946fbf1603b5560006000614380600060006010620964b0f1603c55600060006144a060006000601062097752f1603d55600060006145c060006000601062099426f1603e55600060006146e06000600060106209a58df1603f55600060006148006000600060106209c180f1604055600060006149206000600060106209dd19f160415560006000614a406000600060106209f858f160425560006000614b60600060006010620a133df160435560006000614c80600060006010620a39bcf160445560006000614da0600060006010620a541af160455560006000614ec0600060006010620a6e1ef160465560006000614fe0600060006010620a87c8f160475560006000615100600060006010620aadc0f160485560006000615220600060006010620ac6e3f160495560006000615340600060006010620adfacf1604a5560006000615460600060006010620af81bf1604b5560006000615580600060006010620b1d8cf1604c55600060006156a0600060006010620b3574f1604d55600060006157c0600060006010620b4d02f1604e55600060006158e0600060006010620b7219f1604f5560006000615a00600060006010620b8920f160505560006000615b20600060006010620b9fcdf160515560006000615c40600060006010620bb620f160525560006000615d60600060006010620bdab0f160535560006000615e80600060006010620bf07cf160545560006000615fa0600060006010620c05eef1605555600060006160c0600060006010620c1b06f1605655600060006161e0600060006010620c3f0ff160575560006000616300600060006010620c53a0f160585560006000616420600060006010620c67d7f160595560006000616540600060006010620c7bb4f1605a5560006000616660600060006010620c9f36f1605b5560006000616780600060006010620cb28cf1605c55600060006168a0600060006010620cc588f1605d55600060006169c0600060006010620cd82af1605e5560006000616ae0600060006010620cfb25f1605f5560006000616c00600060006010620d0d40f160605560006000616d20600060006010620d1f01f160615560006000616e40600060006010620d3068f160625560006000616f60600060006010620d52dcf160635560006000617080600060006010620d63bcf1606455600060006171a0600060006010620d7442f1606555600060006172c0600060006010620d846ef1606655600060006173e0600060006010620da65bf160675560006000617500600060006010620db600f160685560006000617620600060006010620dc54bf160695560006000617740600060006010620de6def1606a5560006000617860600060006010620df5a2f1606b5560006000617980600060006010620e040cf1606c5560006000617aa0600060006010620e121cf1606d5560006000617bc0600060006010620e3328f1606e5560006000617ce0600060006010620e40b1f1606f5560006000617e00600060006010620e4de0f160705560006000617f20600060006010620e5ab5f160715560006000618040600060006010620e7b3af160725560006000618160600060006010620e8788f160735560006000618280600060006010620e937cf1607455600060006183a0600060006010620e9f16f1607555600060006184c0600060006010620ebf14f1607655600060006185e0600060006010620eca27f160775560006000618700600060006010620ed4e0f160785560006000618820600060006010620edf3ff160795560006000618940600060006010620efeb6f1607a5560006000618a60600060006010620f088ef1607b5560006000618b80600060006010620f120cf1607c5560006000618ca0600060006010620f1b30f1607d5560006000618dc0600060006010620f3a20f1607e5560006000618ee0600060006010620f42bdf1607f5560006000619000600060006010620f4b00f1608055",
                "storage": {}
            },
            "0xa94f5374fce5edbc8e2a8697c15331677e6ebf0b": {
                "nonce": "0x00",
                "balance": "0x038d7ea4c68000",
                "code": "0x",
                "storage": {}
            }
        },
        "transaction": {
            "nonce": "0x00",
            "gasPrice": "0x0a",
            "gasLimit": [
                "0x05f5e100"
            ],
            "to": "0x0000000000000000000000000000000000001000",
            "value": [
                "0x00"
            ],
            "data": [
                "0x"
            ],
            "sender": "0xa94f5374fce5edbc8e2a8697c15331677e6ebf0b",
            "secretKey": "0x45a915e4d060149eb4365960e6a7a45f334393093061116b197e3240065ff2d8"
        },
        "post": {
            "Prague": [
                {
                    "hash": "0xf9ecc8ae76320ef57f8ff76ba05a570f2db8ab0a78598f2a5515a96e58b43318",
                    "logs": "0x1dcc4de8dec75d7aab85b567b6ccd41ad312451b948a7413f0a142fd40d49347",
                    "txbytes": "0xf861800a8405f5e100940000000000000000000000000000000000001000808026a00c80636d627692750a38994c80e17de29770a0e34498f5e6eccd4f233ec21b5fa04c33c43ced36fe3329a16f21f2704902ac998ae26f175265e7b14a6229b1feb1",
                    "indexes": {
                        "data": 0,
                        "gas": 0,
                        "value": 0
                    }
                }
            ]
        },
        "_info": {
            "hash": "0xe67b60c9fa1e1a7e6bc51c5938e029ec9e35fe4f403ec0a25b2252cea47ce92b",
            "comment": "`execution-spec-tests` generated test",
            "filling-transition-tool": "evm version 1.14.6-unstable-7e5dd44a-20240705",
            "description": "Test function documentation:\n\n    Test the BLS12_G2MSM discount gas table in full, by expecting the call to succeed for\n    all possible input lengths because the appropriate amount of gas is provided.\n\n    If any of the calls fail, the test will fail.",
            "url": "https://github.com/ethereum/execution-spec-tests/blob/devnet-1@v1.3.0/tests/prague/eip2537_bls_12_381_precompiles/test_bls12_variable_length_input_contracts.py#L225",
            "reference-spec": "https://github.com/ethereum/EIPs/blob/master/EIPS/eip-2537.md",
            "reference-spec-version": "cd0f016ad0c4c68b8b1f5c502ef61ab9353b6e5e"
        }
    },
    "tests/prague/eip2537_bls_12_381_precompiles/test_bls12_variable_length_input_contracts.py::test_valid_gas_g2msm[fork_Prague-state_test-precompile_address_16---one_extra_gas_full_discount_table]": {
        "env": {
            "currentCoinbase": "0x2adc25665018aa1fe0e6bc666dac8fc2697ff9ba",
            "currentGasLimit": "0x016345785d8a0000",
            "currentNumber": "0x01",
            "currentTimestamp": "0x03e8",
            "currentRandom": "0x0000000000000000000000000000000000000000000000000000000000000000",
            "currentDifficulty": "0x00",
            "currentBaseFee": "0x07",
            "currentExcessBlobGas": "0x00"
        },
        "pre": {
            "0x0000000000000000000000000000000000001000": {
                "nonce": "0x01",
                "balance": "0x00",
                "code": "0x6000600061012060006000601061d2f1f16001556000600061024060006000601062013831f160025560006000610360600060006010620192e5f1600355600060006104806000600060106201c2b5f1600455600060006105a060006000601062020a13f1600555600060006106c0600060006010620240ebf1600655600060006107e06000600060106202673df16007556000600061090060006000601062027d09f160085560006000610a206000600060106202b4eff160095560006000610b406000600060106202e78ff1600a5560006000610c60600060006010620314e9f1600b5560006000610d8060006000601062033f19f1600c5560006000610ea060006000601062036214f1600d5560006000610fc060006000601062037fc9f1600e55600060006110e060006000601062039838f1600f55600060006112006000600060106203ab61f1601055600060006113206000600060106203da23f1601155600060006114406000600060106204077df1601255600060006115606000600060106204336ff16013556000600061168060006000601062045df9f1601455600060006117a06000600060106204871bf1601555600060006118c06000600060106204aed5f1601655600060006119e06000600060106204d527f160175560006000611b006000600060106204fa11f160185560006000611c2060006000601062051d93f160195560006000611d4060006000601062053fadf1601a5560006000611e6060006000601062055ba0f1601b5560006000611f8060006000601062057abdf1601c55600060006120a060006000601062059872f1601d55600060006121c06000600060106205b4bff1601e55600060006122e06000600060106205cfa4f1601f55600060006124006000600060106205e921f1602055600060006125206000600060106206129df160215560006000612640600060006010620635c5f16022556000600061276060006000601062065e60f1602355600060006128806000600060106206804df1602455600060006129a06000600060106206a807f160255560006000612ac06000600060106206c8b9f160265560006000612be06000600060106206ef92f160275560006000612d0060006000601062070f09f160285560006000612e2060006000601062073501f160295560006000612f406000600060106207533df1602a556000600061306060006000601062077854f1602b556000600061318060006000601062079555f1602c55600060006132a06000600060106207b98bf1602d55600060006133c06000600060106207d551f1602e55600060006134e06000600060106207f8a6f1602f556000600061360060006000601062081331f160305560006000613720600060006010620835a5f16031556000600061384060006000601062084ef5f16032556000600061396060006000601062087088f160335560006000613a806000600060106208889df160345560006000613ba06000600060106208a94ff160355560006000613cc06000600060106208c029f160365560006000613de06000600060106208dffaf160375560006000613f006000600060106208f599f16038556000600061402060006000601062091489f1603955600060006141406000600060106209331ff1603a5560006000614260600060006010620946fcf1603b5560006000614380600060006010620964b1f1603c55600060006144a060006000601062097753f1603d55600060006145c060006000601062099427f1603e55600060006146e06000600060106209a58ef1603f55600060006148006000600060106209c181f1604055600060006149206000600060106209dd1af160415560006000614a406000600060106209f859f160425560006000614b60600060006010620a133ef160435560006000614c80600060006010620a39bdf160445560006000614da0600060006010620a541bf160455560006000614ec0600060006010620a6e1ff160465560006000614fe0600060006010620a87c9f160475560006000615100600060006010620aadc1f160485560006000615220600060006010620ac6e4f160495560006000615340600060006010620adfadf1604a5560006000615460600060006010620af81cf1604b5560006000615580600060006010620b1d8df1604c55600060006156a0600060006010620b3575f1604d55600060006157c0600060006010620b4d03f1604e55600060006158e0600060006010620b721af1604f5560006000615a00600060006010620b8921f160505560006000615b20600060006010620b9fcef160515560006000615c40600060006010620bb621f160525560006000615d60600060006010620bdab1f160535560006000615e80600060006010620bf07df160545560006000615fa0600060006010620c05eff1605555600060006160c0600060006010620c1b07f1605655600060006161e0600060006010620c3f10f160575560006000616300600060006010620c53a1f160585560006000616420600060006010620c67d8f160595560006000616540600060006010620c7bb5f1605a5560006000616660600060006010620c9f37f1605b5560006000616780600060006010620cb28df1605c55600060006168a0600060006010620cc589f1605d55600060006169c0600060006010620cd82bf1605e5560006000616ae0600060006010620cfb26f1605f5560006000616c00600060006010620d0d41f160605560006000616d20600060006010620d1f02f160615560006000616e40600060006010620d3069f160625560006000616f60600060006010620d52ddf160635560006000617080600060006010620d63bdf1606455600060006171a0600060006010620d7443f1606555600060006172c0600060006010620d846ff1606655600060006173e0600060006010620da65cf160675560006000617500600060006010620db601f160685560006000617620600060006010620dc54cf160695560006000617740600060006010620de6dff1606a5560006000617860600060006010620df5a3f1606b5560006000617980600060006010620e040df1606c5560006000617aa0600060006010620e121df1606d5560006000617bc0600060006010620e3329f1606e5560006000617ce0600060006010620e40b2f1606f5560006000617e00600060006010620e4de1f160705560006000617f20600060006010620e5ab6f160715560006000618040600060006010620e7b3bf160725560006000618160600060006010620e8789f160735560006000618280600060006010620e937df1607455600060006183a0600060006010620e9f17f1607555600060006184c0600060006010620ebf15f1607655600060006185e0600060006010620eca28f160775560006000618700600060006010620ed4e1f160785560006000618820600060006010620edf40f160795560006000618940600060006010620efeb7f1607a5560006000618a60600060006010620f088ff1607b5560006000618b80600060006010620f120df1607c5560006000618ca0600060006010620f1b31f1607d5560006000618dc0600060006010620f3a21f1607e5560006000618ee0600060006010620f42bef1607f5560006000619000600060006010620f4b01f1608055",
                "storage": {}
            },
            "0xa94f5374fce5edbc8e2a8697c15331677e6ebf0b": {
                "nonce": "0x00",
                "balance": "0x038d7ea4c68000",
                "code": "0x",
                "storage": {}
            }
        },
        "transaction": {
            "nonce": "0x00",
            "gasPrice": "0x0a",
            "gasLimit": [
                "0x05f5e100"
            ],
            "to": "0x0000000000000000000000000000000000001000",
            "value": [
                "0x00"
            ],
            "data": [
                "0x"
            ],
            "sender": "0xa94f5374fce5edbc8e2a8697c15331677e6ebf0b",
            "secretKey": "0x45a915e4d060149eb4365960e6a7a45f334393093061116b197e3240065ff2d8"
        },
        "post": {
            "Prague": [
                {
                    "hash": "0x6ae08d5ef977945d1e7c9ab0f8fb37393439c948f116caf653afc14806f2e51b",
                    "logs": "0x1dcc4de8dec75d7aab85b567b6ccd41ad312451b948a7413f0a142fd40d49347",
                    "txbytes": "0xf861800a8405f5e100940000000000000000000000000000000000001000808026a00c80636d627692750a38994c80e17de29770a0e34498f5e6eccd4f233ec21b5fa04c33c43ced36fe3329a16f21f2704902ac998ae26f175265e7b14a6229b1feb1",
                    "indexes": {
                        "data": 0,
                        "gas": 0,
                        "value": 0
                    }
                }
            ]
        },
        "_info": {
            "hash": "0xcec123929f0f0c26262be823ad55e31d8310b1695add5431832d759b6bfa2ea4",
            "comment": "`execution-spec-tests` generated test",
            "filling-transition-tool": "evm version 1.14.6-unstable-7e5dd44a-20240705",
            "description": "Test function documentation:\n\n    Test the BLS12_G2MSM discount gas table in full, by expecting the call to succeed for\n    all possible input lengths because the appropriate amount of gas is provided.\n\n    If any of the calls fail, the test will fail.",
            "url": "https://github.com/ethereum/execution-spec-tests/blob/devnet-1@v1.3.0/tests/prague/eip2537_bls_12_381_precompiles/test_bls12_variable_length_input_contracts.py#L225",
            "reference-spec": "https://github.com/ethereum/EIPs/blob/master/EIPS/eip-2537.md",
            "reference-spec-version": "cd0f016ad0c4c68b8b1f5c502ef61ab9353b6e5e"
        }
    }
}