{
    "tests/prague/eip2537_bls_12_381_precompiles/test_bls12_variable_length_input_contracts.py::test_valid_gas_pairing[fork_Prague-state_test-precompile_address_17---sufficient_gas]": {
        "env": {
            "currentCoinbase": "0x2adc25665018aa1fe0e6bc666dac8fc2697ff9ba",
            "currentGasLimit": "0x016345785d8a0000",
            "currentNumber": "0x01",
            "currentTimestamp": "0x03e8",
            "currentRandom": "0x0000000000000000000000000000000000000000000000000000000000000000",
            "currentDifficulty": "0x00",
            "currentBaseFee": "0x07",
            "currentExcessBlobGas": "0x00"
        },
        "pre": {
            "0x0000000000000000000000000000000000001000": {
                "nonce": "0x01",
                "balance": "0x00",
                "code": "0x600060006101806000600060116201a5e0f16001556000600061030060006000601162024dd8f1600255600060006104806000600060116202f5d0f16003556000600061060060006000601162039dc8f160045560006000610780600060006011620445c0f1600555600060006109006000600060116204edb8f160065560006000610a80600060006011620595b0f160075560006000610c0060006000601162063da8f160085560006000610d806000600060116206e5a0f160095560006000610f0060006000601162078d98f1600a556000600061108060006000601162083590f1600b55600060006112006000600060116208dd88f1600c556000600061138060006000601162098580f1600d5560006000611500600060006011620a2d78f1600e5560006000611680600060006011620ad570f1600f5560006000611800600060006011620b7d68f160105560006000611980600060006011620c2560f160115560006000611b00600060006011620ccd58f160125560006000611c80600060006011620d7550f160135560006000611e00600060006011620e1d48f1601455",
                "storage": {}
            },
            "0xa94f5374fce5edbc8e2a8697c15331677e6ebf0b": {
                "nonce": "0x00",
                "balance": "0x038d7ea4c68000",
                "code": "0x",
                "storage": {}
            }
        },
        "transaction": {
            "nonce": "0x00",
            "gasPrice": "0x0a",
            "gasLimit": [
                "0x05f5e100"
            ],
            "to": "0x0000000000000000000000000000000000001000",
            "value": [
                "0x00"
            ],
            "data": [
                "0x"
            ],
            "sender": "0xa94f5374fce5edbc8e2a8697c15331677e6ebf0b",
            "secretKey": "0x45a915e4d060149eb4365960e6a7a45f334393093061116b197e3240065ff2d8"
        },
        "post": {
            "Prague": [
                {
                    "hash": "0x7c1922b660f4fc94ce79cb2e830c7892cf93de35561f64fe9b6747bff42f09d2",
                    "logs": "0x1dcc4de8dec75d7aab85b567b6ccd41ad312451b948a7413f0a142fd40d49347",
                    "txbytes": "0xf861800a8405f5e100940000000000000000000000000000000000001000808026a00c80636d627692750a38994c80e17de29770a0e34498f5e6eccd4f233ec21b5fa04c33c43ced36fe3329a16f21f2704902ac998ae26f175265e7b14a6229b1feb1",
                    "indexes": {
                        "data": 0,
                        "gas": 0,
                        "value": 0
                    }
                }
            ]
        },
        "_info": {
            "hash": "0x54a1fb81719a4537f0b9bdfefc78ad7520479052438586c2673fd2a072c9e39b",
            "comment": "`execution-spec-tests` generated test",
            "filling-transition-tool": "evm version 1.14.6-unstable-7e5dd44a-20240705",
            "description": "Test function documentation:\n\n    Test the BLS12_PAIRING precompile, by expecting the call to succeed for all possible input\n    lengths (up to k == PAIRINGS_TO_TEST).\n\n    If any of the calls fails, the test will fail.",
            "url": "https://github.com/ethereum/execution-spec-tests/blob/devnet-1@v1.3.0/tests/prague/eip2537_bls_12_381_precompiles/test_bls12_variable_length_input_contracts.py#L350",
            "reference-spec": "https://github.com/ethereum/EIPs/blob/master/EIPS/eip-2537.md",
            "reference-spec-version": "cd0f016ad0c4c68b8b1f5c502ef61ab9353b6e5e"
        }
    },
    "tests/prague/eip2537_bls_12_381_precompiles/test_bls12_variable_length_input_contracts.py::test_valid_gas_pairing[fork_Prague-state_test-precompile_address_17---extra_gas]": {
        "env": {
            "currentCoinbase": "0x2adc25665018aa1fe0e6bc666dac8fc2697ff9ba",
            "currentGasLimit": "0x016345785d8a0000",
            "currentNumber": "0x01",
            "currentTimestamp": "0x03e8",
            "currentRandom": "0x0000000000000000000000000000000000000000000000000000000000000000",
            "currentDifficulty": "0x00",
            "currentBaseFee": "0x07",
            "currentExcessBlobGas": "0x00"
        },
        "pre": {
            "0x0000000000000000000000000000000000001000": {
                "nonce": "0x01",
                "balance": "0x00",
                "code": "0x600060006101806000600060116201a5e1f16001556000600061030060006000601162024dd9f1600255600060006104806000600060116202f5d1f16003556000600061060060006000601162039dc9f160045560006000610780600060006011620445c1f1600555600060006109006000600060116204edb9f160065560006000610a80600060006011620595b1f160075560006000610c0060006000601162063da9f160085560006000610d806000600060116206e5a1f160095560006000610f0060006000601162078d99f1600a556000600061108060006000601162083591f1600b55600060006112006000600060116208dd89f1600c556000600061138060006000601162098581f1600d5560006000611500600060006011620a2d79f1600e5560006000611680600060006011620ad571f1600f5560006000611800600060006011620b7d69f160105560006000611980600060006011620c2561f160115560006000611b00600060006011620ccd59f160125560006000611c80600060006011620d7551f160135560006000611e00600060006011620e1d49f1601455",
                "storage": {}
            },
            "0xa94f5374fce5edbc8e2a8697c15331677e6ebf0b": {
                "nonce": "0x00",
                "balance": "0x038d7ea4c68000",
                "code": "0x",
                "storage": {}
            }
        },
        "transaction": {
            "nonce": "0x00",
            "gasPrice": "0x0a",
            "gasLimit": [
                "0x05f5e100"
            ],
            "to": "0x0000000000000000000000000000000000001000",
            "value": [
                "0x00"
            ],
            "data": [
                "0x"
            ],
            "sender": "0xa94f5374fce5edbc8e2a8697c15331677e6ebf0b",
            "secretKey": "0x45a915e4d060149eb4365960e6a7a45f334393093061116b197e3240065ff2d8"
        },
        "post": {
            "Prague": [
                {
                    "hash": "0x53157a8283f55999c3f35309f6d2a59e66b2b4bce07195e5c338481801fce2c8",
                    "logs": "0x1dcc4de8dec75d7aab85b567b6ccd41ad312451b948a7413f0a142fd40d49347",
                    "txbytes": "0xf861800a8405f5e100940000000000000000000000000000000000001000808026a00c80636d627692750a38994c80e17de29770a0e34498f5e6eccd4f233ec21b5fa04c33c43ced36fe3329a16f21f2704902ac998ae26f175265e7b14a6229b1feb1",
                    "indexes": {
                        "data": 0,
                        "gas": 0,
                        "value": 0
                    }
                }
            ]
        },
        "_info": {
            "hash": "0x5143d52a3e4f7a522e2491c46e66e02b22df0332f8e458d25f34adf851ef823a",
            "comment": "`execution-spec-tests` generated test",
            "filling-transition-tool": "evm version 1.14.6-unstable-7e5dd44a-20240705",
            "description": "Test function documentation:\n\n    Test the BLS12_PAIRING precompile, by expecting the call to succeed for all possible input\n    lengths (up to k == PAIRINGS_TO_TEST).\n\n    If any of the calls fails, the test will fail.",
            "url": "https://github.com/ethereum/execution-spec-tests/blob/devnet-1@v1.3.0/tests/prague/eip2537_bls_12_381_precompiles/test_bls12_variable_length_input_contracts.py#L350",
            "reference-spec": "https://github.com/ethereum/EIPs/blob/master/EIPS/eip-2537.md",
            "reference-spec-version": "cd0f016ad0c4c68b8b1f5c502ef61ab9353b6e5e"
        }
    }
}