{
    "tests/prague/eip2537_bls_12_381_precompiles/test_bls12_variable_length_input_contracts.py::test_valid_gas_g1msm[fork_Prague-state_test-precompile_address_13---exact_gas_full_discount_table]": {
        "env": {
            "currentCoinbase": "0x2adc25665018aa1fe0e6bc666dac8fc2697ff9ba",
            "currentGasLimit": "0x016345785d8a0000",
            "currentNumber": "0x01",
            "currentTimestamp": "0x03e8",
            "currentRandom": "0x0000000000000000000000000000000000000000000000000000000000000000",
            "currentDifficulty": "0x00",
            "currentBaseFee": "0x07",
            "currentExcessBlobGas": "0x00"
        },
        "pre": {
            "0x0000000000000000000000000000000000001000": {
                "nonce": "0x01",
                "balance": "0x00",
                "code": "0x6000600060a060006000600d613840f16001556000600061014060006000600d615340f1600255600060006101e060006000600d616b70f16003556000600061028060006000600d617830f16004556000600061032060006000600d618b38f1600555600060006103c060006000600d6199d8f16006556000600061046060006000600d61a410f16007556000600061050060006000600d61a9e0f1600855600060006105a060006000600d61b8c8f16009556000600061064060006000600d61c648f1600a55600060006106e060006000600d61d260f1600b556000600061078060006000600d61dda0f1600c556000600061082060006000600d61e6f4f1600d55600060006108c060006000600d61eee0f1600e556000600061096060006000600d61f564f1600f5560006000610a0060006000600d61fa80f160105560006000610aa060006000600d620106f8f160115560006000610b4060006000600d62011310f160125560006000610be060006000600d62011ec8f160135560006000610c8060006000600d62012a20f160145560006000610d2060006000600d62013518f160155560006000610dc060006000600d62013fb0f160165560006000610e6060006000600d620149e8f160175560006000610f0060006000600d620153c0f160185560006000610fa060006000600d62015d38f16019556000600061104060006000600d62016650f1601a55600060006110e060006000600d62016dc4f1601b556000600061118060006000600d62017610f1601c556000600061122060006000600d62017dfcf1601d55600060006112c060006000600d62018588f1601e556000600061136060006000600d62018cb4f1601f556000600061140060006000600d62019380f1602055600060006114a060006000600d62019e90f16021556000600061154060006000600d6201a7f0f1602255600060006115e060006000600d6201b2c4f16023556000600061168060006000600d6201bbd0f16024556000600061172060006000600d6201c668f1602555600060006117c060006000600d6201cf20f16026556000600061186060006000600d6201d97cf16027556000600061190060006000600d6201e1e0f1602855600060006119a060006000600d6201ec00f160295560006000611a4060006000600d6201f410f1602a5560006000611ae060006000600d6201fdf4f1602b5560006000611b8060006000600d620205b0f1602c5560006000611c2060006000600d62020f58f1602d5560006000611cc060006000600d620216c0f1602e5560006000611d6060006000600d6202202cf1602f5560006000611e0060006000600d62022740f160305560006000611ea060006000600d62023070f160315560006000611f4060006000600d62023730f160325560006000611fe060006000600d62024024f16033556000600061208060006000600d62024690f16034556000600061212060006000600d62024f48f1603555600060006121c060006000600d62025560f16036556000600061226060006000600d62025ddcf16037556000600061230060006000600d620263a0f1603855600060006123a060006000600d62026be0f16039556000600061244060006000600d62027408f1603a55600060006124e060006000600d62027954f1603b556000600061258060006000600d62028140f1603c556000600061262060006000600d62028638f1603d55600060006126c060006000600d62028de8f1603e556000600061276060006000600d6202928cf1603f556000600061280060006000600d62029a00f1604055600060006128a060006000600d6202a15cf16041556000600061294060006000600d6202a8a0f1604255600060006129e060006000600d6202afccf160435560006000612a8060006000600d6202ba10f160445560006000612b2060006000600d6202c118f160455560006000612bc060006000600d6202c808f160465560006000612c6060006000600d6202cee0f160475560006000612d0060006000600d6202d900f160485560006000612da060006000600d6202dfb4f160495560006000612e4060006000600d6202e650f1604a5560006000612ee060006000600d6202ecd4f1604b5560006000612f8060006000600d6202f6d0f1604c556000600061302060006000600d6202fd30f1604d55600060006130c060006000600d62030378f1604e556000600061316060006000600d62030d5cf1604f556000600061320060006000600d62031380f1605055600060006132a060006000600d6203198cf16051556000600061334060006000600d62031f80f1605255600060006133e060006000600d62032940f16053556000600061348060006000600d62032f10f16054556000600061352060006000600d620334c8f1605555600060006135c060006000600d62033a68f16056556000600061366060006000600d62034404f16057556000600061370060006000600d62034980f1605855600060006137a060006000600d62034ee4f16059556000600061384060006000600d62035430f1605a55600060006138e060006000600d62035da8f1605b556000600061398060006000600d620362d0f1605c5560006000613a2060006000600d620367e0f1605d5560006000613ac060006000600d62036cd8f1605e5560006000613b6060006000600d6203762cf1605f5560006000613c0060006000600d62037b00f160605560006000613ca060006000600d62037fbcf160615560006000613d4060006000600d62038460f160625560006000613de060006000600d62038d90f160635560006000613e8060006000600d62039210f160645560006000613f2060006000600d62039678f160655560006000613fc060006000600d62039ac8f16066556000600061406060006000600d6203a3d4f16067556000600061410060006000600d6203a800f1606855600060006141a060006000600d6203ac14f16069556000600061424060006000600d6203b508f1606a55600060006142e060006000600d6203b8f8f1606b556000600061438060006000600d6203bcd0f1606c556000600061442060006000600d6203c090f1606d55600060006144c060006000600d6203c960f1606e556000600061456060006000600d6203ccfcf1606f556000600061460060006000600d6203d080f1607055600060006146a060006000600d6203d3ecf16071556000600061474060006000600d6203dc98f1607255600060006147e060006000600d6203dfe0f16073556000600061488060006000600d6203e310f16074556000600061492060006000600d6203e628f1607555600060006149c060006000600d6203eeb0f160765560006000614a6060006000600d6203f1a4f160775560006000614b0060006000600d6203f480f160785560006000614ba060006000600d6203f744f160795560006000614c4060006000600d6203ffa8f1607a5560006000614ce060006000600d62040248f1607b5560006000614d8060006000600d620404d0f1607c5560006000614e2060006000600d62040740f1607d5560006000614ec060006000600d62040f80f1607e5560006000614f6060006000600d620411ccf1607f556000600061500060006000600d62041400f1608055",
                "storage": {}
            },
            "0xa94f5374fce5edbc8e2a8697c15331677e6ebf0b": {
                "nonce": "0x00",
                "balance": "0x038d7ea4c68000",
                "code": "0x",
                "storage": {}
            }
        },
        "transaction": {
            "nonce": "0x00",
            "gasPrice": "0x0a",
            "gasLimit": [
                "0x05f5e100"
            ],
            "to": "0x0000000000000000000000000000000000001000",
            "value": [
                "0x00"
            ],
            "data": [
                "0x"
            ],
            "sender": "0xa94f5374fce5edbc8e2a8697c15331677e6ebf0b",
            "secretKey": "0x45a915e4d060149eb4365960e6a7a45f334393093061116b197e3240065ff2d8"
        },
        "post": {
            "Prague": [
                {
                    "hash": "0x7af92e962c68bff9d4377c2b420d8a13b86f1d1b279144131a4979d65223f71e",
                    "logs": "0x1dcc4de8dec75d7aab85b567b6ccd41ad312451b948a7413f0a142fd40d49347",
                    "txbytes": "0xf861800a8405f5e100940000000000000000000000000000000000001000808026a00c80636d627692750a38994c80e17de29770a0e34498f5e6eccd4f233ec21b5fa04c33c43ced36fe3329a16f21f2704902ac998ae26f175265e7b14a6229b1feb1",
                    "indexes": {
                        "data": 0,
                        "gas": 0,
                        "value": 0
                    }
                }
            ]
        },
        "_info": {
            "hash": "0x91c09df0bd9167ce3ff01397012187be43e66334c2bb0ec17eeb2865b9ebbacd",
            "comment": "`execution-spec-tests` generated test",
            "filling-transition-tool": "evm version 1.14.6-unstable-7e5dd44a-20240705",
            "description": "Test function documentation:\n\n    Test the BLS12_G1MSM discount gas table in full, by expecting the call to succeed for\n    all possible input lengths because the appropriate amount of gas is provided.\n\n    If any of the calls fail, the test will fail.",
            "url": "https://github.com/ethereum/execution-spec-tests/blob/devnet-1@v1.3.0/tests/prague/eip2537_bls_12_381_precompiles/test_bls12_variable_length_input_contracts.py#L100",
            "reference-spec": "https://github.com/ethereum/EIPs/blob/master/EIPS/eip-2537.md",
            "reference-spec-version": "cd0f016ad0c4c68b8b1f5c502ef61ab9353b6e5e"
        }
    },
    "tests/prague/eip2537_bls_12_381_precompiles/test_bls12_variable_length_input_contracts.py::test_valid_gas_g1msm[fork_Prague-state_test-precompile_address_13---one_extra_gas_full_discount_table]": {
        "env": {
            "currentCoinbase": "0x2adc25665018aa1fe0e6bc666dac8fc2697ff9ba",
            "currentGasLimit": "0x016345785d8a0000",
            "currentNumber": "0x01",
            "currentTimestamp": "0x03e8",
            "currentRandom": "0x0000000000000000000000000000000000000000000000000000000000000000",
            "currentDifficulty": "0x00",
            "currentBaseFee": "0x07",
            "currentExcessBlobGas": "0x00"
        },
        "pre": {
            "0x0000000000000000000000000000000000001000": {
                "nonce": "0x01",
                "balance": "0x00",
                "code": "0x6000600060a060006000600d613841f16001556000600061014060006000600d615341f1600255600060006101e060006000600d616b71f16003556000600061028060006000600d617831f16004556000600061032060006000600d618b39f1600555600060006103c060006000600d6199d9f16006556000600061046060006000600d61a411f16007556000600061050060006000600d61a9e1f1600855600060006105a060006000600d61b8c9f16009556000600061064060006000600d61c649f1600a55600060006106e060006000600d61d261f1600b556000600061078060006000600d61dda1f1600c556000600061082060006000600d61e6f5f1600d55600060006108c060006000600d61eee1f1600e556000600061096060006000600d61f565f1600f5560006000610a0060006000600d61fa81f160105560006000610aa060006000600d620106f9f160115560006000610b4060006000600d62011311f160125560006000610be060006000600d62011ec9f160135560006000610c8060006000600d62012a21f160145560006000610d2060006000600d62013519f160155560006000610dc060006000600d62013fb1f160165560006000610e6060006000600d620149e9f160175560006000610f0060006000600d620153c1f160185560006000610fa060006000600d62015d39f16019556000600061104060006000600d62016651f1601a55600060006110e060006000600d62016dc5f1601b556000600061118060006000600d62017611f1601c556000600061122060006000600d62017dfdf1601d55600060006112c060006000600d62018589f1601e556000600061136060006000600d62018cb5f1601f556000600061140060006000600d62019381f1602055600060006114a060006000600d62019e91f16021556000600061154060006000600d6201a7f1f1602255600060006115e060006000600d6201b2c5f16023556000600061168060006000600d6201bbd1f16024556000600061172060006000600d6201c669f1602555600060006117c060006000600d6201cf21f16026556000600061186060006000600d6201d97df16027556000600061190060006000600d6201e1e1f1602855600060006119a060006000600d6201ec01f160295560006000611a4060006000600d6201f411f1602a5560006000611ae060006000600d6201fdf5f1602b5560006000611b8060006000600d620205b1f1602c5560006000611c2060006000600d62020f59f1602d5560006000611cc060006000600d620216c1f1602e5560006000611d6060006000600d6202202df1602f5560006000611e0060006000600d62022741f160305560006000611ea060006000600d62023071f160315560006000611f4060006000600d62023731f160325560006000611fe060006000600d62024025f16033556000600061208060006000600d62024691f16034556000600061212060006000600d62024f49f1603555600060006121c060006000600d62025561f16036556000600061226060006000600d62025dddf16037556000600061230060006000600d620263a1f1603855600060006123a060006000600d62026be1f16039556000600061244060006000600d62027409f1603a55600060006124e060006000600d62027955f1603b556000600061258060006000600d62028141f1603c556000600061262060006000600d62028639f1603d55600060006126c060006000600d62028de9f1603e556000600061276060006000600d6202928df1603f556000600061280060006000600d62029a01f1604055600060006128a060006000600d6202a15df16041556000600061294060006000600d6202a8a1f1604255600060006129e060006000600d6202afcdf160435560006000612a8060006000600d6202ba11f160445560006000612b2060006000600d6202c119f160455560006000612bc060006000600d6202c809f160465560006000612c6060006000600d6202cee1f160475560006000612d0060006000600d6202d901f160485560006000612da060006000600d6202dfb5f160495560006000612e4060006000600d6202e651f1604a5560006000612ee060006000600d6202ecd5f1604b5560006000612f8060006000600d6202f6d1f1604c556000600061302060006000600d6202fd31f1604d55600060006130c060006000600d62030379f1604e556000600061316060006000600d62030d5df1604f556000600061320060006000600d62031381f1605055600060006132a060006000600d6203198df16051556000600061334060006000600d62031f81f1605255600060006133e060006000600d62032941f16053556000600061348060006000600d62032f11f16054556000600061352060006000600d620334c9f1605555600060006135c060006000600d62033a69f16056556000600061366060006000600d62034405f16057556000600061370060006000600d62034981f1605855600060006137a060006000600d62034ee5f16059556000600061384060006000600d62035431f1605a55600060006138e060006000600d62035da9f1605b556000600061398060006000600d620362d1f1605c5560006000613a2060006000600d620367e1f1605d5560006000613ac060006000600d62036cd9f1605e5560006000613b6060006000600d6203762df1605f5560006000613c0060006000600d62037b01f160605560006000613ca060006000600d62037fbdf160615560006000613d4060006000600d62038461f160625560006000613de060006000600d62038d91f160635560006000613e8060006000600d62039211f160645560006000613f2060006000600d62039679f160655560006000613fc060006000600d62039ac9f16066556000600061406060006000600d6203a3d5f16067556000600061410060006000600d6203a801f1606855600060006141a060006000600d6203ac15f16069556000600061424060006000600d6203b509f1606a55600060006142e060006000600d6203b8f9f1606b556000600061438060006000600d6203bcd1f1606c556000600061442060006000600d6203c091f1606d55600060006144c060006000600d6203c961f1606e556000600061456060006000600d6203ccfdf1606f556000600061460060006000600d6203d081f1607055600060006146a060006000600d6203d3edf16071556000600061474060006000600d6203dc99f1607255600060006147e060006000600d6203dfe1f16073556000600061488060006000600d6203e311f16074556000600061492060006000600d6203e629f1607555600060006149c060006000600d6203eeb1f160765560006000614a6060006000600d6203f1a5f160775560006000614b0060006000600d6203f481f160785560006000614ba060006000600d6203f745f160795560006000614c4060006000600d6203ffa9f1607a5560006000614ce060006000600d62040249f1607b5560006000614d8060006000600d620404d1f1607c5560006000614e2060006000600d62040741f1607d5560006000614ec060006000600d62040f81f1607e5560006000614f6060006000600d620411cdf1607f556000600061500060006000600d62041401f1608055",
                "storage": {}
            },
            "0xa94f5374fce5edbc8e2a8697c15331677e6ebf0b": {
                "nonce": "0x00",
                "balance": "0x038d7ea4c68000",
                "code": "0x",
                "storage": {}
            }
        },
        "transaction": {
            "nonce": "0x00",
            "gasPrice": "0x0a",
            "gasLimit": [
                "0x05f5e100"
            ],
            "to": "0x0000000000000000000000000000000000001000",
            "value": [
                "0x00"
            ],
            "data": [
                "0x"
            ],
            "sender": "0xa94f5374fce5edbc8e2a8697c15331677e6ebf0b",
            "secretKey": "0x45a915e4d060149eb4365960e6a7a45f334393093061116b197e3240065ff2d8"
        },
        "post": {
            "Prague": [
                {
                    "hash": "0x87c5be219ad1f580ed841707272c589a56d0a2f0c19c5f1b1896d2f56b8d13ec",
                    "logs": "0x1dcc4de8dec75d7aab85b567b6ccd41ad312451b948a7413f0a142fd40d49347",
                    "txbytes": "0xf861800a8405f5e100940000000000000000000000000000000000001000808026a00c80636d627692750a38994c80e17de29770a0e34498f5e6eccd4f233ec21b5fa04c33c43ced36fe3329a16f21f2704902ac998ae26f175265e7b14a6229b1feb1",
                    "indexes": {
                        "data": 0,
                        "gas": 0,
                        "value": 0
                    }
                }
            ]
        },
        "_info": {
            "hash": "0x3406e2fb1ccdbf331d49d179bcc4e5bb55e2fd2097ad1da97410d298fd3d02bd",
            "comment": "`execution-spec-tests` generated test",
            "filling-transition-tool": "evm version 1.14.6-unstable-7e5dd44a-20240705",
            "description": "Test function documentation:\n\n    Test the BLS12_G1MSM discount gas table in full, by expecting the call to succeed for\n    all possible input lengths because the appropriate amount of gas is provided.\n\n    If any of the calls fail, the test will fail.",
            "url": "https://github.com/ethereum/execution-spec-tests/blob/devnet-1@v1.3.0/tests/prague/eip2537_bls_12_381_precompiles/test_bls12_variable_length_input_contracts.py#L100",
            "reference-spec": "https://github.com/ethereum/EIPs/blob/master/EIPS/eip-2537.md",
            "reference-spec-version": "cd0f016ad0c4c68b8b1f5c502ef61ab9353b6e5e"
        }
    }
}