{
    "tests/prague/eip2537_bls_12_381_precompiles/test_bls12_g1add.py::test_call_types[fork_Prague-state_test-inf_plus_inf-call_opcode_STATICCALL-]": {
        "env": {
            "currentCoinbase": "0x2adc25665018aa1fe0e6bc666dac8fc2697ff9ba",
            "currentGasLimit": "0x016345785d8a0000",
            "currentNumber": "0x01",
            "currentTimestamp": "0x03e8",
            "currentRandom": "0x0000000000000000000000000000000000000000000000000000000000000000",
            "currentDifficulty": "0x00",
            "currentBaseFee": "0x07",
            "currentExcessBlobGas": "0x00"
        },
        "pre": {
            "0xaaaaaaaaaaaaaaaaaaaaaaaaaaaaaaaaaaaaaaaa": {
                "nonce": "0x01",
                "balance": "0x00",
                "code": "0x36600060003760006000366000600b6101f4fa6000553d6001553d600060003e3d600020600255",
                "storage": {}
            },
            "0xa94f5374fce5edbc8e2a8697c15331677e6ebf0b": {
                "nonce": "0x00",
                "balance": "0x038d7ea4c68000",
                "code": "0x",
                "storage": {}
            }
        },
        "transaction": {
            "nonce": "0x00",
            "gasPrice": "0x0a",
            "gasLimit": [
                "0x989874"
            ],
            "to": "0xaaaaaaaaaaaaaaaaaaaaaaaaaaaaaaaaaaaaaaaa",
            "value": [
                "0x00"
            ],
            "data": [
                "0x00000000000000000000000000000000000000000000000000000000000000000000000000000000000000000000000000000000000000000000000000000000000000000000000000000000000000000000000000000000000000000000000000000000000000000000000000000000000000000000000000000000000000000000000000000000000000000000000000000000000000000000000000000000000000000000000000000000000000000000000000000000000000000000000000000000000000000000000000000000000000000000000000000000000000000000000000000000000000000000000000000000000000000000000000000000"
            ],
            "sender": "0xa94f5374fce5edbc8e2a8697c15331677e6ebf0b",
            "secretKey": "0x45a915e4d060149eb4365960e6a7a45f334393093061116b197e3240065ff2d8"
        },
        "post": {
            "Prague": [
                {
                    "hash": "0x6da08df0291aa172a31987ce5664b45ee367f23f6f4b9b522929e158c7b8f23c",
                    "logs": "0x1dcc4de8dec75d7aab85b567b6ccd41ad312451b948a7413f0a142fd40d49347",
                    "txbytes": "0xf90162800a8398987494aaaaaaaaaaaaaaaaaaaaaaaaaaaaaaaaaaaaaaaa80b901000000000000000000000000000000000000000000000000000000000000000000000000000000000000000000000000000000000000000000000000000000000000000000000000000000000000000000000000000000000000000000000000000000000000000000000000000000000000000000000000000000000000000000000000000000000000000000000000000000000000000000000000000000000000000000000000000000000000000000000000000000000000000000000000000000000000000000000000000000000000000000000000000000000000000000000000000000000000000000000000000000000000000000000000000000000025a0903bdb6fda9994a5b40d911ad907e1c0cbcc761b73f9d881591fa0cab18afe4ea05b49a876a93a961e87f0a3ae90db86f1f4d767eac7f8ed8f329e416892c94e61",
                    "indexes": {
                        "data": 0,
                        "gas": 0,
                        "value": 0
                    }
                }
            ]
        },
        "_info": {
            "hash": "0xb0b414098853feea4d029e0ceefd4242c49a004ac0f65fb744cf43964838abfc",
            "comment": "`execution-spec-tests` generated test",
            "filling-transition-tool": "evm version 1.14.4-unstable-abee40f2-20240516",
            "reference-spec": "https://github.com/ethereum/EIPs/blob/master/EIPS/eip-2537.md",
            "reference-spec-version": "cd0f016ad0c4c68b8b1f5c502ef61ab9353b6e5e"
        }
    },
    "tests/prague/eip2537_bls_12_381_precompiles/test_bls12_g1add.py::test_call_types[fork_Prague-state_test-inf_plus_inf-call_opcode_DELEGATECALL-]": {
        "env": {
            "currentCoinbase": "0x2adc25665018aa1fe0e6bc666dac8fc2697ff9ba",
            "currentGasLimit": "0x016345785d8a0000",
            "currentNumber": "0x01",
            "currentTimestamp": "0x03e8",
            "currentRandom": "0x0000000000000000000000000000000000000000000000000000000000000000",
            "currentDifficulty": "0x00",
            "currentBaseFee": "0x07",
            "currentExcessBlobGas": "0x00"
        },
        "pre": {
            "0xaaaaaaaaaaaaaaaaaaaaaaaaaaaaaaaaaaaaaaaa": {
                "nonce": "0x01",
                "balance": "0x00",
                "code": "0x36600060003760006000366000600b6101f4f46000553d6001553d600060003e3d600020600255",
                "storage": {}
            },
            "0xa94f5374fce5edbc8e2a8697c15331677e6ebf0b": {
                "nonce": "0x00",
                "balance": "0x038d7ea4c68000",
                "code": "0x",
                "storage": {}
            }
        },
        "transaction": {
            "nonce": "0x00",
            "gasPrice": "0x0a",
            "gasLimit": [
                "0x989874"
            ],
            "to": "0xaaaaaaaaaaaaaaaaaaaaaaaaaaaaaaaaaaaaaaaa",
            "value": [
                "0x00"
            ],
            "data": [
                "0x00000000000000000000000000000000000000000000000000000000000000000000000000000000000000000000000000000000000000000000000000000000000000000000000000000000000000000000000000000000000000000000000000000000000000000000000000000000000000000000000000000000000000000000000000000000000000000000000000000000000000000000000000000000000000000000000000000000000000000000000000000000000000000000000000000000000000000000000000000000000000000000000000000000000000000000000000000000000000000000000000000000000000000000000000000000"
            ],
            "sender": "0xa94f5374fce5edbc8e2a8697c15331677e6ebf0b",
            "secretKey": "0x45a915e4d060149eb4365960e6a7a45f334393093061116b197e3240065ff2d8"
        },
        "post": {
            "Prague": [
                {
                    "hash": "0x01d0798dcc2a4eb513db6eb79f5ebd7a8d8320cc208ed7a0d6fbb055b191580c",
                    "logs": "0x1dcc4de8dec75d7aab85b567b6ccd41ad312451b948a7413f0a142fd40d49347",
                    "txbytes": "0xf90162800a8398987494aaaaaaaaaaaaaaaaaaaaaaaaaaaaaaaaaaaaaaaa80b901000000000000000000000000000000000000000000000000000000000000000000000000000000000000000000000000000000000000000000000000000000000000000000000000000000000000000000000000000000000000000000000000000000000000000000000000000000000000000000000000000000000000000000000000000000000000000000000000000000000000000000000000000000000000000000000000000000000000000000000000000000000000000000000000000000000000000000000000000000000000000000000000000000000000000000000000000000000000000000000000000000000000000000000000000000000025a0903bdb6fda9994a5b40d911ad907e1c0cbcc761b73f9d881591fa0cab18afe4ea05b49a876a93a961e87f0a3ae90db86f1f4d767eac7f8ed8f329e416892c94e61",
                    "indexes": {
                        "data": 0,
                        "gas": 0,
                        "value": 0
                    }
                }
            ]
        },
        "_info": {
            "hash": "0x802f24265392325a76f5ad0b263b5fd8d2eb5e31a0b73e7eb2605425ced6679a",
            "comment": "`execution-spec-tests` generated test",
            "filling-transition-tool": "evm version 1.14.4-unstable-abee40f2-20240516",
            "reference-spec": "https://github.com/ethereum/EIPs/blob/master/EIPS/eip-2537.md",
            "reference-spec-version": "cd0f016ad0c4c68b8b1f5c502ef61ab9353b6e5e"
        }
    },
    "tests/prague/eip2537_bls_12_381_precompiles/test_bls12_g1add.py::test_call_types[fork_Prague-state_test-inf_plus_inf-call_opcode_CALLCODE-]": {
        "env": {
            "currentCoinbase": "0x2adc25665018aa1fe0e6bc666dac8fc2697ff9ba",
            "currentGasLimit": "0x016345785d8a0000",
            "currentNumber": "0x01",
            "currentTimestamp": "0x03e8",
            "currentRandom": "0x0000000000000000000000000000000000000000000000000000000000000000",
            "currentDifficulty": "0x00",
            "currentBaseFee": "0x07",
            "currentExcessBlobGas": "0x00"
        },
        "pre": {
            "0xaaaaaaaaaaaaaaaaaaaaaaaaaaaaaaaaaaaaaaaa": {
                "nonce": "0x01",
                "balance": "0x00",
                "code": "0x366000600037600060003660006000600b6101f4f26000553d6001553d600060003e3d600020600255",
                "storage": {}
            },
            "0xa94f5374fce5edbc8e2a8697c15331677e6ebf0b": {
                "nonce": "0x00",
                "balance": "0x038d7ea4c68000",
                "code": "0x",
                "storage": {}
            }
        },
        "transaction": {
            "nonce": "0x00",
            "gasPrice": "0x0a",
            "gasLimit": [
                "0x989874"
            ],
            "to": "0xaaaaaaaaaaaaaaaaaaaaaaaaaaaaaaaaaaaaaaaa",
            "value": [
                "0x00"
            ],
            "data": [
                "0x00000000000000000000000000000000000000000000000000000000000000000000000000000000000000000000000000000000000000000000000000000000000000000000000000000000000000000000000000000000000000000000000000000000000000000000000000000000000000000000000000000000000000000000000000000000000000000000000000000000000000000000000000000000000000000000000000000000000000000000000000000000000000000000000000000000000000000000000000000000000000000000000000000000000000000000000000000000000000000000000000000000000000000000000000000000"
            ],
            "sender": "0xa94f5374fce5edbc8e2a8697c15331677e6ebf0b",
            "secretKey": "0x45a915e4d060149eb4365960e6a7a45f334393093061116b197e3240065ff2d8"
        },
        "post": {
            "Prague": [
                {
                    "hash": "0x023a75f349c46f54510039614408d688cdf67ad76ad642c6b30ec51280fdc708",
                    "logs": "0x1dcc4de8dec75d7aab85b567b6ccd41ad312451b948a7413f0a142fd40d49347",
                    "txbytes": "0xf90162800a8398987494aaaaaaaaaaaaaaaaaaaaaaaaaaaaaaaaaaaaaaaa80b901000000000000000000000000000000000000000000000000000000000000000000000000000000000000000000000000000000000000000000000000000000000000000000000000000000000000000000000000000000000000000000000000000000000000000000000000000000000000000000000000000000000000000000000000000000000000000000000000000000000000000000000000000000000000000000000000000000000000000000000000000000000000000000000000000000000000000000000000000000000000000000000000000000000000000000000000000000000000000000000000000000000000000000000000000000000025a0903bdb6fda9994a5b40d911ad907e1c0cbcc761b73f9d881591fa0cab18afe4ea05b49a876a93a961e87f0a3ae90db86f1f4d767eac7f8ed8f329e416892c94e61",
                    "indexes": {
                        "data": 0,
                        "gas": 0,
                        "value": 0
                    }
                }
            ]
        },
        "_info": {
            "hash": "0x97574760cfe021a0539a115e137844bbfa0049f598d4243ac182ea64ca2d98b4",
            "comment": "`execution-spec-tests` generated test",
            "filling-transition-tool": "evm version 1.14.4-unstable-abee40f2-20240516",
            "reference-spec": "https://github.com/ethereum/EIPs/blob/master/EIPS/eip-2537.md",
            "reference-spec-version": "cd0f016ad0c4c68b8b1f5c502ef61ab9353b6e5e"
        }
    }
}