{
    "tests/homestead/yul/test_yul_example.py::test_yul[fork_Berlin-state_test]": {
        "env": {
            "currentCoinbase": "0x2adc25665018aa1fe0e6bc666dac8fc2697ff9ba",
            "currentGasLimit": "0x016345785d8a0000",
            "currentNumber": "0x01",
            "currentTimestamp": "0x03e8",
            "currentDifficulty": "0x020000"
        },
        "pre": {
            "0x0000000000000000000000000000000000001000": {
                "nonce": "0x01",
                "balance": "0x0ba1a9ce0ba1a9ce",
                "code": "0x6009600260016012565b60005560206000f35b019056",
                "storage": {}
            },
            "0xa94f5374fce5edbc8e2a8697c15331677e6ebf0b": {
                "nonce": "0x00",
                "balance": "0x0ba1a9ce0ba1a9ce",
                "code": "0x",
                "storage": {}
            }
        },
        "transaction": {
            "nonce": "0x00",
            "gasPrice": "0x0a",
            "gasLimit": [
                "0x07a120"
            ],
            "to": "0x0000000000000000000000000000000000001000",
            "value": [
                "0x00"
            ],
            "data": [
                "0x"
            ],
            "sender": "0xa94f5374fce5edbc8e2a8697c15331677e6ebf0b",
            "secretKey": "0x45a915e4d060149eb4365960e6a7a45f334393093061116b197e3240065ff2d8"
        },
        "post": {
            "Berlin": [
                {
                    "hash": "0x6b782b3826b53ae2e8ebea3585648c75e87459fb70a3ad0ad58025e867c9e86c",
                    "logs": "0x1dcc4de8dec75d7aab85b567b6ccd41ad312451b948a7413f0a142fd40d49347",
                    "txbytes": "0xf85f800a8307a120940000000000000000000000000000000000001000808026a00141be98af88ea73fa99d7dcda246716f1ffb823e2a37ce07796aa32c39f1a0e9f2235efef08f9ca13c3ea4b4f2bc22810b5d3d8d570945dba45024e456c1a71",
                    "indexes": {
                        "data": 0,
                        "gas": 0,
                        "value": 0
                    },
                    "state": {
                        "0x0000000000000000000000000000000000001000": {
                            "nonce": "0x01",
                            "balance": "0x0ba1a9ce0ba1a9ce",
                            "code": "0x6009600260016012565b60005560206000f35b019056",
                            "storage": {
                                "0x00": "0x03"
                            }
                        },
                        "0xa94f5374fce5edbc8e2a8697c15331677e6ebf0b": {
                            "nonce": "0x01",
                            "balance": "0x0ba1a9ce0b9b1456",
                            "code": "0x",
                            "storage": {}
                        },
                        "0x2adc25665018aa1fe0e6bc666dac8fc2697ff9ba": {
                            "nonce": "0x00",
                            "balance": "0x069578",
                            "code": "0x",
                            "storage": {}
                        }
                    }
                }
            ]
        },
        "config": {
            "chainid": "0x01"
        },
        "_info": {
            "hash": "0xfb0232b41589db2ff4baf09b4513a832cd226888d8057a7a8765d38e9c334680",
            "comment": "`execution-spec-tests` generated test",
            "filling-transition-tool": "ethereum-spec-evm-resolver 0.0.5",
            "description": "Test function documentation:\nTest YUL compiled bytecode.",
            "url": "https://github.com/ethereum/execution-spec-tests/tree/v4.1.0/tests/homestead/yul/test_yul_example.py#L16",
            "fixture-format": "state_test",
            "eels-resolution": {
                "git-url": "https://github.com/ethereum/execution-specs.git",
                "branch": "master",
                "commit": "78fb726158c69d8fa164e28f195fabf6ab59b915"
            }
        }
    },
    "tests/homestead/yul/test_yul_example.py::test_yul[fork_Byzantium-state_test]": {
        "env": {
            "currentCoinbase": "0x2adc25665018aa1fe0e6bc666dac8fc2697ff9ba",
            "currentGasLimit": "0x016345785d8a0000",
            "currentNumber": "0x01",
            "currentTimestamp": "0x03e8",
            "currentDifficulty": "0x020000"
        },
        "pre": {
            "0x0000000000000000000000000000000000001000": {
                "nonce": "0x01",
                "balance": "0x0ba1a9ce0ba1a9ce",
                "code": "0x6009600260016012565b60005560206000f35b019056",
                "storage": {}
            },
            "0xa94f5374fce5edbc8e2a8697c15331677e6ebf0b": {
                "nonce": "0x00",
                "balance": "0x0ba1a9ce0ba1a9ce",
                "code": "0x",
                "storage": {}
            }
        },
        "transaction": {
            "nonce": "0x00",
            "gasPrice": "0x0a",
            "gasLimit": [
                "0x07a120"
            ],
            "to": "0x0000000000000000000000000000000000001000",
            "value": [
                "0x00"
            ],
            "data": [
                "0x"
            ],
            "sender": "0xa94f5374fce5edbc8e2a8697c15331677e6ebf0b",
            "secretKey": "0x45a915e4d060149eb4365960e6a7a45f334393093061116b197e3240065ff2d8"
        },
        "post": {
            "Byzantium": [
                {
                    "hash": "0x7dc61640680eaa1caf8d8f7458872c370a6c31cec9983d5b8a591c3a89b58cfb",
                    "logs": "0x1dcc4de8dec75d7aab85b567b6ccd41ad312451b948a7413f0a142fd40d49347",
                    "txbytes": "0xf85f800a8307a120940000000000000000000000000000000000001000808026a00141be98af88ea73fa99d7dcda246716f1ffb823e2a37ce07796aa32c39f1a0e9f2235efef08f9ca13c3ea4b4f2bc22810b5d3d8d570945dba45024e456c1a71",
                    "indexes": {
                        "data": 0,
                        "gas": 0,
                        "value": 0
                    },
                    "state": {
                        "0x0000000000000000000000000000000000001000": {
                            "nonce": "0x01",
                            "balance": "0x0ba1a9ce0ba1a9ce",
                            "code": "0x6009600260016012565b60005560206000f35b019056",
                            "storage": {
                                "0x00": "0x03"
                            }
                        },
                        "0xa94f5374fce5edbc8e2a8697c15331677e6ebf0b": {
                            "nonce": "0x01",
                            "balance": "0x0ba1a9ce0b9b665e",
                            "code": "0x",
                            "storage": {}
                        },
                        "0x2adc25665018aa1fe0e6bc666dac8fc2697ff9ba": {
                            "nonce": "0x00",
                            "balance": "0x064370",
                            "code": "0x",
                            "storage": {}
                        }
                    }
                }
            ]
        },
        "config": {
            "chainid": "0x01"
        },
        "_info": {
            "hash": "0xc8912e69cef9a212061f8ee40c857ff678773c9c40530e429942a5278d6194b5",
            "comment": "`execution-spec-tests` generated test",
            "filling-transition-tool": "ethereum-spec-evm-resolver 0.0.5",
            "description": "Test function documentation:\nTest YUL compiled bytecode.",
            "url": "https://github.com/ethereum/execution-spec-tests/tree/v4.1.0/tests/homestead/yul/test_yul_example.py#L16",
            "fixture-format": "state_test",
            "eels-resolution": {
                "git-url": "https://github.com/ethereum/execution-specs.git",
                "branch": "master",
                "commit": "78fb726158c69d8fa164e28f195fabf6ab59b915"
            }
        }
    },
    "tests/homestead/yul/test_yul_example.py::test_yul[fork_Cancun-state_test]": {
        "env": {
            "currentCoinbase": "0x2adc25665018aa1fe0e6bc666dac8fc2697ff9ba",
            "currentGasLimit": "0x016345785d8a0000",
            "currentNumber": "0x01",
            "currentTimestamp": "0x03e8",
            "currentRandom": "0x0000000000000000000000000000000000000000000000000000000000000000",
            "currentDifficulty": "0x00",
            "currentBaseFee": "0x07",
            "currentExcessBlobGas": "0x00"
        },
        "pre": {
            "0x0000000000000000000000000000000000001000": {
                "nonce": "0x01",
                "balance": "0x0ba1a9ce0ba1a9ce",
                "code": "0x6009600260016010565b5f5560205ff35b019056",
                "storage": {}
            },
            "0xa94f5374fce5edbc8e2a8697c15331677e6ebf0b": {
                "nonce": "0x00",
                "balance": "0x0ba1a9ce0ba1a9ce",
                "code": "0x",
                "storage": {}
            }
        },
        "transaction": {
            "nonce": "0x00",
            "gasPrice": "0x0a",
            "gasLimit": [
                "0x07a120"
            ],
            "to": "0x0000000000000000000000000000000000001000",
            "value": [
                "0x00"
            ],
            "data": [
                "0x"
            ],
            "sender": "0xa94f5374fce5edbc8e2a8697c15331677e6ebf0b",
            "secretKey": "0x45a915e4d060149eb4365960e6a7a45f334393093061116b197e3240065ff2d8"
        },
        "post": {
            "Cancun": [
                {
                    "hash": "0xb56915796a9b7a9b1c40d2cf7b8b7e6c25098ab3aafd76d6cd6edabb7d74e083",
                    "logs": "0x1dcc4de8dec75d7aab85b567b6ccd41ad312451b948a7413f0a142fd40d49347",
                    "txbytes": "0xf85f800a8307a120940000000000000000000000000000000000001000808026a00141be98af88ea73fa99d7dcda246716f1ffb823e2a37ce07796aa32c39f1a0e9f2235efef08f9ca13c3ea4b4f2bc22810b5d3d8d570945dba45024e456c1a71",
                    "indexes": {
                        "data": 0,
                        "gas": 0,
                        "value": 0
                    },
                    "state": {
                        "0x0000000000000000000000000000000000001000": {
                            "nonce": "0x01",
                            "balance": "0x0ba1a9ce0ba1a9ce",
                            "code": "0x6009600260016010565b5f5560205ff35b019056",
                            "storage": {
                                "0x00": "0x03"
                            }
                        },
                        "0xa94f5374fce5edbc8e2a8697c15331677e6ebf0b": {
                            "nonce": "0x01",
                            "balance": "0x0ba1a9ce0b9b146a",
                            "code": "0x",
                            "storage": {}
                        },
                        "0x2adc25665018aa1fe0e6bc666dac8fc2697ff9ba": {
                            "nonce": "0x00",
                            "balance": "0x01f99e",
                            "code": "0x",
                            "storage": {}
                        }
                    }
                }
            ]
        },
        "config": {
            "blobSchedule": {
                "Cancun": {
                    "target": "0x03",
                    "max": "0x06",
                    "baseFeeUpdateFraction": "0x32f0ed"
                }
            },
            "chainid": "0x01"
        },
        "_info": {
            "hash": "0x4f66b244b0d695b4a9acdfe4429f5bda71d8ad4cbc3eefe679b356baa17717f4",
            "comment": "`execution-spec-tests` generated test",
            "filling-transition-tool": "ethereum-spec-evm-resolver 0.0.5",
            "description": "Test function documentation:\nTest YUL compiled bytecode.",
            "url": "https://github.com/ethereum/execution-spec-tests/tree/v4.1.0/tests/homestead/yul/test_yul_example.py#L16",
            "fixture-format": "state_test",
            "eels-resolution": {
                "git-url": "https://github.com/ethereum/execution-specs.git",
                "branch": "master",
                "commit": "78fb726158c69d8fa164e28f195fabf6ab59b915"
            }
        }
    },
    "tests/homestead/yul/test_yul_example.py::test_yul[fork_ConstantinopleFix-state_test]": {
        "env": {
            "currentCoinbase": "0x2adc25665018aa1fe0e6bc666dac8fc2697ff9ba",
            "currentGasLimit": "0x016345785d8a0000",
            "currentNumber": "0x01",
            "currentTimestamp": "0x03e8",
            "currentDifficulty": "0x020000"
        },
        "pre": {
            "0x0000000000000000000000000000000000001000": {
                "nonce": "0x01",
                "balance": "0x0ba1a9ce0ba1a9ce",
                "code": "0x6009600260016012565b60005560206000f35b019056",
                "storage": {}
            },
            "0xa94f5374fce5edbc8e2a8697c15331677e6ebf0b": {
                "nonce": "0x00",
                "balance": "0x0ba1a9ce0ba1a9ce",
                "code": "0x",
                "storage": {}
            }
        },
        "transaction": {
            "nonce": "0x00",
            "gasPrice": "0x0a",
            "gasLimit": [
                "0x07a120"
            ],
            "to": "0x0000000000000000000000000000000000001000",
            "value": [
                "0x00"
            ],
            "data": [
                "0x"
            ],
            "sender": "0xa94f5374fce5edbc8e2a8697c15331677e6ebf0b",
            "secretKey": "0x45a915e4d060149eb4365960e6a7a45f334393093061116b197e3240065ff2d8"
        },
        "post": {
            "ConstantinopleFix": [
                {
                    "hash": "0x7dc61640680eaa1caf8d8f7458872c370a6c31cec9983d5b8a591c3a89b58cfb",
                    "logs": "0x1dcc4de8dec75d7aab85b567b6ccd41ad312451b948a7413f0a142fd40d49347",
                    "txbytes": "0xf85f800a8307a120940000000000000000000000000000000000001000808026a00141be98af88ea73fa99d7dcda246716f1ffb823e2a37ce07796aa32c39f1a0e9f2235efef08f9ca13c3ea4b4f2bc22810b5d3d8d570945dba45024e456c1a71",
                    "indexes": {
                        "data": 0,
                        "gas": 0,
                        "value": 0
                    },
                    "state": {
                        "0x0000000000000000000000000000000000001000": {
                            "nonce": "0x01",
                            "balance": "0x0ba1a9ce0ba1a9ce",
                            "code": "0x6009600260016012565b60005560206000f35b019056",
                            "storage": {
                                "0x00": "0x03"
                            }
                        },
                        "0xa94f5374fce5edbc8e2a8697c15331677e6ebf0b": {
                            "nonce": "0x01",
                            "balance": "0x0ba1a9ce0b9b665e",
                            "code": "0x",
                            "storage": {}
                        },
                        "0x2adc25665018aa1fe0e6bc666dac8fc2697ff9ba": {
                            "nonce": "0x00",
                            "balance": "0x064370",
                            "code": "0x",
                            "storage": {}
                        }
                    }
                }
            ]
        },
        "config": {
            "chainid": "0x01"
        },
        "_info": {
            "hash": "0xa738c5f2d082e932e264f740c86a15c8d5cba3e95253f95f4ea84de7cdd590f0",
            "comment": "`execution-spec-tests` generated test",
            "filling-transition-tool": "ethereum-spec-evm-resolver 0.0.5",
            "description": "Test function documentation:\nTest YUL compiled bytecode.",
            "url": "https://github.com/ethereum/execution-spec-tests/tree/v4.1.0/tests/homestead/yul/test_yul_example.py#L16",
            "fixture-format": "state_test",
            "eels-resolution": {
                "git-url": "https://github.com/ethereum/execution-specs.git",
                "branch": "master",
                "commit": "78fb726158c69d8fa164e28f195fabf6ab59b915"
            }
        }
    },
    "tests/homestead/yul/test_yul_example.py::test_yul[fork_Homestead-state_test]": {
        "env": {
            "currentCoinbase": "0x2adc25665018aa1fe0e6bc666dac8fc2697ff9ba",
            "currentGasLimit": "0x016345785d8a0000",
            "currentNumber": "0x01",
            "currentTimestamp": "0x03e8",
            "currentDifficulty": "0x020000"
        },
        "pre": {
            "0x0000000000000000000000000000000000001000": {
                "nonce": "0x01",
                "balance": "0x0ba1a9ce0ba1a9ce",
                "code": "0x6009600260016012565b60005560206000f35b600082820190509291505056",
                "storage": {}
            },
            "0xa94f5374fce5edbc8e2a8697c15331677e6ebf0b": {
                "nonce": "0x00",
                "balance": "0x0ba1a9ce0ba1a9ce",
                "code": "0x",
                "storage": {}
            }
        },
        "transaction": {
            "nonce": "0x00",
            "gasPrice": "0x0a",
            "gasLimit": [
                "0x07a120"
            ],
            "to": "0x0000000000000000000000000000000000001000",
            "value": [
                "0x00"
            ],
            "data": [
                "0x"
            ],
            "sender": "0xa94f5374fce5edbc8e2a8697c15331677e6ebf0b",
            "secretKey": "0x45a915e4d060149eb4365960e6a7a45f334393093061116b197e3240065ff2d8"
        },
        "post": {
            "Homestead": [
                {
                    "hash": "0x154f5935a676cbe98229394ce886e15212312de9a32076027fd4b77e79ad3d18",
                    "logs": "0x1dcc4de8dec75d7aab85b567b6ccd41ad312451b948a7413f0a142fd40d49347",
                    "txbytes": "0xf860800a8307a12094000000000000000000000000000000000000100080801ca08852a15dfcce4d37ed08c9dd99a42dc48d8d24a2ca16b97a2305fb9ee8dd14a7a07702c68e6921f2d1b530f1a66e373214355fb828f90ebbfb0fa9312d57cd9c52",
                    "indexes": {
                        "data": 0,
                        "gas": 0,
                        "value": 0
                    },
                    "state": {
                        "0x0000000000000000000000000000000000001000": {
                            "nonce": "0x01",
                            "balance": "0x0ba1a9ce0ba1a9ce",
                            "code": "0x6009600260016012565b60005560206000f35b600082820190509291505056",
                            "storage": {
                                "0x00": "0x03"
                            }
                        },
                        "0xa94f5374fce5edbc8e2a8697c15331677e6ebf0b": {
                            "nonce": "0x01",
                            "balance": "0x0ba1a9ce0b9b658c",
                            "code": "0x",
                            "storage": {}
                        },
                        "0x2adc25665018aa1fe0e6bc666dac8fc2697ff9ba": {
                            "nonce": "0x00",
                            "balance": "0x064442",
                            "code": "0x",
                            "storage": {}
                        }
                    }
                }
            ]
        },
        "config": {
            "chainid": "0x01"
        },
        "_info": {
            "hash": "0x4a6e136a9e4600dc390072be64ea48593ac81b9c278cbf6db3058fcab79af755",
            "comment": "`execution-spec-tests` generated test",
            "filling-transition-tool": "ethereum-spec-evm-resolver 0.0.5",
            "description": "Test function documentation:\nTest YUL compiled bytecode.",
            "url": "https://github.com/ethereum/execution-spec-tests/tree/v4.1.0/tests/homestead/yul/test_yul_example.py#L16",
            "fixture-format": "state_test",
            "eels-resolution": {
                "git-url": "https://github.com/ethereum/execution-specs.git",
                "branch": "master",
                "commit": "78fb726158c69d8fa164e28f195fabf6ab59b915"
            }
        }
    },
    "tests/homestead/yul/test_yul_example.py::test_yul[fork_Istanbul-state_test]": {
        "env": {
            "currentCoinbase": "0x2adc25665018aa1fe0e6bc666dac8fc2697ff9ba",
            "currentGasLimit": "0x016345785d8a0000",
            "currentNumber": "0x01",
            "currentTimestamp": "0x03e8",
            "currentDifficulty": "0x020000"
        },
        "pre": {
            "0x0000000000000000000000000000000000001000": {
                "nonce": "0x01",
                "balance": "0x0ba1a9ce0ba1a9ce",
                "code": "0x6009600260016012565b60005560206000f35b019056",
                "storage": {}
            },
            "0xa94f5374fce5edbc8e2a8697c15331677e6ebf0b": {
                "nonce": "0x00",
                "balance": "0x0ba1a9ce0ba1a9ce",
                "code": "0x",
                "storage": {}
            }
        },
        "transaction": {
            "nonce": "0x00",
            "gasPrice": "0x0a",
            "gasLimit": [
                "0x07a120"
            ],
            "to": "0x0000000000000000000000000000000000001000",
            "value": [
                "0x00"
            ],
            "data": [
                "0x"
            ],
            "sender": "0xa94f5374fce5edbc8e2a8697c15331677e6ebf0b",
            "secretKey": "0x45a915e4d060149eb4365960e6a7a45f334393093061116b197e3240065ff2d8"
        },
        "post": {
            "Istanbul": [
                {
                    "hash": "0x7dc61640680eaa1caf8d8f7458872c370a6c31cec9983d5b8a591c3a89b58cfb",
                    "logs": "0x1dcc4de8dec75d7aab85b567b6ccd41ad312451b948a7413f0a142fd40d49347",
                    "txbytes": "0xf85f800a8307a120940000000000000000000000000000000000001000808026a00141be98af88ea73fa99d7dcda246716f1ffb823e2a37ce07796aa32c39f1a0e9f2235efef08f9ca13c3ea4b4f2bc22810b5d3d8d570945dba45024e456c1a71",
                    "indexes": {
                        "data": 0,
                        "gas": 0,
                        "value": 0
                    },
                    "state": {
                        "0x0000000000000000000000000000000000001000": {
                            "nonce": "0x01",
                            "balance": "0x0ba1a9ce0ba1a9ce",
                            "code": "0x6009600260016012565b60005560206000f35b019056",
                            "storage": {
                                "0x00": "0x03"
                            }
                        },
                        "0xa94f5374fce5edbc8e2a8697c15331677e6ebf0b": {
                            "nonce": "0x01",
                            "balance": "0x0ba1a9ce0b9b665e",
                            "code": "0x",
                            "storage": {}
                        },
                        "0x2adc25665018aa1fe0e6bc666dac8fc2697ff9ba": {
                            "nonce": "0x00",
                            "balance": "0x064370",
                            "code": "0x",
                            "storage": {}
                        }
                    }
                }
            ]
        },
        "config": {
            "chainid": "0x01"
        },
        "_info": {
            "hash": "0xf22418e66bb9d4b0730eb5c78206b0365f39ac4417e5747bd29a7698541f28ba",
            "comment": "`execution-spec-tests` generated test",
            "filling-transition-tool": "ethereum-spec-evm-resolver 0.0.5",
            "description": "Test function documentation:\nTest YUL compiled bytecode.",
            "url": "https://github.com/ethereum/execution-spec-tests/tree/v4.1.0/tests/homestead/yul/test_yul_example.py#L16",
            "fixture-format": "state_test",
            "eels-resolution": {
                "git-url": "https://github.com/ethereum/execution-specs.git",
                "branch": "master",
                "commit": "78fb726158c69d8fa164e28f195fabf6ab59b915"
            }
        }
    },
    "tests/homestead/yul/test_yul_example.py::test_yul[fork_London-state_test]": {
        "env": {
            "currentCoinbase": "0x2adc25665018aa1fe0e6bc666dac8fc2697ff9ba",
            "currentGasLimit": "0x016345785d8a0000",
            "currentNumber": "0x01",
            "currentTimestamp": "0x03e8",
            "currentDifficulty": "0x020000",
            "currentBaseFee": "0x07"
        },
        "pre": {
            "0x0000000000000000000000000000000000001000": {
                "nonce": "0x01",
                "balance": "0x0ba1a9ce0ba1a9ce",
                "code": "0x6009600260016012565b60005560206000f35b019056",
                "storage": {}
            },
            "0xa94f5374fce5edbc8e2a8697c15331677e6ebf0b": {
                "nonce": "0x00",
                "balance": "0x0ba1a9ce0ba1a9ce",
                "code": "0x",
                "storage": {}
            }
        },
        "transaction": {
            "nonce": "0x00",
            "gasPrice": "0x0a",
            "gasLimit": [
                "0x07a120"
            ],
            "to": "0x0000000000000000000000000000000000001000",
            "value": [
                "0x00"
            ],
            "data": [
                "0x"
            ],
            "sender": "0xa94f5374fce5edbc8e2a8697c15331677e6ebf0b",
            "secretKey": "0x45a915e4d060149eb4365960e6a7a45f334393093061116b197e3240065ff2d8"
        },
        "post": {
            "London": [
                {
                    "hash": "0xad2805e2bebbce8cc20207e2cefc20e4bc9e080bae569b734b3177db925b5e4f",
                    "logs": "0x1dcc4de8dec75d7aab85b567b6ccd41ad312451b948a7413f0a142fd40d49347",
                    "txbytes": "0xf85f800a8307a120940000000000000000000000000000000000001000808026a00141be98af88ea73fa99d7dcda246716f1ffb823e2a37ce07796aa32c39f1a0e9f2235efef08f9ca13c3ea4b4f2bc22810b5d3d8d570945dba45024e456c1a71",
                    "indexes": {
                        "data": 0,
                        "gas": 0,
                        "value": 0
                    },
                    "state": {
                        "0x0000000000000000000000000000000000001000": {
                            "nonce": "0x01",
                            "balance": "0x0ba1a9ce0ba1a9ce",
                            "code": "0x6009600260016012565b60005560206000f35b019056",
                            "storage": {
                                "0x00": "0x03"
                            }
                        },
                        "0xa94f5374fce5edbc8e2a8697c15331677e6ebf0b": {
                            "nonce": "0x01",
                            "balance": "0x0ba1a9ce0b9b1456",
                            "code": "0x",
                            "storage": {}
                        },
                        "0x2adc25665018aa1fe0e6bc666dac8fc2697ff9ba": {
                            "nonce": "0x00",
                            "balance": "0x01f9a4",
                            "code": "0x",
                            "storage": {}
                        }
                    }
                }
            ]
        },
        "config": {
            "chainid": "0x01"
        },
        "_info": {
            "hash": "0x1ee223b5db7935a4fa8c1bd0ad3f9d944d83f5db88efdac988eb6fd206c17850",
            "comment": "`execution-spec-tests` generated test",
            "filling-transition-tool": "ethereum-spec-evm-resolver 0.0.5",
            "description": "Test function documentation:\nTest YUL compiled bytecode.",
            "url": "https://github.com/ethereum/execution-spec-tests/tree/v4.1.0/tests/homestead/yul/test_yul_example.py#L16",
            "fixture-format": "state_test",
            "eels-resolution": {
                "git-url": "https://github.com/ethereum/execution-specs.git",
                "branch": "master",
                "commit": "78fb726158c69d8fa164e28f195fabf6ab59b915"
            }
        }
    },
    "tests/homestead/yul/test_yul_example.py::test_yul[fork_Paris-state_test]": {
        "env": {
            "currentCoinbase": "0x2adc25665018aa1fe0e6bc666dac8fc2697ff9ba",
            "currentGasLimit": "0x016345785d8a0000",
            "currentNumber": "0x01",
            "currentTimestamp": "0x03e8",
            "currentRandom": "0x0000000000000000000000000000000000000000000000000000000000000000",
            "currentDifficulty": "0x00",
            "currentBaseFee": "0x07"
        },
        "pre": {
            "0x0000000000000000000000000000000000001000": {
                "nonce": "0x01",
                "balance": "0x0ba1a9ce0ba1a9ce",
                "code": "0x6009600260016012565b60005560206000f35b019056",
                "storage": {}
            },
            "0xa94f5374fce5edbc8e2a8697c15331677e6ebf0b": {
                "nonce": "0x00",
                "balance": "0x0ba1a9ce0ba1a9ce",
                "code": "0x",
                "storage": {}
            }
        },
        "transaction": {
            "nonce": "0x00",
            "gasPrice": "0x0a",
            "gasLimit": [
                "0x07a120"
            ],
            "to": "0x0000000000000000000000000000000000001000",
            "value": [
                "0x00"
            ],
            "data": [
                "0x"
            ],
            "sender": "0xa94f5374fce5edbc8e2a8697c15331677e6ebf0b",
            "secretKey": "0x45a915e4d060149eb4365960e6a7a45f334393093061116b197e3240065ff2d8"
        },
        "post": {
            "Paris": [
                {
                    "hash": "0xad2805e2bebbce8cc20207e2cefc20e4bc9e080bae569b734b3177db925b5e4f",
                    "logs": "0x1dcc4de8dec75d7aab85b567b6ccd41ad312451b948a7413f0a142fd40d49347",
                    "txbytes": "0xf85f800a8307a120940000000000000000000000000000000000001000808026a00141be98af88ea73fa99d7dcda246716f1ffb823e2a37ce07796aa32c39f1a0e9f2235efef08f9ca13c3ea4b4f2bc22810b5d3d8d570945dba45024e456c1a71",
                    "indexes": {
                        "data": 0,
                        "gas": 0,
                        "value": 0
                    },
                    "state": {
                        "0x0000000000000000000000000000000000001000": {
                            "nonce": "0x01",
                            "balance": "0x0ba1a9ce0ba1a9ce",
                            "code": "0x6009600260016012565b60005560206000f35b019056",
                            "storage": {
                                "0x00": "0x03"
                            }
                        },
                        "0xa94f5374fce5edbc8e2a8697c15331677e6ebf0b": {
                            "nonce": "0x01",
                            "balance": "0x0ba1a9ce0b9b1456",
                            "code": "0x",
                            "storage": {}
                        },
                        "0x2adc25665018aa1fe0e6bc666dac8fc2697ff9ba": {
                            "nonce": "0x00",
                            "balance": "0x01f9a4",
                            "code": "0x",
                            "storage": {}
                        }
                    }
                }
            ]
        },
        "config": {
            "chainid": "0x01"
        },
        "_info": {
            "hash": "0xe8c4b5bbd6205ff12ad8768ffedf596ca9e23145415a30b8dfacc9204302f10e",
            "comment": "`execution-spec-tests` generated test",
            "filling-transition-tool": "ethereum-spec-evm-resolver 0.0.5",
            "description": "Test function documentation:\nTest YUL compiled bytecode.",
            "url": "https://github.com/ethereum/execution-spec-tests/tree/v4.1.0/tests/homestead/yul/test_yul_example.py#L16",
            "fixture-format": "state_test",
            "eels-resolution": {
                "git-url": "https://github.com/ethereum/execution-specs.git",
                "branch": "master",
                "commit": "78fb726158c69d8fa164e28f195fabf6ab59b915"
            }
        }
    },
    "tests/homestead/yul/test_yul_example.py::test_yul[fork_Shanghai-state_test]": {
        "env": {
            "currentCoinbase": "0x2adc25665018aa1fe0e6bc666dac8fc2697ff9ba",
            "currentGasLimit": "0x016345785d8a0000",
            "currentNumber": "0x01",
            "currentTimestamp": "0x03e8",
            "currentRandom": "0x0000000000000000000000000000000000000000000000000000000000000000",
            "currentDifficulty": "0x00",
            "currentBaseFee": "0x07"
        },
        "pre": {
            "0x0000000000000000000000000000000000001000": {
                "nonce": "0x01",
                "balance": "0x0ba1a9ce0ba1a9ce",
                "code": "0x6009600260016010565b5f5560205ff35b019056",
                "storage": {}
            },
            "0xa94f5374fce5edbc8e2a8697c15331677e6ebf0b": {
                "nonce": "0x00",
                "balance": "0x0ba1a9ce0ba1a9ce",
                "code": "0x",
                "storage": {}
            }
        },
        "transaction": {
            "nonce": "0x00",
            "gasPrice": "0x0a",
            "gasLimit": [
                "0x07a120"
            ],
            "to": "0x0000000000000000000000000000000000001000",
            "value": [
                "0x00"
            ],
            "data": [
                "0x"
            ],
            "sender": "0xa94f5374fce5edbc8e2a8697c15331677e6ebf0b",
            "secretKey": "0x45a915e4d060149eb4365960e6a7a45f334393093061116b197e3240065ff2d8"
        },
        "post": {
            "Shanghai": [
                {
                    "hash": "0xb56915796a9b7a9b1c40d2cf7b8b7e6c25098ab3aafd76d6cd6edabb7d74e083",
                    "logs": "0x1dcc4de8dec75d7aab85b567b6ccd41ad312451b948a7413f0a142fd40d49347",
                    "txbytes": "0xf85f800a8307a120940000000000000000000000000000000000001000808026a00141be98af88ea73fa99d7dcda246716f1ffb823e2a37ce07796aa32c39f1a0e9f2235efef08f9ca13c3ea4b4f2bc22810b5d3d8d570945dba45024e456c1a71",
                    "indexes": {
                        "data": 0,
                        "gas": 0,
                        "value": 0
                    },
                    "state": {
                        "0x0000000000000000000000000000000000001000": {
                            "nonce": "0x01",
                            "balance": "0x0ba1a9ce0ba1a9ce",
                            "code": "0x6009600260016010565b5f5560205ff35b019056",
                            "storage": {
                                "0x00": "0x03"
                            }
                        },
                        "0xa94f5374fce5edbc8e2a8697c15331677e6ebf0b": {
                            "nonce": "0x01",
                            "balance": "0x0ba1a9ce0b9b146a",
                            "code": "0x",
                            "storage": {}
                        },
                        "0x2adc25665018aa1fe0e6bc666dac8fc2697ff9ba": {
                            "nonce": "0x00",
                            "balance": "0x01f99e",
                            "code": "0x",
                            "storage": {}
                        }
                    }
                }
            ]
        },
        "config": {
            "chainid": "0x01"
        },
        "_info": {
            "hash": "0x2178321f0c7d25a77b5784fdeced663e5dbd9a1af91cb92ca6031da5b94637b2",
            "comment": "`execution-spec-tests` generated test",
            "filling-transition-tool": "ethereum-spec-evm-resolver 0.0.5",
            "description": "Test function documentation:\nTest YUL compiled bytecode.",
            "url": "https://github.com/ethereum/execution-spec-tests/tree/v4.1.0/tests/homestead/yul/test_yul_example.py#L16",
            "fixture-format": "state_test",
            "eels-resolution": {
                "git-url": "https://github.com/ethereum/execution-specs.git",
                "branch": "master",
                "commit": "78fb726158c69d8fa164e28f195fabf6ab59b915"
            }
        }
    }
}