{
    "tests/osaka/eip7692_eof_v1/eip663_dupn_swapn_exchange/test_exchange.py::test_exchange_all_valid_immediates[fork_Osaka-eof_state_test]": {
        "env": {
            "currentCoinbase": "0x2adc25665018aa1fe0e6bc666dac8fc2697ff9ba",
            "currentGasLimit": "0x016345785d8a0000",
            "currentNumber": "0x01",
            "currentTimestamp": "0x03e8",
            "currentRandom": "0x0000000000000000000000000000000000000000000000000000000000000000",
            "currentDifficulty": "0x00",
            "currentBaseFee": "0x07",
            "currentExcessBlobGas": "0x00"
        },
        "pre": {
            "0xa94f5374fce5edbc8e2a8697c15331677e6ebf0b": {
                "nonce": "0x00",
                "balance": "0x3635c9adc5dea00000",
                "code": "0x",
                "storage": {}
            },
            "0x8a0a19589531694250d570040a0c4b74576919b8": {
                "nonce": "0x00",
                "balance": "0x3b9aca00",
                "code": "0x",
                "storage": {}
            },
            "0x0000000000000000000000000000000000001000": {
                "nonce": "0x01",
                "balance": "0x00",
                "code": "0xef000101000402000102cd04000000008000236103e86103e96103ea6103eb6103ec6103ed6103ee6103ef6103f06103f16103f26103f36103f46103f56103f66103f76103f86103f96103fa6103fb6103fc6103fd6103fe6103ff610400610401610402610403610404610405610406610407610408610409e800e801e802e803e804e805e806e807e808e809e80ae80be80ce80de80ee80fe810e811e812e813e814e815e816e817e818e819e81ae81be81ce81de81ee81fe820e821e822e823e824e825e826e827e828e829e82ae82be82ce82de82ee82fe830e831e832e833e834e835e836e837e838e839e83ae83be83ce83de83ee83fe840e841e842e843e844e845e846e847e848e849e84ae84be84ce84de84ee84fe850e851e852e853e854e855e856e857e858e859e85ae85be85ce85de85ee85fe860e861e862e863e864e865e866e867e868e869e86ae86be86ce86de86ee86fe870e871e872e873e874e875e876e877e878e879e87ae87be87ce87de87ee87fe880e881e882e883e884e885e886e887e888e889e88ae88be88ce88de88ee88fe890e891e892e893e894e895e896e897e898e899e89ae89be89ce89de89ee89fe8a0e8a1e8a2e8a3e8a4e8a5e8a6e8a7e8a8e8a9e8aae8abe8ace8ade8aee8afe8b0e8b1e8b2e8b3e8b4e8b5e8b6e8b7e8b8e8b9e8bae8bbe8bce8bde8bee8bfe8c0e8c1e8c2e8c3e8c4e8c5e8c6e8c7e8c8e8c9e8cae8cbe8cce8cde8cee8cfe8d0e8d1e8d2e8d3e8d4e8d5e8d6e8d7e8d8e8d9e8dae8dbe8dce8dde8dee8dfe8e0e8e1e8e2e8e3e8e4e8e5e8e6e8e7e8e8e8e9e8eae8ebe8ece8ede8eee8efe8f0e8f1e8f2e8f3e8f4e8f5e8f6e8f7e8f8e8f9e8fae8fbe8fce8fde8fee8ff600055600155600255600355600455600555600655600755600855600955600a55600b55600c55600d55600e55600f55601055601155601255601355601455601555601655601755601855601955601a55601b55601c55601d55601e55601f5560205560215500",
                "storage": {}
            }
        },
        "transaction": {
            "nonce": "0x00",
            "gasPrice": "0x0a",
            "gasLimit": [
                "0x989680"
            ],
            "to": "0x0000000000000000000000000000000000001000",
            "value": [
                "0x00"
            ],
            "data": [
                "0x"
            ],
            "sender": "0x8a0a19589531694250d570040a0c4b74576919b8",
            "secretKey": "0x9e7645d0cfd9c3a04eb7a9db59a4eb7d359f2e75c9164a9d6b9a7d54e1b6a36f"
        },
        "post": {
            "Osaka": [
                {
                    "hash": "0xd52e31130bf08f45add95817894c41725aadf118c816fb04cff979410b21b1e1",
                    "logs": "0x1dcc4de8dec75d7aab85b567b6ccd41ad312451b948a7413f0a142fd40d49347",
                    "txbytes": "0xf860800a83989680940000000000000000000000000000000000001000808025a0ee4b7012f87e423cf429499851f8becb39a147eab3f63d6426efd4d51718c6e8a04b788f452a534aab1d43e25fb5e92d1f86f730ea714f85bd045b26713ef65c99",
                    "indexes": {
                        "data": 0,
                        "gas": 0,
                        "value": 0
                    },
                    "state": {
                        "0x0000000000000000000000000000000000001000": {
                            "nonce": "0x01",
                            "balance": "0x00",
                            "code": "0xef000101000402000102cd04000000008000236103e86103e96103ea6103eb6103ec6103ed6103ee6103ef6103f06103f16103f26103f36103f46103f56103f66103f76103f86103f96103fa6103fb6103fc6103fd6103fe6103ff610400610401610402610403610404610405610406610407610408610409e800e801e802e803e804e805e806e807e808e809e80ae80be80ce80de80ee80fe810e811e812e813e814e815e816e817e818e819e81ae81be81ce81de81ee81fe820e821e822e823e824e825e826e827e828e829e82ae82be82ce82de82ee82fe830e831e832e833e834e835e836e837e838e839e83ae83be83ce83de83ee83fe840e841e842e843e844e845e846e847e848e849e84ae84be84ce84de84ee84fe850e851e852e853e854e855e856e857e858e859e85ae85be85ce85de85ee85fe860e861e862e863e864e865e866e867e868e869e86ae86be86ce86de86ee86fe870e871e872e873e874e875e876e877e878e879e87ae87be87ce87de87ee87fe880e881e882e883e884e885e886e887e888e889e88ae88be88ce88de88ee88fe890e891e892e893e894e895e896e897e898e899e89ae89be89ce89de89ee89fe8a0e8a1e8a2e8a3e8a4e8a5e8a6e8a7e8a8e8a9e8aae8abe8ace8ade8aee8afe8b0e8b1e8b2e8b3e8b4e8b5e8b6e8b7e8b8e8b9e8bae8bbe8bce8bde8bee8bfe8c0e8c1e8c2e8c3e8c4e8c5e8c6e8c7e8c8e8c9e8cae8cbe8cce8cde8cee8cfe8d0e8d1e8d2e8d3e8d4e8d5e8d6e8d7e8d8e8d9e8dae8dbe8dce8dde8dee8dfe8e0e8e1e8e2e8e3e8e4e8e5e8e6e8e7e8e8e8e9e8eae8ebe8ece8ede8eee8efe8f0e8f1e8f2e8f3e8f4e8f5e8f6e8f7e8f8e8f9e8fae8fbe8fce8fde8fee8ff600055600155600255600355600455600555600655600755600855600955600a55600b55600c55600d55600e55600f55601055601155601255601355601455601555601655601755601855601955601a55601b55601c55601d55601e55601f5560205560215500",
                            "storage": {
                                "0x00": "0x0409",
                                "0x01": "0x03f8",
                                "0x02": "0x03f7",
                                "0x03": "0x03f6",
                                "0x04": "0x03f5",
                                "0x05": "0x03f4",
                                "0x06": "0x03f3",
                                "0x07": "0x03f2",
                                "0x08": "0x03f1",
                                "0x09": "0x03f0",
                                "0x0a": "0x03ef",
                                "0x0b": "0x03ee",
                                "0x0c": "0x03ed",
                                "0x0d": "0x03ec",
                                "0x0e": "0x03eb",
                                "0x0f": "0x03ea",
                                "0x10": "0x03e9",
                                "0x11": "0x0408",
                                "0x12": "0x0407",
                                "0x13": "0x0406",
                                "0x14": "0x0405",
                                "0x15": "0x0404",
                                "0x16": "0x0403",
                                "0x17": "0x0402",
                                "0x18": "0x0401",
                                "0x19": "0x0400",
                                "0x1a": "0x03ff",
                                "0x1b": "0x03fe",
                                "0x1c": "0x03fd",
                                "0x1d": "0x03fc",
                                "0x1e": "0x03fb",
                                "0x1f": "0x03fa",
                                "0x20": "0x03f9",
                                "0x21": "0x03e8"
                            }
                        },
                        "0x2adc25665018aa1fe0e6bc666dac8fc2697ff9ba": {
                            "nonce": "0x00",
                            "balance": "0x2366f4",
                            "code": "0x",
                            "storage": {}
                        },
                        "0x8a0a19589531694250d570040a0c4b74576919b8": {
                            "nonce": "0x01",
                            "balance": "0x3b24c828",
                            "code": "0x",
                            "storage": {}
                        },
                        "0xa94f5374fce5edbc8e2a8697c15331677e6ebf0b": {
                            "nonce": "0x00",
                            "balance": "0x3635c9adc5dea00000",
                            "code": "0x",
                            "storage": {}
                        }
                    }
                }
            ]
        },
        "config": {
            "blobSchedule": {
                "Cancun": {
                    "target": "0x03",
                    "max": "0x06",
                    "baseFeeUpdateFraction": "0x32f0ed"
                },
                "Prague": {
                    "target": "0x06",
                    "max": "0x09",
                    "baseFeeUpdateFraction": "0x4c6964"
                }
            },
            "chainid": "0x01"
        },
        "_info": {
            "hash": "0x95ce7ec0cbc5d01e4b710a57806578df074deceb5348f53630b53c1a0260a4c4",
            "comment": "`execution-spec-tests` generated test",
            "filling-transition-tool": "evmone-t8n 0.14.1+commit.3186982f",
            "description": "Test function documentation:\nTest case for all valid EXCHANGE immediates.",
            "url": "https://github.com/ethereum/execution-spec-tests/tree/v4.1.0/tests/osaka/eip7692_eof_v1/eip663_dupn_swapn_exchange/test_exchange.py#L19",
            "fixture-format": "state_test",
            "reference-spec": "https://github.com/ethereum/EIPs/blob/master/EIPS/eip-663.md",
            "reference-spec-version": "b658bb87fe039d29e9475d5cfaebca9b92e0fca2"
        }
    }
}