{
    "tests/cancun/eip6780_selfdestruct/test_reentrancy_selfdestruct_revert.py::test_reentrancy_selfdestruct_revert[fork_Prague-state_test-second_suicide_CALL-first_suicide_CALL]": {
        "env": {
            "currentCoinbase": "0x2adc25665018aa1fe0e6bc666dac8fc2697ff9ba",
            "currentGasLimit": "0xff112233445566",
            "currentNumber": "0x01",
            "currentTimestamp": "0x03e8",
            "currentRandom": "0x0000000000000000000000000000000000000000000000000000000000000000",
            "currentDifficulty": "0x00",
            "currentBaseFee": "0x07",
            "currentExcessBlobGas": "0x00"
        },
        "pre": {
            "0x8a0a19589531694250d570040a0c4b74576919b8": {
                "nonce": "0x00",
                "balance": "0x0de0b6b3a7640000",
                "code": "0x600060006000600060007310000000000000000000000000000000000000015af1600155600060006000600060007310000000000000000000000000000000000000025af16002553d600060003e600051600355",
                "storage": {
                    "0x01": "0x0100",
                    "0x02": "0x0100",
                    "0x03": "0x0100"
                }
            },
            "0x1000000000000000000000000000000000000001": {
                "nonce": "0x00",
                "balance": "0x29a2241af62c0000",
                "code": "0x6103e8ff",
                "storage": {}
            },
            "0x1000000000000000000000000000000000000002": {
                "nonce": "0x00",
                "balance": "0x4563918244f40000",
                "code": "0x600060006000600060647310000000000000000000000000000000000000015af1600f0160005260206000fd",
                "storage": {}
            },
            "0xa94f5374fce5edbc8e2a8697c15331677e6ebf0b": {
                "nonce": "0x00",
                "balance": "0x6124fee993bc0000",
                "code": "0x",
                "storage": {}
            }
        },
        "transaction": {
            "nonce": "0x00",
            "gasPrice": "0x0a",
            "gasLimit": [
                "0x07a120"
            ],
            "to": "0x8a0a19589531694250d570040a0c4b74576919b8",
            "value": [
                "0x00"
            ],
            "data": [
                "0x"
            ],
            "sender": "0xa94f5374fce5edbc8e2a8697c15331677e6ebf0b",
            "secretKey": "0x45a915e4d060149eb4365960e6a7a45f334393093061116b197e3240065ff2d8"
        },
        "post": {
            "Prague": [
                {
                    "hash": "0xaf39cb7574538c4ed2be5e4c8b27062d741fb5409c3947c59a5405923274adcb",
                    "logs": "0x1dcc4de8dec75d7aab85b567b6ccd41ad312451b948a7413f0a142fd40d49347",
                    "txbytes": "0xf860800a8307a120948a0a19589531694250d570040a0c4b74576919b880801ca09a207ad45b7fc2aa5f8e72a30487f2b0bc489778e6d022f19036efdf2a922a17a0640d4da05078b5a4aa561f1b4d58176ea828bfa0f88d27d14459c1d789e1a1eb",
                    "indexes": {
                        "data": 0,
                        "gas": 0,
                        "value": 0
                    }
                }
            ]
        },
        "_info": {
            "hash": "0x90833e81da8dda01b9f5d3429730bdc75edfbb839f45d1fd8f4444caa0ce41cf",
            "comment": "`execution-spec-tests` generated test",
            "filling-transition-tool": "ethereum-spec-evm-resolver 0.0.1",
            "description": "Test function documentation:\n\n    Suicide reentrancy scenario:\n\n    Call|Callcode|Delegatecall the contract S.\n    S self destructs.\n    Call the revert proxy contract R.\n    R Calls|Callcode|Delegatecall S.\n    S self destructs (for the second time).\n    R reverts (including the effects of the second selfdestruct).\n    It is expected the S is self destructed after the transaction.",
            "url": "https://github.com/ethereum/execution-spec-tests/blob/pectra-devnet-5@v1.0.0/tests/cancun/eip6780_selfdestruct/test_reentrancy_selfdestruct_revert.py#L35",
            "fixture_format": "state_test",
            "reference-spec": "https://github.com/ethereum/EIPs/blob/master/EIPS/eip-6780.md",
            "reference-spec-version": "2f8299df31bb8173618901a03a8366a3183479b0"
        }
    },
    "tests/cancun/eip6780_selfdestruct/test_reentrancy_selfdestruct_revert.py::test_reentrancy_selfdestruct_revert[fork_Prague-state_test-second_suicide_CALL-first_suicide_CALLCODE]": {
        "env": {
            "currentCoinbase": "0x2adc25665018aa1fe0e6bc666dac8fc2697ff9ba",
            "currentGasLimit": "0xff112233445566",
            "currentNumber": "0x01",
            "currentTimestamp": "0x03e8",
            "currentRandom": "0x0000000000000000000000000000000000000000000000000000000000000000",
            "currentDifficulty": "0x00",
            "currentBaseFee": "0x07",
            "currentExcessBlobGas": "0x00"
        },
        "pre": {
            "0x8a0a19589531694250d570040a0c4b74576919b8": {
                "nonce": "0x00",
                "balance": "0x0de0b6b3a7640000",
                "code": "0x600060006000600060007310000000000000000000000000000000000000015af2600155600060006000600060007310000000000000000000000000000000000000025af16002553d600060003e600051600355",
                "storage": {
                    "0x01": "0x0100",
                    "0x02": "0x0100",
                    "0x03": "0x0100"
                }
            },
            "0x1000000000000000000000000000000000000001": {
                "nonce": "0x00",
                "balance": "0x29a2241af62c0000",
                "code": "0x6103e8ff",
                "storage": {}
            },
            "0x1000000000000000000000000000000000000002": {
                "nonce": "0x00",
                "balance": "0x4563918244f40000",
                "code": "0x600060006000600060647310000000000000000000000000000000000000015af1600f0160005260206000fd",
                "storage": {}
            },
            "0xa94f5374fce5edbc8e2a8697c15331677e6ebf0b": {
                "nonce": "0x00",
                "balance": "0x6124fee993bc0000",
                "code": "0x",
                "storage": {}
            }
        },
        "transaction": {
            "nonce": "0x00",
            "gasPrice": "0x0a",
            "gasLimit": [
                "0x07a120"
            ],
            "to": "0x8a0a19589531694250d570040a0c4b74576919b8",
            "value": [
                "0x00"
            ],
            "data": [
                "0x"
            ],
            "sender": "0xa94f5374fce5edbc8e2a8697c15331677e6ebf0b",
            "secretKey": "0x45a915e4d060149eb4365960e6a7a45f334393093061116b197e3240065ff2d8"
        },
        "post": {
            "Prague": [
                {
                    "hash": "0x8bbc3b8cb7c76b27e3dd1ae6fdc914f8b82c58d1a419c9b455060a31d8eeaade",
                    "logs": "0x1dcc4de8dec75d7aab85b567b6ccd41ad312451b948a7413f0a142fd40d49347",
                    "txbytes": "0xf860800a8307a120948a0a19589531694250d570040a0c4b74576919b880801ca09a207ad45b7fc2aa5f8e72a30487f2b0bc489778e6d022f19036efdf2a922a17a0640d4da05078b5a4aa561f1b4d58176ea828bfa0f88d27d14459c1d789e1a1eb",
                    "indexes": {
                        "data": 0,
                        "gas": 0,
                        "value": 0
                    }
                }
            ]
        },
        "_info": {
            "hash": "0x5969946e7fc3dc8ebf3fea1c6d42cf835bfe3f4cd6edf27b9bb8faed74141b32",
            "comment": "`execution-spec-tests` generated test",
            "filling-transition-tool": "ethereum-spec-evm-resolver 0.0.1",
            "description": "Test function documentation:\n\n    Suicide reentrancy scenario:\n\n    Call|Callcode|Delegatecall the contract S.\n    S self destructs.\n    Call the revert proxy contract R.\n    R Calls|Callcode|Delegatecall S.\n    S self destructs (for the second time).\n    R reverts (including the effects of the second selfdestruct).\n    It is expected the S is self destructed after the transaction.",
            "url": "https://github.com/ethereum/execution-spec-tests/blob/pectra-devnet-5@v1.0.0/tests/cancun/eip6780_selfdestruct/test_reentrancy_selfdestruct_revert.py#L35",
            "fixture_format": "state_test",
            "reference-spec": "https://github.com/ethereum/EIPs/blob/master/EIPS/eip-6780.md",
            "reference-spec-version": "2f8299df31bb8173618901a03a8366a3183479b0"
        }
    },
    "tests/cancun/eip6780_selfdestruct/test_reentrancy_selfdestruct_revert.py::test_reentrancy_selfdestruct_revert[fork_Prague-state_test-second_suicide_CALL-first_suicide_DELEGATECALL]": {
        "env": {
            "currentCoinbase": "0x2adc25665018aa1fe0e6bc666dac8fc2697ff9ba",
            "currentGasLimit": "0xff112233445566",
            "currentNumber": "0x01",
            "currentTimestamp": "0x03e8",
            "currentRandom": "0x0000000000000000000000000000000000000000000000000000000000000000",
            "currentDifficulty": "0x00",
            "currentBaseFee": "0x07",
            "currentExcessBlobGas": "0x00"
        },
        "pre": {
            "0x8a0a19589531694250d570040a0c4b74576919b8": {
                "nonce": "0x00",
                "balance": "0x0de0b6b3a7640000",
                "code": "0x60006000600060007310000000000000000000000000000000000000015af4600155600060006000600060007310000000000000000000000000000000000000025af16002553d600060003e600051600355",
                "storage": {
                    "0x01": "0x0100",
                    "0x02": "0x0100",
                    "0x03": "0x0100"
                }
            },
            "0x1000000000000000000000000000000000000001": {
                "nonce": "0x00",
                "balance": "0x29a2241af62c0000",
                "code": "0x6103e8ff",
                "storage": {}
            },
            "0x1000000000000000000000000000000000000002": {
                "nonce": "0x00",
                "balance": "0x4563918244f40000",
                "code": "0x600060006000600060647310000000000000000000000000000000000000015af1600f0160005260206000fd",
                "storage": {}
            },
            "0xa94f5374fce5edbc8e2a8697c15331677e6ebf0b": {
                "nonce": "0x00",
                "balance": "0x6124fee993bc0000",
                "code": "0x",
                "storage": {}
            }
        },
        "transaction": {
            "nonce": "0x00",
            "gasPrice": "0x0a",
            "gasLimit": [
                "0x07a120"
            ],
            "to": "0x8a0a19589531694250d570040a0c4b74576919b8",
            "value": [
                "0x00"
            ],
            "data": [
                "0x"
            ],
            "sender": "0xa94f5374fce5edbc8e2a8697c15331677e6ebf0b",
            "secretKey": "0x45a915e4d060149eb4365960e6a7a45f334393093061116b197e3240065ff2d8"
        },
        "post": {
            "Prague": [
                {
                    "hash": "0xb32f3dd12005498903b43ca4e53fff7590c67c575dda288db4470a703b11d503",
                    "logs": "0x1dcc4de8dec75d7aab85b567b6ccd41ad312451b948a7413f0a142fd40d49347",
                    "txbytes": "0xf860800a8307a120948a0a19589531694250d570040a0c4b74576919b880801ca09a207ad45b7fc2aa5f8e72a30487f2b0bc489778e6d022f19036efdf2a922a17a0640d4da05078b5a4aa561f1b4d58176ea828bfa0f88d27d14459c1d789e1a1eb",
                    "indexes": {
                        "data": 0,
                        "gas": 0,
                        "value": 0
                    }
                }
            ]
        },
        "_info": {
            "hash": "0xfa59f3bf265bb99fd7bd83b19db9c52cf41bac1642cd1157fc93c17fb74bcc5a",
            "comment": "`execution-spec-tests` generated test",
            "filling-transition-tool": "ethereum-spec-evm-resolver 0.0.1",
            "description": "Test function documentation:\n\n    Suicide reentrancy scenario:\n\n    Call|Callcode|Delegatecall the contract S.\n    S self destructs.\n    Call the revert proxy contract R.\n    R Calls|Callcode|Delegatecall S.\n    S self destructs (for the second time).\n    R reverts (including the effects of the second selfdestruct).\n    It is expected the S is self destructed after the transaction.",
            "url": "https://github.com/ethereum/execution-spec-tests/blob/pectra-devnet-5@v1.0.0/tests/cancun/eip6780_selfdestruct/test_reentrancy_selfdestruct_revert.py#L35",
            "fixture_format": "state_test",
            "reference-spec": "https://github.com/ethereum/EIPs/blob/master/EIPS/eip-6780.md",
            "reference-spec-version": "2f8299df31bb8173618901a03a8366a3183479b0"
        }
    },
    "tests/cancun/eip6780_selfdestruct/test_reentrancy_selfdestruct_revert.py::test_reentrancy_selfdestruct_revert[fork_Prague-state_test-second_suicide_CALLCODE-first_suicide_CALL]": {
        "env": {
            "currentCoinbase": "0x2adc25665018aa1fe0e6bc666dac8fc2697ff9ba",
            "currentGasLimit": "0xff112233445566",
            "currentNumber": "0x01",
            "currentTimestamp": "0x03e8",
            "currentRandom": "0x0000000000000000000000000000000000000000000000000000000000000000",
            "currentDifficulty": "0x00",
            "currentBaseFee": "0x07",
            "currentExcessBlobGas": "0x00"
        },
        "pre": {
            "0x8a0a19589531694250d570040a0c4b74576919b8": {
                "nonce": "0x00",
                "balance": "0x0de0b6b3a7640000",
                "code": "0x600060006000600060007310000000000000000000000000000000000000015af1600155600060006000600060007310000000000000000000000000000000000000025af16002553d600060003e600051600355",
                "storage": {
                    "0x01": "0x0100",
                    "0x02": "0x0100",
                    "0x03": "0x0100"
                }
            },
            "0x1000000000000000000000000000000000000001": {
                "nonce": "0x00",
                "balance": "0x29a2241af62c0000",
                "code": "0x6103e8ff",
                "storage": {}
            },
            "0x1000000000000000000000000000000000000002": {
                "nonce": "0x00",
                "balance": "0x4563918244f40000",
                "code": "0x600060006000600060647310000000000000000000000000000000000000015af2600f0160005260206000fd",
                "storage": {}
            },
            "0xa94f5374fce5edbc8e2a8697c15331677e6ebf0b": {
                "nonce": "0x00",
                "balance": "0x6124fee993bc0000",
                "code": "0x",
                "storage": {}
            }
        },
        "transaction": {
            "nonce": "0x00",
            "gasPrice": "0x0a",
            "gasLimit": [
                "0x07a120"
            ],
            "to": "0x8a0a19589531694250d570040a0c4b74576919b8",
            "value": [
                "0x00"
            ],
            "data": [
                "0x"
            ],
            "sender": "0xa94f5374fce5edbc8e2a8697c15331677e6ebf0b",
            "secretKey": "0x45a915e4d060149eb4365960e6a7a45f334393093061116b197e3240065ff2d8"
        },
        "post": {
            "Prague": [
                {
                    "hash": "0x0d4ebc4d54ba8d96ce314de318463756ed1c77d238d9e7081f35c15b599911d6",
                    "logs": "0x1dcc4de8dec75d7aab85b567b6ccd41ad312451b948a7413f0a142fd40d49347",
                    "txbytes": "0xf860800a8307a120948a0a19589531694250d570040a0c4b74576919b880801ca09a207ad45b7fc2aa5f8e72a30487f2b0bc489778e6d022f19036efdf2a922a17a0640d4da05078b5a4aa561f1b4d58176ea828bfa0f88d27d14459c1d789e1a1eb",
                    "indexes": {
                        "data": 0,
                        "gas": 0,
                        "value": 0
                    }
                }
            ]
        },
        "_info": {
            "hash": "0xfcea14a190f934eaeb20e79ae4ef6d117def7f5f693747bc690bb513087c43a4",
            "comment": "`execution-spec-tests` generated test",
            "filling-transition-tool": "ethereum-spec-evm-resolver 0.0.1",
            "description": "Test function documentation:\n\n    Suicide reentrancy scenario:\n\n    Call|Callcode|Delegatecall the contract S.\n    S self destructs.\n    Call the revert proxy contract R.\n    R Calls|Callcode|Delegatecall S.\n    S self destructs (for the second time).\n    R reverts (including the effects of the second selfdestruct).\n    It is expected the S is self destructed after the transaction.",
            "url": "https://github.com/ethereum/execution-spec-tests/blob/pectra-devnet-5@v1.0.0/tests/cancun/eip6780_selfdestruct/test_reentrancy_selfdestruct_revert.py#L35",
            "fixture_format": "state_test",
            "reference-spec": "https://github.com/ethereum/EIPs/blob/master/EIPS/eip-6780.md",
            "reference-spec-version": "2f8299df31bb8173618901a03a8366a3183479b0"
        }
    },
    "tests/cancun/eip6780_selfdestruct/test_reentrancy_selfdestruct_revert.py::test_reentrancy_selfdestruct_revert[fork_Prague-state_test-second_suicide_CALLCODE-first_suicide_CALLCODE]": {
        "env": {
            "currentCoinbase": "0x2adc25665018aa1fe0e6bc666dac8fc2697ff9ba",
            "currentGasLimit": "0xff112233445566",
            "currentNumber": "0x01",
            "currentTimestamp": "0x03e8",
            "currentRandom": "0x0000000000000000000000000000000000000000000000000000000000000000",
            "currentDifficulty": "0x00",
            "currentBaseFee": "0x07",
            "currentExcessBlobGas": "0x00"
        },
        "pre": {
            "0x8a0a19589531694250d570040a0c4b74576919b8": {
                "nonce": "0x00",
                "balance": "0x0de0b6b3a7640000",
                "code": "0x600060006000600060007310000000000000000000000000000000000000015af2600155600060006000600060007310000000000000000000000000000000000000025af16002553d600060003e600051600355",
                "storage": {
                    "0x01": "0x0100",
                    "0x02": "0x0100",
                    "0x03": "0x0100"
                }
            },
            "0x1000000000000000000000000000000000000001": {
                "nonce": "0x00",
                "balance": "0x29a2241af62c0000",
                "code": "0x6103e8ff",
                "storage": {}
            },
            "0x1000000000000000000000000000000000000002": {
                "nonce": "0x00",
                "balance": "0x4563918244f40000",
                "code": "0x600060006000600060647310000000000000000000000000000000000000015af2600f0160005260206000fd",
                "storage": {}
            },
            "0xa94f5374fce5edbc8e2a8697c15331677e6ebf0b": {
                "nonce": "0x00",
                "balance": "0x6124fee993bc0000",
                "code": "0x",
                "storage": {}
            }
        },
        "transaction": {
            "nonce": "0x00",
            "gasPrice": "0x0a",
            "gasLimit": [
                "0x07a120"
            ],
            "to": "0x8a0a19589531694250d570040a0c4b74576919b8",
            "value": [
                "0x00"
            ],
            "data": [
                "0x"
            ],
            "sender": "0xa94f5374fce5edbc8e2a8697c15331677e6ebf0b",
            "secretKey": "0x45a915e4d060149eb4365960e6a7a45f334393093061116b197e3240065ff2d8"
        },
        "post": {
            "Prague": [
                {
                    "hash": "0xfc763872b761845845f0b78d8ad85fadb9d486fbe1f929e7c3857e1de74d7061",
                    "logs": "0x1dcc4de8dec75d7aab85b567b6ccd41ad312451b948a7413f0a142fd40d49347",
                    "txbytes": "0xf860800a8307a120948a0a19589531694250d570040a0c4b74576919b880801ca09a207ad45b7fc2aa5f8e72a30487f2b0bc489778e6d022f19036efdf2a922a17a0640d4da05078b5a4aa561f1b4d58176ea828bfa0f88d27d14459c1d789e1a1eb",
                    "indexes": {
                        "data": 0,
                        "gas": 0,
                        "value": 0
                    }
                }
            ]
        },
        "_info": {
            "hash": "0xd9af79559b930115ca4e0ebf85ed307c3d3fb59834277eaec47d788d92c59e1f",
            "comment": "`execution-spec-tests` generated test",
            "filling-transition-tool": "ethereum-spec-evm-resolver 0.0.1",
            "description": "Test function documentation:\n\n    Suicide reentrancy scenario:\n\n    Call|Callcode|Delegatecall the contract S.\n    S self destructs.\n    Call the revert proxy contract R.\n    R Calls|Callcode|Delegatecall S.\n    S self destructs (for the second time).\n    R reverts (including the effects of the second selfdestruct).\n    It is expected the S is self destructed after the transaction.",
            "url": "https://github.com/ethereum/execution-spec-tests/blob/pectra-devnet-5@v1.0.0/tests/cancun/eip6780_selfdestruct/test_reentrancy_selfdestruct_revert.py#L35",
            "fixture_format": "state_test",
            "reference-spec": "https://github.com/ethereum/EIPs/blob/master/EIPS/eip-6780.md",
            "reference-spec-version": "2f8299df31bb8173618901a03a8366a3183479b0"
        }
    },
    "tests/cancun/eip6780_selfdestruct/test_reentrancy_selfdestruct_revert.py::test_reentrancy_selfdestruct_revert[fork_Prague-state_test-second_suicide_CALLCODE-first_suicide_DELEGATECALL]": {
        "env": {
            "currentCoinbase": "0x2adc25665018aa1fe0e6bc666dac8fc2697ff9ba",
            "currentGasLimit": "0xff112233445566",
            "currentNumber": "0x01",
            "currentTimestamp": "0x03e8",
            "currentRandom": "0x0000000000000000000000000000000000000000000000000000000000000000",
            "currentDifficulty": "0x00",
            "currentBaseFee": "0x07",
            "currentExcessBlobGas": "0x00"
        },
        "pre": {
            "0x8a0a19589531694250d570040a0c4b74576919b8": {
                "nonce": "0x00",
                "balance": "0x0de0b6b3a7640000",
                "code": "0x60006000600060007310000000000000000000000000000000000000015af4600155600060006000600060007310000000000000000000000000000000000000025af16002553d600060003e600051600355",
                "storage": {
                    "0x01": "0x0100",
                    "0x02": "0x0100",
                    "0x03": "0x0100"
                }
            },
            "0x1000000000000000000000000000000000000001": {
                "nonce": "0x00",
                "balance": "0x29a2241af62c0000",
                "code": "0x6103e8ff",
                "storage": {}
            },
            "0x1000000000000000000000000000000000000002": {
                "nonce": "0x00",
                "balance": "0x4563918244f40000",
                "code": "0x600060006000600060647310000000000000000000000000000000000000015af2600f0160005260206000fd",
                "storage": {}
            },
            "0xa94f5374fce5edbc8e2a8697c15331677e6ebf0b": {
                "nonce": "0x00",
                "balance": "0x6124fee993bc0000",
                "code": "0x",
                "storage": {}
            }
        },
        "transaction": {
            "nonce": "0x00",
            "gasPrice": "0x0a",
            "gasLimit": [
                "0x07a120"
            ],
            "to": "0x8a0a19589531694250d570040a0c4b74576919b8",
            "value": [
                "0x00"
            ],
            "data": [
                "0x"
            ],
            "sender": "0xa94f5374fce5edbc8e2a8697c15331677e6ebf0b",
            "secretKey": "0x45a915e4d060149eb4365960e6a7a45f334393093061116b197e3240065ff2d8"
        },
        "post": {
            "Prague": [
                {
                    "hash": "0xa4f23b751f20f7d10079bd558ffae4d8c352b13ec7406833ff9406cfd7d42966",
                    "logs": "0x1dcc4de8dec75d7aab85b567b6ccd41ad312451b948a7413f0a142fd40d49347",
                    "txbytes": "0xf860800a8307a120948a0a19589531694250d570040a0c4b74576919b880801ca09a207ad45b7fc2aa5f8e72a30487f2b0bc489778e6d022f19036efdf2a922a17a0640d4da05078b5a4aa561f1b4d58176ea828bfa0f88d27d14459c1d789e1a1eb",
                    "indexes": {
                        "data": 0,
                        "gas": 0,
                        "value": 0
                    }
                }
            ]
        },
        "_info": {
            "hash": "0xa3b331a0bd3eea6b63187d0287b4827c82bb7719bc27998d62ddd00fcba439fe",
            "comment": "`execution-spec-tests` generated test",
            "filling-transition-tool": "ethereum-spec-evm-resolver 0.0.1",
            "description": "Test function documentation:\n\n    Suicide reentrancy scenario:\n\n    Call|Callcode|Delegatecall the contract S.\n    S self destructs.\n    Call the revert proxy contract R.\n    R Calls|Callcode|Delegatecall S.\n    S self destructs (for the second time).\n    R reverts (including the effects of the second selfdestruct).\n    It is expected the S is self destructed after the transaction.",
            "url": "https://github.com/ethereum/execution-spec-tests/blob/pectra-devnet-5@v1.0.0/tests/cancun/eip6780_selfdestruct/test_reentrancy_selfdestruct_revert.py#L35",
            "fixture_format": "state_test",
            "reference-spec": "https://github.com/ethereum/EIPs/blob/master/EIPS/eip-6780.md",
            "reference-spec-version": "2f8299df31bb8173618901a03a8366a3183479b0"
        }
    },
    "tests/cancun/eip6780_selfdestruct/test_reentrancy_selfdestruct_revert.py::test_reentrancy_selfdestruct_revert[fork_Prague-state_test-second_suicide_DELEGATECALL-first_suicide_CALL]": {
        "env": {
            "currentCoinbase": "0x2adc25665018aa1fe0e6bc666dac8fc2697ff9ba",
            "currentGasLimit": "0xff112233445566",
            "currentNumber": "0x01",
            "currentTimestamp": "0x03e8",
            "currentRandom": "0x0000000000000000000000000000000000000000000000000000000000000000",
            "currentDifficulty": "0x00",
            "currentBaseFee": "0x07",
            "currentExcessBlobGas": "0x00"
        },
        "pre": {
            "0x8a0a19589531694250d570040a0c4b74576919b8": {
                "nonce": "0x00",
                "balance": "0x0de0b6b3a7640000",
                "code": "0x600060006000600060007310000000000000000000000000000000000000015af1600155600060006000600060007310000000000000000000000000000000000000025af16002553d600060003e600051600355",
                "storage": {
                    "0x01": "0x0100",
                    "0x02": "0x0100",
                    "0x03": "0x0100"
                }
            },
            "0x1000000000000000000000000000000000000001": {
                "nonce": "0x00",
                "balance": "0x29a2241af62c0000",
                "code": "0x6103e8ff",
                "storage": {}
            },
            "0x1000000000000000000000000000000000000002": {
                "nonce": "0x00",
                "balance": "0x4563918244f40000",
                "code": "0x60006000600060647310000000000000000000000000000000000000015af4600f0160005260206000fd",
                "storage": {}
            },
            "0xa94f5374fce5edbc8e2a8697c15331677e6ebf0b": {
                "nonce": "0x00",
                "balance": "0x6124fee993bc0000",
                "code": "0x",
                "storage": {}
            }
        },
        "transaction": {
            "nonce": "0x00",
            "gasPrice": "0x0a",
            "gasLimit": [
                "0x07a120"
            ],
            "to": "0x8a0a19589531694250d570040a0c4b74576919b8",
            "value": [
                "0x00"
            ],
            "data": [
                "0x"
            ],
            "sender": "0xa94f5374fce5edbc8e2a8697c15331677e6ebf0b",
            "secretKey": "0x45a915e4d060149eb4365960e6a7a45f334393093061116b197e3240065ff2d8"
        },
        "post": {
            "Prague": [
                {
                    "hash": "0x28ec043a81588b2c621632c9655e4a2bee45d2aed3638ecd9c4c695e9df9cd28",
                    "logs": "0x1dcc4de8dec75d7aab85b567b6ccd41ad312451b948a7413f0a142fd40d49347",
                    "txbytes": "0xf860800a8307a120948a0a19589531694250d570040a0c4b74576919b880801ca09a207ad45b7fc2aa5f8e72a30487f2b0bc489778e6d022f19036efdf2a922a17a0640d4da05078b5a4aa561f1b4d58176ea828bfa0f88d27d14459c1d789e1a1eb",
                    "indexes": {
                        "data": 0,
                        "gas": 0,
                        "value": 0
                    }
                }
            ]
        },
        "_info": {
            "hash": "0x388eaa66590b90a16191ecb9958f1619fcea01fa3e9a1815e6eab0463e0ff530",
            "comment": "`execution-spec-tests` generated test",
            "filling-transition-tool": "ethereum-spec-evm-resolver 0.0.1",
            "description": "Test function documentation:\n\n    Suicide reentrancy scenario:\n\n    Call|Callcode|Delegatecall the contract S.\n    S self destructs.\n    Call the revert proxy contract R.\n    R Calls|Callcode|Delegatecall S.\n    S self destructs (for the second time).\n    R reverts (including the effects of the second selfdestruct).\n    It is expected the S is self destructed after the transaction.",
            "url": "https://github.com/ethereum/execution-spec-tests/blob/pectra-devnet-5@v1.0.0/tests/cancun/eip6780_selfdestruct/test_reentrancy_selfdestruct_revert.py#L35",
            "fixture_format": "state_test",
            "reference-spec": "https://github.com/ethereum/EIPs/blob/master/EIPS/eip-6780.md",
            "reference-spec-version": "2f8299df31bb8173618901a03a8366a3183479b0"
        }
    },
    "tests/cancun/eip6780_selfdestruct/test_reentrancy_selfdestruct_revert.py::test_reentrancy_selfdestruct_revert[fork_Prague-state_test-second_suicide_DELEGATECALL-first_suicide_CALLCODE]": {
        "env": {
            "currentCoinbase": "0x2adc25665018aa1fe0e6bc666dac8fc2697ff9ba",
            "currentGasLimit": "0xff112233445566",
            "currentNumber": "0x01",
            "currentTimestamp": "0x03e8",
            "currentRandom": "0x0000000000000000000000000000000000000000000000000000000000000000",
            "currentDifficulty": "0x00",
            "currentBaseFee": "0x07",
            "currentExcessBlobGas": "0x00"
        },
        "pre": {
            "0x8a0a19589531694250d570040a0c4b74576919b8": {
                "nonce": "0x00",
                "balance": "0x0de0b6b3a7640000",
                "code": "0x600060006000600060007310000000000000000000000000000000000000015af2600155600060006000600060007310000000000000000000000000000000000000025af16002553d600060003e600051600355",
                "storage": {
                    "0x01": "0x0100",
                    "0x02": "0x0100",
                    "0x03": "0x0100"
                }
            },
            "0x1000000000000000000000000000000000000001": {
                "nonce": "0x00",
                "balance": "0x29a2241af62c0000",
                "code": "0x6103e8ff",
                "storage": {}
            },
            "0x1000000000000000000000000000000000000002": {
                "nonce": "0x00",
                "balance": "0x4563918244f40000",
                "code": "0x60006000600060647310000000000000000000000000000000000000015af4600f0160005260206000fd",
                "storage": {}
            },
            "0xa94f5374fce5edbc8e2a8697c15331677e6ebf0b": {
                "nonce": "0x00",
                "balance": "0x6124fee993bc0000",
                "code": "0x",
                "storage": {}
            }
        },
        "transaction": {
            "nonce": "0x00",
            "gasPrice": "0x0a",
            "gasLimit": [
                "0x07a120"
            ],
            "to": "0x8a0a19589531694250d570040a0c4b74576919b8",
            "value": [
                "0x00"
            ],
            "data": [
                "0x"
            ],
            "sender": "0xa94f5374fce5edbc8e2a8697c15331677e6ebf0b",
            "secretKey": "0x45a915e4d060149eb4365960e6a7a45f334393093061116b197e3240065ff2d8"
        },
        "post": {
            "Prague": [
                {
                    "hash": "0x79c1ed5acb26f6ab1651be99711cfb412cd21a54f1df48996e8dec9f6d0882a4",
                    "logs": "0x1dcc4de8dec75d7aab85b567b6ccd41ad312451b948a7413f0a142fd40d49347",
                    "txbytes": "0xf860800a8307a120948a0a19589531694250d570040a0c4b74576919b880801ca09a207ad45b7fc2aa5f8e72a30487f2b0bc489778e6d022f19036efdf2a922a17a0640d4da05078b5a4aa561f1b4d58176ea828bfa0f88d27d14459c1d789e1a1eb",
                    "indexes": {
                        "data": 0,
                        "gas": 0,
                        "value": 0
                    }
                }
            ]
        },
        "_info": {
            "hash": "0xd8c0ad446661cb60dc8108a95103c72be5e3dffce45d1ef885f0e33049b20940",
            "comment": "`execution-spec-tests` generated test",
            "filling-transition-tool": "ethereum-spec-evm-resolver 0.0.1",
            "description": "Test function documentation:\n\n    Suicide reentrancy scenario:\n\n    Call|Callcode|Delegatecall the contract S.\n    S self destructs.\n    Call the revert proxy contract R.\n    R Calls|Callcode|Delegatecall S.\n    S self destructs (for the second time).\n    R reverts (including the effects of the second selfdestruct).\n    It is expected the S is self destructed after the transaction.",
            "url": "https://github.com/ethereum/execution-spec-tests/blob/pectra-devnet-5@v1.0.0/tests/cancun/eip6780_selfdestruct/test_reentrancy_selfdestruct_revert.py#L35",
            "fixture_format": "state_test",
            "reference-spec": "https://github.com/ethereum/EIPs/blob/master/EIPS/eip-6780.md",
            "reference-spec-version": "2f8299df31bb8173618901a03a8366a3183479b0"
        }
    },
    "tests/cancun/eip6780_selfdestruct/test_reentrancy_selfdestruct_revert.py::test_reentrancy_selfdestruct_revert[fork_Prague-state_test-second_suicide_DELEGATECALL-first_suicide_DELEGATECALL]": {
        "env": {
            "currentCoinbase": "0x2adc25665018aa1fe0e6bc666dac8fc2697ff9ba",
            "currentGasLimit": "0xff112233445566",
            "currentNumber": "0x01",
            "currentTimestamp": "0x03e8",
            "currentRandom": "0x0000000000000000000000000000000000000000000000000000000000000000",
            "currentDifficulty": "0x00",
            "currentBaseFee": "0x07",
            "currentExcessBlobGas": "0x00"
        },
        "pre": {
            "0x8a0a19589531694250d570040a0c4b74576919b8": {
                "nonce": "0x00",
                "balance": "0x0de0b6b3a7640000",
                "code": "0x60006000600060007310000000000000000000000000000000000000015af4600155600060006000600060007310000000000000000000000000000000000000025af16002553d600060003e600051600355",
                "storage": {
                    "0x01": "0x0100",
                    "0x02": "0x0100",
                    "0x03": "0x0100"
                }
            },
            "0x1000000000000000000000000000000000000001": {
                "nonce": "0x00",
                "balance": "0x29a2241af62c0000",
                "code": "0x6103e8ff",
                "storage": {}
            },
            "0x1000000000000000000000000000000000000002": {
                "nonce": "0x00",
                "balance": "0x4563918244f40000",
                "code": "0x60006000600060647310000000000000000000000000000000000000015af4600f0160005260206000fd",
                "storage": {}
            },
            "0xa94f5374fce5edbc8e2a8697c15331677e6ebf0b": {
                "nonce": "0x00",
                "balance": "0x6124fee993bc0000",
                "code": "0x",
                "storage": {}
            }
        },
        "transaction": {
            "nonce": "0x00",
            "gasPrice": "0x0a",
            "gasLimit": [
                "0x07a120"
            ],
            "to": "0x8a0a19589531694250d570040a0c4b74576919b8",
            "value": [
                "0x00"
            ],
            "data": [
                "0x"
            ],
            "sender": "0xa94f5374fce5edbc8e2a8697c15331677e6ebf0b",
            "secretKey": "0x45a915e4d060149eb4365960e6a7a45f334393093061116b197e3240065ff2d8"
        },
        "post": {
            "Prague": [
                {
                    "hash": "0xf32a585c2df32f9cbe5f9460aac40aac2103eac9b7e97187b8fe10dbbead8b02",
                    "logs": "0x1dcc4de8dec75d7aab85b567b6ccd41ad312451b948a7413f0a142fd40d49347",
                    "txbytes": "0xf860800a8307a120948a0a19589531694250d570040a0c4b74576919b880801ca09a207ad45b7fc2aa5f8e72a30487f2b0bc489778e6d022f19036efdf2a922a17a0640d4da05078b5a4aa561f1b4d58176ea828bfa0f88d27d14459c1d789e1a1eb",
                    "indexes": {
                        "data": 0,
                        "gas": 0,
                        "value": 0
                    }
                }
            ]
        },
        "_info": {
            "hash": "0x5b8ab4ac3a5fa827aed04f9dd4ffc9c81ff5896c8ca8d0f6c2ed81fda88ff867",
            "comment": "`execution-spec-tests` generated test",
            "filling-transition-tool": "ethereum-spec-evm-resolver 0.0.1",
            "description": "Test function documentation:\n\n    Suicide reentrancy scenario:\n\n    Call|Callcode|Delegatecall the contract S.\n    S self destructs.\n    Call the revert proxy contract R.\n    R Calls|Callcode|Delegatecall S.\n    S self destructs (for the second time).\n    R reverts (including the effects of the second selfdestruct).\n    It is expected the S is self destructed after the transaction.",
            "url": "https://github.com/ethereum/execution-spec-tests/blob/pectra-devnet-5@v1.0.0/tests/cancun/eip6780_selfdestruct/test_reentrancy_selfdestruct_revert.py#L35",
            "fixture_format": "state_test",
            "reference-spec": "https://github.com/ethereum/EIPs/blob/master/EIPS/eip-6780.md",
            "reference-spec-version": "2f8299df31bb8173618901a03a8366a3183479b0"
        }
    }
}