{
    "tests/cancun/eip4844_blobs/test_blob_txs.py::test_invalid_blob_hash_versioning_single_tx[fork_Cancun-state_test--multiple_blobs]": {
        "env": {
            "currentCoinbase": "0x2adc25665018aa1fe0e6bc666dac8fc2697ff9ba",
            "currentGasLimit": "0x016345785d8a0000",
            "currentNumber": "0x01",
            "currentTimestamp": "0x03e8",
            "currentRandom": "0x0000000000000000000000000000000000000000000000000000000000000000",
            "currentDifficulty": "0x00",
            "currentBaseFee": "0x07",
            "currentExcessBlobGas": "0x0e0000"
        },
        "pre": {
            "0xa94f5374fce5edbc8e2a8697c15331677e6ebf0b": {
                "nonce": "0x00",
                "balance": "0x063e39",
                "code": "0x",
                "storage": {}
            }
        },
        "transaction": {
            "nonce": "0x00",
            "maxPriorityFeePerGas": "0x00",
            "maxFeePerGas": "0x07",
            "gasLimit": [
                "0x5208"
            ],
            "to": "0x8a0a19589531694250d570040a0c4b74576919b8",
            "value": [
                "0x01"
            ],
            "data": [
                "0x"
            ],
            "accessLists": [
                []
            ],
            "maxFeePerBlobGas": "0x01",
            "blobVersionedHashes": [
                "0x0000000000000000000000000000000000000000000000000000000000000000",
                "0x0000000000000000000000000000000000000000000000000000000000000001"
            ],
            "sender": "0xa94f5374fce5edbc8e2a8697c15331677e6ebf0b",
            "secretKey": "0x45a915e4d060149eb4365960e6a7a45f334393093061116b197e3240065ff2d8"
        },
        "post": {
            "Cancun": [
                {
                    "hash": "0x9677ac41dd0c94a3b0fb3f83ed9157ebc85c2cf228be8c588534f0e3b73fed7e",
                    "logs": "0x1dcc4de8dec75d7aab85b567b6ccd41ad312451b948a7413f0a142fd40d49347",
                    "txbytes": "0x03f8a701808007825208948a0a19589531694250d570040a0c4b74576919b80180c001f842a00000000000000000000000000000000000000000000000000000000000000000a0000000000000000000000000000000000000000000000000000000000000000101a07938c0093b943ce7ae729f92c7561e9f61b6f3b0ccbccd556aed2d4e8c518de5a04efec3699698e061c567dad2f1cc94dd80dd7aa3a1f9e0b762ffa07ad648a09b",
                    "indexes": {
                        "data": 0,
                        "gas": 0,
                        "value": 0
                    },
                    "state": {
                        "0xa94f5374fce5edbc8e2a8697c15331677e6ebf0b": {
                            "nonce": "0x00",
                            "balance": "0x063e39",
                            "code": "0x",
                            "storage": {}
                        }
                    },
                    "expectException": "TransactionException.TYPE_3_TX_INVALID_BLOB_VERSIONED_HASH"
                }
            ]
        },
        "config": {
            "blobSchedule": {
                "Cancun": {
                    "target": "0x03",
                    "max": "0x06",
                    "baseFeeUpdateFraction": "0x32f0ed"
                }
            }
        },
        "_info": {
            "hash": "0xb3c6b05ca43fcd498b80189b269e27b46b15e586a42fa08ba6b806f863d259bd",
            "comment": "`execution-spec-tests` generated test",
            "filling-transition-tool": "ethereum-spec-evm-resolver 0.0.5",
            "description": "Test function documentation:\n\n    Reject blob transactions with invalid blob hash version.\n\n    - Transaction with single blob with invalid version\n    - Transaction with multiple blobs all with invalid version\n    - Transaction with multiple blobs either with invalid version",
            "url": "https://github.com/ethereum/execution-spec-tests/blob/pectra-devnet-6@v1.0.0/tests/cancun/eip4844_blobs/test_blob_txs.py#L895",
            "fixture_format": "state_test",
            "reference-spec": "https://github.com/ethereum/EIPs/blob/master/EIPS/eip-4844.md",
            "reference-spec-version": "f0eb6a364aaf5ccb43516fa2c269a54fb881ecfd",
            "eels-resolution": {
                "git-url": "https://github.com/ethereum/execution-specs.git",
                "branch": "master",
                "commit": "9b95554a88d2a8485f8180254d0f6a493a593fda"
            }
        }
    },
    "tests/cancun/eip4844_blobs/test_blob_txs.py::test_invalid_blob_hash_versioning_single_tx[fork_Cancun-state_test--multiple_blobs_single_bad_hash_1]": {
        "env": {
            "currentCoinbase": "0x2adc25665018aa1fe0e6bc666dac8fc2697ff9ba",
            "currentGasLimit": "0x016345785d8a0000",
            "currentNumber": "0x01",
            "currentTimestamp": "0x03e8",
            "currentRandom": "0x0000000000000000000000000000000000000000000000000000000000000000",
            "currentDifficulty": "0x00",
            "currentBaseFee": "0x07",
            "currentExcessBlobGas": "0x0e0000"
        },
        "pre": {
            "0xa94f5374fce5edbc8e2a8697c15331677e6ebf0b": {
                "nonce": "0x00",
                "balance": "0x063e39",
                "code": "0x",
                "storage": {}
            }
        },
        "transaction": {
            "nonce": "0x00",
            "maxPriorityFeePerGas": "0x00",
            "maxFeePerGas": "0x07",
            "gasLimit": [
                "0x5208"
            ],
            "to": "0x8a0a19589531694250d570040a0c4b74576919b8",
            "value": [
                "0x01"
            ],
            "data": [
                "0x"
            ],
            "accessLists": [
                []
            ],
            "maxFeePerBlobGas": "0x01",
            "blobVersionedHashes": [
                "0x0100000000000000000000000000000000000000000000000000000000000001",
                "0x0000000000000000000000000000000000000000000000000000000000000002"
            ],
            "sender": "0xa94f5374fce5edbc8e2a8697c15331677e6ebf0b",
            "secretKey": "0x45a915e4d060149eb4365960e6a7a45f334393093061116b197e3240065ff2d8"
        },
        "post": {
            "Cancun": [
                {
                    "hash": "0x9677ac41dd0c94a3b0fb3f83ed9157ebc85c2cf228be8c588534f0e3b73fed7e",
                    "logs": "0x1dcc4de8dec75d7aab85b567b6ccd41ad312451b948a7413f0a142fd40d49347",
                    "txbytes": "0x03f8a701808007825208948a0a19589531694250d570040a0c4b74576919b80180c001f842a00100000000000000000000000000000000000000000000000000000000000001a0000000000000000000000000000000000000000000000000000000000000000201a0fb13a9d668a6359a4af998a4b16c23fe85b0923952ddfa8a8776516bc1f45253a03640989c35e80958427f6edbb6578a0500247486c91241bb8df2e00c5f83e1fa",
                    "indexes": {
                        "data": 0,
                        "gas": 0,
                        "value": 0
                    },
                    "state": {
                        "0xa94f5374fce5edbc8e2a8697c15331677e6ebf0b": {
                            "nonce": "0x00",
                            "balance": "0x063e39",
                            "code": "0x",
                            "storage": {}
                        }
                    },
                    "expectException": "TransactionException.TYPE_3_TX_INVALID_BLOB_VERSIONED_HASH"
                }
            ]
        },
        "config": {
            "blobSchedule": {
                "Cancun": {
                    "target": "0x03",
                    "max": "0x06",
                    "baseFeeUpdateFraction": "0x32f0ed"
                }
            }
        },
        "_info": {
            "hash": "0xded8f1b73d43655094563ba1d06c90ab56a6ddaad7e2c64b12d0c407db627e91",
            "comment": "`execution-spec-tests` generated test",
            "filling-transition-tool": "ethereum-spec-evm-resolver 0.0.5",
            "description": "Test function documentation:\n\n    Reject blob transactions with invalid blob hash version.\n\n    - Transaction with single blob with invalid version\n    - Transaction with multiple blobs all with invalid version\n    - Transaction with multiple blobs either with invalid version",
            "url": "https://github.com/ethereum/execution-spec-tests/blob/pectra-devnet-6@v1.0.0/tests/cancun/eip4844_blobs/test_blob_txs.py#L895",
            "fixture_format": "state_test",
            "reference-spec": "https://github.com/ethereum/EIPs/blob/master/EIPS/eip-4844.md",
            "reference-spec-version": "f0eb6a364aaf5ccb43516fa2c269a54fb881ecfd",
            "eels-resolution": {
                "git-url": "https://github.com/ethereum/execution-specs.git",
                "branch": "master",
                "commit": "9b95554a88d2a8485f8180254d0f6a493a593fda"
            }
        }
    },
    "tests/cancun/eip4844_blobs/test_blob_txs.py::test_invalid_blob_hash_versioning_single_tx[fork_Cancun-state_test--multiple_blobs_single_bad_hash_2]": {
        "env": {
            "currentCoinbase": "0x2adc25665018aa1fe0e6bc666dac8fc2697ff9ba",
            "currentGasLimit": "0x016345785d8a0000",
            "currentNumber": "0x01",
            "currentTimestamp": "0x03e8",
            "currentRandom": "0x0000000000000000000000000000000000000000000000000000000000000000",
            "currentDifficulty": "0x00",
            "currentBaseFee": "0x07",
            "currentExcessBlobGas": "0x0e0000"
        },
        "pre": {
            "0xa94f5374fce5edbc8e2a8697c15331677e6ebf0b": {
                "nonce": "0x00",
                "balance": "0x063e39",
                "code": "0x",
                "storage": {}
            }
        },
        "transaction": {
            "nonce": "0x00",
            "maxPriorityFeePerGas": "0x00",
            "maxFeePerGas": "0x07",
            "gasLimit": [
                "0x5208"
            ],
            "to": "0x8a0a19589531694250d570040a0c4b74576919b8",
            "value": [
                "0x01"
            ],
            "data": [
                "0x"
            ],
            "accessLists": [
                []
            ],
            "maxFeePerBlobGas": "0x01",
            "blobVersionedHashes": [
                "0x0000000000000000000000000000000000000000000000000000000000000001",
                "0x0100000000000000000000000000000000000000000000000000000000000002"
            ],
            "sender": "0xa94f5374fce5edbc8e2a8697c15331677e6ebf0b",
            "secretKey": "0x45a915e4d060149eb4365960e6a7a45f334393093061116b197e3240065ff2d8"
        },
        "post": {
            "Cancun": [
                {
                    "hash": "0x9677ac41dd0c94a3b0fb3f83ed9157ebc85c2cf228be8c588534f0e3b73fed7e",
                    "logs": "0x1dcc4de8dec75d7aab85b567b6ccd41ad312451b948a7413f0a142fd40d49347",
                    "txbytes": "0x03f8a701808007825208948a0a19589531694250d570040a0c4b74576919b80180c001f842a00000000000000000000000000000000000000000000000000000000000000001a0010000000000000000000000000000000000000000000000000000000000000201a04529feffee092307da9950e334e0529cfdd7b4e4923bc896894e4c2fc1298483a001d9b1fd4ada67d8c5c941c3cca76faa96ac92b649f12365564d0354880160c1",
                    "indexes": {
                        "data": 0,
                        "gas": 0,
                        "value": 0
                    },
                    "state": {
                        "0xa94f5374fce5edbc8e2a8697c15331677e6ebf0b": {
                            "nonce": "0x00",
                            "balance": "0x063e39",
                            "code": "0x",
                            "storage": {}
                        }
                    },
                    "expectException": "TransactionException.TYPE_3_TX_INVALID_BLOB_VERSIONED_HASH"
                }
            ]
        },
        "config": {
            "blobSchedule": {
                "Cancun": {
                    "target": "0x03",
                    "max": "0x06",
                    "baseFeeUpdateFraction": "0x32f0ed"
                }
            }
        },
        "_info": {
            "hash": "0x7b4298c2423c842ea2275bb80a9cdc6b5335df575cf8c5f9a6bb25b9ef364311",
            "comment": "`execution-spec-tests` generated test",
            "filling-transition-tool": "ethereum-spec-evm-resolver 0.0.5",
            "description": "Test function documentation:\n\n    Reject blob transactions with invalid blob hash version.\n\n    - Transaction with single blob with invalid version\n    - Transaction with multiple blobs all with invalid version\n    - Transaction with multiple blobs either with invalid version",
            "url": "https://github.com/ethereum/execution-spec-tests/blob/pectra-devnet-6@v1.0.0/tests/cancun/eip4844_blobs/test_blob_txs.py#L895",
            "fixture_format": "state_test",
            "reference-spec": "https://github.com/ethereum/EIPs/blob/master/EIPS/eip-4844.md",
            "reference-spec-version": "f0eb6a364aaf5ccb43516fa2c269a54fb881ecfd",
            "eels-resolution": {
                "git-url": "https://github.com/ethereum/execution-specs.git",
                "branch": "master",
                "commit": "9b95554a88d2a8485f8180254d0f6a493a593fda"
            }
        }
    },
    "tests/cancun/eip4844_blobs/test_blob_txs.py::test_invalid_blob_hash_versioning_single_tx[fork_Cancun-state_test--single_blob]": {
        "env": {
            "currentCoinbase": "0x2adc25665018aa1fe0e6bc666dac8fc2697ff9ba",
            "currentGasLimit": "0x016345785d8a0000",
            "currentNumber": "0x01",
            "currentTimestamp": "0x03e8",
            "currentRandom": "0x0000000000000000000000000000000000000000000000000000000000000000",
            "currentDifficulty": "0x00",
            "currentBaseFee": "0x07",
            "currentExcessBlobGas": "0x0e0000"
        },
        "pre": {
            "0xa94f5374fce5edbc8e2a8697c15331677e6ebf0b": {
                "nonce": "0x00",
                "balance": "0x043e39",
                "code": "0x",
                "storage": {}
            }
        },
        "transaction": {
            "nonce": "0x00",
            "maxPriorityFeePerGas": "0x00",
            "maxFeePerGas": "0x07",
            "gasLimit": [
                "0x5208"
            ],
            "to": "0x8a0a19589531694250d570040a0c4b74576919b8",
            "value": [
                "0x01"
            ],
            "data": [
                "0x"
            ],
            "accessLists": [
                []
            ],
            "maxFeePerBlobGas": "0x01",
            "blobVersionedHashes": [
                "0x0000000000000000000000000000000000000000000000000000000000000001"
            ],
            "sender": "0xa94f5374fce5edbc8e2a8697c15331677e6ebf0b",
            "secretKey": "0x45a915e4d060149eb4365960e6a7a45f334393093061116b197e3240065ff2d8"
        },
        "post": {
            "Cancun": [
                {
                    "hash": "0x60801982e5816ed2f91320cea42769e76120d71d863d48bf8ec4d905455ae9cd",
                    "logs": "0x1dcc4de8dec75d7aab85b567b6ccd41ad312451b948a7413f0a142fd40d49347",
                    "txbytes": "0x03f88501808007825208948a0a19589531694250d570040a0c4b74576919b80180c001e1a0000000000000000000000000000000000000000000000000000000000000000101a05d3a0e2765d3d7d0ea5e082fc0f3890b1a8f974f9546eeb9dcb84be4e6dcf9d2a0571038d1133a25109de421ac90089678db1fd542e813342ae594aed31848838b",
                    "indexes": {
                        "data": 0,
                        "gas": 0,
                        "value": 0
                    },
                    "state": {
                        "0xa94f5374fce5edbc8e2a8697c15331677e6ebf0b": {
                            "nonce": "0x00",
                            "balance": "0x043e39",
                            "code": "0x",
                            "storage": {}
                        }
                    },
                    "expectException": "TransactionException.TYPE_3_TX_INVALID_BLOB_VERSIONED_HASH"
                }
            ]
        },
        "config": {
            "blobSchedule": {
                "Cancun": {
                    "target": "0x03",
                    "max": "0x06",
                    "baseFeeUpdateFraction": "0x32f0ed"
                }
            }
        },
        "_info": {
            "hash": "0x5e8f95583361f1e2de1d7fc1b503611d52d13d4dded674a6fff7b6139cef03db",
            "comment": "`execution-spec-tests` generated test",
            "filling-transition-tool": "ethereum-spec-evm-resolver 0.0.5",
            "description": "Test function documentation:\n\n    Reject blob transactions with invalid blob hash version.\n\n    - Transaction with single blob with invalid version\n    - Transaction with multiple blobs all with invalid version\n    - Transaction with multiple blobs either with invalid version",
            "url": "https://github.com/ethereum/execution-spec-tests/blob/pectra-devnet-6@v1.0.0/tests/cancun/eip4844_blobs/test_blob_txs.py#L895",
            "fixture_format": "state_test",
            "reference-spec": "https://github.com/ethereum/EIPs/blob/master/EIPS/eip-4844.md",
            "reference-spec-version": "f0eb6a364aaf5ccb43516fa2c269a54fb881ecfd",
            "eels-resolution": {
                "git-url": "https://github.com/ethereum/execution-specs.git",
                "branch": "master",
                "commit": "9b95554a88d2a8485f8180254d0f6a493a593fda"
            }
        }
    },
    "tests/cancun/eip4844_blobs/test_blob_txs.py::test_invalid_blob_hash_versioning_single_tx[fork_Prague-state_test--multiple_blobs]": {
        "env": {
            "currentCoinbase": "0x2adc25665018aa1fe0e6bc666dac8fc2697ff9ba",
            "currentGasLimit": "0x016345785d8a0000",
            "currentNumber": "0x01",
            "currentTimestamp": "0x03e8",
            "currentRandom": "0x0000000000000000000000000000000000000000000000000000000000000000",
            "currentDifficulty": "0x00",
            "currentBaseFee": "0x07",
            "currentExcessBlobGas": "0x080000"
        },
        "pre": {
            "0xa94f5374fce5edbc8e2a8697c15331677e6ebf0b": {
                "nonce": "0x00",
                "balance": "0x063e39",
                "code": "0x",
                "storage": {}
            }
        },
        "transaction": {
            "nonce": "0x00",
            "maxPriorityFeePerGas": "0x00",
            "maxFeePerGas": "0x07",
            "gasLimit": [
                "0x5208"
            ],
            "to": "0x8a0a19589531694250d570040a0c4b74576919b8",
            "value": [
                "0x01"
            ],
            "data": [
                "0x"
            ],
            "accessLists": [
                []
            ],
            "maxFeePerBlobGas": "0x01",
            "blobVersionedHashes": [
                "0x0000000000000000000000000000000000000000000000000000000000000000",
                "0x0000000000000000000000000000000000000000000000000000000000000001"
            ],
            "sender": "0xa94f5374fce5edbc8e2a8697c15331677e6ebf0b",
            "secretKey": "0x45a915e4d060149eb4365960e6a7a45f334393093061116b197e3240065ff2d8"
        },
        "post": {
            "Prague": [
                {
                    "hash": "0x9677ac41dd0c94a3b0fb3f83ed9157ebc85c2cf228be8c588534f0e3b73fed7e",
                    "logs": "0x1dcc4de8dec75d7aab85b567b6ccd41ad312451b948a7413f0a142fd40d49347",
                    "txbytes": "0x03f8a701808007825208948a0a19589531694250d570040a0c4b74576919b80180c001f842a00000000000000000000000000000000000000000000000000000000000000000a0000000000000000000000000000000000000000000000000000000000000000101a07938c0093b943ce7ae729f92c7561e9f61b6f3b0ccbccd556aed2d4e8c518de5a04efec3699698e061c567dad2f1cc94dd80dd7aa3a1f9e0b762ffa07ad648a09b",
                    "indexes": {
                        "data": 0,
                        "gas": 0,
                        "value": 0
                    },
                    "state": {
                        "0xa94f5374fce5edbc8e2a8697c15331677e6ebf0b": {
                            "nonce": "0x00",
                            "balance": "0x063e39",
                            "code": "0x",
                            "storage": {}
                        }
                    },
                    "expectException": "TransactionException.TYPE_3_TX_INVALID_BLOB_VERSIONED_HASH"
                }
            ]
        },
        "config": {
            "blobSchedule": {
                "Cancun": {
                    "target": "0x03",
                    "max": "0x06",
                    "baseFeeUpdateFraction": "0x32f0ed"
                },
                "Prague": {
                    "target": "0x06",
                    "max": "0x09",
                    "baseFeeUpdateFraction": "0x4c6964"
                }
            }
        },
        "_info": {
            "hash": "0x21e44809dab8c1fe819691c53d93bdbdfea71ea43f2dc273687164c812b12b7b",
            "comment": "`execution-spec-tests` generated test",
            "filling-transition-tool": "ethereum-spec-evm-resolver 0.0.5",
            "description": "Test function documentation:\n\n    Reject blob transactions with invalid blob hash version.\n\n    - Transaction with single blob with invalid version\n    - Transaction with multiple blobs all with invalid version\n    - Transaction with multiple blobs either with invalid version",
            "url": "https://github.com/ethereum/execution-spec-tests/blob/pectra-devnet-6@v1.0.0/tests/cancun/eip4844_blobs/test_blob_txs.py#L895",
            "fixture_format": "state_test",
            "reference-spec": "https://github.com/ethereum/EIPs/blob/master/EIPS/eip-4844.md",
            "reference-spec-version": "f0eb6a364aaf5ccb43516fa2c269a54fb881ecfd",
            "eels-resolution": {
                "git-url": "https://github.com/ethereum/execution-specs.git",
                "branch": "devnets/prague/6",
                "commit": "fa33d824decac0a6ac55adc943e7f139b0719f0e"
            }
        }
    },
    "tests/cancun/eip4844_blobs/test_blob_txs.py::test_invalid_blob_hash_versioning_single_tx[fork_Prague-state_test--multiple_blobs_single_bad_hash_1]": {
        "env": {
            "currentCoinbase": "0x2adc25665018aa1fe0e6bc666dac8fc2697ff9ba",
            "currentGasLimit": "0x016345785d8a0000",
            "currentNumber": "0x01",
            "currentTimestamp": "0x03e8",
            "currentRandom": "0x0000000000000000000000000000000000000000000000000000000000000000",
            "currentDifficulty": "0x00",
            "currentBaseFee": "0x07",
            "currentExcessBlobGas": "0x080000"
        },
        "pre": {
            "0xa94f5374fce5edbc8e2a8697c15331677e6ebf0b": {
                "nonce": "0x00",
                "balance": "0x063e39",
                "code": "0x",
                "storage": {}
            }
        },
        "transaction": {
            "nonce": "0x00",
            "maxPriorityFeePerGas": "0x00",
            "maxFeePerGas": "0x07",
            "gasLimit": [
                "0x5208"
            ],
            "to": "0x8a0a19589531694250d570040a0c4b74576919b8",
            "value": [
                "0x01"
            ],
            "data": [
                "0x"
            ],
            "accessLists": [
                []
            ],
            "maxFeePerBlobGas": "0x01",
            "blobVersionedHashes": [
                "0x0100000000000000000000000000000000000000000000000000000000000001",
                "0x0000000000000000000000000000000000000000000000000000000000000002"
            ],
            "sender": "0xa94f5374fce5edbc8e2a8697c15331677e6ebf0b",
            "secretKey": "0x45a915e4d060149eb4365960e6a7a45f334393093061116b197e3240065ff2d8"
        },
        "post": {
            "Prague": [
                {
                    "hash": "0x9677ac41dd0c94a3b0fb3f83ed9157ebc85c2cf228be8c588534f0e3b73fed7e",
                    "logs": "0x1dcc4de8dec75d7aab85b567b6ccd41ad312451b948a7413f0a142fd40d49347",
                    "txbytes": "0x03f8a701808007825208948a0a19589531694250d570040a0c4b74576919b80180c001f842a00100000000000000000000000000000000000000000000000000000000000001a0000000000000000000000000000000000000000000000000000000000000000201a0fb13a9d668a6359a4af998a4b16c23fe85b0923952ddfa8a8776516bc1f45253a03640989c35e80958427f6edbb6578a0500247486c91241bb8df2e00c5f83e1fa",
                    "indexes": {
                        "data": 0,
                        "gas": 0,
                        "value": 0
                    },
                    "state": {
                        "0xa94f5374fce5edbc8e2a8697c15331677e6ebf0b": {
                            "nonce": "0x00",
                            "balance": "0x063e39",
                            "code": "0x",
                            "storage": {}
                        }
                    },
                    "expectException": "TransactionException.TYPE_3_TX_INVALID_BLOB_VERSIONED_HASH"
                }
            ]
        },
        "config": {
            "blobSchedule": {
                "Cancun": {
                    "target": "0x03",
                    "max": "0x06",
                    "baseFeeUpdateFraction": "0x32f0ed"
                },
                "Prague": {
                    "target": "0x06",
                    "max": "0x09",
                    "baseFeeUpdateFraction": "0x4c6964"
                }
            }
        },
        "_info": {
            "hash": "0x1b939e6991a9806996836e4924ee306fa255e37d20a65476174b2d7506e7e8be",
            "comment": "`execution-spec-tests` generated test",
            "filling-transition-tool": "ethereum-spec-evm-resolver 0.0.5",
            "description": "Test function documentation:\n\n    Reject blob transactions with invalid blob hash version.\n\n    - Transaction with single blob with invalid version\n    - Transaction with multiple blobs all with invalid version\n    - Transaction with multiple blobs either with invalid version",
            "url": "https://github.com/ethereum/execution-spec-tests/blob/pectra-devnet-6@v1.0.0/tests/cancun/eip4844_blobs/test_blob_txs.py#L895",
            "fixture_format": "state_test",
            "reference-spec": "https://github.com/ethereum/EIPs/blob/master/EIPS/eip-4844.md",
            "reference-spec-version": "f0eb6a364aaf5ccb43516fa2c269a54fb881ecfd",
            "eels-resolution": {
                "git-url": "https://github.com/ethereum/execution-specs.git",
                "branch": "devnets/prague/6",
                "commit": "fa33d824decac0a6ac55adc943e7f139b0719f0e"
            }
        }
    },
    "tests/cancun/eip4844_blobs/test_blob_txs.py::test_invalid_blob_hash_versioning_single_tx[fork_Prague-state_test--multiple_blobs_single_bad_hash_2]": {
        "env": {
            "currentCoinbase": "0x2adc25665018aa1fe0e6bc666dac8fc2697ff9ba",
            "currentGasLimit": "0x016345785d8a0000",
            "currentNumber": "0x01",
            "currentTimestamp": "0x03e8",
            "currentRandom": "0x0000000000000000000000000000000000000000000000000000000000000000",
            "currentDifficulty": "0x00",
            "currentBaseFee": "0x07",
            "currentExcessBlobGas": "0x080000"
        },
        "pre": {
            "0xa94f5374fce5edbc8e2a8697c15331677e6ebf0b": {
                "nonce": "0x00",
                "balance": "0x063e39",
                "code": "0x",
                "storage": {}
            }
        },
        "transaction": {
            "nonce": "0x00",
            "maxPriorityFeePerGas": "0x00",
            "maxFeePerGas": "0x07",
            "gasLimit": [
                "0x5208"
            ],
            "to": "0x8a0a19589531694250d570040a0c4b74576919b8",
            "value": [
                "0x01"
            ],
            "data": [
                "0x"
            ],
            "accessLists": [
                []
            ],
            "maxFeePerBlobGas": "0x01",
            "blobVersionedHashes": [
                "0x0000000000000000000000000000000000000000000000000000000000000001",
                "0x0100000000000000000000000000000000000000000000000000000000000002"
            ],
            "sender": "0xa94f5374fce5edbc8e2a8697c15331677e6ebf0b",
            "secretKey": "0x45a915e4d060149eb4365960e6a7a45f334393093061116b197e3240065ff2d8"
        },
        "post": {
            "Prague": [
                {
                    "hash": "0x9677ac41dd0c94a3b0fb3f83ed9157ebc85c2cf228be8c588534f0e3b73fed7e",
                    "logs": "0x1dcc4de8dec75d7aab85b567b6ccd41ad312451b948a7413f0a142fd40d49347",
                    "txbytes": "0x03f8a701808007825208948a0a19589531694250d570040a0c4b74576919b80180c001f842a00000000000000000000000000000000000000000000000000000000000000001a0010000000000000000000000000000000000000000000000000000000000000201a04529feffee092307da9950e334e0529cfdd7b4e4923bc896894e4c2fc1298483a001d9b1fd4ada67d8c5c941c3cca76faa96ac92b649f12365564d0354880160c1",
                    "indexes": {
                        "data": 0,
                        "gas": 0,
                        "value": 0
                    },
                    "state": {
                        "0xa94f5374fce5edbc8e2a8697c15331677e6ebf0b": {
                            "nonce": "0x00",
                            "balance": "0x063e39",
                            "code": "0x",
                            "storage": {}
                        }
                    },
                    "expectException": "TransactionException.TYPE_3_TX_INVALID_BLOB_VERSIONED_HASH"
                }
            ]
        },
        "config": {
            "blobSchedule": {
                "Cancun": {
                    "target": "0x03",
                    "max": "0x06",
                    "baseFeeUpdateFraction": "0x32f0ed"
                },
                "Prague": {
                    "target": "0x06",
                    "max": "0x09",
                    "baseFeeUpdateFraction": "0x4c6964"
                }
            }
        },
        "_info": {
            "hash": "0xfa5fabca6e6b98ea40fbd08149352ea244f9376b31acba7a01f8d8abeb88760e",
            "comment": "`execution-spec-tests` generated test",
            "filling-transition-tool": "ethereum-spec-evm-resolver 0.0.5",
            "description": "Test function documentation:\n\n    Reject blob transactions with invalid blob hash version.\n\n    - Transaction with single blob with invalid version\n    - Transaction with multiple blobs all with invalid version\n    - Transaction with multiple blobs either with invalid version",
            "url": "https://github.com/ethereum/execution-spec-tests/blob/pectra-devnet-6@v1.0.0/tests/cancun/eip4844_blobs/test_blob_txs.py#L895",
            "fixture_format": "state_test",
            "reference-spec": "https://github.com/ethereum/EIPs/blob/master/EIPS/eip-4844.md",
            "reference-spec-version": "f0eb6a364aaf5ccb43516fa2c269a54fb881ecfd",
            "eels-resolution": {
                "git-url": "https://github.com/ethereum/execution-specs.git",
                "branch": "devnets/prague/6",
                "commit": "fa33d824decac0a6ac55adc943e7f139b0719f0e"
            }
        }
    },
    "tests/cancun/eip4844_blobs/test_blob_txs.py::test_invalid_blob_hash_versioning_single_tx[fork_Prague-state_test--single_blob]": {
        "env": {
            "currentCoinbase": "0x2adc25665018aa1fe0e6bc666dac8fc2697ff9ba",
            "currentGasLimit": "0x016345785d8a0000",
            "currentNumber": "0x01",
            "currentTimestamp": "0x03e8",
            "currentRandom": "0x0000000000000000000000000000000000000000000000000000000000000000",
            "currentDifficulty": "0x00",
            "currentBaseFee": "0x07",
            "currentExcessBlobGas": "0x080000"
        },
        "pre": {
            "0xa94f5374fce5edbc8e2a8697c15331677e6ebf0b": {
                "nonce": "0x00",
                "balance": "0x043e39",
                "code": "0x",
                "storage": {}
            }
        },
        "transaction": {
            "nonce": "0x00",
            "maxPriorityFeePerGas": "0x00",
            "maxFeePerGas": "0x07",
            "gasLimit": [
                "0x5208"
            ],
            "to": "0x8a0a19589531694250d570040a0c4b74576919b8",
            "value": [
                "0x01"
            ],
            "data": [
                "0x"
            ],
            "accessLists": [
                []
            ],
            "maxFeePerBlobGas": "0x01",
            "blobVersionedHashes": [
                "0x0000000000000000000000000000000000000000000000000000000000000001"
            ],
            "sender": "0xa94f5374fce5edbc8e2a8697c15331677e6ebf0b",
            "secretKey": "0x45a915e4d060149eb4365960e6a7a45f334393093061116b197e3240065ff2d8"
        },
        "post": {
            "Prague": [
                {
                    "hash": "0x60801982e5816ed2f91320cea42769e76120d71d863d48bf8ec4d905455ae9cd",
                    "logs": "0x1dcc4de8dec75d7aab85b567b6ccd41ad312451b948a7413f0a142fd40d49347",
                    "txbytes": "0x03f88501808007825208948a0a19589531694250d570040a0c4b74576919b80180c001e1a0000000000000000000000000000000000000000000000000000000000000000101a05d3a0e2765d3d7d0ea5e082fc0f3890b1a8f974f9546eeb9dcb84be4e6dcf9d2a0571038d1133a25109de421ac90089678db1fd542e813342ae594aed31848838b",
                    "indexes": {
                        "data": 0,
                        "gas": 0,
                        "value": 0
                    },
                    "state": {
                        "0xa94f5374fce5edbc8e2a8697c15331677e6ebf0b": {
                            "nonce": "0x00",
                            "balance": "0x043e39",
                            "code": "0x",
                            "storage": {}
                        }
                    },
                    "expectException": "TransactionException.TYPE_3_TX_INVALID_BLOB_VERSIONED_HASH"
                }
            ]
        },
        "config": {
            "blobSchedule": {
                "Cancun": {
                    "target": "0x03",
                    "max": "0x06",
                    "baseFeeUpdateFraction": "0x32f0ed"
                },
                "Prague": {
                    "target": "0x06",
                    "max": "0x09",
                    "baseFeeUpdateFraction": "0x4c6964"
                }
            }
        },
        "_info": {
            "hash": "0x189a22e27f0c9628d595b8b5e2bb5df444d53590280a074e2a6fecb477b64cc8",
            "comment": "`execution-spec-tests` generated test",
            "filling-transition-tool": "ethereum-spec-evm-resolver 0.0.5",
            "description": "Test function documentation:\n\n    Reject blob transactions with invalid blob hash version.\n\n    - Transaction with single blob with invalid version\n    - Transaction with multiple blobs all with invalid version\n    - Transaction with multiple blobs either with invalid version",
            "url": "https://github.com/ethereum/execution-spec-tests/blob/pectra-devnet-6@v1.0.0/tests/cancun/eip4844_blobs/test_blob_txs.py#L895",
            "fixture_format": "state_test",
            "reference-spec": "https://github.com/ethereum/EIPs/blob/master/EIPS/eip-4844.md",
            "reference-spec-version": "f0eb6a364aaf5ccb43516fa2c269a54fb881ecfd",
            "eels-resolution": {
                "git-url": "https://github.com/ethereum/execution-specs.git",
                "branch": "devnets/prague/6",
                "commit": "fa33d824decac0a6ac55adc943e7f139b0719f0e"
            }
        }
    }
}