{
    "tests/prague/eip2537_bls_12_381_precompiles/test_bls12_variable_length_input_contracts.py::test_invalid_length_pairing[fork_Prague-state_test-precompile_address_17---zero_length]": {
        "env": {
            "currentCoinbase": "0x2adc25665018aa1fe0e6bc666dac8fc2697ff9ba",
            "currentGasLimit": "0x016345785d8a0000",
            "currentNumber": "0x01",
            "currentTimestamp": "0x03e8",
            "currentRandom": "0x0000000000000000000000000000000000000000000000000000000000000000",
            "currentDifficulty": "0x00",
            "currentBaseFee": "0x07",
            "currentExcessBlobGas": "0x00"
        },
        "pre": {
            "0xaaaaaaaaaaaaaaaaaaaaaaaaaaaaaaaaaaaaaaaa": {
                "nonce": "0x01",
                "balance": "0x00",
                "code": "0x6000600060006000600060116201a5e0f1600055",
                "storage": {}
            },
            "0xa94f5374fce5edbc8e2a8697c15331677e6ebf0b": {
                "nonce": "0x00",
                "balance": "0x038d7ea4c68000",
                "code": "0x",
                "storage": {}
            }
        },
        "transaction": {
            "nonce": "0x00",
            "gasPrice": "0x0a",
            "gasLimit": [
                "0x05f5e100"
            ],
            "to": "0xaaaaaaaaaaaaaaaaaaaaaaaaaaaaaaaaaaaaaaaa",
            "value": [
                "0x00"
            ],
            "data": [
                "0x"
            ],
            "sender": "0xa94f5374fce5edbc8e2a8697c15331677e6ebf0b",
            "secretKey": "0x45a915e4d060149eb4365960e6a7a45f334393093061116b197e3240065ff2d8"
        },
        "post": {
            "Prague": [
                {
                    "hash": "0x1efd5f995a56ca3c6f4d58213c05aa6ce83fef3e8f5b1e12eead9c2f5b471a07",
                    "logs": "0x1dcc4de8dec75d7aab85b567b6ccd41ad312451b948a7413f0a142fd40d49347",
                    "txbytes": "0xf861800a8405f5e10094aaaaaaaaaaaaaaaaaaaaaaaaaaaaaaaaaaaaaaaa808026a010826951ccb2b65daaeef3b518dd1f38a2d00848bb5f7d68655cf3739347b3e7a04a560b4bc021813bc3302fe8ea3ea5456fe5681b3519feb92ad402181196206d",
                    "indexes": {
                        "data": 0,
                        "gas": 0,
                        "value": 0
                    }
                }
            ]
        },
        "_info": {
            "hash": "0x2548ed9c671ad448a22b9c3b3cd3568d6f8aba48c8858e1bd513580efc84c2fb",
            "comment": "`execution-spec-tests` generated test",
            "filling-transition-tool": "evm version 1.14.4-unstable-abee40f2-20240516",
            "reference-spec": "https://github.com/ethereum/EIPs/blob/master/EIPS/eip-2537.md",
            "reference-spec-version": "cd0f016ad0c4c68b8b1f5c502ef61ab9353b6e5e"
        }
    },
    "tests/prague/eip2537_bls_12_381_precompiles/test_bls12_variable_length_input_contracts.py::test_invalid_length_pairing[fork_Prague-state_test-precompile_address_17---input_too_short]": {
        "env": {
            "currentCoinbase": "0x2adc25665018aa1fe0e6bc666dac8fc2697ff9ba",
            "currentGasLimit": "0x016345785d8a0000",
            "currentNumber": "0x01",
            "currentTimestamp": "0x03e8",
            "currentRandom": "0x0000000000000000000000000000000000000000000000000000000000000000",
            "currentDifficulty": "0x00",
            "currentBaseFee": "0x07",
            "currentExcessBlobGas": "0x00"
        },
        "pre": {
            "0xaaaaaaaaaaaaaaaaaaaaaaaaaaaaaaaaaaaaaaaa": {
                "nonce": "0x01",
                "balance": "0x00",
                "code": "0x6000600061017f6000600060116201a5e0f1600055600060006102ff60006000601162024dd8f16001556000600061047f6000600060116202f5d0f1600255600060006105ff60006000601162039dc8f16003556000600061077f600060006011620445c0f1600455600060006108ff6000600060116204edb8f160055560006000610a7f600060006011620595b0f160065560006000610bff60006000601162063da8f160075560006000610d7f6000600060116206e5a0f160085560006000610eff60006000601162078d98f16009556000600061107f60006000601162083590f1600a55600060006111ff6000600060116208dd88f1600b556000600061137f60006000601162098580f1600c55600060006114ff600060006011620a2d78f1600d556000600061167f600060006011620ad570f1600e55600060006117ff600060006011620b7d68f1600f556000600061197f600060006011620c2560f160105560006000611aff600060006011620ccd58f160115560006000611c7f600060006011620d7550f160125560006000611dff600060006011620e1d48f1601355",
                "storage": {}
            },
            "0xa94f5374fce5edbc8e2a8697c15331677e6ebf0b": {
                "nonce": "0x00",
                "balance": "0x038d7ea4c68000",
                "code": "0x",
                "storage": {}
            }
        },
        "transaction": {
            "nonce": "0x00",
            "gasPrice": "0x0a",
            "gasLimit": [
                "0x05f5e100"
            ],
            "to": "0xaaaaaaaaaaaaaaaaaaaaaaaaaaaaaaaaaaaaaaaa",
            "value": [
                "0x00"
            ],
            "data": [
                "0x"
            ],
            "sender": "0xa94f5374fce5edbc8e2a8697c15331677e6ebf0b",
            "secretKey": "0x45a915e4d060149eb4365960e6a7a45f334393093061116b197e3240065ff2d8"
        },
        "post": {
            "Prague": [
                {
                    "hash": "0x0d835a7e46884439a387fb40a637952c184bc1b1e7bf24c02162672652bd82a4",
                    "logs": "0x1dcc4de8dec75d7aab85b567b6ccd41ad312451b948a7413f0a142fd40d49347",
                    "txbytes": "0xf861800a8405f5e10094aaaaaaaaaaaaaaaaaaaaaaaaaaaaaaaaaaaaaaaa808026a010826951ccb2b65daaeef3b518dd1f38a2d00848bb5f7d68655cf3739347b3e7a04a560b4bc021813bc3302fe8ea3ea5456fe5681b3519feb92ad402181196206d",
                    "indexes": {
                        "data": 0,
                        "gas": 0,
                        "value": 0
                    }
                }
            ]
        },
        "_info": {
            "hash": "0x1a38d0a097d97164c012d07e414fe1ace913ed8c32b1d926e443eafbaae66e0a",
            "comment": "`execution-spec-tests` generated test",
            "filling-transition-tool": "evm version 1.14.4-unstable-abee40f2-20240516",
            "reference-spec": "https://github.com/ethereum/EIPs/blob/master/EIPS/eip-2537.md",
            "reference-spec-version": "cd0f016ad0c4c68b8b1f5c502ef61ab9353b6e5e"
        }
    },
    "tests/prague/eip2537_bls_12_381_precompiles/test_bls12_variable_length_input_contracts.py::test_invalid_length_pairing[fork_Prague-state_test-precompile_address_17---input_too_long]": {
        "env": {
            "currentCoinbase": "0x2adc25665018aa1fe0e6bc666dac8fc2697ff9ba",
            "currentGasLimit": "0x016345785d8a0000",
            "currentNumber": "0x01",
            "currentTimestamp": "0x03e8",
            "currentRandom": "0x0000000000000000000000000000000000000000000000000000000000000000",
            "currentDifficulty": "0x00",
            "currentBaseFee": "0x07",
            "currentExcessBlobGas": "0x00"
        },
        "pre": {
            "0xaaaaaaaaaaaaaaaaaaaaaaaaaaaaaaaaaaaaaaaa": {
                "nonce": "0x01",
                "balance": "0x00",
                "code": "0x600060006101816000600060116201a5e0f16000556000600061030160006000601162024dd8f1600155600060006104816000600060116202f5d0f16002556000600061060160006000601162039dc8f160035560006000610781600060006011620445c0f1600455600060006109016000600060116204edb8f160055560006000610a81600060006011620595b0f160065560006000610c0160006000601162063da8f160075560006000610d816000600060116206e5a0f160085560006000610f0160006000601162078d98f16009556000600061108160006000601162083590f1600a55600060006112016000600060116208dd88f1600b556000600061138160006000601162098580f1600c5560006000611501600060006011620a2d78f1600d5560006000611681600060006011620ad570f1600e5560006000611801600060006011620b7d68f1600f5560006000611981600060006011620c2560f160105560006000611b01600060006011620ccd58f160115560006000611c81600060006011620d7550f160125560006000611e01600060006011620e1d48f1601355",
                "storage": {}
            },
            "0xa94f5374fce5edbc8e2a8697c15331677e6ebf0b": {
                "nonce": "0x00",
                "balance": "0x038d7ea4c68000",
                "code": "0x",
                "storage": {}
            }
        },
        "transaction": {
            "nonce": "0x00",
            "gasPrice": "0x0a",
            "gasLimit": [
                "0x05f5e100"
            ],
            "to": "0xaaaaaaaaaaaaaaaaaaaaaaaaaaaaaaaaaaaaaaaa",
            "value": [
                "0x00"
            ],
            "data": [
                "0x"
            ],
            "sender": "0xa94f5374fce5edbc8e2a8697c15331677e6ebf0b",
            "secretKey": "0x45a915e4d060149eb4365960e6a7a45f334393093061116b197e3240065ff2d8"
        },
        "post": {
            "Prague": [
                {
                    "hash": "0xac25e90b65effb7320b4b85104929cf9369f04728931d29cd345564af7d9237c",
                    "logs": "0x1dcc4de8dec75d7aab85b567b6ccd41ad312451b948a7413f0a142fd40d49347",
                    "txbytes": "0xf861800a8405f5e10094aaaaaaaaaaaaaaaaaaaaaaaaaaaaaaaaaaaaaaaa808026a010826951ccb2b65daaeef3b518dd1f38a2d00848bb5f7d68655cf3739347b3e7a04a560b4bc021813bc3302fe8ea3ea5456fe5681b3519feb92ad402181196206d",
                    "indexes": {
                        "data": 0,
                        "gas": 0,
                        "value": 0
                    }
                }
            ]
        },
        "_info": {
            "hash": "0x8fe33557c8fb9a39223e4278fcd624f4485e955bdcae3e9e6ecc19529e30976c",
            "comment": "`execution-spec-tests` generated test",
            "filling-transition-tool": "evm version 1.14.4-unstable-abee40f2-20240516",
            "reference-spec": "https://github.com/ethereum/EIPs/blob/master/EIPS/eip-2537.md",
            "reference-spec-version": "cd0f016ad0c4c68b8b1f5c502ef61ab9353b6e5e"
        }
    }
}