{
    "tests/prague/eip2537_bls_12_381_precompiles/test_bls12_variable_length_input_contracts.py::test_valid_gas_pairing[fork_Prague-state_test-precompile_address_17---sufficient_gas]": {
        "env": {
            "currentCoinbase": "0x2adc25665018aa1fe0e6bc666dac8fc2697ff9ba",
            "currentGasLimit": "0x016345785d8a0000",
            "currentNumber": "0x01",
            "currentTimestamp": "0x03e8",
            "currentRandom": "0x0000000000000000000000000000000000000000000000000000000000000000",
            "currentDifficulty": "0x00",
            "currentBaseFee": "0x07",
            "currentExcessBlobGas": "0x00"
        },
        "pre": {
            "0xaaaaaaaaaaaaaaaaaaaaaaaaaaaaaaaaaaaaaaaa": {
                "nonce": "0x01",
                "balance": "0x00",
                "code": "0x600060006101806000600060116201a5e0f16000556000600061030060006000601162024dd8f1600155600060006104806000600060116202f5d0f16002556000600061060060006000601162039dc8f160035560006000610780600060006011620445c0f1600455600060006109006000600060116204edb8f160055560006000610a80600060006011620595b0f160065560006000610c0060006000601162063da8f160075560006000610d806000600060116206e5a0f160085560006000610f0060006000601162078d98f16009556000600061108060006000601162083590f1600a55600060006112006000600060116208dd88f1600b556000600061138060006000601162098580f1600c5560006000611500600060006011620a2d78f1600d5560006000611680600060006011620ad570f1600e5560006000611800600060006011620b7d68f1600f5560006000611980600060006011620c2560f160105560006000611b00600060006011620ccd58f160115560006000611c80600060006011620d7550f160125560006000611e00600060006011620e1d48f1601355",
                "storage": {}
            },
            "0xa94f5374fce5edbc8e2a8697c15331677e6ebf0b": {
                "nonce": "0x00",
                "balance": "0x038d7ea4c68000",
                "code": "0x",
                "storage": {}
            }
        },
        "transaction": {
            "nonce": "0x00",
            "gasPrice": "0x0a",
            "gasLimit": [
                "0x05f5e100"
            ],
            "to": "0xaaaaaaaaaaaaaaaaaaaaaaaaaaaaaaaaaaaaaaaa",
            "value": [
                "0x00"
            ],
            "data": [
                "0x"
            ],
            "sender": "0xa94f5374fce5edbc8e2a8697c15331677e6ebf0b",
            "secretKey": "0x45a915e4d060149eb4365960e6a7a45f334393093061116b197e3240065ff2d8"
        },
        "post": {
            "Prague": [
                {
                    "hash": "0x7d0303bd9acc27fd457db8e7920a6a32daa5d8e33837be81d09ee16783745ac2",
                    "logs": "0x1dcc4de8dec75d7aab85b567b6ccd41ad312451b948a7413f0a142fd40d49347",
                    "txbytes": "0xf861800a8405f5e10094aaaaaaaaaaaaaaaaaaaaaaaaaaaaaaaaaaaaaaaa808026a010826951ccb2b65daaeef3b518dd1f38a2d00848bb5f7d68655cf3739347b3e7a04a560b4bc021813bc3302fe8ea3ea5456fe5681b3519feb92ad402181196206d",
                    "indexes": {
                        "data": 0,
                        "gas": 0,
                        "value": 0
                    }
                }
            ]
        },
        "_info": {
            "hash": "0xf995e810d34aeaa7fe090fac95bdae32891f7b82462821bc9aef1a64d1f9c118",
            "comment": "`execution-spec-tests` generated test",
            "filling-transition-tool": "evm version 1.14.4-unstable-abee40f2-20240516",
            "reference-spec": "https://github.com/ethereum/EIPs/blob/master/EIPS/eip-2537.md",
            "reference-spec-version": "cd0f016ad0c4c68b8b1f5c502ef61ab9353b6e5e"
        }
    },
    "tests/prague/eip2537_bls_12_381_precompiles/test_bls12_variable_length_input_contracts.py::test_valid_gas_pairing[fork_Prague-state_test-precompile_address_17---extra_gas]": {
        "env": {
            "currentCoinbase": "0x2adc25665018aa1fe0e6bc666dac8fc2697ff9ba",
            "currentGasLimit": "0x016345785d8a0000",
            "currentNumber": "0x01",
            "currentTimestamp": "0x03e8",
            "currentRandom": "0x0000000000000000000000000000000000000000000000000000000000000000",
            "currentDifficulty": "0x00",
            "currentBaseFee": "0x07",
            "currentExcessBlobGas": "0x00"
        },
        "pre": {
            "0xaaaaaaaaaaaaaaaaaaaaaaaaaaaaaaaaaaaaaaaa": {
                "nonce": "0x01",
                "balance": "0x00",
                "code": "0x600060006101806000600060116201a5e1f16000556000600061030060006000601162024dd9f1600155600060006104806000600060116202f5d1f16002556000600061060060006000601162039dc9f160035560006000610780600060006011620445c1f1600455600060006109006000600060116204edb9f160055560006000610a80600060006011620595b1f160065560006000610c0060006000601162063da9f160075560006000610d806000600060116206e5a1f160085560006000610f0060006000601162078d99f16009556000600061108060006000601162083591f1600a55600060006112006000600060116208dd89f1600b556000600061138060006000601162098581f1600c5560006000611500600060006011620a2d79f1600d5560006000611680600060006011620ad571f1600e5560006000611800600060006011620b7d69f1600f5560006000611980600060006011620c2561f160105560006000611b00600060006011620ccd59f160115560006000611c80600060006011620d7551f160125560006000611e00600060006011620e1d49f1601355",
                "storage": {}
            },
            "0xa94f5374fce5edbc8e2a8697c15331677e6ebf0b": {
                "nonce": "0x00",
                "balance": "0x038d7ea4c68000",
                "code": "0x",
                "storage": {}
            }
        },
        "transaction": {
            "nonce": "0x00",
            "gasPrice": "0x0a",
            "gasLimit": [
                "0x05f5e100"
            ],
            "to": "0xaaaaaaaaaaaaaaaaaaaaaaaaaaaaaaaaaaaaaaaa",
            "value": [
                "0x00"
            ],
            "data": [
                "0x"
            ],
            "sender": "0xa94f5374fce5edbc8e2a8697c15331677e6ebf0b",
            "secretKey": "0x45a915e4d060149eb4365960e6a7a45f334393093061116b197e3240065ff2d8"
        },
        "post": {
            "Prague": [
                {
                    "hash": "0xff2d6dd7a3872b945428baca8aa4a34f91b12356c6945ee139ab675f72ff1935",
                    "logs": "0x1dcc4de8dec75d7aab85b567b6ccd41ad312451b948a7413f0a142fd40d49347",
                    "txbytes": "0xf861800a8405f5e10094aaaaaaaaaaaaaaaaaaaaaaaaaaaaaaaaaaaaaaaa808026a010826951ccb2b65daaeef3b518dd1f38a2d00848bb5f7d68655cf3739347b3e7a04a560b4bc021813bc3302fe8ea3ea5456fe5681b3519feb92ad402181196206d",
                    "indexes": {
                        "data": 0,
                        "gas": 0,
                        "value": 0
                    }
                }
            ]
        },
        "_info": {
            "hash": "0xd44183aa20647098a13871af645993a4dbc31744b17377175b40ac3e0950f7cf",
            "comment": "`execution-spec-tests` generated test",
            "filling-transition-tool": "evm version 1.14.4-unstable-abee40f2-20240516",
            "reference-spec": "https://github.com/ethereum/EIPs/blob/master/EIPS/eip-2537.md",
            "reference-spec-version": "cd0f016ad0c4c68b8b1f5c502ef61ab9353b6e5e"
        }
    }
}