{
    "tests/prague/eip2537_bls_12_381_precompiles/test_bls12_map_fp2_to_g2.py::test_gas[fork_Prague-state_test-extra_gas-]": {
        "env": {
            "currentCoinbase": "0x2adc25665018aa1fe0e6bc666dac8fc2697ff9ba",
            "currentGasLimit": "0x016345785d8a0000",
            "currentNumber": "0x01",
            "currentTimestamp": "0x03e8",
            "currentRandom": "0x0000000000000000000000000000000000000000000000000000000000000000",
            "currentDifficulty": "0x00",
            "currentBaseFee": "0x07",
            "currentExcessBlobGas": "0x00"
        },
        "pre": {
            "0xaaaaaaaaaaaaaaaaaaaaaaaaaaaaaaaaaaaaaaaa": {
                "nonce": "0x01",
                "balance": "0x00",
                "code": "0x3660006000376000600036600060006013620124f9f16000553d6001553d600060003e3d600020600255",
                "storage": {}
            },
            "0xa94f5374fce5edbc8e2a8697c15331677e6ebf0b": {
                "nonce": "0x00",
                "balance": "0x038d7ea4c68000",
                "code": "0x",
                "storage": {}
            }
        },
        "transaction": {
            "nonce": "0x00",
            "gasPrice": "0x0a",
            "gasLimit": [
                "0x99bb78"
            ],
            "to": "0xaaaaaaaaaaaaaaaaaaaaaaaaaaaaaaaaaaaaaaaa",
            "value": [
                "0x00"
            ],
            "data": [
                "0x0000000000000000000000000000000000000000000000000000000000000000000000000000000000000000000000000000000000000000000000000000000000000000000000000000000000000000000000000000000000000000000000000000000000000000000000000000000000000000000000000000000000000000"
            ],
            "sender": "0xa94f5374fce5edbc8e2a8697c15331677e6ebf0b",
            "secretKey": "0x45a915e4d060149eb4365960e6a7a45f334393093061116b197e3240065ff2d8"
        },
        "post": {
            "Prague": [
                {
                    "hash": "0xfea72ec07f3c181c45954b1ebc564978687e4398752810bdb0da16f89c524c06",
                    "logs": "0x1dcc4de8dec75d7aab85b567b6ccd41ad312451b948a7413f0a142fd40d49347",
                    "txbytes": "0xf8e1800a8399bb7894aaaaaaaaaaaaaaaaaaaaaaaaaaaaaaaaaaaaaaaa80b880000000000000000000000000000000000000000000000000000000000000000000000000000000000000000000000000000000000000000000000000000000000000000000000000000000000000000000000000000000000000000000000000000000000000000000000000000000000000000000000000000000000000000025a0533a248b3db9112504590e6fe24dee0f3b9bba2d34af13878e487838fd8f92a7a032b38fdb56f40fb8bf6fc912925bf9d4aeb05ce7cf381567d1b810c4f865db7c",
                    "indexes": {
                        "data": 0,
                        "gas": 0,
                        "value": 0
                    }
                }
            ]
        },
        "_info": {
            "hash": "0x65f5527a58ccacf0c1aab2b50b7578e6b5356ce66db3cade44c8ba1800fff9ba",
            "comment": "`execution-spec-tests` generated test",
            "filling-transition-tool": "evm version 1.14.4-unstable-abee40f2-20240516",
            "reference-spec": "https://github.com/ethereum/EIPs/blob/master/EIPS/eip-2537.md",
            "reference-spec-version": "cd0f016ad0c4c68b8b1f5c502ef61ab9353b6e5e"
        }
    },
    "tests/prague/eip2537_bls_12_381_precompiles/test_bls12_map_fp2_to_g2.py::test_gas[fork_Prague-state_test-insufficient_gas-]": {
        "env": {
            "currentCoinbase": "0x2adc25665018aa1fe0e6bc666dac8fc2697ff9ba",
            "currentGasLimit": "0x016345785d8a0000",
            "currentNumber": "0x01",
            "currentTimestamp": "0x03e8",
            "currentRandom": "0x0000000000000000000000000000000000000000000000000000000000000000",
            "currentDifficulty": "0x00",
            "currentBaseFee": "0x07",
            "currentExcessBlobGas": "0x00"
        },
        "pre": {
            "0xaaaaaaaaaaaaaaaaaaaaaaaaaaaaaaaaaaaaaaaa": {
                "nonce": "0x01",
                "balance": "0x00",
                "code": "0x3660006000376000600036600060006013620124f7f16000553d600155",
                "storage": {}
            },
            "0xa94f5374fce5edbc8e2a8697c15331677e6ebf0b": {
                "nonce": "0x00",
                "balance": "0x038d7ea4c68000",
                "code": "0x",
                "storage": {}
            }
        },
        "transaction": {
            "nonce": "0x00",
            "gasPrice": "0x0a",
            "gasLimit": [
                "0x99bb78"
            ],
            "to": "0xaaaaaaaaaaaaaaaaaaaaaaaaaaaaaaaaaaaaaaaa",
            "value": [
                "0x00"
            ],
            "data": [
                "0x0000000000000000000000000000000000000000000000000000000000000000000000000000000000000000000000000000000000000000000000000000000000000000000000000000000000000000000000000000000000000000000000000000000000000000000000000000000000000000000000000000000000000000"
            ],
            "sender": "0xa94f5374fce5edbc8e2a8697c15331677e6ebf0b",
            "secretKey": "0x45a915e4d060149eb4365960e6a7a45f334393093061116b197e3240065ff2d8"
        },
        "post": {
            "Prague": [
                {
                    "hash": "0xa9832f85c9efac815be72a49ad70a62e38a4a53649f80f62bac2e3b83e399655",
                    "logs": "0x1dcc4de8dec75d7aab85b567b6ccd41ad312451b948a7413f0a142fd40d49347",
                    "txbytes": "0xf8e1800a8399bb7894aaaaaaaaaaaaaaaaaaaaaaaaaaaaaaaaaaaaaaaa80b880000000000000000000000000000000000000000000000000000000000000000000000000000000000000000000000000000000000000000000000000000000000000000000000000000000000000000000000000000000000000000000000000000000000000000000000000000000000000000000000000000000000000000025a0533a248b3db9112504590e6fe24dee0f3b9bba2d34af13878e487838fd8f92a7a032b38fdb56f40fb8bf6fc912925bf9d4aeb05ce7cf381567d1b810c4f865db7c",
                    "indexes": {
                        "data": 0,
                        "gas": 0,
                        "value": 0
                    }
                }
            ]
        },
        "_info": {
            "hash": "0xdd75ab85d4479c0cd45bec4fef2e31190e992e38e6833fb4480ee61163d360da",
            "comment": "`execution-spec-tests` generated test",
            "filling-transition-tool": "evm version 1.14.4-unstable-abee40f2-20240516",
            "reference-spec": "https://github.com/ethereum/EIPs/blob/master/EIPS/eip-2537.md",
            "reference-spec-version": "cd0f016ad0c4c68b8b1f5c502ef61ab9353b6e5e"
        }
    }
}