{
    "tests/prague/eip2537_bls_12_381_precompiles/test_bls12_map_fp2_to_g2.py::test_valid[fork_Prague-state_test-bls_g2map_-]": {
        "env": {
            "currentCoinbase": "0x2adc25665018aa1fe0e6bc666dac8fc2697ff9ba",
            "currentGasLimit": "0x016345785d8a0000",
            "currentNumber": "0x01",
            "currentTimestamp": "0x03e8",
            "currentRandom": "0x0000000000000000000000000000000000000000000000000000000000000000",
            "currentDifficulty": "0x00",
            "currentBaseFee": "0x07",
            "currentExcessBlobGas": "0x00"
        },
        "pre": {
            "0xaaaaaaaaaaaaaaaaaaaaaaaaaaaaaaaaaaaaaaaa": {
                "nonce": "0x01",
                "balance": "0x00",
                "code": "0x3660006000376000600036600060006013620124f8f16000553d6001553d600060003e3d600020600255",
                "storage": {}
            },
            "0xa94f5374fce5edbc8e2a8697c15331677e6ebf0b": {
                "nonce": "0x00",
                "balance": "0x038d7ea4c68000",
                "code": "0x",
                "storage": {}
            }
        },
        "transaction": {
            "nonce": "0x00",
            "gasPrice": "0x0a",
            "gasLimit": [
                "0x99bb78"
            ],
            "to": "0xaaaaaaaaaaaaaaaaaaaaaaaaaaaaaaaaaaaaaaaa",
            "value": [
                "0x00"
            ],
            "data": [
                "0x0000000000000000000000000000000007355d25caf6e7f2f0cb2812ca0e513bd026ed09dda65b177500fa31714e09ea0ded3a078b526bed3307f804d4b93b040000000000000000000000000000000002829ce3c021339ccb5caf3e187f6370e1e2a311dec9b75363117063ab2015603ff52c3d3b98f19c2f65575e99e8b78c"
            ],
            "sender": "0xa94f5374fce5edbc8e2a8697c15331677e6ebf0b",
            "secretKey": "0x45a915e4d060149eb4365960e6a7a45f334393093061116b197e3240065ff2d8"
        },
        "post": {
            "Prague": [
                {
                    "hash": "0x86d19775e368d5f55da04fc514fd804f913913455c8249f9893821f1cb1c8721",
                    "logs": "0x1dcc4de8dec75d7aab85b567b6ccd41ad312451b948a7413f0a142fd40d49347",
                    "txbytes": "0xf8e0800a8399bb7894aaaaaaaaaaaaaaaaaaaaaaaaaaaaaaaaaaaaaaaa80b8800000000000000000000000000000000007355d25caf6e7f2f0cb2812ca0e513bd026ed09dda65b177500fa31714e09ea0ded3a078b526bed3307f804d4b93b040000000000000000000000000000000002829ce3c021339ccb5caf3e187f6370e1e2a311dec9b75363117063ab2015603ff52c3d3b98f19c2f65575e99e8b78c25a04dfc94086fbd92d76e772c965083cf6b46b37a3b841f665998166e4257a47db49f0ef212e1e1760ea8c6d198dd71b1612161472e07c9dbcff45d60f4103d117d",
                    "indexes": {
                        "data": 0,
                        "gas": 0,
                        "value": 0
                    }
                }
            ]
        },
        "_info": {
            "hash": "0x34a6bf9e4142c21eacf88c9235b152a5a55a48d5e670e142b6b7f72bca81f374",
            "comment": "`execution-spec-tests` generated test",
            "filling-transition-tool": "evm version 1.14.4-unstable-abee40f2-20240516",
            "reference-spec": "https://github.com/ethereum/EIPs/blob/master/EIPS/eip-2537.md",
            "reference-spec-version": "cd0f016ad0c4c68b8b1f5c502ef61ab9353b6e5e"
        }
    },
    "tests/prague/eip2537_bls_12_381_precompiles/test_bls12_map_fp2_to_g2.py::test_valid[fork_Prague-state_test-bls_g2map_616263-]": {
        "env": {
            "currentCoinbase": "0x2adc25665018aa1fe0e6bc666dac8fc2697ff9ba",
            "currentGasLimit": "0x016345785d8a0000",
            "currentNumber": "0x01",
            "currentTimestamp": "0x03e8",
            "currentRandom": "0x0000000000000000000000000000000000000000000000000000000000000000",
            "currentDifficulty": "0x00",
            "currentBaseFee": "0x07",
            "currentExcessBlobGas": "0x00"
        },
        "pre": {
            "0xaaaaaaaaaaaaaaaaaaaaaaaaaaaaaaaaaaaaaaaa": {
                "nonce": "0x01",
                "balance": "0x00",
                "code": "0x3660006000376000600036600060006013620124f8f16000553d6001553d600060003e3d600020600255",
                "storage": {}
            },
            "0xa94f5374fce5edbc8e2a8697c15331677e6ebf0b": {
                "nonce": "0x00",
                "balance": "0x038d7ea4c68000",
                "code": "0x",
                "storage": {}
            }
        },
        "transaction": {
            "nonce": "0x00",
            "gasPrice": "0x0a",
            "gasLimit": [
                "0x99bb78"
            ],
            "to": "0xaaaaaaaaaaaaaaaaaaaaaaaaaaaaaaaaaaaaaaaa",
            "value": [
                "0x00"
            ],
            "data": [
                "0x00000000000000000000000000000000138879a9559e24cecee8697b8b4ad32cced053138ab913b99872772dc753a2967ed50aabc907937aefb2439ba06cc50c000000000000000000000000000000000a1ae7999ea9bab1dcc9ef8887a6cb6e8f1e22566015428d220b7eec90ffa70ad1f624018a9ad11e78d588bd3617f9f2"
            ],
            "sender": "0xa94f5374fce5edbc8e2a8697c15331677e6ebf0b",
            "secretKey": "0x45a915e4d060149eb4365960e6a7a45f334393093061116b197e3240065ff2d8"
        },
        "post": {
            "Prague": [
                {
                    "hash": "0x90eb9da0928dc99dc95b0c3e933102aa7c7f4763aafd0a74ed53155b3bd7be84",
                    "logs": "0x1dcc4de8dec75d7aab85b567b6ccd41ad312451b948a7413f0a142fd40d49347",
                    "txbytes": "0xf8e1800a8399bb7894aaaaaaaaaaaaaaaaaaaaaaaaaaaaaaaaaaaaaaaa80b88000000000000000000000000000000000138879a9559e24cecee8697b8b4ad32cced053138ab913b99872772dc753a2967ed50aabc907937aefb2439ba06cc50c000000000000000000000000000000000a1ae7999ea9bab1dcc9ef8887a6cb6e8f1e22566015428d220b7eec90ffa70ad1f624018a9ad11e78d588bd3617f9f226a0a3c022b8e63cbfb0273f6841f255fa22ed2d9a7bf1eafebad6d6e8401b715b4ba02df0531641dd95fd6126ab79f93a031a05904aeef69301f8a5b9f9ba376f6642",
                    "indexes": {
                        "data": 0,
                        "gas": 0,
                        "value": 0
                    }
                }
            ]
        },
        "_info": {
            "hash": "0x294c82598d442cc2024a1b71b2bd4419c772e4e58e795bc35435b97cbda10d86",
            "comment": "`execution-spec-tests` generated test",
            "filling-transition-tool": "evm version 1.14.4-unstable-abee40f2-20240516",
            "reference-spec": "https://github.com/ethereum/EIPs/blob/master/EIPS/eip-2537.md",
            "reference-spec-version": "cd0f016ad0c4c68b8b1f5c502ef61ab9353b6e5e"
        }
    },
    "tests/prague/eip2537_bls_12_381_precompiles/test_bls12_map_fp2_to_g2.py::test_valid[fork_Prague-state_test-bls_g2map_6162636465663031-]": {
        "env": {
            "currentCoinbase": "0x2adc25665018aa1fe0e6bc666dac8fc2697ff9ba",
            "currentGasLimit": "0x016345785d8a0000",
            "currentNumber": "0x01",
            "currentTimestamp": "0x03e8",
            "currentRandom": "0x0000000000000000000000000000000000000000000000000000000000000000",
            "currentDifficulty": "0x00",
            "currentBaseFee": "0x07",
            "currentExcessBlobGas": "0x00"
        },
        "pre": {
            "0xaaaaaaaaaaaaaaaaaaaaaaaaaaaaaaaaaaaaaaaa": {
                "nonce": "0x01",
                "balance": "0x00",
                "code": "0x3660006000376000600036600060006013620124f8f16000553d6001553d600060003e3d600020600255",
                "storage": {}
            },
            "0xa94f5374fce5edbc8e2a8697c15331677e6ebf0b": {
                "nonce": "0x00",
                "balance": "0x038d7ea4c68000",
                "code": "0x",
                "storage": {}
            }
        },
        "transaction": {
            "nonce": "0x00",
            "gasPrice": "0x0a",
            "gasLimit": [
                "0x99bb78"
            ],
            "to": "0xaaaaaaaaaaaaaaaaaaaaaaaaaaaaaaaaaaaaaaaa",
            "value": [
                "0x00"
            ],
            "data": [
                "0x0000000000000000000000000000000018c16fe362b7dbdfa102e42bdfd3e2f4e6191d479437a59db4eb716986bf08ee1f42634db66bde97d6c16bbfd342b3b8000000000000000000000000000000000e37812ce1b146d998d5f92bdd5ada2a31bfd63dfe18311aa91637b5f279dd045763166aa1615e46a50d8d8f475f184e"
            ],
            "sender": "0xa94f5374fce5edbc8e2a8697c15331677e6ebf0b",
            "secretKey": "0x45a915e4d060149eb4365960e6a7a45f334393093061116b197e3240065ff2d8"
        },
        "post": {
            "Prague": [
                {
                    "hash": "0x604aaa6890025ce080e0bafcb4f1f42ed31ccda48011c318f6e47b16bb576a53",
                    "logs": "0x1dcc4de8dec75d7aab85b567b6ccd41ad312451b948a7413f0a142fd40d49347",
                    "txbytes": "0xf8e1800a8399bb7894aaaaaaaaaaaaaaaaaaaaaaaaaaaaaaaaaaaaaaaa80b8800000000000000000000000000000000018c16fe362b7dbdfa102e42bdfd3e2f4e6191d479437a59db4eb716986bf08ee1f42634db66bde97d6c16bbfd342b3b8000000000000000000000000000000000e37812ce1b146d998d5f92bdd5ada2a31bfd63dfe18311aa91637b5f279dd045763166aa1615e46a50d8d8f475f184e25a05cb385da32d398c42b2e9549524555d355785c4e3042c6fe1f2a0676d021ba18a0535589a94cfc66bce65f2595e9bc5960032301b2b682871b000fa9ca798e9e34",
                    "indexes": {
                        "data": 0,
                        "gas": 0,
                        "value": 0
                    }
                }
            ]
        },
        "_info": {
            "hash": "0xd523460c703e30ff7aff417f7268f7dc63daaf078ad59841b4476fb0f3c4e692",
            "comment": "`execution-spec-tests` generated test",
            "filling-transition-tool": "evm version 1.14.4-unstable-abee40f2-20240516",
            "reference-spec": "https://github.com/ethereum/EIPs/blob/master/EIPS/eip-2537.md",
            "reference-spec-version": "cd0f016ad0c4c68b8b1f5c502ef61ab9353b6e5e"
        }
    },
    "tests/prague/eip2537_bls_12_381_precompiles/test_bls12_map_fp2_to_g2.py::test_valid[fork_Prague-state_test-bls_g2map_713132385f717171-]": {
        "env": {
            "currentCoinbase": "0x2adc25665018aa1fe0e6bc666dac8fc2697ff9ba",
            "currentGasLimit": "0x016345785d8a0000",
            "currentNumber": "0x01",
            "currentTimestamp": "0x03e8",
            "currentRandom": "0x0000000000000000000000000000000000000000000000000000000000000000",
            "currentDifficulty": "0x00",
            "currentBaseFee": "0x07",
            "currentExcessBlobGas": "0x00"
        },
        "pre": {
            "0xaaaaaaaaaaaaaaaaaaaaaaaaaaaaaaaaaaaaaaaa": {
                "nonce": "0x01",
                "balance": "0x00",
                "code": "0x3660006000376000600036600060006013620124f8f16000553d6001553d600060003e3d600020600255",
                "storage": {}
            },
            "0xa94f5374fce5edbc8e2a8697c15331677e6ebf0b": {
                "nonce": "0x00",
                "balance": "0x038d7ea4c68000",
                "code": "0x",
                "storage": {}
            }
        },
        "transaction": {
            "nonce": "0x00",
            "gasPrice": "0x0a",
            "gasLimit": [
                "0x99bb78"
            ],
            "to": "0xaaaaaaaaaaaaaaaaaaaaaaaaaaaaaaaaaaaaaaaa",
            "value": [
                "0x00"
            ],
            "data": [
                "0x0000000000000000000000000000000008d4a0997b9d52fecf99427abb721f0fa779479963315fe21c6445250de7183e3f63bfdf86570da8929489e421d4ee950000000000000000000000000000000016cb4ccad91ec95aab070f22043916cd6a59c4ca94097f7f510043d48515526dc8eaaea27e586f09151ae613688d5a89"
            ],
            "sender": "0xa94f5374fce5edbc8e2a8697c15331677e6ebf0b",
            "secretKey": "0x45a915e4d060149eb4365960e6a7a45f334393093061116b197e3240065ff2d8"
        },
        "post": {
            "Prague": [
                {
                    "hash": "0x7dd3a9d10ba1471a7d8b145a125a473aaf2ceab75b9b189f1f84680f05892b8b",
                    "logs": "0x1dcc4de8dec75d7aab85b567b6ccd41ad312451b948a7413f0a142fd40d49347",
                    "txbytes": "0xf8e1800a8399bb7894aaaaaaaaaaaaaaaaaaaaaaaaaaaaaaaaaaaaaaaa80b8800000000000000000000000000000000008d4a0997b9d52fecf99427abb721f0fa779479963315fe21c6445250de7183e3f63bfdf86570da8929489e421d4ee950000000000000000000000000000000016cb4ccad91ec95aab070f22043916cd6a59c4ca94097f7f510043d48515526dc8eaaea27e586f09151ae613688d5a8926a0188998b5a4fb7433339bd9732fbe39140080e31ad9edfa32941023129ee5da79a005bdc654e9ff0294efd90300c3a52966fa6a78ebd0eed2a07870367d0336d979",
                    "indexes": {
                        "data": 0,
                        "gas": 0,
                        "value": 0
                    }
                }
            ]
        },
        "_info": {
            "hash": "0x02d153beb9ded1cfefc5e61f3fe872a3417d2324040ebe120bcc1941ab1df189",
            "comment": "`execution-spec-tests` generated test",
            "filling-transition-tool": "evm version 1.14.4-unstable-abee40f2-20240516",
            "reference-spec": "https://github.com/ethereum/EIPs/blob/master/EIPS/eip-2537.md",
            "reference-spec-version": "cd0f016ad0c4c68b8b1f5c502ef61ab9353b6e5e"
        }
    },
    "tests/prague/eip2537_bls_12_381_precompiles/test_bls12_map_fp2_to_g2.py::test_valid[fork_Prague-state_test-bls_g2map_613531325f616161-]": {
        "env": {
            "currentCoinbase": "0x2adc25665018aa1fe0e6bc666dac8fc2697ff9ba",
            "currentGasLimit": "0x016345785d8a0000",
            "currentNumber": "0x01",
            "currentTimestamp": "0x03e8",
            "currentRandom": "0x0000000000000000000000000000000000000000000000000000000000000000",
            "currentDifficulty": "0x00",
            "currentBaseFee": "0x07",
            "currentExcessBlobGas": "0x00"
        },
        "pre": {
            "0xaaaaaaaaaaaaaaaaaaaaaaaaaaaaaaaaaaaaaaaa": {
                "nonce": "0x01",
                "balance": "0x00",
                "code": "0x3660006000376000600036600060006013620124f8f16000553d6001553d600060003e3d600020600255",
                "storage": {}
            },
            "0xa94f5374fce5edbc8e2a8697c15331677e6ebf0b": {
                "nonce": "0x00",
                "balance": "0x038d7ea4c68000",
                "code": "0x",
                "storage": {}
            }
        },
        "transaction": {
            "nonce": "0x00",
            "gasPrice": "0x0a",
            "gasLimit": [
                "0x99bb78"
            ],
            "to": "0xaaaaaaaaaaaaaaaaaaaaaaaaaaaaaaaaaaaaaaaa",
            "value": [
                "0x00"
            ],
            "data": [
                "0x0000000000000000000000000000000003f80ce4ff0ca2f576d797a3660e3f65b274285c054feccc3215c879e2c0589d376e83ede13f93c32f05da0f68fd6a1000000000000000000000000000000000006488a837c5413746d868d1efb7232724da10eca410b07d8b505b9363bdccf0a1fc0029bad07d65b15ccfe6dd25e20d"
            ],
            "sender": "0xa94f5374fce5edbc8e2a8697c15331677e6ebf0b",
            "secretKey": "0x45a915e4d060149eb4365960e6a7a45f334393093061116b197e3240065ff2d8"
        },
        "post": {
            "Prague": [
                {
                    "hash": "0xec93fc3c0583be656b9ead62588b3b61a8e194c4e61edee45311e49219146b11",
                    "logs": "0x1dcc4de8dec75d7aab85b567b6ccd41ad312451b948a7413f0a142fd40d49347",
                    "txbytes": "0xf8e1800a8399bb7894aaaaaaaaaaaaaaaaaaaaaaaaaaaaaaaaaaaaaaaa80b8800000000000000000000000000000000003f80ce4ff0ca2f576d797a3660e3f65b274285c054feccc3215c879e2c0589d376e83ede13f93c32f05da0f68fd6a1000000000000000000000000000000000006488a837c5413746d868d1efb7232724da10eca410b07d8b505b9363bdccf0a1fc0029bad07d65b15ccfe6dd25e20d25a0eaf8aacfe33948af9b300d6dcf3d5fa6d4fecf80f55551bbc3891abe2d24210aa00e38ba36b2ababea52a4f94e5b9c2d97c40910446457c9a198384875fba163d1",
                    "indexes": {
                        "data": 0,
                        "gas": 0,
                        "value": 0
                    }
                }
            ]
        },
        "_info": {
            "hash": "0xa435114fb148a6405186a2f08593d43d00f9aecd12564cce990b519f0e833c00",
            "comment": "`execution-spec-tests` generated test",
            "filling-transition-tool": "evm version 1.14.4-unstable-abee40f2-20240516",
            "reference-spec": "https://github.com/ethereum/EIPs/blob/master/EIPS/eip-2537.md",
            "reference-spec-version": "cd0f016ad0c4c68b8b1f5c502ef61ab9353b6e5e"
        }
    },
    "tests/prague/eip2537_bls_12_381_precompiles/test_bls12_map_fp2_to_g2.py::test_valid[fork_Prague-state_test-fp_0-]": {
        "env": {
            "currentCoinbase": "0x2adc25665018aa1fe0e6bc666dac8fc2697ff9ba",
            "currentGasLimit": "0x016345785d8a0000",
            "currentNumber": "0x01",
            "currentTimestamp": "0x03e8",
            "currentRandom": "0x0000000000000000000000000000000000000000000000000000000000000000",
            "currentDifficulty": "0x00",
            "currentBaseFee": "0x07",
            "currentExcessBlobGas": "0x00"
        },
        "pre": {
            "0xaaaaaaaaaaaaaaaaaaaaaaaaaaaaaaaaaaaaaaaa": {
                "nonce": "0x01",
                "balance": "0x00",
                "code": "0x3660006000376000600036600060006013620124f8f16000553d6001553d600060003e3d600020600255",
                "storage": {}
            },
            "0xa94f5374fce5edbc8e2a8697c15331677e6ebf0b": {
                "nonce": "0x00",
                "balance": "0x038d7ea4c68000",
                "code": "0x",
                "storage": {}
            }
        },
        "transaction": {
            "nonce": "0x00",
            "gasPrice": "0x0a",
            "gasLimit": [
                "0x99bb78"
            ],
            "to": "0xaaaaaaaaaaaaaaaaaaaaaaaaaaaaaaaaaaaaaaaa",
            "value": [
                "0x00"
            ],
            "data": [
                "0x0000000000000000000000000000000000000000000000000000000000000000000000000000000000000000000000000000000000000000000000000000000000000000000000000000000000000000000000000000000000000000000000000000000000000000000000000000000000000000000000000000000000000000"
            ],
            "sender": "0xa94f5374fce5edbc8e2a8697c15331677e6ebf0b",
            "secretKey": "0x45a915e4d060149eb4365960e6a7a45f334393093061116b197e3240065ff2d8"
        },
        "post": {
            "Prague": [
                {
                    "hash": "0x3e4a8ed59207c697e04d0ed6d85ad5bd60feaf7986a553ed09a4e6277efd695b",
                    "logs": "0x1dcc4de8dec75d7aab85b567b6ccd41ad312451b948a7413f0a142fd40d49347",
                    "txbytes": "0xf8e1800a8399bb7894aaaaaaaaaaaaaaaaaaaaaaaaaaaaaaaaaaaaaaaa80b880000000000000000000000000000000000000000000000000000000000000000000000000000000000000000000000000000000000000000000000000000000000000000000000000000000000000000000000000000000000000000000000000000000000000000000000000000000000000000000000000000000000000000025a0533a248b3db9112504590e6fe24dee0f3b9bba2d34af13878e487838fd8f92a7a032b38fdb56f40fb8bf6fc912925bf9d4aeb05ce7cf381567d1b810c4f865db7c",
                    "indexes": {
                        "data": 0,
                        "gas": 0,
                        "value": 0
                    }
                }
            ]
        },
        "_info": {
            "hash": "0x4bd696c4a8ca04f1962c638e854f206534a9fbc1cfcbba0820b3a97245d3d6bd",
            "comment": "`execution-spec-tests` generated test",
            "filling-transition-tool": "evm version 1.14.4-unstable-abee40f2-20240516",
            "reference-spec": "https://github.com/ethereum/EIPs/blob/master/EIPS/eip-2537.md",
            "reference-spec-version": "cd0f016ad0c4c68b8b1f5c502ef61ab9353b6e5e"
        }
    },
    "tests/prague/eip2537_bls_12_381_precompiles/test_bls12_map_fp2_to_g2.py::test_valid[fork_Prague-state_test-fp_p_minus_1-]": {
        "env": {
            "currentCoinbase": "0x2adc25665018aa1fe0e6bc666dac8fc2697ff9ba",
            "currentGasLimit": "0x016345785d8a0000",
            "currentNumber": "0x01",
            "currentTimestamp": "0x03e8",
            "currentRandom": "0x0000000000000000000000000000000000000000000000000000000000000000",
            "currentDifficulty": "0x00",
            "currentBaseFee": "0x07",
            "currentExcessBlobGas": "0x00"
        },
        "pre": {
            "0xaaaaaaaaaaaaaaaaaaaaaaaaaaaaaaaaaaaaaaaa": {
                "nonce": "0x01",
                "balance": "0x00",
                "code": "0x3660006000376000600036600060006013620124f8f16000553d6001553d600060003e3d600020600255",
                "storage": {}
            },
            "0xa94f5374fce5edbc8e2a8697c15331677e6ebf0b": {
                "nonce": "0x00",
                "balance": "0x038d7ea4c68000",
                "code": "0x",
                "storage": {}
            }
        },
        "transaction": {
            "nonce": "0x00",
            "gasPrice": "0x0a",
            "gasLimit": [
                "0x99bb78"
            ],
            "to": "0xaaaaaaaaaaaaaaaaaaaaaaaaaaaaaaaaaaaaaaaa",
            "value": [
                "0x00"
            ],
            "data": [
                "0x000000000000000000000000000000001a0111ea397fe69a4b1ba7b6434bacd764774b84f38512bf6730d2a0f6b0f6241eabfffeb153ffffb9feffffffffaaaa000000000000000000000000000000001a0111ea397fe69a4b1ba7b6434bacd764774b84f38512bf6730d2a0f6b0f6241eabfffeb153ffffb9feffffffffaaaa"
            ],
            "sender": "0xa94f5374fce5edbc8e2a8697c15331677e6ebf0b",
            "secretKey": "0x45a915e4d060149eb4365960e6a7a45f334393093061116b197e3240065ff2d8"
        },
        "post": {
            "Prague": [
                {
                    "hash": "0x6960f5a46144e1a80f3a39ea295f20f8dbeadd168aa3be8df35bcf9b3c32ce45",
                    "logs": "0x1dcc4de8dec75d7aab85b567b6ccd41ad312451b948a7413f0a142fd40d49347",
                    "txbytes": "0xf8e1800a8399bb7894aaaaaaaaaaaaaaaaaaaaaaaaaaaaaaaaaaaaaaaa80b880000000000000000000000000000000001a0111ea397fe69a4b1ba7b6434bacd764774b84f38512bf6730d2a0f6b0f6241eabfffeb153ffffb9feffffffffaaaa000000000000000000000000000000001a0111ea397fe69a4b1ba7b6434bacd764774b84f38512bf6730d2a0f6b0f6241eabfffeb153ffffb9feffffffffaaaa26a03c3483bfacaa3524426dc92ca83c9ded403afac7c8a2c55479b9513f811ddf68a02f4f3b58055ddab684ee6c4e3891410fc89c30cfe123ed94cb5a27b2d0381ee9",
                    "indexes": {
                        "data": 0,
                        "gas": 0,
                        "value": 0
                    }
                }
            ]
        },
        "_info": {
            "hash": "0xe3bc3846f85eff149a64d4688e449500558362ae1a13b5eeae802ecc600e4a75",
            "comment": "`execution-spec-tests` generated test",
            "filling-transition-tool": "evm version 1.14.4-unstable-abee40f2-20240516",
            "reference-spec": "https://github.com/ethereum/EIPs/blob/master/EIPS/eip-2537.md",
            "reference-spec-version": "cd0f016ad0c4c68b8b1f5c502ef61ab9353b6e5e"
        }
    }
}